{
	"contracts/voting.sol": {
		"Voting": {
			"abi": [
				{
					"anonymous": false,
					"inputs": [
						{
							"indexed": true,
							"internalType": "uint256",
							"name": "electionId",
							"type": "uint256"
						}
					],
					"name": "ElectionClosed",
					"type": "event"
				},
				{
					"anonymous": false,
					"inputs": [
						{
							"indexed": true,
							"internalType": "uint256",
							"name": "electionId",
							"type": "uint256"
						},
						{
							"indexed": false,
							"internalType": "string",
							"name": "name",
							"type": "string"
						},
						{
							"indexed": true,
							"internalType": "address",
							"name": "creator",
							"type": "address"
						},
						{
							"indexed": false,
							"internalType": "uint256",
							"name": "endTime",
							"type": "uint256"
						},
						{
							"indexed": false,
							"internalType": "bool",
							"name": "isAnonymous",
							"type": "bool"
						}
					],
					"name": "ElectionCreated",
					"type": "event"
				},
				{
					"anonymous": false,
					"inputs": [
						{
							"indexed": true,
							"internalType": "uint256",
							"name": "electionId",
							"type": "uint256"
						}
					],
					"name": "ElectionDeleted",
					"type": "event"
				},
				{
					"anonymous": false,
					"inputs": [
						{
							"indexed": true,
							"internalType": "uint256",
							"name": "electionId",
							"type": "uint256"
						},
						{
							"indexed": false,
							"internalType": "string",
							"name": "option",
							"type": "string"
						},
						{
							"indexed": true,
							"internalType": "address",
							"name": "voter",
							"type": "address"
						}
					],
					"name": "Voted",
					"type": "event"
				},
				{
					"inputs": [
						{
							"internalType": "uint256",
							"name": "electionId",
							"type": "uint256"
						},
						{
							"internalType": "string",
							"name": "newName",
							"type": "string"
						}
					],
					"name": "changeElectionName",
					"outputs": [],
					"stateMutability": "nonpayable",
					"type": "function"
				},
				{
					"inputs": [
						{
							"internalType": "uint256",
							"name": "electionId",
							"type": "uint256"
						},
						{
							"internalType": "uint256",
							"name": "index",
							"type": "uint256"
						},
						{
							"internalType": "string",
							"name": "newName",
							"type": "string"
						}
					],
					"name": "changeOptionName",
					"outputs": [],
					"stateMutability": "nonpayable",
					"type": "function"
				},
				{
					"inputs": [
						{
							"internalType": "uint256",
							"name": "electionId",
							"type": "uint256"
						}
					],
					"name": "closeElection",
					"outputs": [],
					"stateMutability": "nonpayable",
					"type": "function"
				},
				{
					"inputs": [
						{
							"internalType": "string",
							"name": "name",
							"type": "string"
						},
						{
							"internalType": "string[]",
							"name": "options",
							"type": "string[]"
						},
						{
							"internalType": "uint256",
							"name": "durationInSeconds",
							"type": "uint256"
						},
						{
							"internalType": "bool",
							"name": "isAnonymous",
							"type": "bool"
						}
					],
					"name": "createElection",
					"outputs": [],
					"stateMutability": "nonpayable",
					"type": "function"
				},
				{
					"inputs": [
						{
							"internalType": "uint256",
							"name": "electionId",
							"type": "uint256"
						}
					],
					"name": "deleteElection",
					"outputs": [],
					"stateMutability": "nonpayable",
					"type": "function"
				},
				{
					"inputs": [],
					"name": "electionCount",
					"outputs": [
						{
							"internalType": "uint256",
							"name": "",
							"type": "uint256"
						}
					],
					"stateMutability": "view",
					"type": "function"
				},
				{
					"inputs": [],
					"name": "getActiveElections",
					"outputs": [
						{
							"internalType": "uint256[]",
							"name": "",
							"type": "uint256[]"
						}
					],
					"stateMutability": "view",
					"type": "function"
				},
				{
					"inputs": [
						{
							"internalType": "uint256",
							"name": "electionId",
							"type": "uint256"
						}
					],
					"name": "getElectionInfo",
					"outputs": [
						{
							"internalType": "string",
							"name": "name",
							"type": "string"
						},
						{
							"internalType": "string[]",
							"name": "options",
							"type": "string[]"
						},
						{
							"internalType": "bool",
							"name": "active",
							"type": "bool"
						},
						{
							"internalType": "address",
							"name": "creator",
							"type": "address"
						},
						{
							"internalType": "uint256",
							"name": "endTime",
							"type": "uint256"
						},
						{
							"internalType": "bool",
							"name": "isAnonymous",
							"type": "bool"
						},
						{
							"internalType": "uint256",
							"name": "totalVotes",
							"type": "uint256"
						}
					],
					"stateMutability": "view",
					"type": "function"
				},
				{
					"inputs": [],
					"name": "getInactiveElections",
					"outputs": [
						{
							"internalType": "uint256[]",
							"name": "",
							"type": "uint256[]"
						}
					],
					"stateMutability": "view",
					"type": "function"
				},
				{
					"inputs": [
						{
							"internalType": "uint256",
							"name": "electionId",
							"type": "uint256"
						}
					],
					"name": "getResults",
					"outputs": [
						{
							"internalType": "string[]",
							"name": "",
							"type": "string[]"
						},
						{
							"internalType": "uint256[]",
							"name": "",
							"type": "uint256[]"
						}
					],
					"stateMutability": "view",
					"type": "function"
				},
				{
					"inputs": [
						{
							"internalType": "uint256",
							"name": "electionId",
							"type": "uint256"
						}
					],
					"name": "getWinners",
					"outputs": [
						{
							"internalType": "string[]",
							"name": "",
							"type": "string[]"
						}
					],
					"stateMutability": "view",
					"type": "function"
				},
				{
					"inputs": [
						{
							"internalType": "uint256",
							"name": "electionId",
							"type": "uint256"
						},
						{
							"internalType": "address",
							"name": "voter",
							"type": "address"
						}
					],
					"name": "hasVoted",
					"outputs": [
						{
							"internalType": "bool",
							"name": "",
							"type": "bool"
						}
					],
					"stateMutability": "view",
					"type": "function"
				},
				{
					"inputs": [
						{
							"internalType": "uint256",
							"name": "electionId",
							"type": "uint256"
						},
						{
							"internalType": "string",
							"name": "option",
							"type": "string"
						}
					],
					"name": "vote",
					"outputs": [],
					"stateMutability": "nonpayable",
					"type": "function"
				}
			],
			"devdoc": {
				"kind": "dev",
				"methods": {},
				"version": 1
			},
			"evm": {
				"assembly": "    /* \"contracts/voting.sol\":61:6871  contract Voting {... */\n  mstore(0x40, 0x80)\n  callvalue\n  dup1\n  iszero\n  tag_1\n  jumpi\n  0x00\n  dup1\n  revert\ntag_1:\n  pop\n  dataSize(sub_0)\n  dup1\n  dataOffset(sub_0)\n  0x00\n  codecopy\n  0x00\n  return\nstop\n\nsub_0: assembly {\n        /* \"contracts/voting.sol\":61:6871  contract Voting {... */\n      mstore(0x40, 0x80)\n      callvalue\n      dup1\n      iszero\n      tag_1\n      jumpi\n      0x00\n      dup1\n      revert\n    tag_1:\n      pop\n      jumpi(tag_2, lt(calldatasize, 0x04))\n      shr(0xe0, calldataload(0x00))\n      dup1\n      0x740c47d4\n      gt\n      tag_16\n      jumpi\n      dup1\n      0x8a3b63b0\n      gt\n      tag_17\n      jumpi\n      dup1\n      0x8a3b63b0\n      eq\n      tag_12\n      jumpi\n      dup1\n      0x997d2830\n      eq\n      tag_13\n      jumpi\n      dup1\n      0xce99b5df\n      eq\n      tag_14\n      jumpi\n      dup1\n      0xd02fbae3\n      eq\n      tag_15\n      jumpi\n      jump(tag_2)\n    tag_17:\n      dup1\n      0x740c47d4\n      eq\n      tag_9\n      jumpi\n      dup1\n      0x7b553792\n      eq\n      tag_10\n      jumpi\n      dup1\n      0x81a60c0d\n      eq\n      tag_11\n      jumpi\n      jump(tag_2)\n    tag_16:\n      dup1\n      0x09e33d07\n      eq\n      tag_3\n      jumpi\n      dup1\n      0x24108475\n      eq\n      tag_4\n      jumpi\n      dup1\n      0x40f46a4f\n      eq\n      tag_5\n      jumpi\n      dup1\n      0x43859632\n      eq\n      tag_6\n      jumpi\n      dup1\n      0x5c0487c8\n      eq\n      tag_7\n      jumpi\n      dup1\n      0x6b1426a4\n      eq\n      tag_8\n      jumpi\n    tag_2:\n      0x00\n      dup1\n      revert\n        /* \"contracts/voting.sol\":2557:2845  function closeElection(uint256 electionId) public onlyCreator(electionId) electionExists(electionId) {... */\n    tag_3:\n      tag_18\n      0x04\n      dup1\n      calldatasize\n      sub\n      dup2\n      add\n      swap1\n      tag_19\n      swap2\n      swap1\n      tag_20\n      jump\t// in\n    tag_19:\n      tag_21\n      jump\t// in\n    tag_18:\n      stop\n        /* \"contracts/voting.sol\":1732:2549  function vote(uint256 electionId, string memory option) public electionExists(electionId) {... */\n    tag_4:\n      tag_22\n      0x04\n      dup1\n      calldatasize\n      sub\n      dup2\n      add\n      swap1\n      tag_23\n      swap2\n      swap1\n      tag_24\n      jump\t// in\n    tag_23:\n      tag_25\n      jump\t// in\n    tag_22:\n      stop\n        /* \"contracts/voting.sol\":1118:1724  function createElection(string memory name, string[] memory options, uint256 durationInSeconds, bool isAnonymous) public {... */\n    tag_5:\n      tag_26\n      0x04\n      dup1\n      calldatasize\n      sub\n      dup2\n      add\n      swap1\n      tag_27\n      swap2\n      swap1\n      tag_28\n      jump\t// in\n    tag_27:\n      tag_29\n      jump\t// in\n    tag_26:\n      stop\n        /* \"contracts/voting.sol\":4424:4594  function hasVoted(uint256 electionId, address voter) public view electionExists(electionId) returns (bool) {... */\n    tag_6:\n      tag_30\n      0x04\n      dup1\n      calldatasize\n      sub\n      dup2\n      add\n      swap1\n      tag_31\n      swap2\n      swap1\n      tag_32\n      jump\t// in\n    tag_31:\n      tag_33\n      jump\t// in\n    tag_30:\n      mload(0x40)\n      tag_34\n      swap2\n      swap1\n      tag_35\n      jump\t// in\n    tag_34:\n      mload(0x40)\n      dup1\n      swap2\n      sub\n      swap1\n      return\n        /* \"contracts/voting.sol\":5620:6178  function getInactiveElections() public view returns (uint256[] memory) {... */\n    tag_7:\n      tag_36\n      tag_37\n      jump\t// in\n    tag_36:\n      mload(0x40)\n      tag_38\n      swap2\n      swap1\n      tag_39\n      jump\t// in\n    tag_38:\n      mload(0x40)\n      dup1\n      swap2\n      sub\n      swap1\n      return\n        /* \"contracts/voting.sol\":3596:4416  function getWinners(uint256 electionId) public view electionExists(electionId) returns (string[] memory) {... */\n    tag_8:\n      tag_40\n      0x04\n      dup1\n      calldatasize\n      sub\n      dup2\n      add\n      swap1\n      tag_41\n      swap2\n      swap1\n      tag_20\n      jump\t// in\n    tag_41:\n      tag_42\n      jump\t// in\n    tag_40:\n      mload(0x40)\n      tag_43\n      swap2\n      swap1\n      tag_44\n      jump\t// in\n    tag_43:\n      mload(0x40)\n      dup1\n      swap2\n      sub\n      swap1\n      return\n        /* \"contracts/voting.sol\":2853:3174  function deleteElection(uint256 electionId) public onlyCreator(electionId) electionExists(electionId) {... */\n    tag_9:\n      tag_45\n      0x04\n      dup1\n      calldatasize\n      sub\n      dup2\n      add\n      swap1\n      tag_46\n      swap2\n      swap1\n      tag_20\n      jump\t// in\n    tag_46:\n      tag_47\n      jump\t// in\n    tag_45:\n      stop\n        /* \"contracts/voting.sol\":6473:6868  function changeOptionName(uint256 electionId, uint index, string memory newName) public onlyCreator(electionId) electionExists(electionId) {... */\n    tag_10:\n      tag_48\n      0x04\n      dup1\n      calldatasize\n      sub\n      dup2\n      add\n      swap1\n      tag_49\n      swap2\n      swap1\n      tag_50\n      jump\t// in\n    tag_49:\n      tag_51\n      jump\t// in\n    tag_48:\n      stop\n        /* \"contracts/voting.sol\":3182:3588  function getResults(uint256 electionId) public view electionExists(electionId) returns (string[] memory, uint256[] memory) {... */\n    tag_11:\n      tag_52\n      0x04\n      dup1\n      calldatasize\n      sub\n      dup2\n      add\n      swap1\n      tag_53\n      swap2\n      swap1\n      tag_20\n      jump\t// in\n    tag_53:\n      tag_54\n      jump\t// in\n    tag_52:\n      mload(0x40)\n      tag_55\n      swap3\n      swap2\n      swap1\n      tag_56\n      jump\t// in\n    tag_55:\n      mload(0x40)\n      dup1\n      swap2\n      sub\n      swap1\n      return\n        /* \"contracts/voting.sol\":5062:5612  function getActiveElections() public view returns (uint256[] memory) {... */\n    tag_12:\n      tag_57\n      tag_58\n      jump\t// in\n    tag_57:\n      mload(0x40)\n      tag_59\n      swap2\n      swap1\n      tag_39\n      jump\t// in\n    tag_59:\n      mload(0x40)\n      dup1\n      swap2\n      sub\n      swap1\n      return\n        /* \"contracts/voting.sol\":435:463  uint256 public electionCount */\n    tag_13:\n      tag_60\n      tag_61\n      jump\t// in\n    tag_60:\n      mload(0x40)\n      tag_62\n      swap2\n      swap1\n      tag_63\n      jump\t// in\n    tag_62:\n      mload(0x40)\n      dup1\n      swap2\n      sub\n      swap1\n      return\n        /* \"contracts/voting.sol\":4602:5054  function getElectionInfo(uint256 electionId) public view electionExists(electionId) returns (... */\n    tag_14:\n      tag_64\n      0x04\n      dup1\n      calldatasize\n      sub\n      dup2\n      add\n      swap1\n      tag_65\n      swap2\n      swap1\n      tag_20\n      jump\t// in\n    tag_65:\n      tag_66\n      jump\t// in\n    tag_64:\n      mload(0x40)\n      tag_67\n      swap8\n      swap7\n      swap6\n      swap5\n      swap4\n      swap3\n      swap2\n      swap1\n      tag_68\n      jump\t// in\n    tag_67:\n      mload(0x40)\n      dup1\n      swap2\n      sub\n      swap1\n      return\n        /* \"contracts/voting.sol\":6186:6465  function changeElectionName(uint256 electionId, string memory newName) public onlyCreator(electionId) electionExists(electionId) {... */\n    tag_15:\n      tag_69\n      0x04\n      dup1\n      calldatasize\n      sub\n      dup2\n      add\n      swap1\n      tag_70\n      swap2\n      swap1\n      tag_24\n      jump\t// in\n    tag_70:\n      tag_71\n      jump\t// in\n    tag_69:\n      stop\n        /* \"contracts/voting.sol\":2557:2845  function closeElection(uint256 electionId) public onlyCreator(electionId) electionExists(electionId) {... */\n    tag_21:\n        /* \"contracts/voting.sol\":2619:2629  electionId */\n      dup1\n        /* \"contracts/voting.sol\":872:881  elections */\n      0x00\n        /* \"contracts/voting.sol\":872:893  elections[electionId] */\n      dup1\n        /* \"contracts/voting.sol\":882:892  electionId */\n      dup3\n        /* \"contracts/voting.sol\":872:893  elections[electionId] */\n      dup2\n      mstore\n      0x20\n      add\n      swap1\n      dup2\n      mstore\n      0x20\n      add\n      0x00\n      keccak256\n        /* \"contracts/voting.sol\":872:901  elections[electionId].creator */\n      0x04\n      add\n      0x01\n      swap1\n      sload\n      swap1\n      0x0100\n      exp\n      swap1\n      div\n      0xffffffffffffffffffffffffffffffffffffffff\n      and\n        /* \"contracts/voting.sol\":858:901  msg.sender == elections[electionId].creator */\n      0xffffffffffffffffffffffffffffffffffffffff\n      and\n        /* \"contracts/voting.sol\":858:868  msg.sender */\n      caller\n        /* \"contracts/voting.sol\":858:901  msg.sender == elections[electionId].creator */\n      0xffffffffffffffffffffffffffffffffffffffff\n      and\n      eq\n        /* \"contracts/voting.sol\":850:926  require(msg.sender == elections[electionId].creator, \"Only creator allowed\") */\n      tag_73\n      jumpi\n      mload(0x40)\n      0x08c379a000000000000000000000000000000000000000000000000000000000\n      dup2\n      mstore\n      0x04\n      add\n      tag_74\n      swap1\n      tag_75\n      jump\t// in\n    tag_74:\n      mload(0x40)\n      dup1\n      swap2\n      sub\n      swap1\n      revert\n    tag_73:\n        /* \"contracts/voting.sol\":2646:2656  electionId */\n      dup2\n        /* \"contracts/voting.sol\":1030:1031  0 */\n      0x00\n        /* \"contracts/voting.sol\":1017:1027  electionId */\n      dup2\n        /* \"contracts/voting.sol\":1017:1031  electionId > 0 */\n      gt\n        /* \"contracts/voting.sol\":1017:1062  electionId > 0 && electionId <= electionCount */\n      dup1\n      iszero\n      tag_77\n      jumpi\n      pop\n        /* \"contracts/voting.sol\":1049:1062  electionCount */\n      sload(0x01)\n        /* \"contracts/voting.sol\":1035:1045  electionId */\n      dup2\n        /* \"contracts/voting.sol\":1035:1062  electionId <= electionCount */\n      gt\n      iszero\n        /* \"contracts/voting.sol\":1017:1062  electionId > 0 && electionId <= electionCount */\n    tag_77:\n        /* \"contracts/voting.sol\":1009:1090  require(electionId > 0 && electionId <= electionCount, \"Election does not exist\") */\n      tag_78\n      jumpi\n      mload(0x40)\n      0x08c379a000000000000000000000000000000000000000000000000000000000\n      dup2\n      mstore\n      0x04\n      add\n      tag_79\n      swap1\n      tag_80\n      jump\t// in\n    tag_79:\n      mload(0x40)\n      dup1\n      swap2\n      sub\n      swap1\n      revert\n    tag_78:\n        /* \"contracts/voting.sol\":2669:2687  Election storage e */\n      0x00\n        /* \"contracts/voting.sol\":2690:2699  elections */\n      dup1\n        /* \"contracts/voting.sol\":2690:2711  elections[electionId] */\n      0x00\n        /* \"contracts/voting.sol\":2700:2710  electionId */\n      dup6\n        /* \"contracts/voting.sol\":2690:2711  elections[electionId] */\n      dup2\n      mstore\n      0x20\n      add\n      swap1\n      dup2\n      mstore\n      0x20\n      add\n      0x00\n      keccak256\n        /* \"contracts/voting.sol\":2669:2711  Election storage e = elections[electionId] */\n      swap1\n      pop\n        /* \"contracts/voting.sol\":2730:2731  e */\n      dup1\n        /* \"contracts/voting.sol\":2730:2738  e.active */\n      0x04\n      add\n      0x00\n      swap1\n      sload\n      swap1\n      0x0100\n      exp\n      swap1\n      div\n      0xff\n      and\n        /* \"contracts/voting.sol\":2722:2766  require(e.active, \"Election already closed\") */\n      tag_82\n      jumpi\n      mload(0x40)\n      0x08c379a000000000000000000000000000000000000000000000000000000000\n      dup2\n      mstore\n      0x04\n      add\n      tag_83\n      swap1\n      tag_84\n      jump\t// in\n    tag_83:\n      mload(0x40)\n      dup1\n      swap2\n      sub\n      swap1\n      revert\n    tag_82:\n        /* \"contracts/voting.sol\":2790:2795  false */\n      0x00\n        /* \"contracts/voting.sol\":2779:2780  e */\n      dup2\n        /* \"contracts/voting.sol\":2779:2787  e.active */\n      0x04\n      add\n      0x00\n        /* \"contracts/voting.sol\":2779:2795  e.active = false */\n      0x0100\n      exp\n      dup2\n      sload\n      dup2\n      0xff\n      mul\n      not\n      and\n      swap1\n      dup4\n      iszero\n      iszero\n      mul\n      or\n      swap1\n      sstore\n      pop\n        /* \"contracts/voting.sol\":2826:2836  electionId */\n      dup4\n        /* \"contracts/voting.sol\":2811:2837  ElectionClosed(electionId) */\n      0x393c4b8e62f1195313cf17dcf00793c668ddfc35881cd8015559c074f6d61e83\n      mload(0x40)\n      mload(0x40)\n      dup1\n      swap2\n      sub\n      swap1\n      log2\n        /* \"contracts/voting.sol\":2658:2845  {... */\n      pop\n        /* \"contracts/voting.sol\":937:938  _ */\n      pop\n        /* \"contracts/voting.sol\":2557:2845  function closeElection(uint256 electionId) public onlyCreator(electionId) electionExists(electionId) {... */\n      pop\n      pop\n      jump\t// out\n        /* \"contracts/voting.sol\":1732:2549  function vote(uint256 electionId, string memory option) public electionExists(electionId) {... */\n    tag_25:\n        /* \"contracts/voting.sol\":1810:1820  electionId */\n      dup2\n        /* \"contracts/voting.sol\":1030:1031  0 */\n      0x00\n        /* \"contracts/voting.sol\":1017:1027  electionId */\n      dup2\n        /* \"contracts/voting.sol\":1017:1031  electionId > 0 */\n      gt\n        /* \"contracts/voting.sol\":1017:1062  electionId > 0 && electionId <= electionCount */\n      dup1\n      iszero\n      tag_86\n      jumpi\n      pop\n        /* \"contracts/voting.sol\":1049:1062  electionCount */\n      sload(0x01)\n        /* \"contracts/voting.sol\":1035:1045  electionId */\n      dup2\n        /* \"contracts/voting.sol\":1035:1062  electionId <= electionCount */\n      gt\n      iszero\n        /* \"contracts/voting.sol\":1017:1062  electionId > 0 && electionId <= electionCount */\n    tag_86:\n        /* \"contracts/voting.sol\":1009:1090  require(electionId > 0 && electionId <= electionCount, \"Election does not exist\") */\n      tag_87\n      jumpi\n      mload(0x40)\n      0x08c379a000000000000000000000000000000000000000000000000000000000\n      dup2\n      mstore\n      0x04\n      add\n      tag_88\n      swap1\n      tag_80\n      jump\t// in\n    tag_88:\n      mload(0x40)\n      dup1\n      swap2\n      sub\n      swap1\n      revert\n    tag_87:\n        /* \"contracts/voting.sol\":1833:1851  Election storage e */\n      0x00\n        /* \"contracts/voting.sol\":1854:1863  elections */\n      dup1\n        /* \"contracts/voting.sol\":1854:1875  elections[electionId] */\n      0x00\n        /* \"contracts/voting.sol\":1864:1874  electionId */\n      dup6\n        /* \"contracts/voting.sol\":1854:1875  elections[electionId] */\n      dup2\n      mstore\n      0x20\n      add\n      swap1\n      dup2\n      mstore\n      0x20\n      add\n      0x00\n      keccak256\n        /* \"contracts/voting.sol\":1833:1875  Election storage e = elections[electionId] */\n      swap1\n      pop\n        /* \"contracts/voting.sol\":1894:1895  e */\n      dup1\n        /* \"contracts/voting.sol\":1894:1902  e.active */\n      0x04\n      add\n      0x00\n      swap1\n      sload\n      swap1\n      0x0100\n      exp\n      swap1\n      div\n      0xff\n      and\n        /* \"contracts/voting.sol\":1886:1925  require(e.active, \"Election is closed\") */\n      tag_90\n      jumpi\n      mload(0x40)\n      0x08c379a000000000000000000000000000000000000000000000000000000000\n      dup2\n      mstore\n      0x04\n      add\n      tag_91\n      swap1\n      tag_92\n      jump\t// in\n    tag_91:\n      mload(0x40)\n      dup1\n      swap2\n      sub\n      swap1\n      revert\n    tag_90:\n        /* \"contracts/voting.sol\":1963:1964  e */\n      dup1\n        /* \"contracts/voting.sol\":1963:1972  e.endTime */\n      0x05\n      add\n      sload\n        /* \"contracts/voting.sol\":1944:1959  block.timestamp */\n      timestamp\n        /* \"contracts/voting.sol\":1944:1972  block.timestamp <= e.endTime */\n      gt\n      iszero\n        /* \"contracts/voting.sol\":1936:1995  require(block.timestamp <= e.endTime, \"Election has ended\") */\n      tag_93\n      jumpi\n      mload(0x40)\n      0x08c379a000000000000000000000000000000000000000000000000000000000\n      dup2\n      mstore\n      0x04\n      add\n      tag_94\n      swap1\n      tag_95\n      jump\t// in\n    tag_94:\n      mload(0x40)\n      dup1\n      swap2\n      sub\n      swap1\n      revert\n    tag_93:\n        /* \"contracts/voting.sol\":2015:2016  e */\n      dup1\n        /* \"contracts/voting.sol\":2015:2025  e.hasVoted */\n      0x03\n      add\n        /* \"contracts/voting.sol\":2015:2037  e.hasVoted[msg.sender] */\n      0x00\n        /* \"contracts/voting.sol\":2026:2036  msg.sender */\n      caller\n        /* \"contracts/voting.sol\":2015:2037  e.hasVoted[msg.sender] */\n      0xffffffffffffffffffffffffffffffffffffffff\n      and\n      0xffffffffffffffffffffffffffffffffffffffff\n      and\n      dup2\n      mstore\n      0x20\n      add\n      swap1\n      dup2\n      mstore\n      0x20\n      add\n      0x00\n      keccak256\n      0x00\n      swap1\n      sload\n      swap1\n      0x0100\n      exp\n      swap1\n      div\n      0xff\n      and\n        /* \"contracts/voting.sol\":2014:2037  !e.hasVoted[msg.sender] */\n      iszero\n        /* \"contracts/voting.sol\":2006:2055  require(!e.hasVoted[msg.sender], \"Already voted\") */\n      tag_96\n      jumpi\n      mload(0x40)\n      0x08c379a000000000000000000000000000000000000000000000000000000000\n      dup2\n      mstore\n      0x04\n      add\n      tag_97\n      swap1\n      tag_98\n      jump\t// in\n    tag_97:\n      mload(0x40)\n      dup1\n      swap2\n      sub\n      swap1\n      revert\n    tag_96:\n        /* \"contracts/voting.sol\":2068:2084  bool validOption */\n      0x00\n        /* \"contracts/voting.sol\":2108:2114  uint i */\n      dup1\n        /* \"contracts/voting.sol\":2103:2314  for (uint i = 0; i < e.options.length; i++) {... */\n    tag_99:\n        /* \"contracts/voting.sol\":2124:2125  e */\n      dup3\n        /* \"contracts/voting.sol\":2124:2133  e.options */\n      0x01\n      add\n        /* \"contracts/voting.sol\":2124:2140  e.options.length */\n      dup1\n      sload\n      swap1\n      pop\n        /* \"contracts/voting.sol\":2120:2121  i */\n      dup2\n        /* \"contracts/voting.sol\":2120:2140  i < e.options.length */\n      lt\n        /* \"contracts/voting.sol\":2103:2314  for (uint i = 0; i < e.options.length; i++) {... */\n      iszero\n      tag_100\n      jumpi\n        /* \"contracts/voting.sol\":2216:2222  option */\n      dup5\n        /* \"contracts/voting.sol\":2200:2224  keccak256(bytes(option)) */\n      dup1\n      mload\n      swap1\n      0x20\n      add\n      keccak256\n        /* \"contracts/voting.sol\":2182:2183  e */\n      dup4\n        /* \"contracts/voting.sol\":2182:2191  e.options */\n      0x01\n      add\n        /* \"contracts/voting.sol\":2192:2193  i */\n      dup3\n        /* \"contracts/voting.sol\":2182:2194  e.options[i] */\n      dup2\n      sload\n      dup2\n      lt\n      tag_102\n      jumpi\n      tag_103\n      tag_104\n      jump\t// in\n    tag_103:\n    tag_102:\n      swap1\n      0x00\n      mstore\n      keccak256(0x00, 0x20)\n      add\n        /* \"contracts/voting.sol\":2166:2196  keccak256(bytes(e.options[i])) */\n      mload(0x40)\n      tag_106\n      swap2\n      swap1\n      tag_107\n      jump\t// in\n    tag_106:\n      mload(0x40)\n      dup1\n      swap2\n      sub\n      swap1\n      keccak256\n        /* \"contracts/voting.sol\":2166:2224  keccak256(bytes(e.options[i])) == keccak256(bytes(option)) */\n      sub\n        /* \"contracts/voting.sol\":2162:2303  if (keccak256(bytes(e.options[i])) == keccak256(bytes(option))) {... */\n      tag_108\n      jumpi\n        /* \"contracts/voting.sol\":2259:2263  true */\n      0x01\n        /* \"contracts/voting.sol\":2245:2263  validOption = true */\n      swap2\n      pop\n        /* \"contracts/voting.sol\":2282:2287  break */\n      jump(tag_100)\n        /* \"contracts/voting.sol\":2162:2303  if (keccak256(bytes(e.options[i])) == keccak256(bytes(option))) {... */\n    tag_108:\n        /* \"contracts/voting.sol\":2142:2145  i++ */\n      dup1\n      dup1\n      0x01\n      add\n      swap2\n      pop\n      pop\n        /* \"contracts/voting.sol\":2103:2314  for (uint i = 0; i < e.options.length; i++) {... */\n      jump(tag_99)\n    tag_100:\n      pop\n        /* \"contracts/voting.sol\":2332:2343  validOption */\n      dup1\n        /* \"contracts/voting.sol\":2324:2362  require(validOption, \"Invalid option\") */\n      tag_109\n      jumpi\n      mload(0x40)\n      0x08c379a000000000000000000000000000000000000000000000000000000000\n      dup2\n      mstore\n      0x04\n      add\n      tag_110\n      swap1\n      tag_111\n      jump\t// in\n    tag_110:\n      mload(0x40)\n      dup1\n      swap2\n      sub\n      swap1\n      revert\n    tag_109:\n        /* \"contracts/voting.sol\":2375:2376  e */\n      dup2\n        /* \"contracts/voting.sol\":2375:2382  e.votes */\n      0x02\n      add\n        /* \"contracts/voting.sol\":2383:2389  option */\n      dup5\n        /* \"contracts/voting.sol\":2375:2390  e.votes[option] */\n      mload(0x40)\n      tag_112\n      swap2\n      swap1\n      tag_113\n      jump\t// in\n    tag_112:\n      swap1\n      dup2\n      mstore\n      0x20\n      add\n      mload(0x40)\n      dup1\n      swap2\n      sub\n      swap1\n      keccak256\n      0x00\n        /* \"contracts/voting.sol\":2375:2392  e.votes[option]++ */\n      dup2\n      sload\n      dup1\n      swap3\n      swap2\n      swap1\n      tag_114\n      swap1\n      tag_115\n      jump\t// in\n    tag_114:\n      swap2\n      swap1\n      pop\n      sstore\n      pop\n        /* \"contracts/voting.sol\":2428:2432  true */\n      0x01\n        /* \"contracts/voting.sol\":2403:2404  e */\n      dup3\n        /* \"contracts/voting.sol\":2403:2413  e.hasVoted */\n      0x03\n      add\n        /* \"contracts/voting.sol\":2403:2425  e.hasVoted[msg.sender] */\n      0x00\n        /* \"contracts/voting.sol\":2414:2424  msg.sender */\n      caller\n        /* \"contracts/voting.sol\":2403:2425  e.hasVoted[msg.sender] */\n      0xffffffffffffffffffffffffffffffffffffffff\n      and\n      0xffffffffffffffffffffffffffffffffffffffff\n      and\n      dup2\n      mstore\n      0x20\n      add\n      swap1\n      dup2\n      mstore\n      0x20\n      add\n      0x00\n      keccak256\n      0x00\n        /* \"contracts/voting.sol\":2403:2432  e.hasVoted[msg.sender] = true */\n      0x0100\n      exp\n      dup2\n      sload\n      dup2\n      0xff\n      mul\n      not\n      and\n      swap1\n      dup4\n      iszero\n      iszero\n      mul\n      or\n      swap1\n      sstore\n      pop\n        /* \"contracts/voting.sol\":2443:2444  e */\n      dup2\n        /* \"contracts/voting.sol\":2443:2455  e.totalVotes */\n      0x07\n      add\n      0x00\n        /* \"contracts/voting.sol\":2443:2457  e.totalVotes++ */\n      dup2\n      sload\n      dup1\n      swap3\n      swap2\n      swap1\n      tag_116\n      swap1\n      tag_115\n      jump\t// in\n    tag_116:\n      swap2\n      swap1\n      pop\n      sstore\n      pop\n        /* \"contracts/voting.sol\":2501:2502  e */\n      dup2\n        /* \"contracts/voting.sol\":2501:2514  e.isAnonymous */\n      0x06\n      add\n      0x00\n      swap1\n      sload\n      swap1\n      0x0100\n      exp\n      swap1\n      div\n      0xff\n      and\n        /* \"contracts/voting.sol\":2501:2540  e.isAnonymous ? address(0) : msg.sender */\n      tag_117\n      jumpi\n        /* \"contracts/voting.sol\":2530:2540  msg.sender */\n      caller\n        /* \"contracts/voting.sol\":2501:2540  e.isAnonymous ? address(0) : msg.sender */\n      jump(tag_118)\n    tag_117:\n        /* \"contracts/voting.sol\":2525:2526  0 */\n      0x00\n        /* \"contracts/voting.sol\":2501:2540  e.isAnonymous ? address(0) : msg.sender */\n    tag_118:\n        /* \"contracts/voting.sol\":2475:2541  Voted(electionId, option, e.isAnonymous ? address(0) : msg.sender) */\n      0xffffffffffffffffffffffffffffffffffffffff\n      and\n        /* \"contracts/voting.sol\":2481:2491  electionId */\n      dup6\n        /* \"contracts/voting.sol\":2475:2541  Voted(electionId, option, e.isAnonymous ? address(0) : msg.sender) */\n      0x01674dedffd7377ed829cf5235cf829c93de67870b6eabca5cc4ccc21d9a54e7\n        /* \"contracts/voting.sol\":2493:2499  option */\n      dup7\n        /* \"contracts/voting.sol\":2475:2541  Voted(electionId, option, e.isAnonymous ? address(0) : msg.sender) */\n      mload(0x40)\n      tag_119\n      swap2\n      swap1\n      tag_120\n      jump\t// in\n    tag_119:\n      mload(0x40)\n      dup1\n      swap2\n      sub\n      swap1\n      log3\n        /* \"contracts/voting.sol\":1822:2549  {... */\n      pop\n      pop\n        /* \"contracts/voting.sol\":1732:2549  function vote(uint256 electionId, string memory option) public electionExists(electionId) {... */\n      pop\n      pop\n      pop\n      jump\t// out\n        /* \"contracts/voting.sol\":1118:1724  function createElection(string memory name, string[] memory options, uint256 durationInSeconds, bool isAnonymous) public {... */\n    tag_29:\n        /* \"contracts/voting.sol\":1275:1276  1 */\n      0x01\n        /* \"contracts/voting.sol\":1258:1265  options */\n      dup4\n        /* \"contracts/voting.sol\":1258:1272  options.length */\n      mload\n        /* \"contracts/voting.sol\":1258:1276  options.length > 1 */\n      gt\n        /* \"contracts/voting.sol\":1250:1308  require(options.length > 1, \"At least 2 options required\") */\n      tag_122\n      jumpi\n      mload(0x40)\n      0x08c379a000000000000000000000000000000000000000000000000000000000\n      dup2\n      mstore\n      0x04\n      add\n      tag_123\n      swap1\n      tag_124\n      jump\t// in\n    tag_123:\n      mload(0x40)\n      dup1\n      swap2\n      sub\n      swap1\n      revert\n    tag_122:\n        /* \"contracts/voting.sol\":1319:1332  electionCount */\n      0x01\n      0x00\n        /* \"contracts/voting.sol\":1319:1334  electionCount++ */\n      dup2\n      sload\n      dup1\n      swap3\n      swap2\n      swap1\n      tag_125\n      swap1\n      tag_115\n      jump\t// in\n    tag_125:\n      swap2\n      swap1\n      pop\n      sstore\n      pop\n        /* \"contracts/voting.sol\":1345:1363  Election storage e */\n      0x00\n        /* \"contracts/voting.sol\":1366:1375  elections */\n      dup1\n        /* \"contracts/voting.sol\":1366:1390  elections[electionCount] */\n      0x00\n        /* \"contracts/voting.sol\":1376:1389  electionCount */\n      sload(0x01)\n        /* \"contracts/voting.sol\":1366:1390  elections[electionCount] */\n      dup2\n      mstore\n      0x20\n      add\n      swap1\n      dup2\n      mstore\n      0x20\n      add\n      0x00\n      keccak256\n        /* \"contracts/voting.sol\":1345:1390  Election storage e = elections[electionCount] */\n      swap1\n      pop\n        /* \"contracts/voting.sol\":1410:1414  name */\n      dup5\n        /* \"contracts/voting.sol\":1401:1402  e */\n      dup2\n        /* \"contracts/voting.sol\":1401:1407  e.name */\n      0x00\n      add\n        /* \"contracts/voting.sol\":1401:1414  e.name = name */\n      swap1\n      dup2\n      tag_126\n      swap2\n      swap1\n      tag_127\n      jump\t// in\n    tag_126:\n      pop\n        /* \"contracts/voting.sol\":1437:1444  options */\n      dup4\n        /* \"contracts/voting.sol\":1425:1426  e */\n      dup2\n        /* \"contracts/voting.sol\":1425:1434  e.options */\n      0x01\n      add\n        /* \"contracts/voting.sol\":1425:1444  e.options = options */\n      swap1\n      dup1\n      mload\n      swap1\n      0x20\n      add\n      swap1\n      tag_128\n      swap3\n      swap2\n      swap1\n      tag_129\n      jump\t// in\n    tag_128:\n      pop\n        /* \"contracts/voting.sol\":1466:1470  true */\n      0x01\n        /* \"contracts/voting.sol\":1455:1456  e */\n      dup2\n        /* \"contracts/voting.sol\":1455:1463  e.active */\n      0x04\n      add\n      0x00\n        /* \"contracts/voting.sol\":1455:1470  e.active = true */\n      0x0100\n      exp\n      dup2\n      sload\n      dup2\n      0xff\n      mul\n      not\n      and\n      swap1\n      dup4\n      iszero\n      iszero\n      mul\n      or\n      swap1\n      sstore\n      pop\n        /* \"contracts/voting.sol\":1493:1503  msg.sender */\n      caller\n        /* \"contracts/voting.sol\":1481:1482  e */\n      dup2\n        /* \"contracts/voting.sol\":1481:1490  e.creator */\n      0x04\n      add\n      0x01\n        /* \"contracts/voting.sol\":1481:1503  e.creator = msg.sender */\n      0x0100\n      exp\n      dup2\n      sload\n      dup2\n      0xffffffffffffffffffffffffffffffffffffffff\n      mul\n      not\n      and\n      swap1\n      dup4\n      0xffffffffffffffffffffffffffffffffffffffff\n      and\n      mul\n      or\n      swap1\n      sstore\n      pop\n        /* \"contracts/voting.sol\":1544:1561  durationInSeconds */\n      dup3\n        /* \"contracts/voting.sol\":1526:1541  block.timestamp */\n      timestamp\n        /* \"contracts/voting.sol\":1526:1561  block.timestamp + durationInSeconds */\n      tag_130\n      swap2\n      swap1\n      tag_131\n      jump\t// in\n    tag_130:\n        /* \"contracts/voting.sol\":1514:1515  e */\n      dup2\n        /* \"contracts/voting.sol\":1514:1523  e.endTime */\n      0x05\n      add\n        /* \"contracts/voting.sol\":1514:1561  e.endTime = block.timestamp + durationInSeconds */\n      dup2\n      swap1\n      sstore\n      pop\n        /* \"contracts/voting.sol\":1588:1599  isAnonymous */\n      dup2\n        /* \"contracts/voting.sol\":1572:1573  e */\n      dup2\n        /* \"contracts/voting.sol\":1572:1585  e.isAnonymous */\n      0x06\n      add\n      0x00\n        /* \"contracts/voting.sol\":1572:1599  e.isAnonymous = isAnonymous */\n      0x0100\n      exp\n      dup2\n      sload\n      dup2\n      0xff\n      mul\n      not\n      and\n      swap1\n      dup4\n      iszero\n      iszero\n      mul\n      or\n      swap1\n      sstore\n      pop\n        /* \"contracts/voting.sol\":1625:1626  0 */\n      0x00\n        /* \"contracts/voting.sol\":1610:1611  e */\n      dup2\n        /* \"contracts/voting.sol\":1610:1622  e.totalVotes */\n      0x07\n      add\n        /* \"contracts/voting.sol\":1610:1626  e.totalVotes = 0 */\n      dup2\n      swap1\n      sstore\n      pop\n        /* \"contracts/voting.sol\":1681:1691  msg.sender */\n      caller\n        /* \"contracts/voting.sol\":1644:1716  ElectionCreated(electionCount, name, msg.sender, e.endTime, isAnonymous) */\n      0xffffffffffffffffffffffffffffffffffffffff\n      and\n        /* \"contracts/voting.sol\":1660:1673  electionCount */\n      sload(0x01)\n        /* \"contracts/voting.sol\":1644:1716  ElectionCreated(electionCount, name, msg.sender, e.endTime, isAnonymous) */\n      0x2d4ac046bbfb351214ee0b758b9d541ffaac0804d4ffb0de6cc1b8cd3d3abac2\n        /* \"contracts/voting.sol\":1675:1679  name */\n      dup8\n        /* \"contracts/voting.sol\":1693:1694  e */\n      dup5\n        /* \"contracts/voting.sol\":1693:1702  e.endTime */\n      0x05\n      add\n      sload\n        /* \"contracts/voting.sol\":1704:1715  isAnonymous */\n      dup7\n        /* \"contracts/voting.sol\":1644:1716  ElectionCreated(electionCount, name, msg.sender, e.endTime, isAnonymous) */\n      mload(0x40)\n      tag_132\n      swap4\n      swap3\n      swap2\n      swap1\n      tag_133\n      jump\t// in\n    tag_132:\n      mload(0x40)\n      dup1\n      swap2\n      sub\n      swap1\n      log3\n        /* \"contracts/voting.sol\":1239:1724  {... */\n      pop\n        /* \"contracts/voting.sol\":1118:1724  function createElection(string memory name, string[] memory options, uint256 durationInSeconds, bool isAnonymous) public {... */\n      pop\n      pop\n      pop\n      pop\n      jump\t// out\n        /* \"contracts/voting.sol\":4424:4594  function hasVoted(uint256 electionId, address voter) public view electionExists(electionId) returns (bool) {... */\n    tag_33:\n        /* \"contracts/voting.sol\":4525:4529  bool */\n      0x00\n        /* \"contracts/voting.sol\":4504:4514  electionId */\n      dup3\n        /* \"contracts/voting.sol\":1030:1031  0 */\n      0x00\n        /* \"contracts/voting.sol\":1017:1027  electionId */\n      dup2\n        /* \"contracts/voting.sol\":1017:1031  electionId > 0 */\n      gt\n        /* \"contracts/voting.sol\":1017:1062  electionId > 0 && electionId <= electionCount */\n      dup1\n      iszero\n      tag_135\n      jumpi\n      pop\n        /* \"contracts/voting.sol\":1049:1062  electionCount */\n      sload(0x01)\n        /* \"contracts/voting.sol\":1035:1045  electionId */\n      dup2\n        /* \"contracts/voting.sol\":1035:1062  electionId <= electionCount */\n      gt\n      iszero\n        /* \"contracts/voting.sol\":1017:1062  electionId > 0 && electionId <= electionCount */\n    tag_135:\n        /* \"contracts/voting.sol\":1009:1090  require(electionId > 0 && electionId <= electionCount, \"Election does not exist\") */\n      tag_136\n      jumpi\n      mload(0x40)\n      0x08c379a000000000000000000000000000000000000000000000000000000000\n      dup2\n      mstore\n      0x04\n      add\n      tag_137\n      swap1\n      tag_80\n      jump\t// in\n    tag_137:\n      mload(0x40)\n      dup1\n      swap2\n      sub\n      swap1\n      revert\n    tag_136:\n        /* \"contracts/voting.sol\":4549:4558  elections */\n      0x00\n        /* \"contracts/voting.sol\":4549:4570  elections[electionId] */\n      dup1\n        /* \"contracts/voting.sol\":4559:4569  electionId */\n      dup6\n        /* \"contracts/voting.sol\":4549:4570  elections[electionId] */\n      dup2\n      mstore\n      0x20\n      add\n      swap1\n      dup2\n      mstore\n      0x20\n      add\n      0x00\n      keccak256\n        /* \"contracts/voting.sol\":4549:4579  elections[electionId].hasVoted */\n      0x03\n      add\n        /* \"contracts/voting.sol\":4549:4586  elections[electionId].hasVoted[voter] */\n      0x00\n        /* \"contracts/voting.sol\":4580:4585  voter */\n      dup5\n        /* \"contracts/voting.sol\":4549:4586  elections[electionId].hasVoted[voter] */\n      0xffffffffffffffffffffffffffffffffffffffff\n      and\n      0xffffffffffffffffffffffffffffffffffffffff\n      and\n      dup2\n      mstore\n      0x20\n      add\n      swap1\n      dup2\n      mstore\n      0x20\n      add\n      0x00\n      keccak256\n      0x00\n      swap1\n      sload\n      swap1\n      0x0100\n      exp\n      swap1\n      div\n      0xff\n      and\n        /* \"contracts/voting.sol\":4542:4586  return elections[electionId].hasVoted[voter] */\n      swap2\n      pop\n        /* \"contracts/voting.sol\":4424:4594  function hasVoted(uint256 electionId, address voter) public view electionExists(electionId) returns (bool) {... */\n      pop\n      swap3\n      swap2\n      pop\n      pop\n      jump\t// out\n        /* \"contracts/voting.sol\":5620:6178  function getInactiveElections() public view returns (uint256[] memory) {... */\n    tag_37:\n        /* \"contracts/voting.sol\":5673:5689  uint256[] memory */\n      0x60\n        /* \"contracts/voting.sol\":5702:5723  uint256[] memory temp */\n      0x00\n        /* \"contracts/voting.sol\":5740:5753  electionCount */\n      sload(0x01)\n        /* \"contracts/voting.sol\":5726:5754  new uint256[](electionCount) */\n      0xffffffffffffffff\n      dup2\n      gt\n      iszero\n      tag_140\n      jumpi\n      tag_141\n      tag_142\n      jump\t// in\n    tag_141:\n    tag_140:\n      mload(0x40)\n      swap1\n      dup1\n      dup3\n      mstore\n      dup1\n      0x20\n      mul\n      0x20\n      add\n      dup3\n      add\n      0x40\n      mstore\n      dup1\n      iszero\n      tag_143\n      jumpi\n      dup2\n      0x20\n      add\n      0x20\n      dup3\n      mul\n      dup1\n      calldatasize\n      dup4\n      calldatacopy\n      dup1\n      dup3\n      add\n      swap2\n      pop\n      pop\n      swap1\n      pop\n    tag_143:\n      pop\n        /* \"contracts/voting.sol\":5702:5754  uint256[] memory temp = new uint256[](electionCount) */\n      swap1\n      pop\n        /* \"contracts/voting.sol\":5765:5775  uint count */\n      0x00\n        /* \"contracts/voting.sol\":5795:5804  uint256 i */\n      dup1\n        /* \"contracts/voting.sol\":5807:5808  1 */\n      0x01\n        /* \"contracts/voting.sol\":5795:5808  uint256 i = 1 */\n      swap1\n      pop\n        /* \"contracts/voting.sol\":5790:5981  for (uint256 i = 1; i <= electionCount; i++) {... */\n    tag_144:\n        /* \"contracts/voting.sol\":5815:5828  electionCount */\n      sload(0x01)\n        /* \"contracts/voting.sol\":5810:5811  i */\n      dup2\n        /* \"contracts/voting.sol\":5810:5828  i <= electionCount */\n      gt\n        /* \"contracts/voting.sol\":5790:5981  for (uint256 i = 1; i <= electionCount; i++) {... */\n      tag_145\n      jumpi\n        /* \"contracts/voting.sol\":5855:5864  elections */\n      0x00\n        /* \"contracts/voting.sol\":5855:5867  elections[i] */\n      dup1\n        /* \"contracts/voting.sol\":5865:5866  i */\n      dup3\n        /* \"contracts/voting.sol\":5855:5867  elections[i] */\n      dup2\n      mstore\n      0x20\n      add\n      swap1\n      dup2\n      mstore\n      0x20\n      add\n      0x00\n      keccak256\n        /* \"contracts/voting.sol\":5855:5874  elections[i].active */\n      0x04\n      add\n      0x00\n      swap1\n      sload\n      swap1\n      0x0100\n      exp\n      swap1\n      div\n      0xff\n      and\n        /* \"contracts/voting.sol\":5854:5874  !elections[i].active */\n      iszero\n        /* \"contracts/voting.sol\":5854:5916  !elections[i].active || block.timestamp > elections[i].endTime */\n      dup1\n      tag_147\n      jumpi\n      pop\n        /* \"contracts/voting.sol\":5896:5905  elections */\n      0x00\n        /* \"contracts/voting.sol\":5896:5908  elections[i] */\n      dup1\n        /* \"contracts/voting.sol\":5906:5907  i */\n      dup3\n        /* \"contracts/voting.sol\":5896:5908  elections[i] */\n      dup2\n      mstore\n      0x20\n      add\n      swap1\n      dup2\n      mstore\n      0x20\n      add\n      0x00\n      keccak256\n        /* \"contracts/voting.sol\":5896:5916  elections[i].endTime */\n      0x05\n      add\n      sload\n        /* \"contracts/voting.sol\":5878:5893  block.timestamp */\n      timestamp\n        /* \"contracts/voting.sol\":5878:5916  block.timestamp > elections[i].endTime */\n      gt\n        /* \"contracts/voting.sol\":5854:5916  !elections[i].active || block.timestamp > elections[i].endTime */\n    tag_147:\n        /* \"contracts/voting.sol\":5850:5970  if (!elections[i].active || block.timestamp > elections[i].endTime) {... */\n      iszero\n      tag_148\n      jumpi\n        /* \"contracts/voting.sol\":5953:5954  i */\n      dup1\n        /* \"contracts/voting.sol\":5937:5941  temp */\n      dup4\n        /* \"contracts/voting.sol\":5942:5949  count++ */\n      dup4\n      dup1\n      tag_149\n      swap1\n      tag_115\n      jump\t// in\n    tag_149:\n      swap5\n      pop\n        /* \"contracts/voting.sol\":5937:5950  temp[count++] */\n      dup2\n      mload\n      dup2\n      lt\n      tag_150\n      jumpi\n      tag_151\n      tag_104\n      jump\t// in\n    tag_151:\n    tag_150:\n      0x20\n      mul\n      0x20\n      add\n      add\n        /* \"contracts/voting.sol\":5937:5954  temp[count++] = i */\n      dup2\n      dup2\n      mstore\n      pop\n      pop\n        /* \"contracts/voting.sol\":5850:5970  if (!elections[i].active || block.timestamp > elections[i].endTime) {... */\n    tag_148:\n        /* \"contracts/voting.sol\":5830:5833  i++ */\n      dup1\n      dup1\n      tag_152\n      swap1\n      tag_115\n      jump\t// in\n    tag_152:\n      swap2\n      pop\n      pop\n        /* \"contracts/voting.sol\":5790:5981  for (uint256 i = 1; i <= electionCount; i++) {... */\n      jump(tag_144)\n    tag_145:\n      pop\n        /* \"contracts/voting.sol\":5993:6021  uint256[] memory inactiveIds */\n      0x00\n        /* \"contracts/voting.sol\":6038:6043  count */\n      dup2\n        /* \"contracts/voting.sol\":6024:6044  new uint256[](count) */\n      0xffffffffffffffff\n      dup2\n      gt\n      iszero\n      tag_153\n      jumpi\n      tag_154\n      tag_142\n      jump\t// in\n    tag_154:\n    tag_153:\n      mload(0x40)\n      swap1\n      dup1\n      dup3\n      mstore\n      dup1\n      0x20\n      mul\n      0x20\n      add\n      dup3\n      add\n      0x40\n      mstore\n      dup1\n      iszero\n      tag_155\n      jumpi\n      dup2\n      0x20\n      add\n      0x20\n      dup3\n      mul\n      dup1\n      calldatasize\n      dup4\n      calldatacopy\n      dup1\n      dup3\n      add\n      swap2\n      pop\n      pop\n      swap1\n      pop\n    tag_155:\n      pop\n        /* \"contracts/voting.sol\":5993:6044  uint256[] memory inactiveIds = new uint256[](count) */\n      swap1\n      pop\n        /* \"contracts/voting.sol\":6060:6069  uint256 i */\n      0x00\n        /* \"contracts/voting.sol\":6055:6142  for (uint256 i = 0; i < count; i++) {... */\n    tag_156:\n        /* \"contracts/voting.sol\":6079:6084  count */\n      dup3\n        /* \"contracts/voting.sol\":6075:6076  i */\n      dup2\n        /* \"contracts/voting.sol\":6075:6084  i < count */\n      lt\n        /* \"contracts/voting.sol\":6055:6142  for (uint256 i = 0; i < count; i++) {... */\n      iszero\n      tag_157\n      jumpi\n        /* \"contracts/voting.sol\":6123:6127  temp */\n      dup4\n        /* \"contracts/voting.sol\":6128:6129  i */\n      dup2\n        /* \"contracts/voting.sol\":6123:6130  temp[i] */\n      dup2\n      mload\n      dup2\n      lt\n      tag_159\n      jumpi\n      tag_160\n      tag_104\n      jump\t// in\n    tag_160:\n    tag_159:\n      0x20\n      mul\n      0x20\n      add\n      add\n      mload\n        /* \"contracts/voting.sol\":6106:6117  inactiveIds */\n      dup3\n        /* \"contracts/voting.sol\":6118:6119  i */\n      dup3\n        /* \"contracts/voting.sol\":6106:6120  inactiveIds[i] */\n      dup2\n      mload\n      dup2\n      lt\n      tag_161\n      jumpi\n      tag_162\n      tag_104\n      jump\t// in\n    tag_162:\n    tag_161:\n      0x20\n      mul\n      0x20\n      add\n      add\n        /* \"contracts/voting.sol\":6106:6130  inactiveIds[i] = temp[i] */\n      dup2\n      dup2\n      mstore\n      pop\n      pop\n        /* \"contracts/voting.sol\":6086:6089  i++ */\n      dup1\n      dup1\n      0x01\n      add\n      swap2\n      pop\n      pop\n        /* \"contracts/voting.sol\":6055:6142  for (uint256 i = 0; i < count; i++) {... */\n      jump(tag_156)\n    tag_157:\n      pop\n        /* \"contracts/voting.sol\":6159:6170  inactiveIds */\n      dup1\n        /* \"contracts/voting.sol\":6152:6170  return inactiveIds */\n      swap4\n      pop\n      pop\n      pop\n      pop\n        /* \"contracts/voting.sol\":5620:6178  function getInactiveElections() public view returns (uint256[] memory) {... */\n      swap1\n      jump\t// out\n        /* \"contracts/voting.sol\":3596:4416  function getWinners(uint256 electionId) public view electionExists(electionId) returns (string[] memory) {... */\n    tag_42:\n        /* \"contracts/voting.sol\":3684:3699  string[] memory */\n      0x60\n        /* \"contracts/voting.sol\":3663:3673  electionId */\n      dup2\n        /* \"contracts/voting.sol\":1030:1031  0 */\n      0x00\n        /* \"contracts/voting.sol\":1017:1027  electionId */\n      dup2\n        /* \"contracts/voting.sol\":1017:1031  electionId > 0 */\n      gt\n        /* \"contracts/voting.sol\":1017:1062  electionId > 0 && electionId <= electionCount */\n      dup1\n      iszero\n      tag_164\n      jumpi\n      pop\n        /* \"contracts/voting.sol\":1049:1062  electionCount */\n      sload(0x01)\n        /* \"contracts/voting.sol\":1035:1045  electionId */\n      dup2\n        /* \"contracts/voting.sol\":1035:1062  electionId <= electionCount */\n      gt\n      iszero\n        /* \"contracts/voting.sol\":1017:1062  electionId > 0 && electionId <= electionCount */\n    tag_164:\n        /* \"contracts/voting.sol\":1009:1090  require(electionId > 0 && electionId <= electionCount, \"Election does not exist\") */\n      tag_165\n      jumpi\n      mload(0x40)\n      0x08c379a000000000000000000000000000000000000000000000000000000000\n      dup2\n      mstore\n      0x04\n      add\n      tag_166\n      swap1\n      tag_80\n      jump\t// in\n    tag_166:\n      mload(0x40)\n      dup1\n      swap2\n      sub\n      swap1\n      revert\n    tag_165:\n        /* \"contracts/voting.sol\":3712:3730  Election storage e */\n      0x00\n        /* \"contracts/voting.sol\":3733:3742  elections */\n      dup1\n        /* \"contracts/voting.sol\":3733:3754  elections[electionId] */\n      0x00\n        /* \"contracts/voting.sol\":3743:3753  electionId */\n      dup6\n        /* \"contracts/voting.sol\":3733:3754  elections[electionId] */\n      dup2\n      mstore\n      0x20\n      add\n      swap1\n      dup2\n      mstore\n      0x20\n      add\n      0x00\n      keccak256\n        /* \"contracts/voting.sol\":3712:3754  Election storage e = elections[electionId] */\n      swap1\n      pop\n        /* \"contracts/voting.sol\":3765:3781  uint256 maxVotes */\n      0x00\n        /* \"contracts/voting.sol\":3796:3806  uint count */\n      dup1\n        /* \"contracts/voting.sol\":3828:3834  uint i */\n      0x00\n        /* \"contracts/voting.sol\":3823:4114  for (uint i = 0; i < e.options.length; i++) {... */\n    tag_168:\n        /* \"contracts/voting.sol\":3844:3845  e */\n      dup4\n        /* \"contracts/voting.sol\":3844:3853  e.options */\n      0x01\n      add\n        /* \"contracts/voting.sol\":3844:3860  e.options.length */\n      dup1\n      sload\n      swap1\n      pop\n        /* \"contracts/voting.sol\":3840:3841  i */\n      dup2\n        /* \"contracts/voting.sol\":3840:3860  i < e.options.length */\n      lt\n        /* \"contracts/voting.sol\":3823:4114  for (uint i = 0; i < e.options.length; i++) {... */\n      iszero\n      tag_169\n      jumpi\n        /* \"contracts/voting.sol\":3882:3892  uint votes */\n      0x00\n        /* \"contracts/voting.sol\":3895:3896  e */\n      dup5\n        /* \"contracts/voting.sol\":3895:3902  e.votes */\n      0x02\n      add\n        /* \"contracts/voting.sol\":3903:3904  e */\n      dup6\n        /* \"contracts/voting.sol\":3903:3912  e.options */\n      0x01\n      add\n        /* \"contracts/voting.sol\":3913:3914  i */\n      dup4\n        /* \"contracts/voting.sol\":3903:3915  e.options[i] */\n      dup2\n      sload\n      dup2\n      lt\n      tag_171\n      jumpi\n      tag_172\n      tag_104\n      jump\t// in\n    tag_172:\n    tag_171:\n      swap1\n      0x00\n      mstore\n      keccak256(0x00, 0x20)\n      add\n        /* \"contracts/voting.sol\":3895:3916  e.votes[e.options[i]] */\n      mload(0x40)\n      tag_174\n      swap2\n      swap1\n      tag_175\n      jump\t// in\n    tag_174:\n      swap1\n      dup2\n      mstore\n      0x20\n      add\n      mload(0x40)\n      dup1\n      swap2\n      sub\n      swap1\n      keccak256\n      sload\n        /* \"contracts/voting.sol\":3882:3916  uint votes = e.votes[e.options[i]] */\n      swap1\n      pop\n        /* \"contracts/voting.sol\":3943:3951  maxVotes */\n      dup4\n        /* \"contracts/voting.sol\":3935:3940  votes */\n      dup2\n        /* \"contracts/voting.sol\":3935:3951  votes > maxVotes */\n      gt\n        /* \"contracts/voting.sol\":3931:4103  if (votes > maxVotes) {... */\n      iszero\n      tag_176\n      jumpi\n        /* \"contracts/voting.sol\":3983:3988  votes */\n      dup1\n        /* \"contracts/voting.sol\":3972:3988  maxVotes = votes */\n      swap4\n      pop\n        /* \"contracts/voting.sol\":4015:4016  1 */\n      0x01\n        /* \"contracts/voting.sol\":4007:4016  count = 1 */\n      swap3\n      pop\n        /* \"contracts/voting.sol\":3931:4103  if (votes > maxVotes) {... */\n      jump(tag_177)\n    tag_176:\n        /* \"contracts/voting.sol\":4051:4059  maxVotes */\n      dup4\n        /* \"contracts/voting.sol\":4042:4047  votes */\n      dup2\n        /* \"contracts/voting.sol\":4042:4059  votes == maxVotes */\n      sub\n        /* \"contracts/voting.sol\":4038:4103  if (votes == maxVotes) {... */\n      tag_178\n      jumpi\n        /* \"contracts/voting.sol\":4080:4087  count++ */\n      dup3\n      dup1\n      tag_179\n      swap1\n      tag_115\n      jump\t// in\n    tag_179:\n      swap4\n      pop\n      pop\n        /* \"contracts/voting.sol\":4038:4103  if (votes == maxVotes) {... */\n    tag_178:\n        /* \"contracts/voting.sol\":3931:4103  if (votes > maxVotes) {... */\n    tag_177:\n        /* \"contracts/voting.sol\":3867:4114  {... */\n      pop\n        /* \"contracts/voting.sol\":3862:3865  i++ */\n      dup1\n      dup1\n      0x01\n      add\n      swap2\n      pop\n      pop\n        /* \"contracts/voting.sol\":3823:4114  for (uint i = 0; i < e.options.length; i++) {... */\n      jump(tag_168)\n    tag_169:\n      pop\n        /* \"contracts/voting.sol\":4126:4149  string[] memory winners */\n      0x00\n        /* \"contracts/voting.sol\":4165:4170  count */\n      dup2\n        /* \"contracts/voting.sol\":4152:4171  new string[](count) */\n      0xffffffffffffffff\n      dup2\n      gt\n      iszero\n      tag_180\n      jumpi\n      tag_181\n      tag_142\n      jump\t// in\n    tag_181:\n    tag_180:\n      mload(0x40)\n      swap1\n      dup1\n      dup3\n      mstore\n      dup1\n      0x20\n      mul\n      0x20\n      add\n      dup3\n      add\n      0x40\n      mstore\n      dup1\n      iszero\n      tag_182\n      jumpi\n      dup2\n      0x20\n      add\n    tag_183:\n      0x60\n      dup2\n      mstore\n      0x20\n      add\n      swap1\n      0x01\n      swap1\n      sub\n      swap1\n      dup2\n      tag_183\n      jumpi\n      swap1\n      pop\n    tag_182:\n      pop\n        /* \"contracts/voting.sol\":4126:4171  string[] memory winners = new string[](count) */\n      swap1\n      pop\n        /* \"contracts/voting.sol\":4182:4192  uint index */\n      0x00\n        /* \"contracts/voting.sol\":4212:4218  uint i */\n      dup1\n        /* \"contracts/voting.sol\":4207:4382  for (uint i = 0; i < e.options.length; i++) {... */\n    tag_184:\n        /* \"contracts/voting.sol\":4228:4229  e */\n      dup6\n        /* \"contracts/voting.sol\":4228:4237  e.options */\n      0x01\n      add\n        /* \"contracts/voting.sol\":4228:4244  e.options.length */\n      dup1\n      sload\n      swap1\n      pop\n        /* \"contracts/voting.sol\":4224:4225  i */\n      dup2\n        /* \"contracts/voting.sol\":4224:4244  i < e.options.length */\n      lt\n        /* \"contracts/voting.sol\":4207:4382  for (uint i = 0; i < e.options.length; i++) {... */\n      iszero\n      tag_185\n      jumpi\n        /* \"contracts/voting.sol\":4295:4303  maxVotes */\n      dup5\n        /* \"contracts/voting.sol\":4270:4271  e */\n      dup7\n        /* \"contracts/voting.sol\":4270:4277  e.votes */\n      0x02\n      add\n        /* \"contracts/voting.sol\":4278:4279  e */\n      dup8\n        /* \"contracts/voting.sol\":4278:4287  e.options */\n      0x01\n      add\n        /* \"contracts/voting.sol\":4288:4289  i */\n      dup4\n        /* \"contracts/voting.sol\":4278:4290  e.options[i] */\n      dup2\n      sload\n      dup2\n      lt\n      tag_187\n      jumpi\n      tag_188\n      tag_104\n      jump\t// in\n    tag_188:\n    tag_187:\n      swap1\n      0x00\n      mstore\n      keccak256(0x00, 0x20)\n      add\n        /* \"contracts/voting.sol\":4270:4291  e.votes[e.options[i]] */\n      mload(0x40)\n      tag_190\n      swap2\n      swap1\n      tag_175\n      jump\t// in\n    tag_190:\n      swap1\n      dup2\n      mstore\n      0x20\n      add\n      mload(0x40)\n      dup1\n      swap2\n      sub\n      swap1\n      keccak256\n      sload\n        /* \"contracts/voting.sol\":4270:4303  e.votes[e.options[i]] == maxVotes */\n      sub\n        /* \"contracts/voting.sol\":4266:4371  if (e.votes[e.options[i]] == maxVotes) {... */\n      tag_191\n      jumpi\n        /* \"contracts/voting.sol\":4343:4344  e */\n      dup6\n        /* \"contracts/voting.sol\":4343:4352  e.options */\n      0x01\n      add\n        /* \"contracts/voting.sol\":4353:4354  i */\n      dup2\n        /* \"contracts/voting.sol\":4343:4355  e.options[i] */\n      dup2\n      sload\n      dup2\n      lt\n      tag_192\n      jumpi\n      tag_193\n      tag_104\n      jump\t// in\n    tag_193:\n    tag_192:\n      swap1\n      0x00\n      mstore\n      keccak256(0x00, 0x20)\n      add\n        /* \"contracts/voting.sol\":4324:4355  winners[index++] = e.options[i] */\n      dup1\n      sload\n      tag_195\n      swap1\n      tag_196\n      jump\t// in\n    tag_195:\n      dup1\n      0x1f\n      add\n      0x20\n      dup1\n      swap2\n      div\n      mul\n      0x20\n      add\n      mload(0x40)\n      swap1\n      dup2\n      add\n      0x40\n      mstore\n      dup1\n      swap3\n      swap2\n      swap1\n      dup2\n      dup2\n      mstore\n      0x20\n      add\n      dup3\n      dup1\n      sload\n      tag_197\n      swap1\n      tag_196\n      jump\t// in\n    tag_197:\n      dup1\n      iszero\n      tag_198\n      jumpi\n      dup1\n      0x1f\n      lt\n      tag_199\n      jumpi\n      0x0100\n      dup1\n      dup4\n      sload\n      div\n      mul\n      dup4\n      mstore\n      swap2\n      0x20\n      add\n      swap2\n      jump(tag_198)\n    tag_199:\n      dup3\n      add\n      swap2\n      swap1\n      0x00\n      mstore\n      keccak256(0x00, 0x20)\n      swap1\n    tag_200:\n      dup2\n      sload\n      dup2\n      mstore\n      swap1\n      0x01\n      add\n      swap1\n      0x20\n      add\n      dup1\n      dup4\n      gt\n      tag_200\n      jumpi\n      dup3\n      swap1\n      sub\n      0x1f\n      and\n      dup3\n      add\n      swap2\n    tag_198:\n      pop\n      pop\n      pop\n      pop\n      pop\n        /* \"contracts/voting.sol\":4324:4331  winners */\n      dup4\n        /* \"contracts/voting.sol\":4332:4339  index++ */\n      dup4\n      dup1\n      tag_201\n      swap1\n      tag_115\n      jump\t// in\n    tag_201:\n      swap5\n      pop\n        /* \"contracts/voting.sol\":4324:4340  winners[index++] */\n      dup2\n      mload\n      dup2\n      lt\n      tag_202\n      jumpi\n      tag_203\n      tag_104\n      jump\t// in\n    tag_203:\n    tag_202:\n      0x20\n      mul\n      0x20\n      add\n      add\n        /* \"contracts/voting.sol\":4324:4355  winners[index++] = e.options[i] */\n      dup2\n      swap1\n      mstore\n      pop\n        /* \"contracts/voting.sol\":4266:4371  if (e.votes[e.options[i]] == maxVotes) {... */\n    tag_191:\n        /* \"contracts/voting.sol\":4246:4249  i++ */\n      dup1\n      dup1\n      0x01\n      add\n      swap2\n      pop\n      pop\n        /* \"contracts/voting.sol\":4207:4382  for (uint i = 0; i < e.options.length; i++) {... */\n      jump(tag_184)\n    tag_185:\n      pop\n        /* \"contracts/voting.sol\":4401:4408  winners */\n      dup2\n        /* \"contracts/voting.sol\":4394:4408  return winners */\n      swap7\n      pop\n      pop\n      pop\n      pop\n      pop\n      pop\n        /* \"contracts/voting.sol\":3596:4416  function getWinners(uint256 electionId) public view electionExists(electionId) returns (string[] memory) {... */\n      pop\n      swap2\n      swap1\n      pop\n      jump\t// out\n        /* \"contracts/voting.sol\":2853:3174  function deleteElection(uint256 electionId) public onlyCreator(electionId) electionExists(electionId) {... */\n    tag_47:\n        /* \"contracts/voting.sol\":2916:2926  electionId */\n      dup1\n        /* \"contracts/voting.sol\":872:881  elections */\n      0x00\n        /* \"contracts/voting.sol\":872:893  elections[electionId] */\n      dup1\n        /* \"contracts/voting.sol\":882:892  electionId */\n      dup3\n        /* \"contracts/voting.sol\":872:893  elections[electionId] */\n      dup2\n      mstore\n      0x20\n      add\n      swap1\n      dup2\n      mstore\n      0x20\n      add\n      0x00\n      keccak256\n        /* \"contracts/voting.sol\":872:901  elections[electionId].creator */\n      0x04\n      add\n      0x01\n      swap1\n      sload\n      swap1\n      0x0100\n      exp\n      swap1\n      div\n      0xffffffffffffffffffffffffffffffffffffffff\n      and\n        /* \"contracts/voting.sol\":858:901  msg.sender == elections[electionId].creator */\n      0xffffffffffffffffffffffffffffffffffffffff\n      and\n        /* \"contracts/voting.sol\":858:868  msg.sender */\n      caller\n        /* \"contracts/voting.sol\":858:901  msg.sender == elections[electionId].creator */\n      0xffffffffffffffffffffffffffffffffffffffff\n      and\n      eq\n        /* \"contracts/voting.sol\":850:926  require(msg.sender == elections[electionId].creator, \"Only creator allowed\") */\n      tag_205\n      jumpi\n      mload(0x40)\n      0x08c379a000000000000000000000000000000000000000000000000000000000\n      dup2\n      mstore\n      0x04\n      add\n      tag_206\n      swap1\n      tag_75\n      jump\t// in\n    tag_206:\n      mload(0x40)\n      dup1\n      swap2\n      sub\n      swap1\n      revert\n    tag_205:\n        /* \"contracts/voting.sol\":2943:2953  electionId */\n      dup2\n        /* \"contracts/voting.sol\":1030:1031  0 */\n      0x00\n        /* \"contracts/voting.sol\":1017:1027  electionId */\n      dup2\n        /* \"contracts/voting.sol\":1017:1031  electionId > 0 */\n      gt\n        /* \"contracts/voting.sol\":1017:1062  electionId > 0 && electionId <= electionCount */\n      dup1\n      iszero\n      tag_208\n      jumpi\n      pop\n        /* \"contracts/voting.sol\":1049:1062  electionCount */\n      sload(0x01)\n        /* \"contracts/voting.sol\":1035:1045  electionId */\n      dup2\n        /* \"contracts/voting.sol\":1035:1062  electionId <= electionCount */\n      gt\n      iszero\n        /* \"contracts/voting.sol\":1017:1062  electionId > 0 && electionId <= electionCount */\n    tag_208:\n        /* \"contracts/voting.sol\":1009:1090  require(electionId > 0 && electionId <= electionCount, \"Election does not exist\") */\n      tag_209\n      jumpi\n      mload(0x40)\n      0x08c379a000000000000000000000000000000000000000000000000000000000\n      dup2\n      mstore\n      0x04\n      add\n      tag_210\n      swap1\n      tag_80\n      jump\t// in\n    tag_210:\n      mload(0x40)\n      dup1\n      swap2\n      sub\n      swap1\n      revert\n    tag_209:\n        /* \"contracts/voting.sol\":2966:2984  Election storage e */\n      0x00\n        /* \"contracts/voting.sol\":2987:2996  elections */\n      dup1\n        /* \"contracts/voting.sol\":2987:3008  elections[electionId] */\n      0x00\n        /* \"contracts/voting.sol\":2997:3007  electionId */\n      dup6\n        /* \"contracts/voting.sol\":2987:3008  elections[electionId] */\n      dup2\n      mstore\n      0x20\n      add\n      swap1\n      dup2\n      mstore\n      0x20\n      add\n      0x00\n      keccak256\n        /* \"contracts/voting.sol\":2966:3008  Election storage e = elections[electionId] */\n      swap1\n      pop\n        /* \"contracts/voting.sol\":3043:3044  0 */\n      0x00\n        /* \"contracts/voting.sol\":3027:3028  e */\n      dup2\n        /* \"contracts/voting.sol\":3027:3039  e.totalVotes */\n      0x07\n      add\n      sload\n        /* \"contracts/voting.sol\":3027:3044  e.totalVotes == 0 */\n      eq\n        /* \"contracts/voting.sol\":3019:3082  require(e.totalVotes == 0, \"Election has votes, cannot delete\") */\n      tag_212\n      jumpi\n      mload(0x40)\n      0x08c379a000000000000000000000000000000000000000000000000000000000\n      dup2\n      mstore\n      0x04\n      add\n      tag_213\n      swap1\n      tag_214\n      jump\t// in\n    tag_213:\n      mload(0x40)\n      dup1\n      swap2\n      sub\n      swap1\n      revert\n    tag_212:\n        /* \"contracts/voting.sol\":3102:3111  elections */\n      0x00\n        /* \"contracts/voting.sol\":3102:3123  elections[electionId] */\n      dup1\n        /* \"contracts/voting.sol\":3112:3122  electionId */\n      dup6\n        /* \"contracts/voting.sol\":3102:3123  elections[electionId] */\n      dup2\n      mstore\n      0x20\n      add\n      swap1\n      dup2\n      mstore\n      0x20\n      add\n      0x00\n      keccak256\n      0x00\n        /* \"contracts/voting.sol\":3095:3123  delete elections[electionId] */\n      dup1\n      dup3\n      add\n      0x00\n      tag_215\n      swap2\n      swap1\n      tag_216\n      jump\t// in\n    tag_215:\n      0x01\n      dup3\n      add\n      0x00\n      tag_217\n      swap2\n      swap1\n      tag_218\n      jump\t// in\n    tag_217:\n      0x04\n      dup3\n      add\n      exp(0x0100, 0x00)\n      dup2\n      sload\n      swap1\n      0xff\n      mul\n      not\n      and\n      swap1\n      sstore\n      0x04\n      dup3\n      add\n      exp(0x0100, 0x01)\n      dup2\n      sload\n      swap1\n      0xffffffffffffffffffffffffffffffffffffffff\n      mul\n      not\n      and\n      swap1\n      sstore\n      0x05\n      dup3\n      add\n      0x00\n      swap1\n      sstore\n      0x06\n      dup3\n      add\n      exp(0x0100, 0x00)\n      dup2\n      sload\n      swap1\n      0xff\n      mul\n      not\n      and\n      swap1\n      sstore\n      0x07\n      dup3\n      add\n      0x00\n      swap1\n      sstore\n      pop\n      pop\n        /* \"contracts/voting.sol\":3155:3165  electionId */\n      dup4\n        /* \"contracts/voting.sol\":3139:3166  ElectionDeleted(electionId) */\n      0xbb78d5fa658dbdad95908d420646ea8bb64f50a9daa1acaa682effe6703f1ed7\n      mload(0x40)\n      mload(0x40)\n      dup1\n      swap2\n      sub\n      swap1\n      log2\n        /* \"contracts/voting.sol\":2955:3174  {... */\n      pop\n        /* \"contracts/voting.sol\":937:938  _ */\n      pop\n        /* \"contracts/voting.sol\":2853:3174  function deleteElection(uint256 electionId) public onlyCreator(electionId) electionExists(electionId) {... */\n      pop\n      pop\n      jump\t// out\n        /* \"contracts/voting.sol\":6473:6868  function changeOptionName(uint256 electionId, uint index, string memory newName) public onlyCreator(electionId) electionExists(electionId) {... */\n    tag_51:\n        /* \"contracts/voting.sol\":6573:6583  electionId */\n      dup3\n        /* \"contracts/voting.sol\":872:881  elections */\n      0x00\n        /* \"contracts/voting.sol\":872:893  elections[electionId] */\n      dup1\n        /* \"contracts/voting.sol\":882:892  electionId */\n      dup3\n        /* \"contracts/voting.sol\":872:893  elections[electionId] */\n      dup2\n      mstore\n      0x20\n      add\n      swap1\n      dup2\n      mstore\n      0x20\n      add\n      0x00\n      keccak256\n        /* \"contracts/voting.sol\":872:901  elections[electionId].creator */\n      0x04\n      add\n      0x01\n      swap1\n      sload\n      swap1\n      0x0100\n      exp\n      swap1\n      div\n      0xffffffffffffffffffffffffffffffffffffffff\n      and\n        /* \"contracts/voting.sol\":858:901  msg.sender == elections[electionId].creator */\n      0xffffffffffffffffffffffffffffffffffffffff\n      and\n        /* \"contracts/voting.sol\":858:868  msg.sender */\n      caller\n        /* \"contracts/voting.sol\":858:901  msg.sender == elections[electionId].creator */\n      0xffffffffffffffffffffffffffffffffffffffff\n      and\n      eq\n        /* \"contracts/voting.sol\":850:926  require(msg.sender == elections[electionId].creator, \"Only creator allowed\") */\n      tag_220\n      jumpi\n      mload(0x40)\n      0x08c379a000000000000000000000000000000000000000000000000000000000\n      dup2\n      mstore\n      0x04\n      add\n      tag_221\n      swap1\n      tag_75\n      jump\t// in\n    tag_221:\n      mload(0x40)\n      dup1\n      swap2\n      sub\n      swap1\n      revert\n    tag_220:\n        /* \"contracts/voting.sol\":6600:6610  electionId */\n      dup4\n        /* \"contracts/voting.sol\":1030:1031  0 */\n      0x00\n        /* \"contracts/voting.sol\":1017:1027  electionId */\n      dup2\n        /* \"contracts/voting.sol\":1017:1031  electionId > 0 */\n      gt\n        /* \"contracts/voting.sol\":1017:1062  electionId > 0 && electionId <= electionCount */\n      dup1\n      iszero\n      tag_223\n      jumpi\n      pop\n        /* \"contracts/voting.sol\":1049:1062  electionCount */\n      sload(0x01)\n        /* \"contracts/voting.sol\":1035:1045  electionId */\n      dup2\n        /* \"contracts/voting.sol\":1035:1062  electionId <= electionCount */\n      gt\n      iszero\n        /* \"contracts/voting.sol\":1017:1062  electionId > 0 && electionId <= electionCount */\n    tag_223:\n        /* \"contracts/voting.sol\":1009:1090  require(electionId > 0 && electionId <= electionCount, \"Election does not exist\") */\n      tag_224\n      jumpi\n      mload(0x40)\n      0x08c379a000000000000000000000000000000000000000000000000000000000\n      dup2\n      mstore\n      0x04\n      add\n      tag_225\n      swap1\n      tag_80\n      jump\t// in\n    tag_225:\n      mload(0x40)\n      dup1\n      swap2\n      sub\n      swap1\n      revert\n    tag_224:\n        /* \"contracts/voting.sol\":6639:6648  elections */\n      0x00\n        /* \"contracts/voting.sol\":6639:6660  elections[electionId] */\n      dup1\n        /* \"contracts/voting.sol\":6649:6659  electionId */\n      dup7\n        /* \"contracts/voting.sol\":6639:6660  elections[electionId] */\n      dup2\n      mstore\n      0x20\n      add\n      swap1\n      dup2\n      mstore\n      0x20\n      add\n      0x00\n      keccak256\n        /* \"contracts/voting.sol\":6639:6668  elections[electionId].options */\n      0x01\n      add\n        /* \"contracts/voting.sol\":6639:6675  elections[electionId].options.length */\n      dup1\n      sload\n      swap1\n      pop\n        /* \"contracts/voting.sol\":6631:6636  index */\n      dup5\n        /* \"contracts/voting.sol\":6631:6675  index < elections[electionId].options.length */\n      lt\n        /* \"contracts/voting.sol\":6623:6700  require(index < elections[electionId].options.length, \"Invalid option index\") */\n      tag_227\n      jumpi\n      mload(0x40)\n      0x08c379a000000000000000000000000000000000000000000000000000000000\n      dup2\n      mstore\n      0x04\n      add\n      tag_228\n      swap1\n      tag_229\n      jump\t// in\n    tag_228:\n      mload(0x40)\n      dup1\n      swap2\n      sub\n      swap1\n      revert\n    tag_227:\n        /* \"contracts/voting.sol\":6755:6756  0 */\n      0x00\n        /* \"contracts/voting.sol\":6719:6728  elections */\n      dup1\n        /* \"contracts/voting.sol\":6719:6740  elections[electionId] */\n      0x00\n        /* \"contracts/voting.sol\":6729:6739  electionId */\n      dup8\n        /* \"contracts/voting.sol\":6719:6740  elections[electionId] */\n      dup2\n      mstore\n      0x20\n      add\n      swap1\n      dup2\n      mstore\n      0x20\n      add\n      0x00\n      keccak256\n        /* \"contracts/voting.sol\":6719:6751  elections[electionId].totalVotes */\n      0x07\n      add\n      sload\n        /* \"contracts/voting.sol\":6719:6756  elections[electionId].totalVotes == 0 */\n      eq\n        /* \"contracts/voting.sol\":6711:6803  require(elections[electionId].totalVotes == 0, \"Cannot change options after voting started\") */\n      tag_230\n      jumpi\n      mload(0x40)\n      0x08c379a000000000000000000000000000000000000000000000000000000000\n      dup2\n      mstore\n      0x04\n      add\n      tag_231\n      swap1\n      tag_232\n      jump\t// in\n    tag_231:\n      mload(0x40)\n      dup1\n      swap2\n      sub\n      swap1\n      revert\n    tag_230:\n        /* \"contracts/voting.sol\":6853:6860  newName */\n      dup3\n        /* \"contracts/voting.sol\":6814:6823  elections */\n      0x00\n        /* \"contracts/voting.sol\":6814:6835  elections[electionId] */\n      dup1\n        /* \"contracts/voting.sol\":6824:6834  electionId */\n      dup8\n        /* \"contracts/voting.sol\":6814:6835  elections[electionId] */\n      dup2\n      mstore\n      0x20\n      add\n      swap1\n      dup2\n      mstore\n      0x20\n      add\n      0x00\n      keccak256\n        /* \"contracts/voting.sol\":6814:6843  elections[electionId].options */\n      0x01\n      add\n        /* \"contracts/voting.sol\":6844:6849  index */\n      dup6\n        /* \"contracts/voting.sol\":6814:6850  elections[electionId].options[index] */\n      dup2\n      sload\n      dup2\n      lt\n      tag_233\n      jumpi\n      tag_234\n      tag_104\n      jump\t// in\n    tag_234:\n    tag_233:\n      swap1\n      0x00\n      mstore\n      keccak256(0x00, 0x20)\n      add\n        /* \"contracts/voting.sol\":6814:6860  elections[electionId].options[index] = newName */\n      swap1\n      dup2\n      tag_236\n      swap2\n      swap1\n      tag_127\n      jump\t// in\n    tag_236:\n      pop\n        /* \"contracts/voting.sol\":937:938  _ */\n      pop\n        /* \"contracts/voting.sol\":6473:6868  function changeOptionName(uint256 electionId, uint index, string memory newName) public onlyCreator(electionId) electionExists(electionId) {... */\n      pop\n      pop\n      pop\n      pop\n      jump\t// out\n        /* \"contracts/voting.sol\":3182:3588  function getResults(uint256 electionId) public view electionExists(electionId) returns (string[] memory, uint256[] memory) {... */\n    tag_54:\n        /* \"contracts/voting.sol\":3270:3285  string[] memory */\n      0x60\n        /* \"contracts/voting.sol\":3287:3303  uint256[] memory */\n      dup1\n        /* \"contracts/voting.sol\":3249:3259  electionId */\n      dup3\n        /* \"contracts/voting.sol\":1030:1031  0 */\n      0x00\n        /* \"contracts/voting.sol\":1017:1027  electionId */\n      dup2\n        /* \"contracts/voting.sol\":1017:1031  electionId > 0 */\n      gt\n        /* \"contracts/voting.sol\":1017:1062  electionId > 0 && electionId <= electionCount */\n      dup1\n      iszero\n      tag_238\n      jumpi\n      pop\n        /* \"contracts/voting.sol\":1049:1062  electionCount */\n      sload(0x01)\n        /* \"contracts/voting.sol\":1035:1045  electionId */\n      dup2\n        /* \"contracts/voting.sol\":1035:1062  electionId <= electionCount */\n      gt\n      iszero\n        /* \"contracts/voting.sol\":1017:1062  electionId > 0 && electionId <= electionCount */\n    tag_238:\n        /* \"contracts/voting.sol\":1009:1090  require(electionId > 0 && electionId <= electionCount, \"Election does not exist\") */\n      tag_239\n      jumpi\n      mload(0x40)\n      0x08c379a000000000000000000000000000000000000000000000000000000000\n      dup2\n      mstore\n      0x04\n      add\n      tag_240\n      swap1\n      tag_80\n      jump\t// in\n    tag_240:\n      mload(0x40)\n      dup1\n      swap2\n      sub\n      swap1\n      revert\n    tag_239:\n        /* \"contracts/voting.sol\":3316:3334  Election storage e */\n      0x00\n        /* \"contracts/voting.sol\":3337:3346  elections */\n      dup1\n        /* \"contracts/voting.sol\":3337:3358  elections[electionId] */\n      0x00\n        /* \"contracts/voting.sol\":3347:3357  electionId */\n      dup7\n        /* \"contracts/voting.sol\":3337:3358  elections[electionId] */\n      dup2\n      mstore\n      0x20\n      add\n      swap1\n      dup2\n      mstore\n      0x20\n      add\n      0x00\n      keccak256\n        /* \"contracts/voting.sol\":3316:3358  Election storage e = elections[electionId] */\n      swap1\n      pop\n        /* \"contracts/voting.sol\":3369:3393  uint256[] memory results */\n      0x00\n        /* \"contracts/voting.sol\":3410:3411  e */\n      dup2\n        /* \"contracts/voting.sol\":3410:3419  e.options */\n      0x01\n      add\n        /* \"contracts/voting.sol\":3410:3426  e.options.length */\n      dup1\n      sload\n      swap1\n      pop\n        /* \"contracts/voting.sol\":3396:3427  new uint256[](e.options.length) */\n      0xffffffffffffffff\n      dup2\n      gt\n      iszero\n      tag_242\n      jumpi\n      tag_243\n      tag_142\n      jump\t// in\n    tag_243:\n    tag_242:\n      mload(0x40)\n      swap1\n      dup1\n      dup3\n      mstore\n      dup1\n      0x20\n      mul\n      0x20\n      add\n      dup3\n      add\n      0x40\n      mstore\n      dup1\n      iszero\n      tag_244\n      jumpi\n      dup2\n      0x20\n      add\n      0x20\n      dup3\n      mul\n      dup1\n      calldatasize\n      dup4\n      calldatacopy\n      dup1\n      dup3\n      add\n      swap2\n      pop\n      pop\n      swap1\n      pop\n    tag_244:\n      pop\n        /* \"contracts/voting.sol\":3369:3427  uint256[] memory results = new uint256[](e.options.length) */\n      swap1\n      pop\n        /* \"contracts/voting.sol\":3443:3449  uint i */\n      0x00\n        /* \"contracts/voting.sol\":3438:3543  for (uint i = 0; i < e.options.length; i++) {... */\n    tag_245:\n        /* \"contracts/voting.sol\":3459:3460  e */\n      dup3\n        /* \"contracts/voting.sol\":3459:3468  e.options */\n      0x01\n      add\n        /* \"contracts/voting.sol\":3459:3475  e.options.length */\n      dup1\n      sload\n      swap1\n      pop\n        /* \"contracts/voting.sol\":3455:3456  i */\n      dup2\n        /* \"contracts/voting.sol\":3455:3475  i < e.options.length */\n      lt\n        /* \"contracts/voting.sol\":3438:3543  for (uint i = 0; i < e.options.length; i++) {... */\n      iszero\n      tag_246\n      jumpi\n        /* \"contracts/voting.sol\":3510:3511  e */\n      dup3\n        /* \"contracts/voting.sol\":3510:3517  e.votes */\n      0x02\n      add\n        /* \"contracts/voting.sol\":3518:3519  e */\n      dup4\n        /* \"contracts/voting.sol\":3518:3527  e.options */\n      0x01\n      add\n        /* \"contracts/voting.sol\":3528:3529  i */\n      dup3\n        /* \"contracts/voting.sol\":3518:3530  e.options[i] */\n      dup2\n      sload\n      dup2\n      lt\n      tag_248\n      jumpi\n      tag_249\n      tag_104\n      jump\t// in\n    tag_249:\n    tag_248:\n      swap1\n      0x00\n      mstore\n      keccak256(0x00, 0x20)\n      add\n        /* \"contracts/voting.sol\":3510:3531  e.votes[e.options[i]] */\n      mload(0x40)\n      tag_251\n      swap2\n      swap1\n      tag_175\n      jump\t// in\n    tag_251:\n      swap1\n      dup2\n      mstore\n      0x20\n      add\n      mload(0x40)\n      dup1\n      swap2\n      sub\n      swap1\n      keccak256\n      sload\n        /* \"contracts/voting.sol\":3497:3504  results */\n      dup3\n        /* \"contracts/voting.sol\":3505:3506  i */\n      dup3\n        /* \"contracts/voting.sol\":3497:3507  results[i] */\n      dup2\n      mload\n      dup2\n      lt\n      tag_252\n      jumpi\n      tag_253\n      tag_104\n      jump\t// in\n    tag_253:\n    tag_252:\n      0x20\n      mul\n      0x20\n      add\n      add\n        /* \"contracts/voting.sol\":3497:3531  results[i] = e.votes[e.options[i]] */\n      dup2\n      dup2\n      mstore\n      pop\n      pop\n        /* \"contracts/voting.sol\":3477:3480  i++ */\n      dup1\n      dup1\n      0x01\n      add\n      swap2\n      pop\n      pop\n        /* \"contracts/voting.sol\":3438:3543  for (uint i = 0; i < e.options.length; i++) {... */\n      jump(tag_245)\n    tag_246:\n      pop\n        /* \"contracts/voting.sol\":3561:3562  e */\n      dup2\n        /* \"contracts/voting.sol\":3561:3570  e.options */\n      0x01\n      add\n        /* \"contracts/voting.sol\":3572:3579  results */\n      dup2\n        /* \"contracts/voting.sol\":3553:3580  return (e.options, results) */\n      dup2\n      dup1\n      sload\n      dup1\n      0x20\n      mul\n      0x20\n      add\n      mload(0x40)\n      swap1\n      dup2\n      add\n      0x40\n      mstore\n      dup1\n      swap3\n      swap2\n      swap1\n      dup2\n      dup2\n      mstore\n      0x20\n      add\n      0x00\n      swap1\n    tag_254:\n      dup3\n      dup3\n      lt\n      iszero\n      tag_255\n      jumpi\n      dup4\n      dup3\n      swap1\n      0x00\n      mstore\n      keccak256(0x00, 0x20)\n      add\n      dup1\n      sload\n      tag_257\n      swap1\n      tag_196\n      jump\t// in\n    tag_257:\n      dup1\n      0x1f\n      add\n      0x20\n      dup1\n      swap2\n      div\n      mul\n      0x20\n      add\n      mload(0x40)\n      swap1\n      dup2\n      add\n      0x40\n      mstore\n      dup1\n      swap3\n      swap2\n      swap1\n      dup2\n      dup2\n      mstore\n      0x20\n      add\n      dup3\n      dup1\n      sload\n      tag_258\n      swap1\n      tag_196\n      jump\t// in\n    tag_258:\n      dup1\n      iszero\n      tag_259\n      jumpi\n      dup1\n      0x1f\n      lt\n      tag_260\n      jumpi\n      0x0100\n      dup1\n      dup4\n      sload\n      div\n      mul\n      dup4\n      mstore\n      swap2\n      0x20\n      add\n      swap2\n      jump(tag_259)\n    tag_260:\n      dup3\n      add\n      swap2\n      swap1\n      0x00\n      mstore\n      keccak256(0x00, 0x20)\n      swap1\n    tag_261:\n      dup2\n      sload\n      dup2\n      mstore\n      swap1\n      0x01\n      add\n      swap1\n      0x20\n      add\n      dup1\n      dup4\n      gt\n      tag_261\n      jumpi\n      dup3\n      swap1\n      sub\n      0x1f\n      and\n      dup3\n      add\n      swap2\n    tag_259:\n      pop\n      pop\n      pop\n      pop\n      pop\n      dup2\n      mstore\n      0x20\n      add\n      swap1\n      0x01\n      add\n      swap1\n      jump(tag_254)\n    tag_255:\n      pop\n      pop\n      pop\n      pop\n      swap2\n      pop\n      swap5\n      pop\n      swap5\n      pop\n      pop\n      pop\n        /* \"contracts/voting.sol\":3182:3588  function getResults(uint256 electionId) public view electionExists(electionId) returns (string[] memory, uint256[] memory) {... */\n      pop\n      swap2\n      pop\n      swap2\n      jump\t// out\n        /* \"contracts/voting.sol\":5062:5612  function getActiveElections() public view returns (uint256[] memory) {... */\n    tag_58:\n        /* \"contracts/voting.sol\":5113:5129  uint256[] memory */\n      0x60\n        /* \"contracts/voting.sol\":5142:5163  uint256[] memory temp */\n      0x00\n        /* \"contracts/voting.sol\":5180:5193  electionCount */\n      sload(0x01)\n        /* \"contracts/voting.sol\":5166:5194  new uint256[](electionCount) */\n      0xffffffffffffffff\n      dup2\n      gt\n      iszero\n      tag_263\n      jumpi\n      tag_264\n      tag_142\n      jump\t// in\n    tag_264:\n    tag_263:\n      mload(0x40)\n      swap1\n      dup1\n      dup3\n      mstore\n      dup1\n      0x20\n      mul\n      0x20\n      add\n      dup3\n      add\n      0x40\n      mstore\n      dup1\n      iszero\n      tag_265\n      jumpi\n      dup2\n      0x20\n      add\n      0x20\n      dup3\n      mul\n      dup1\n      calldatasize\n      dup4\n      calldatacopy\n      dup1\n      dup3\n      add\n      swap2\n      pop\n      pop\n      swap1\n      pop\n    tag_265:\n      pop\n        /* \"contracts/voting.sol\":5142:5194  uint256[] memory temp = new uint256[](electionCount) */\n      swap1\n      pop\n        /* \"contracts/voting.sol\":5205:5215  uint count */\n      0x00\n        /* \"contracts/voting.sol\":5235:5244  uint256 i */\n      dup1\n        /* \"contracts/voting.sol\":5247:5248  1 */\n      0x01\n        /* \"contracts/voting.sol\":5235:5248  uint256 i = 1 */\n      swap1\n      pop\n        /* \"contracts/voting.sol\":5230:5421  for (uint256 i = 1; i <= electionCount; i++) {... */\n    tag_266:\n        /* \"contracts/voting.sol\":5255:5268  electionCount */\n      sload(0x01)\n        /* \"contracts/voting.sol\":5250:5251  i */\n      dup2\n        /* \"contracts/voting.sol\":5250:5268  i <= electionCount */\n      gt\n        /* \"contracts/voting.sol\":5230:5421  for (uint256 i = 1; i <= electionCount; i++) {... */\n      tag_267\n      jumpi\n        /* \"contracts/voting.sol\":5294:5303  elections */\n      0x00\n        /* \"contracts/voting.sol\":5294:5306  elections[i] */\n      dup1\n        /* \"contracts/voting.sol\":5304:5305  i */\n      dup3\n        /* \"contracts/voting.sol\":5294:5306  elections[i] */\n      dup2\n      mstore\n      0x20\n      add\n      swap1\n      dup2\n      mstore\n      0x20\n      add\n      0x00\n      keccak256\n        /* \"contracts/voting.sol\":5294:5313  elections[i].active */\n      0x04\n      add\n      0x00\n      swap1\n      sload\n      swap1\n      0x0100\n      exp\n      swap1\n      div\n      0xff\n      and\n        /* \"contracts/voting.sol\":5294:5356  elections[i].active && block.timestamp <= elections[i].endTime */\n      dup1\n      iszero\n      tag_269\n      jumpi\n      pop\n        /* \"contracts/voting.sol\":5336:5345  elections */\n      0x00\n        /* \"contracts/voting.sol\":5336:5348  elections[i] */\n      dup1\n        /* \"contracts/voting.sol\":5346:5347  i */\n      dup3\n        /* \"contracts/voting.sol\":5336:5348  elections[i] */\n      dup2\n      mstore\n      0x20\n      add\n      swap1\n      dup2\n      mstore\n      0x20\n      add\n      0x00\n      keccak256\n        /* \"contracts/voting.sol\":5336:5356  elections[i].endTime */\n      0x05\n      add\n      sload\n        /* \"contracts/voting.sol\":5317:5332  block.timestamp */\n      timestamp\n        /* \"contracts/voting.sol\":5317:5356  block.timestamp <= elections[i].endTime */\n      gt\n      iszero\n        /* \"contracts/voting.sol\":5294:5356  elections[i].active && block.timestamp <= elections[i].endTime */\n    tag_269:\n        /* \"contracts/voting.sol\":5290:5410  if (elections[i].active && block.timestamp <= elections[i].endTime) {... */\n      iszero\n      tag_270\n      jumpi\n        /* \"contracts/voting.sol\":5393:5394  i */\n      dup1\n        /* \"contracts/voting.sol\":5377:5381  temp */\n      dup4\n        /* \"contracts/voting.sol\":5382:5389  count++ */\n      dup4\n      dup1\n      tag_271\n      swap1\n      tag_115\n      jump\t// in\n    tag_271:\n      swap5\n      pop\n        /* \"contracts/voting.sol\":5377:5390  temp[count++] */\n      dup2\n      mload\n      dup2\n      lt\n      tag_272\n      jumpi\n      tag_273\n      tag_104\n      jump\t// in\n    tag_273:\n    tag_272:\n      0x20\n      mul\n      0x20\n      add\n      add\n        /* \"contracts/voting.sol\":5377:5394  temp[count++] = i */\n      dup2\n      dup2\n      mstore\n      pop\n      pop\n        /* \"contracts/voting.sol\":5290:5410  if (elections[i].active && block.timestamp <= elections[i].endTime) {... */\n    tag_270:\n        /* \"contracts/voting.sol\":5270:5273  i++ */\n      dup1\n      dup1\n      tag_274\n      swap1\n      tag_115\n      jump\t// in\n    tag_274:\n      swap2\n      pop\n      pop\n        /* \"contracts/voting.sol\":5230:5421  for (uint256 i = 1; i <= electionCount; i++) {... */\n      jump(tag_266)\n    tag_267:\n      pop\n        /* \"contracts/voting.sol\":5433:5459  uint256[] memory activeIds */\n      0x00\n        /* \"contracts/voting.sol\":5476:5481  count */\n      dup2\n        /* \"contracts/voting.sol\":5462:5482  new uint256[](count) */\n      0xffffffffffffffff\n      dup2\n      gt\n      iszero\n      tag_275\n      jumpi\n      tag_276\n      tag_142\n      jump\t// in\n    tag_276:\n    tag_275:\n      mload(0x40)\n      swap1\n      dup1\n      dup3\n      mstore\n      dup1\n      0x20\n      mul\n      0x20\n      add\n      dup3\n      add\n      0x40\n      mstore\n      dup1\n      iszero\n      tag_277\n      jumpi\n      dup2\n      0x20\n      add\n      0x20\n      dup3\n      mul\n      dup1\n      calldatasize\n      dup4\n      calldatacopy\n      dup1\n      dup3\n      add\n      swap2\n      pop\n      pop\n      swap1\n      pop\n    tag_277:\n      pop\n        /* \"contracts/voting.sol\":5433:5482  uint256[] memory activeIds = new uint256[](count) */\n      swap1\n      pop\n        /* \"contracts/voting.sol\":5498:5507  uint256 i */\n      0x00\n        /* \"contracts/voting.sol\":5493:5578  for (uint256 i = 0; i < count; i++) {... */\n    tag_278:\n        /* \"contracts/voting.sol\":5517:5522  count */\n      dup3\n        /* \"contracts/voting.sol\":5513:5514  i */\n      dup2\n        /* \"contracts/voting.sol\":5513:5522  i < count */\n      lt\n        /* \"contracts/voting.sol\":5493:5578  for (uint256 i = 0; i < count; i++) {... */\n      iszero\n      tag_279\n      jumpi\n        /* \"contracts/voting.sol\":5559:5563  temp */\n      dup4\n        /* \"contracts/voting.sol\":5564:5565  i */\n      dup2\n        /* \"contracts/voting.sol\":5559:5566  temp[i] */\n      dup2\n      mload\n      dup2\n      lt\n      tag_281\n      jumpi\n      tag_282\n      tag_104\n      jump\t// in\n    tag_282:\n    tag_281:\n      0x20\n      mul\n      0x20\n      add\n      add\n      mload\n        /* \"contracts/voting.sol\":5544:5553  activeIds */\n      dup3\n        /* \"contracts/voting.sol\":5554:5555  i */\n      dup3\n        /* \"contracts/voting.sol\":5544:5556  activeIds[i] */\n      dup2\n      mload\n      dup2\n      lt\n      tag_283\n      jumpi\n      tag_284\n      tag_104\n      jump\t// in\n    tag_284:\n    tag_283:\n      0x20\n      mul\n      0x20\n      add\n      add\n        /* \"contracts/voting.sol\":5544:5566  activeIds[i] = temp[i] */\n      dup2\n      dup2\n      mstore\n      pop\n      pop\n        /* \"contracts/voting.sol\":5524:5527  i++ */\n      dup1\n      dup1\n      0x01\n      add\n      swap2\n      pop\n      pop\n        /* \"contracts/voting.sol\":5493:5578  for (uint256 i = 0; i < count; i++) {... */\n      jump(tag_278)\n    tag_279:\n      pop\n        /* \"contracts/voting.sol\":5595:5604  activeIds */\n      dup1\n        /* \"contracts/voting.sol\":5588:5604  return activeIds */\n      swap4\n      pop\n      pop\n      pop\n      pop\n        /* \"contracts/voting.sol\":5062:5612  function getActiveElections() public view returns (uint256[] memory) {... */\n      swap1\n      jump\t// out\n        /* \"contracts/voting.sol\":435:463  uint256 public electionCount */\n    tag_61:\n      sload(0x01)\n      dup2\n      jump\t// out\n        /* \"contracts/voting.sol\":4602:5054  function getElectionInfo(uint256 electionId) public view electionExists(electionId) returns (... */\n    tag_66:\n        /* \"contracts/voting.sol\":4705:4723  string memory name */\n      0x60\n        /* \"contracts/voting.sol\":4734:4757  string[] memory options */\n      dup1\n        /* \"contracts/voting.sol\":4768:4779  bool active */\n      0x00\n        /* \"contracts/voting.sol\":4790:4805  address creator */\n      dup1\n        /* \"contracts/voting.sol\":4816:4831  uint256 endTime */\n      0x00\n        /* \"contracts/voting.sol\":4842:4858  bool isAnonymous */\n      dup1\n        /* \"contracts/voting.sol\":4869:4887  uint256 totalVotes */\n      0x00\n        /* \"contracts/voting.sol\":4674:4684  electionId */\n      dup8\n        /* \"contracts/voting.sol\":1030:1031  0 */\n      0x00\n        /* \"contracts/voting.sol\":1017:1027  electionId */\n      dup2\n        /* \"contracts/voting.sol\":1017:1031  electionId > 0 */\n      gt\n        /* \"contracts/voting.sol\":1017:1062  electionId > 0 && electionId <= electionCount */\n      dup1\n      iszero\n      tag_286\n      jumpi\n      pop\n        /* \"contracts/voting.sol\":1049:1062  electionCount */\n      sload(0x01)\n        /* \"contracts/voting.sol\":1035:1045  electionId */\n      dup2\n        /* \"contracts/voting.sol\":1035:1062  electionId <= electionCount */\n      gt\n      iszero\n        /* \"contracts/voting.sol\":1017:1062  electionId > 0 && electionId <= electionCount */\n    tag_286:\n        /* \"contracts/voting.sol\":1009:1090  require(electionId > 0 && electionId <= electionCount, \"Election does not exist\") */\n      tag_287\n      jumpi\n      mload(0x40)\n      0x08c379a000000000000000000000000000000000000000000000000000000000\n      dup2\n      mstore\n      0x04\n      add\n      tag_288\n      swap1\n      tag_80\n      jump\t// in\n    tag_288:\n      mload(0x40)\n      dup1\n      swap2\n      sub\n      swap1\n      revert\n    tag_287:\n        /* \"contracts/voting.sol\":4906:4924  Election storage e */\n      0x00\n        /* \"contracts/voting.sol\":4927:4936  elections */\n      dup1\n        /* \"contracts/voting.sol\":4927:4948  elections[electionId] */\n      0x00\n        /* \"contracts/voting.sol\":4937:4947  electionId */\n      dup12\n        /* \"contracts/voting.sol\":4927:4948  elections[electionId] */\n      dup2\n      mstore\n      0x20\n      add\n      swap1\n      dup2\n      mstore\n      0x20\n      add\n      0x00\n      keccak256\n        /* \"contracts/voting.sol\":4906:4948  Election storage e = elections[electionId] */\n      swap1\n      pop\n        /* \"contracts/voting.sol\":4967:4968  e */\n      dup1\n        /* \"contracts/voting.sol\":4967:4973  e.name */\n      0x00\n      add\n        /* \"contracts/voting.sol\":4975:4976  e */\n      dup2\n        /* \"contracts/voting.sol\":4975:4984  e.options */\n      0x01\n      add\n        /* \"contracts/voting.sol\":4986:4987  e */\n      dup3\n        /* \"contracts/voting.sol\":4986:4994  e.active */\n      0x04\n      add\n      0x00\n      swap1\n      sload\n      swap1\n      0x0100\n      exp\n      swap1\n      div\n      0xff\n      and\n        /* \"contracts/voting.sol\":4996:4997  e */\n      dup4\n        /* \"contracts/voting.sol\":4996:5005  e.creator */\n      0x04\n      add\n      0x01\n      swap1\n      sload\n      swap1\n      0x0100\n      exp\n      swap1\n      div\n      0xffffffffffffffffffffffffffffffffffffffff\n      and\n        /* \"contracts/voting.sol\":5007:5008  e */\n      dup5\n        /* \"contracts/voting.sol\":5007:5016  e.endTime */\n      0x05\n      add\n      sload\n        /* \"contracts/voting.sol\":5018:5019  e */\n      dup6\n        /* \"contracts/voting.sol\":5018:5031  e.isAnonymous */\n      0x06\n      add\n      0x00\n      swap1\n      sload\n      swap1\n      0x0100\n      exp\n      swap1\n      div\n      0xff\n      and\n        /* \"contracts/voting.sol\":5033:5034  e */\n      dup7\n        /* \"contracts/voting.sol\":5033:5045  e.totalVotes */\n      0x07\n      add\n      sload\n        /* \"contracts/voting.sol\":4959:5046  return (e.name, e.options, e.active, e.creator, e.endTime, e.isAnonymous, e.totalVotes) */\n      dup7\n      dup1\n      sload\n      tag_290\n      swap1\n      tag_196\n      jump\t// in\n    tag_290:\n      dup1\n      0x1f\n      add\n      0x20\n      dup1\n      swap2\n      div\n      mul\n      0x20\n      add\n      mload(0x40)\n      swap1\n      dup2\n      add\n      0x40\n      mstore\n      dup1\n      swap3\n      swap2\n      swap1\n      dup2\n      dup2\n      mstore\n      0x20\n      add\n      dup3\n      dup1\n      sload\n      tag_291\n      swap1\n      tag_196\n      jump\t// in\n    tag_291:\n      dup1\n      iszero\n      tag_292\n      jumpi\n      dup1\n      0x1f\n      lt\n      tag_293\n      jumpi\n      0x0100\n      dup1\n      dup4\n      sload\n      div\n      mul\n      dup4\n      mstore\n      swap2\n      0x20\n      add\n      swap2\n      jump(tag_292)\n    tag_293:\n      dup3\n      add\n      swap2\n      swap1\n      0x00\n      mstore\n      keccak256(0x00, 0x20)\n      swap1\n    tag_294:\n      dup2\n      sload\n      dup2\n      mstore\n      swap1\n      0x01\n      add\n      swap1\n      0x20\n      add\n      dup1\n      dup4\n      gt\n      tag_294\n      jumpi\n      dup3\n      swap1\n      sub\n      0x1f\n      and\n      dup3\n      add\n      swap2\n    tag_292:\n      pop\n      pop\n      pop\n      pop\n      pop\n      swap7\n      pop\n      dup6\n      dup1\n      sload\n      dup1\n      0x20\n      mul\n      0x20\n      add\n      mload(0x40)\n      swap1\n      dup2\n      add\n      0x40\n      mstore\n      dup1\n      swap3\n      swap2\n      swap1\n      dup2\n      dup2\n      mstore\n      0x20\n      add\n      0x00\n      swap1\n    tag_295:\n      dup3\n      dup3\n      lt\n      iszero\n      tag_296\n      jumpi\n      dup4\n      dup3\n      swap1\n      0x00\n      mstore\n      keccak256(0x00, 0x20)\n      add\n      dup1\n      sload\n      tag_298\n      swap1\n      tag_196\n      jump\t// in\n    tag_298:\n      dup1\n      0x1f\n      add\n      0x20\n      dup1\n      swap2\n      div\n      mul\n      0x20\n      add\n      mload(0x40)\n      swap1\n      dup2\n      add\n      0x40\n      mstore\n      dup1\n      swap3\n      swap2\n      swap1\n      dup2\n      dup2\n      mstore\n      0x20\n      add\n      dup3\n      dup1\n      sload\n      tag_299\n      swap1\n      tag_196\n      jump\t// in\n    tag_299:\n      dup1\n      iszero\n      tag_300\n      jumpi\n      dup1\n      0x1f\n      lt\n      tag_301\n      jumpi\n      0x0100\n      dup1\n      dup4\n      sload\n      div\n      mul\n      dup4\n      mstore\n      swap2\n      0x20\n      add\n      swap2\n      jump(tag_300)\n    tag_301:\n      dup3\n      add\n      swap2\n      swap1\n      0x00\n      mstore\n      keccak256(0x00, 0x20)\n      swap1\n    tag_302:\n      dup2\n      sload\n      dup2\n      mstore\n      swap1\n      0x01\n      add\n      swap1\n      0x20\n      add\n      dup1\n      dup4\n      gt\n      tag_302\n      jumpi\n      dup3\n      swap1\n      sub\n      0x1f\n      and\n      dup3\n      add\n      swap2\n    tag_300:\n      pop\n      pop\n      pop\n      pop\n      pop\n      dup2\n      mstore\n      0x20\n      add\n      swap1\n      0x01\n      add\n      swap1\n      jump(tag_295)\n    tag_296:\n      pop\n      pop\n      pop\n      pop\n      swap6\n      pop\n      swap9\n      pop\n      swap9\n      pop\n      swap9\n      pop\n      swap9\n      pop\n      swap9\n      pop\n      swap9\n      pop\n      swap9\n      pop\n      pop\n        /* \"contracts/voting.sol\":4602:5054  function getElectionInfo(uint256 electionId) public view electionExists(electionId) returns (... */\n      pop\n      swap2\n      swap4\n      swap6\n      swap8\n      swap1\n      swap3\n      swap5\n      swap7\n      pop\n      jump\t// out\n        /* \"contracts/voting.sol\":6186:6465  function changeElectionName(uint256 electionId, string memory newName) public onlyCreator(electionId) electionExists(electionId) {... */\n    tag_71:\n        /* \"contracts/voting.sol\":6276:6286  electionId */\n      dup2\n        /* \"contracts/voting.sol\":872:881  elections */\n      0x00\n        /* \"contracts/voting.sol\":872:893  elections[electionId] */\n      dup1\n        /* \"contracts/voting.sol\":882:892  electionId */\n      dup3\n        /* \"contracts/voting.sol\":872:893  elections[electionId] */\n      dup2\n      mstore\n      0x20\n      add\n      swap1\n      dup2\n      mstore\n      0x20\n      add\n      0x00\n      keccak256\n        /* \"contracts/voting.sol\":872:901  elections[electionId].creator */\n      0x04\n      add\n      0x01\n      swap1\n      sload\n      swap1\n      0x0100\n      exp\n      swap1\n      div\n      0xffffffffffffffffffffffffffffffffffffffff\n      and\n        /* \"contracts/voting.sol\":858:901  msg.sender == elections[electionId].creator */\n      0xffffffffffffffffffffffffffffffffffffffff\n      and\n        /* \"contracts/voting.sol\":858:868  msg.sender */\n      caller\n        /* \"contracts/voting.sol\":858:901  msg.sender == elections[electionId].creator */\n      0xffffffffffffffffffffffffffffffffffffffff\n      and\n      eq\n        /* \"contracts/voting.sol\":850:926  require(msg.sender == elections[electionId].creator, \"Only creator allowed\") */\n      tag_304\n      jumpi\n      mload(0x40)\n      0x08c379a000000000000000000000000000000000000000000000000000000000\n      dup2\n      mstore\n      0x04\n      add\n      tag_305\n      swap1\n      tag_75\n      jump\t// in\n    tag_305:\n      mload(0x40)\n      dup1\n      swap2\n      sub\n      swap1\n      revert\n    tag_304:\n        /* \"contracts/voting.sol\":6303:6313  electionId */\n      dup3\n        /* \"contracts/voting.sol\":1030:1031  0 */\n      0x00\n        /* \"contracts/voting.sol\":1017:1027  electionId */\n      dup2\n        /* \"contracts/voting.sol\":1017:1031  electionId > 0 */\n      gt\n        /* \"contracts/voting.sol\":1017:1062  electionId > 0 && electionId <= electionCount */\n      dup1\n      iszero\n      tag_307\n      jumpi\n      pop\n        /* \"contracts/voting.sol\":1049:1062  electionCount */\n      sload(0x01)\n        /* \"contracts/voting.sol\":1035:1045  electionId */\n      dup2\n        /* \"contracts/voting.sol\":1035:1062  electionId <= electionCount */\n      gt\n      iszero\n        /* \"contracts/voting.sol\":1017:1062  electionId > 0 && electionId <= electionCount */\n    tag_307:\n        /* \"contracts/voting.sol\":1009:1090  require(electionId > 0 && electionId <= electionCount, \"Election does not exist\") */\n      tag_308\n      jumpi\n      mload(0x40)\n      0x08c379a000000000000000000000000000000000000000000000000000000000\n      dup2\n      mstore\n      0x04\n      add\n      tag_309\n      swap1\n      tag_80\n      jump\t// in\n    tag_309:\n      mload(0x40)\n      dup1\n      swap2\n      sub\n      swap1\n      revert\n    tag_308:\n        /* \"contracts/voting.sol\":6370:6371  0 */\n      0x00\n        /* \"contracts/voting.sol\":6334:6343  elections */\n      dup1\n        /* \"contracts/voting.sol\":6334:6355  elections[electionId] */\n      0x00\n        /* \"contracts/voting.sol\":6344:6354  electionId */\n      dup7\n        /* \"contracts/voting.sol\":6334:6355  elections[electionId] */\n      dup2\n      mstore\n      0x20\n      add\n      swap1\n      dup2\n      mstore\n      0x20\n      add\n      0x00\n      keccak256\n        /* \"contracts/voting.sol\":6334:6366  elections[electionId].totalVotes */\n      0x07\n      add\n      sload\n        /* \"contracts/voting.sol\":6334:6371  elections[electionId].totalVotes == 0 */\n      eq\n        /* \"contracts/voting.sol\":6326:6410  require(elections[electionId].totalVotes == 0, \"Cannot rename after voting started\") */\n      tag_311\n      jumpi\n      mload(0x40)\n      0x08c379a000000000000000000000000000000000000000000000000000000000\n      dup2\n      mstore\n      0x04\n      add\n      tag_312\n      swap1\n      tag_313\n      jump\t// in\n    tag_312:\n      mload(0x40)\n      dup1\n      swap2\n      sub\n      swap1\n      revert\n    tag_311:\n        /* \"contracts/voting.sol\":6450:6457  newName */\n      dup3\n        /* \"contracts/voting.sol\":6421:6430  elections */\n      0x00\n        /* \"contracts/voting.sol\":6421:6442  elections[electionId] */\n      dup1\n        /* \"contracts/voting.sol\":6431:6441  electionId */\n      dup7\n        /* \"contracts/voting.sol\":6421:6442  elections[electionId] */\n      dup2\n      mstore\n      0x20\n      add\n      swap1\n      dup2\n      mstore\n      0x20\n      add\n      0x00\n      keccak256\n        /* \"contracts/voting.sol\":6421:6447  elections[electionId].name */\n      0x00\n      add\n        /* \"contracts/voting.sol\":6421:6457  elections[electionId].name = newName */\n      swap1\n      dup2\n      tag_314\n      swap2\n      swap1\n      tag_127\n      jump\t// in\n    tag_314:\n      pop\n        /* \"contracts/voting.sol\":937:938  _ */\n      pop\n        /* \"contracts/voting.sol\":6186:6465  function changeElectionName(uint256 electionId, string memory newName) public onlyCreator(electionId) electionExists(electionId) {... */\n      pop\n      pop\n      pop\n      jump\t// out\n    tag_129:\n      dup3\n      dup1\n      sload\n      dup3\n      dup3\n      sstore\n      swap1\n      0x00\n      mstore\n      keccak256(0x00, 0x20)\n      swap1\n      dup2\n      add\n      swap3\n      dup3\n      iszero\n      tag_315\n      jumpi\n      swap2\n      0x20\n      mul\n      dup3\n      add\n    tag_316:\n      dup3\n      dup2\n      gt\n      iszero\n      tag_317\n      jumpi\n      dup3\n      mload\n      dup3\n      swap1\n      dup2\n      tag_318\n      swap2\n      swap1\n      tag_127\n      jump\t// in\n    tag_318:\n      pop\n      swap2\n      0x20\n      add\n      swap2\n      swap1\n      0x01\n      add\n      swap1\n      jump(tag_316)\n    tag_317:\n    tag_315:\n      pop\n      swap1\n      pop\n      tag_319\n      swap2\n      swap1\n      tag_320\n      jump\t// in\n    tag_319:\n      pop\n      swap1\n      jump\t// out\n    tag_216:\n      pop\n      dup1\n      sload\n      tag_321\n      swap1\n      tag_196\n      jump\t// in\n    tag_321:\n      0x00\n      dup3\n      sstore\n      dup1\n      0x1f\n      lt\n      tag_323\n      jumpi\n      pop\n      jump(tag_322)\n    tag_323:\n      0x1f\n      add\n      0x20\n      swap1\n      div\n      swap1\n      0x00\n      mstore\n      keccak256(0x00, 0x20)\n      swap1\n      dup2\n      add\n      swap1\n      tag_324\n      swap2\n      swap1\n      tag_325\n      jump\t// in\n    tag_324:\n    tag_322:\n      pop\n      jump\t// out\n    tag_218:\n      pop\n      dup1\n      sload\n      0x00\n      dup3\n      sstore\n      swap1\n      0x00\n      mstore\n      keccak256(0x00, 0x20)\n      swap1\n      dup2\n      add\n      swap1\n      tag_327\n      swap2\n      swap1\n      tag_320\n      jump\t// in\n    tag_327:\n      pop\n      jump\t// out\n    tag_320:\n    tag_328:\n      dup1\n      dup3\n      gt\n      iszero\n      tag_329\n      jumpi\n      0x00\n      dup2\n      dup2\n      tag_330\n      swap2\n      swap1\n      tag_216\n      jump\t// in\n    tag_330:\n      pop\n      0x01\n      add\n      jump(tag_328)\n    tag_329:\n      pop\n      swap1\n      jump\t// out\n    tag_325:\n    tag_331:\n      dup1\n      dup3\n      gt\n      iszero\n      tag_332\n      jumpi\n      0x00\n      dup2\n      0x00\n      swap1\n      sstore\n      pop\n      0x01\n      add\n      jump(tag_331)\n    tag_332:\n      pop\n      swap1\n      jump\t// out\n        /* \"#utility.yul\":7:82   */\n    tag_333:\n        /* \"#utility.yul\":40:46   */\n      0x00\n        /* \"#utility.yul\":73:75   */\n      0x40\n        /* \"#utility.yul\":67:76   */\n      mload\n        /* \"#utility.yul\":57:76   */\n      swap1\n      pop\n        /* \"#utility.yul\":7:82   */\n      swap1\n      jump\t// out\n        /* \"#utility.yul\":88:205   */\n    tag_334:\n        /* \"#utility.yul\":197:198   */\n      0x00\n        /* \"#utility.yul\":194:195   */\n      dup1\n        /* \"#utility.yul\":187:199   */\n      revert\n        /* \"#utility.yul\":211:328   */\n    tag_335:\n        /* \"#utility.yul\":320:321   */\n      0x00\n        /* \"#utility.yul\":317:318   */\n      dup1\n        /* \"#utility.yul\":310:322   */\n      revert\n        /* \"#utility.yul\":334:411   */\n    tag_336:\n        /* \"#utility.yul\":371:378   */\n      0x00\n        /* \"#utility.yul\":400:405   */\n      dup2\n        /* \"#utility.yul\":389:405   */\n      swap1\n      pop\n        /* \"#utility.yul\":334:411   */\n      swap2\n      swap1\n      pop\n      jump\t// out\n        /* \"#utility.yul\":417:539   */\n    tag_337:\n        /* \"#utility.yul\":490:514   */\n      tag_434\n        /* \"#utility.yul\":508:513   */\n      dup2\n        /* \"#utility.yul\":490:514   */\n      tag_336\n      jump\t// in\n    tag_434:\n        /* \"#utility.yul\":483:488   */\n      dup2\n        /* \"#utility.yul\":480:515   */\n      eq\n        /* \"#utility.yul\":470:533   */\n      tag_435\n      jumpi\n        /* \"#utility.yul\":529:530   */\n      0x00\n        /* \"#utility.yul\":526:527   */\n      dup1\n        /* \"#utility.yul\":519:531   */\n      revert\n        /* \"#utility.yul\":470:533   */\n    tag_435:\n        /* \"#utility.yul\":417:539   */\n      pop\n      jump\t// out\n        /* \"#utility.yul\":545:684   */\n    tag_338:\n        /* \"#utility.yul\":591:596   */\n      0x00\n        /* \"#utility.yul\":629:635   */\n      dup2\n        /* \"#utility.yul\":616:636   */\n      calldataload\n        /* \"#utility.yul\":607:636   */\n      swap1\n      pop\n        /* \"#utility.yul\":645:678   */\n      tag_437\n        /* \"#utility.yul\":672:677   */\n      dup2\n        /* \"#utility.yul\":645:678   */\n      tag_337\n      jump\t// in\n    tag_437:\n        /* \"#utility.yul\":545:684   */\n      swap3\n      swap2\n      pop\n      pop\n      jump\t// out\n        /* \"#utility.yul\":690:1019   */\n    tag_20:\n        /* \"#utility.yul\":749:755   */\n      0x00\n        /* \"#utility.yul\":798:800   */\n      0x20\n        /* \"#utility.yul\":786:795   */\n      dup3\n        /* \"#utility.yul\":777:784   */\n      dup5\n        /* \"#utility.yul\":773:796   */\n      sub\n        /* \"#utility.yul\":769:801   */\n      slt\n        /* \"#utility.yul\":766:885   */\n      iszero\n      tag_439\n      jumpi\n        /* \"#utility.yul\":804:883   */\n      tag_440\n      tag_334\n      jump\t// in\n    tag_440:\n        /* \"#utility.yul\":766:885   */\n    tag_439:\n        /* \"#utility.yul\":924:925   */\n      0x00\n        /* \"#utility.yul\":949:1002   */\n      tag_441\n        /* \"#utility.yul\":994:1001   */\n      dup5\n        /* \"#utility.yul\":985:991   */\n      dup3\n        /* \"#utility.yul\":974:983   */\n      dup6\n        /* \"#utility.yul\":970:992   */\n      add\n        /* \"#utility.yul\":949:1002   */\n      tag_338\n      jump\t// in\n    tag_441:\n        /* \"#utility.yul\":939:1002   */\n      swap2\n      pop\n        /* \"#utility.yul\":895:1012   */\n      pop\n        /* \"#utility.yul\":690:1019   */\n      swap3\n      swap2\n      pop\n      pop\n      jump\t// out\n        /* \"#utility.yul\":1025:1142   */\n    tag_339:\n        /* \"#utility.yul\":1134:1135   */\n      0x00\n        /* \"#utility.yul\":1131:1132   */\n      dup1\n        /* \"#utility.yul\":1124:1136   */\n      revert\n        /* \"#utility.yul\":1148:1265   */\n    tag_340:\n        /* \"#utility.yul\":1257:1258   */\n      0x00\n        /* \"#utility.yul\":1254:1255   */\n      dup1\n        /* \"#utility.yul\":1247:1259   */\n      revert\n        /* \"#utility.yul\":1271:1373   */\n    tag_341:\n        /* \"#utility.yul\":1312:1318   */\n      0x00\n        /* \"#utility.yul\":1363:1365   */\n      0x1f\n        /* \"#utility.yul\":1359:1366   */\n      not\n        /* \"#utility.yul\":1354:1356   */\n      0x1f\n        /* \"#utility.yul\":1347:1352   */\n      dup4\n        /* \"#utility.yul\":1343:1357   */\n      add\n        /* \"#utility.yul\":1339:1367   */\n      and\n        /* \"#utility.yul\":1329:1367   */\n      swap1\n      pop\n        /* \"#utility.yul\":1271:1373   */\n      swap2\n      swap1\n      pop\n      jump\t// out\n        /* \"#utility.yul\":1379:1559   */\n    tag_142:\n        /* \"#utility.yul\":1427:1504   */\n      0x4e487b7100000000000000000000000000000000000000000000000000000000\n        /* \"#utility.yul\":1424:1425   */\n      0x00\n        /* \"#utility.yul\":1417:1505   */\n      mstore\n        /* \"#utility.yul\":1524:1528   */\n      0x41\n        /* \"#utility.yul\":1521:1522   */\n      0x04\n        /* \"#utility.yul\":1514:1529   */\n      mstore\n        /* \"#utility.yul\":1548:1552   */\n      0x24\n        /* \"#utility.yul\":1545:1546   */\n      0x00\n        /* \"#utility.yul\":1538:1553   */\n      revert\n        /* \"#utility.yul\":1565:1846   */\n    tag_342:\n        /* \"#utility.yul\":1648:1675   */\n      tag_447\n        /* \"#utility.yul\":1670:1674   */\n      dup3\n        /* \"#utility.yul\":1648:1675   */\n      tag_341\n      jump\t// in\n    tag_447:\n        /* \"#utility.yul\":1640:1646   */\n      dup2\n        /* \"#utility.yul\":1636:1676   */\n      add\n        /* \"#utility.yul\":1778:1784   */\n      dup2\n        /* \"#utility.yul\":1766:1776   */\n      dup2\n        /* \"#utility.yul\":1763:1785   */\n      lt\n        /* \"#utility.yul\":1742:1760   */\n      0xffffffffffffffff\n        /* \"#utility.yul\":1730:1740   */\n      dup3\n        /* \"#utility.yul\":1727:1761   */\n      gt\n        /* \"#utility.yul\":1724:1786   */\n      or\n        /* \"#utility.yul\":1721:1809   */\n      iszero\n      tag_448\n      jumpi\n        /* \"#utility.yul\":1789:1807   */\n      tag_449\n      tag_142\n      jump\t// in\n    tag_449:\n        /* \"#utility.yul\":1721:1809   */\n    tag_448:\n        /* \"#utility.yul\":1829:1839   */\n      dup1\n        /* \"#utility.yul\":1825:1827   */\n      0x40\n        /* \"#utility.yul\":1818:1840   */\n      mstore\n        /* \"#utility.yul\":1608:1846   */\n      pop\n        /* \"#utility.yul\":1565:1846   */\n      pop\n      pop\n      jump\t// out\n        /* \"#utility.yul\":1852:1981   */\n    tag_343:\n        /* \"#utility.yul\":1886:1892   */\n      0x00\n        /* \"#utility.yul\":1913:1933   */\n      tag_451\n      tag_333\n      jump\t// in\n    tag_451:\n        /* \"#utility.yul\":1903:1933   */\n      swap1\n      pop\n        /* \"#utility.yul\":1942:1975   */\n      tag_452\n        /* \"#utility.yul\":1970:1974   */\n      dup3\n        /* \"#utility.yul\":1962:1968   */\n      dup3\n        /* \"#utility.yul\":1942:1975   */\n      tag_342\n      jump\t// in\n    tag_452:\n        /* \"#utility.yul\":1852:1981   */\n      swap2\n      swap1\n      pop\n      jump\t// out\n        /* \"#utility.yul\":1987:2295   */\n    tag_344:\n        /* \"#utility.yul\":2049:2053   */\n      0x00\n        /* \"#utility.yul\":2139:2157   */\n      0xffffffffffffffff\n        /* \"#utility.yul\":2131:2137   */\n      dup3\n        /* \"#utility.yul\":2128:2158   */\n      gt\n        /* \"#utility.yul\":2125:2181   */\n      iszero\n      tag_454\n      jumpi\n        /* \"#utility.yul\":2161:2179   */\n      tag_455\n      tag_142\n      jump\t// in\n    tag_455:\n        /* \"#utility.yul\":2125:2181   */\n    tag_454:\n        /* \"#utility.yul\":2199:2228   */\n      tag_456\n        /* \"#utility.yul\":2221:2227   */\n      dup3\n        /* \"#utility.yul\":2199:2228   */\n      tag_341\n      jump\t// in\n    tag_456:\n        /* \"#utility.yul\":2191:2228   */\n      swap1\n      pop\n        /* \"#utility.yul\":2283:2287   */\n      0x20\n        /* \"#utility.yul\":2277:2281   */\n      dup2\n        /* \"#utility.yul\":2273:2288   */\n      add\n        /* \"#utility.yul\":2265:2288   */\n      swap1\n      pop\n        /* \"#utility.yul\":1987:2295   */\n      swap2\n      swap1\n      pop\n      jump\t// out\n        /* \"#utility.yul\":2301:2449   */\n    tag_345:\n        /* \"#utility.yul\":2399:2405   */\n      dup3\n        /* \"#utility.yul\":2394:2397   */\n      dup2\n        /* \"#utility.yul\":2389:2392   */\n      dup4\n        /* \"#utility.yul\":2376:2406   */\n      calldatacopy\n        /* \"#utility.yul\":2440:2441   */\n      0x00\n        /* \"#utility.yul\":2431:2437   */\n      dup4\n        /* \"#utility.yul\":2426:2429   */\n      dup4\n        /* \"#utility.yul\":2422:2438   */\n      add\n        /* \"#utility.yul\":2415:2442   */\n      mstore\n        /* \"#utility.yul\":2301:2449   */\n      pop\n      pop\n      pop\n      jump\t// out\n        /* \"#utility.yul\":2455:2880   */\n    tag_346:\n        /* \"#utility.yul\":2533:2538   */\n      0x00\n        /* \"#utility.yul\":2558:2624   */\n      tag_459\n        /* \"#utility.yul\":2574:2623   */\n      tag_460\n        /* \"#utility.yul\":2616:2622   */\n      dup5\n        /* \"#utility.yul\":2574:2623   */\n      tag_344\n      jump\t// in\n    tag_460:\n        /* \"#utility.yul\":2558:2624   */\n      tag_343\n      jump\t// in\n    tag_459:\n        /* \"#utility.yul\":2549:2624   */\n      swap1\n      pop\n        /* \"#utility.yul\":2647:2653   */\n      dup3\n        /* \"#utility.yul\":2640:2645   */\n      dup2\n        /* \"#utility.yul\":2633:2654   */\n      mstore\n        /* \"#utility.yul\":2685:2689   */\n      0x20\n        /* \"#utility.yul\":2678:2683   */\n      dup2\n        /* \"#utility.yul\":2674:2690   */\n      add\n        /* \"#utility.yul\":2723:2726   */\n      dup5\n        /* \"#utility.yul\":2714:2720   */\n      dup5\n        /* \"#utility.yul\":2709:2712   */\n      dup5\n        /* \"#utility.yul\":2705:2721   */\n      add\n        /* \"#utility.yul\":2702:2727   */\n      gt\n        /* \"#utility.yul\":2699:2811   */\n      iszero\n      tag_461\n      jumpi\n        /* \"#utility.yul\":2730:2809   */\n      tag_462\n      tag_340\n      jump\t// in\n    tag_462:\n        /* \"#utility.yul\":2699:2811   */\n    tag_461:\n        /* \"#utility.yul\":2820:2874   */\n      tag_463\n        /* \"#utility.yul\":2867:2873   */\n      dup5\n        /* \"#utility.yul\":2862:2865   */\n      dup3\n        /* \"#utility.yul\":2857:2860   */\n      dup6\n        /* \"#utility.yul\":2820:2874   */\n      tag_345\n      jump\t// in\n    tag_463:\n        /* \"#utility.yul\":2539:2880   */\n      pop\n        /* \"#utility.yul\":2455:2880   */\n      swap4\n      swap3\n      pop\n      pop\n      pop\n      jump\t// out\n        /* \"#utility.yul\":2900:3240   */\n    tag_347:\n        /* \"#utility.yul\":2956:2961   */\n      0x00\n        /* \"#utility.yul\":3005:3008   */\n      dup3\n        /* \"#utility.yul\":2998:3002   */\n      0x1f\n        /* \"#utility.yul\":2990:2996   */\n      dup4\n        /* \"#utility.yul\":2986:3003   */\n      add\n        /* \"#utility.yul\":2982:3009   */\n      slt\n        /* \"#utility.yul\":2972:3094   */\n      tag_465\n      jumpi\n        /* \"#utility.yul\":3013:3092   */\n      tag_466\n      tag_339\n      jump\t// in\n    tag_466:\n        /* \"#utility.yul\":2972:3094   */\n    tag_465:\n        /* \"#utility.yul\":3130:3136   */\n      dup2\n        /* \"#utility.yul\":3117:3137   */\n      calldataload\n        /* \"#utility.yul\":3155:3234   */\n      tag_467\n        /* \"#utility.yul\":3230:3233   */\n      dup5\n        /* \"#utility.yul\":3222:3228   */\n      dup3\n        /* \"#utility.yul\":3215:3219   */\n      0x20\n        /* \"#utility.yul\":3207:3213   */\n      dup7\n        /* \"#utility.yul\":3203:3220   */\n      add\n        /* \"#utility.yul\":3155:3234   */\n      tag_346\n      jump\t// in\n    tag_467:\n        /* \"#utility.yul\":3146:3234   */\n      swap2\n      pop\n        /* \"#utility.yul\":2962:3240   */\n      pop\n        /* \"#utility.yul\":2900:3240   */\n      swap3\n      swap2\n      pop\n      pop\n      jump\t// out\n        /* \"#utility.yul\":3246:3900   */\n    tag_24:\n        /* \"#utility.yul\":3324:3330   */\n      0x00\n        /* \"#utility.yul\":3332:3338   */\n      dup1\n        /* \"#utility.yul\":3381:3383   */\n      0x40\n        /* \"#utility.yul\":3369:3378   */\n      dup4\n        /* \"#utility.yul\":3360:3367   */\n      dup6\n        /* \"#utility.yul\":3356:3379   */\n      sub\n        /* \"#utility.yul\":3352:3384   */\n      slt\n        /* \"#utility.yul\":3349:3468   */\n      iszero\n      tag_469\n      jumpi\n        /* \"#utility.yul\":3387:3466   */\n      tag_470\n      tag_334\n      jump\t// in\n    tag_470:\n        /* \"#utility.yul\":3349:3468   */\n    tag_469:\n        /* \"#utility.yul\":3507:3508   */\n      0x00\n        /* \"#utility.yul\":3532:3585   */\n      tag_471\n        /* \"#utility.yul\":3577:3584   */\n      dup6\n        /* \"#utility.yul\":3568:3574   */\n      dup3\n        /* \"#utility.yul\":3557:3566   */\n      dup7\n        /* \"#utility.yul\":3553:3575   */\n      add\n        /* \"#utility.yul\":3532:3585   */\n      tag_338\n      jump\t// in\n    tag_471:\n        /* \"#utility.yul\":3522:3585   */\n      swap3\n      pop\n        /* \"#utility.yul\":3478:3595   */\n      pop\n        /* \"#utility.yul\":3662:3664   */\n      0x20\n        /* \"#utility.yul\":3651:3660   */\n      dup4\n        /* \"#utility.yul\":3647:3665   */\n      add\n        /* \"#utility.yul\":3634:3666   */\n      calldataload\n        /* \"#utility.yul\":3693:3711   */\n      0xffffffffffffffff\n        /* \"#utility.yul\":3685:3691   */\n      dup2\n        /* \"#utility.yul\":3682:3712   */\n      gt\n        /* \"#utility.yul\":3679:3796   */\n      iszero\n      tag_472\n      jumpi\n        /* \"#utility.yul\":3715:3794   */\n      tag_473\n      tag_335\n      jump\t// in\n    tag_473:\n        /* \"#utility.yul\":3679:3796   */\n    tag_472:\n        /* \"#utility.yul\":3820:3883   */\n      tag_474\n        /* \"#utility.yul\":3875:3882   */\n      dup6\n        /* \"#utility.yul\":3866:3872   */\n      dup3\n        /* \"#utility.yul\":3855:3864   */\n      dup7\n        /* \"#utility.yul\":3851:3873   */\n      add\n        /* \"#utility.yul\":3820:3883   */\n      tag_347\n      jump\t// in\n    tag_474:\n        /* \"#utility.yul\":3810:3883   */\n      swap2\n      pop\n        /* \"#utility.yul\":3605:3893   */\n      pop\n        /* \"#utility.yul\":3246:3900   */\n      swap3\n      pop\n      swap3\n      swap1\n      pop\n      jump\t// out\n        /* \"#utility.yul\":3906:4227   */\n    tag_348:\n        /* \"#utility.yul\":3993:3997   */\n      0x00\n        /* \"#utility.yul\":4083:4101   */\n      0xffffffffffffffff\n        /* \"#utility.yul\":4075:4081   */\n      dup3\n        /* \"#utility.yul\":4072:4102   */\n      gt\n        /* \"#utility.yul\":4069:4125   */\n      iszero\n      tag_476\n      jumpi\n        /* \"#utility.yul\":4105:4123   */\n      tag_477\n      tag_142\n      jump\t// in\n    tag_477:\n        /* \"#utility.yul\":4069:4125   */\n    tag_476:\n        /* \"#utility.yul\":4155:4159   */\n      0x20\n        /* \"#utility.yul\":4147:4153   */\n      dup3\n        /* \"#utility.yul\":4143:4160   */\n      mul\n        /* \"#utility.yul\":4135:4160   */\n      swap1\n      pop\n        /* \"#utility.yul\":4215:4219   */\n      0x20\n        /* \"#utility.yul\":4209:4213   */\n      dup2\n        /* \"#utility.yul\":4205:4220   */\n      add\n        /* \"#utility.yul\":4197:4220   */\n      swap1\n      pop\n        /* \"#utility.yul\":3906:4227   */\n      swap2\n      swap1\n      pop\n      jump\t// out\n        /* \"#utility.yul\":4233:4350   */\n    tag_349:\n        /* \"#utility.yul\":4342:4343   */\n      0x00\n        /* \"#utility.yul\":4339:4340   */\n      dup1\n        /* \"#utility.yul\":4332:4344   */\n      revert\n        /* \"#utility.yul\":4372:5317   */\n    tag_350:\n        /* \"#utility.yul\":4478:4483   */\n      0x00\n        /* \"#utility.yul\":4503:4594   */\n      tag_480\n        /* \"#utility.yul\":4519:4593   */\n      tag_481\n        /* \"#utility.yul\":4586:4592   */\n      dup5\n        /* \"#utility.yul\":4519:4593   */\n      tag_348\n      jump\t// in\n    tag_481:\n        /* \"#utility.yul\":4503:4594   */\n      tag_343\n      jump\t// in\n    tag_480:\n        /* \"#utility.yul\":4494:4594   */\n      swap1\n      pop\n        /* \"#utility.yul\":4614:4619   */\n      dup1\n        /* \"#utility.yul\":4643:4649   */\n      dup4\n        /* \"#utility.yul\":4636:4641   */\n      dup3\n        /* \"#utility.yul\":4629:4650   */\n      mstore\n        /* \"#utility.yul\":4677:4681   */\n      0x20\n        /* \"#utility.yul\":4670:4675   */\n      dup3\n        /* \"#utility.yul\":4666:4682   */\n      add\n        /* \"#utility.yul\":4659:4682   */\n      swap1\n      pop\n        /* \"#utility.yul\":4730:4734   */\n      0x20\n        /* \"#utility.yul\":4722:4728   */\n      dup5\n        /* \"#utility.yul\":4718:4735   */\n      mul\n        /* \"#utility.yul\":4710:4716   */\n      dup4\n        /* \"#utility.yul\":4706:4736   */\n      add\n        /* \"#utility.yul\":4759:4762   */\n      dup6\n        /* \"#utility.yul\":4751:4757   */\n      dup2\n        /* \"#utility.yul\":4748:4763   */\n      gt\n        /* \"#utility.yul\":4745:4867   */\n      iszero\n      tag_482\n      jumpi\n        /* \"#utility.yul\":4778:4857   */\n      tag_483\n      tag_349\n      jump\t// in\n    tag_483:\n        /* \"#utility.yul\":4745:4867   */\n    tag_482:\n        /* \"#utility.yul\":4893:4899   */\n      dup4\n        /* \"#utility.yul\":4876:5311   */\n    tag_484:\n        /* \"#utility.yul\":4910:4916   */\n      dup2\n        /* \"#utility.yul\":4905:4908   */\n      dup2\n        /* \"#utility.yul\":4902:4917   */\n      lt\n        /* \"#utility.yul\":4876:5311   */\n      iszero\n      tag_486\n      jumpi\n        /* \"#utility.yul\":4999:5002   */\n      dup1\n        /* \"#utility.yul\":4986:5003   */\n      calldataload\n        /* \"#utility.yul\":5035:5053   */\n      0xffffffffffffffff\n        /* \"#utility.yul\":5022:5033   */\n      dup2\n        /* \"#utility.yul\":5019:5054   */\n      gt\n        /* \"#utility.yul\":5016:5138   */\n      iszero\n      tag_487\n      jumpi\n        /* \"#utility.yul\":5057:5136   */\n      tag_488\n      tag_339\n      jump\t// in\n    tag_488:\n        /* \"#utility.yul\":5016:5138   */\n    tag_487:\n        /* \"#utility.yul\":5181:5192   */\n      dup1\n        /* \"#utility.yul\":5173:5179   */\n      dup7\n        /* \"#utility.yul\":5169:5193   */\n      add\n        /* \"#utility.yul\":5219:5266   */\n      tag_489\n        /* \"#utility.yul\":5262:5265   */\n      dup10\n        /* \"#utility.yul\":5250:5260   */\n      dup3\n        /* \"#utility.yul\":5219:5266   */\n      tag_347\n      jump\t// in\n    tag_489:\n        /* \"#utility.yul\":5214:5217   */\n      dup6\n        /* \"#utility.yul\":5207:5267   */\n      mstore\n        /* \"#utility.yul\":5296:5300   */\n      0x20\n        /* \"#utility.yul\":5291:5294   */\n      dup6\n        /* \"#utility.yul\":5287:5301   */\n      add\n        /* \"#utility.yul\":5280:5301   */\n      swap5\n      pop\n        /* \"#utility.yul\":4952:5311   */\n      pop\n      pop\n        /* \"#utility.yul\":4936:4940   */\n      0x20\n        /* \"#utility.yul\":4931:4934   */\n      dup2\n        /* \"#utility.yul\":4927:4941   */\n      add\n        /* \"#utility.yul\":4920:4941   */\n      swap1\n      pop\n        /* \"#utility.yul\":4876:5311   */\n      jump(tag_484)\n    tag_486:\n        /* \"#utility.yul\":4880:4901   */\n      pop\n        /* \"#utility.yul\":4484:5317   */\n      pop\n      pop\n        /* \"#utility.yul\":4372:5317   */\n      swap4\n      swap3\n      pop\n      pop\n      pop\n      jump\t// out\n        /* \"#utility.yul\":5339:5729   */\n    tag_351:\n        /* \"#utility.yul\":5420:5425   */\n      0x00\n        /* \"#utility.yul\":5469:5472   */\n      dup3\n        /* \"#utility.yul\":5462:5466   */\n      0x1f\n        /* \"#utility.yul\":5454:5460   */\n      dup4\n        /* \"#utility.yul\":5450:5467   */\n      add\n        /* \"#utility.yul\":5446:5473   */\n      slt\n        /* \"#utility.yul\":5436:5558   */\n      tag_491\n      jumpi\n        /* \"#utility.yul\":5477:5556   */\n      tag_492\n      tag_339\n      jump\t// in\n    tag_492:\n        /* \"#utility.yul\":5436:5558   */\n    tag_491:\n        /* \"#utility.yul\":5594:5600   */\n      dup2\n        /* \"#utility.yul\":5581:5601   */\n      calldataload\n        /* \"#utility.yul\":5619:5723   */\n      tag_493\n        /* \"#utility.yul\":5719:5722   */\n      dup5\n        /* \"#utility.yul\":5711:5717   */\n      dup3\n        /* \"#utility.yul\":5704:5708   */\n      0x20\n        /* \"#utility.yul\":5696:5702   */\n      dup7\n        /* \"#utility.yul\":5692:5709   */\n      add\n        /* \"#utility.yul\":5619:5723   */\n      tag_350\n      jump\t// in\n    tag_493:\n        /* \"#utility.yul\":5610:5723   */\n      swap2\n      pop\n        /* \"#utility.yul\":5426:5729   */\n      pop\n        /* \"#utility.yul\":5339:5729   */\n      swap3\n      swap2\n      pop\n      pop\n      jump\t// out\n        /* \"#utility.yul\":5735:5825   */\n    tag_352:\n        /* \"#utility.yul\":5769:5776   */\n      0x00\n        /* \"#utility.yul\":5812:5817   */\n      dup2\n        /* \"#utility.yul\":5805:5818   */\n      iszero\n        /* \"#utility.yul\":5798:5819   */\n      iszero\n        /* \"#utility.yul\":5787:5819   */\n      swap1\n      pop\n        /* \"#utility.yul\":5735:5825   */\n      swap2\n      swap1\n      pop\n      jump\t// out\n        /* \"#utility.yul\":5831:5947   */\n    tag_353:\n        /* \"#utility.yul\":5901:5922   */\n      tag_496\n        /* \"#utility.yul\":5916:5921   */\n      dup2\n        /* \"#utility.yul\":5901:5922   */\n      tag_352\n      jump\t// in\n    tag_496:\n        /* \"#utility.yul\":5894:5899   */\n      dup2\n        /* \"#utility.yul\":5891:5923   */\n      eq\n        /* \"#utility.yul\":5881:5941   */\n      tag_497\n      jumpi\n        /* \"#utility.yul\":5937:5938   */\n      0x00\n        /* \"#utility.yul\":5934:5935   */\n      dup1\n        /* \"#utility.yul\":5927:5939   */\n      revert\n        /* \"#utility.yul\":5881:5941   */\n    tag_497:\n        /* \"#utility.yul\":5831:5947   */\n      pop\n      jump\t// out\n        /* \"#utility.yul\":5953:6086   */\n    tag_354:\n        /* \"#utility.yul\":5996:6001   */\n      0x00\n        /* \"#utility.yul\":6034:6040   */\n      dup2\n        /* \"#utility.yul\":6021:6041   */\n      calldataload\n        /* \"#utility.yul\":6012:6041   */\n      swap1\n      pop\n        /* \"#utility.yul\":6050:6080   */\n      tag_499\n        /* \"#utility.yul\":6074:6079   */\n      dup2\n        /* \"#utility.yul\":6050:6080   */\n      tag_353\n      jump\t// in\n    tag_499:\n        /* \"#utility.yul\":5953:6086   */\n      swap3\n      swap2\n      pop\n      pop\n      jump\t// out\n        /* \"#utility.yul\":6092:7261   */\n    tag_28:\n        /* \"#utility.yul\":6220:6226   */\n      0x00\n        /* \"#utility.yul\":6228:6234   */\n      dup1\n        /* \"#utility.yul\":6236:6242   */\n      0x00\n        /* \"#utility.yul\":6244:6250   */\n      dup1\n        /* \"#utility.yul\":6293:6296   */\n      0x80\n        /* \"#utility.yul\":6281:6290   */\n      dup6\n        /* \"#utility.yul\":6272:6279   */\n      dup8\n        /* \"#utility.yul\":6268:6291   */\n      sub\n        /* \"#utility.yul\":6264:6297   */\n      slt\n        /* \"#utility.yul\":6261:6381   */\n      iszero\n      tag_501\n      jumpi\n        /* \"#utility.yul\":6300:6379   */\n      tag_502\n      tag_334\n      jump\t// in\n    tag_502:\n        /* \"#utility.yul\":6261:6381   */\n    tag_501:\n        /* \"#utility.yul\":6448:6449   */\n      0x00\n        /* \"#utility.yul\":6437:6446   */\n      dup6\n        /* \"#utility.yul\":6433:6450   */\n      add\n        /* \"#utility.yul\":6420:6451   */\n      calldataload\n        /* \"#utility.yul\":6478:6496   */\n      0xffffffffffffffff\n        /* \"#utility.yul\":6470:6476   */\n      dup2\n        /* \"#utility.yul\":6467:6497   */\n      gt\n        /* \"#utility.yul\":6464:6581   */\n      iszero\n      tag_503\n      jumpi\n        /* \"#utility.yul\":6500:6579   */\n      tag_504\n      tag_335\n      jump\t// in\n    tag_504:\n        /* \"#utility.yul\":6464:6581   */\n    tag_503:\n        /* \"#utility.yul\":6605:6668   */\n      tag_505\n        /* \"#utility.yul\":6660:6667   */\n      dup8\n        /* \"#utility.yul\":6651:6657   */\n      dup3\n        /* \"#utility.yul\":6640:6649   */\n      dup9\n        /* \"#utility.yul\":6636:6658   */\n      add\n        /* \"#utility.yul\":6605:6668   */\n      tag_347\n      jump\t// in\n    tag_505:\n        /* \"#utility.yul\":6595:6668   */\n      swap5\n      pop\n        /* \"#utility.yul\":6391:6678   */\n      pop\n        /* \"#utility.yul\":6745:6747   */\n      0x20\n        /* \"#utility.yul\":6734:6743   */\n      dup6\n        /* \"#utility.yul\":6730:6748   */\n      add\n        /* \"#utility.yul\":6717:6749   */\n      calldataload\n        /* \"#utility.yul\":6776:6794   */\n      0xffffffffffffffff\n        /* \"#utility.yul\":6768:6774   */\n      dup2\n        /* \"#utility.yul\":6765:6795   */\n      gt\n        /* \"#utility.yul\":6762:6879   */\n      iszero\n      tag_506\n      jumpi\n        /* \"#utility.yul\":6798:6877   */\n      tag_507\n      tag_335\n      jump\t// in\n    tag_507:\n        /* \"#utility.yul\":6762:6879   */\n    tag_506:\n        /* \"#utility.yul\":6903:6991   */\n      tag_508\n        /* \"#utility.yul\":6983:6990   */\n      dup8\n        /* \"#utility.yul\":6974:6980   */\n      dup3\n        /* \"#utility.yul\":6963:6972   */\n      dup9\n        /* \"#utility.yul\":6959:6981   */\n      add\n        /* \"#utility.yul\":6903:6991   */\n      tag_351\n      jump\t// in\n    tag_508:\n        /* \"#utility.yul\":6893:6991   */\n      swap4\n      pop\n        /* \"#utility.yul\":6688:7001   */\n      pop\n        /* \"#utility.yul\":7040:7042   */\n      0x40\n        /* \"#utility.yul\":7066:7119   */\n      tag_509\n        /* \"#utility.yul\":7111:7118   */\n      dup8\n        /* \"#utility.yul\":7102:7108   */\n      dup3\n        /* \"#utility.yul\":7091:7100   */\n      dup9\n        /* \"#utility.yul\":7087:7109   */\n      add\n        /* \"#utility.yul\":7066:7119   */\n      tag_338\n      jump\t// in\n    tag_509:\n        /* \"#utility.yul\":7056:7119   */\n      swap3\n      pop\n        /* \"#utility.yul\":7011:7129   */\n      pop\n        /* \"#utility.yul\":7168:7170   */\n      0x60\n        /* \"#utility.yul\":7194:7244   */\n      tag_510\n        /* \"#utility.yul\":7236:7243   */\n      dup8\n        /* \"#utility.yul\":7227:7233   */\n      dup3\n        /* \"#utility.yul\":7216:7225   */\n      dup9\n        /* \"#utility.yul\":7212:7234   */\n      add\n        /* \"#utility.yul\":7194:7244   */\n      tag_354\n      jump\t// in\n    tag_510:\n        /* \"#utility.yul\":7184:7244   */\n      swap2\n      pop\n        /* \"#utility.yul\":7139:7254   */\n      pop\n        /* \"#utility.yul\":6092:7261   */\n      swap3\n      swap6\n      swap2\n      swap5\n      pop\n      swap3\n      pop\n      jump\t// out\n        /* \"#utility.yul\":7267:7393   */\n    tag_355:\n        /* \"#utility.yul\":7304:7311   */\n      0x00\n        /* \"#utility.yul\":7344:7386   */\n      0xffffffffffffffffffffffffffffffffffffffff\n        /* \"#utility.yul\":7337:7342   */\n      dup3\n        /* \"#utility.yul\":7333:7387   */\n      and\n        /* \"#utility.yul\":7322:7387   */\n      swap1\n      pop\n        /* \"#utility.yul\":7267:7393   */\n      swap2\n      swap1\n      pop\n      jump\t// out\n        /* \"#utility.yul\":7399:7495   */\n    tag_356:\n        /* \"#utility.yul\":7436:7443   */\n      0x00\n        /* \"#utility.yul\":7465:7489   */\n      tag_513\n        /* \"#utility.yul\":7483:7488   */\n      dup3\n        /* \"#utility.yul\":7465:7489   */\n      tag_355\n      jump\t// in\n    tag_513:\n        /* \"#utility.yul\":7454:7489   */\n      swap1\n      pop\n        /* \"#utility.yul\":7399:7495   */\n      swap2\n      swap1\n      pop\n      jump\t// out\n        /* \"#utility.yul\":7501:7623   */\n    tag_357:\n        /* \"#utility.yul\":7574:7598   */\n      tag_515\n        /* \"#utility.yul\":7592:7597   */\n      dup2\n        /* \"#utility.yul\":7574:7598   */\n      tag_356\n      jump\t// in\n    tag_515:\n        /* \"#utility.yul\":7567:7572   */\n      dup2\n        /* \"#utility.yul\":7564:7599   */\n      eq\n        /* \"#utility.yul\":7554:7617   */\n      tag_516\n      jumpi\n        /* \"#utility.yul\":7613:7614   */\n      0x00\n        /* \"#utility.yul\":7610:7611   */\n      dup1\n        /* \"#utility.yul\":7603:7615   */\n      revert\n        /* \"#utility.yul\":7554:7617   */\n    tag_516:\n        /* \"#utility.yul\":7501:7623   */\n      pop\n      jump\t// out\n        /* \"#utility.yul\":7629:7768   */\n    tag_358:\n        /* \"#utility.yul\":7675:7680   */\n      0x00\n        /* \"#utility.yul\":7713:7719   */\n      dup2\n        /* \"#utility.yul\":7700:7720   */\n      calldataload\n        /* \"#utility.yul\":7691:7720   */\n      swap1\n      pop\n        /* \"#utility.yul\":7729:7762   */\n      tag_518\n        /* \"#utility.yul\":7756:7761   */\n      dup2\n        /* \"#utility.yul\":7729:7762   */\n      tag_357\n      jump\t// in\n    tag_518:\n        /* \"#utility.yul\":7629:7768   */\n      swap3\n      swap2\n      pop\n      pop\n      jump\t// out\n        /* \"#utility.yul\":7774:8248   */\n    tag_32:\n        /* \"#utility.yul\":7842:7848   */\n      0x00\n        /* \"#utility.yul\":7850:7856   */\n      dup1\n        /* \"#utility.yul\":7899:7901   */\n      0x40\n        /* \"#utility.yul\":7887:7896   */\n      dup4\n        /* \"#utility.yul\":7878:7885   */\n      dup6\n        /* \"#utility.yul\":7874:7897   */\n      sub\n        /* \"#utility.yul\":7870:7902   */\n      slt\n        /* \"#utility.yul\":7867:7986   */\n      iszero\n      tag_520\n      jumpi\n        /* \"#utility.yul\":7905:7984   */\n      tag_521\n      tag_334\n      jump\t// in\n    tag_521:\n        /* \"#utility.yul\":7867:7986   */\n    tag_520:\n        /* \"#utility.yul\":8025:8026   */\n      0x00\n        /* \"#utility.yul\":8050:8103   */\n      tag_522\n        /* \"#utility.yul\":8095:8102   */\n      dup6\n        /* \"#utility.yul\":8086:8092   */\n      dup3\n        /* \"#utility.yul\":8075:8084   */\n      dup7\n        /* \"#utility.yul\":8071:8093   */\n      add\n        /* \"#utility.yul\":8050:8103   */\n      tag_338\n      jump\t// in\n    tag_522:\n        /* \"#utility.yul\":8040:8103   */\n      swap3\n      pop\n        /* \"#utility.yul\":7996:8113   */\n      pop\n        /* \"#utility.yul\":8152:8154   */\n      0x20\n        /* \"#utility.yul\":8178:8231   */\n      tag_523\n        /* \"#utility.yul\":8223:8230   */\n      dup6\n        /* \"#utility.yul\":8214:8220   */\n      dup3\n        /* \"#utility.yul\":8203:8212   */\n      dup7\n        /* \"#utility.yul\":8199:8221   */\n      add\n        /* \"#utility.yul\":8178:8231   */\n      tag_358\n      jump\t// in\n    tag_523:\n        /* \"#utility.yul\":8168:8231   */\n      swap2\n      pop\n        /* \"#utility.yul\":8123:8241   */\n      pop\n        /* \"#utility.yul\":7774:8248   */\n      swap3\n      pop\n      swap3\n      swap1\n      pop\n      jump\t// out\n        /* \"#utility.yul\":8254:8363   */\n    tag_359:\n        /* \"#utility.yul\":8335:8356   */\n      tag_525\n        /* \"#utility.yul\":8350:8355   */\n      dup2\n        /* \"#utility.yul\":8335:8356   */\n      tag_352\n      jump\t// in\n    tag_525:\n        /* \"#utility.yul\":8330:8333   */\n      dup3\n        /* \"#utility.yul\":8323:8357   */\n      mstore\n        /* \"#utility.yul\":8254:8363   */\n      pop\n      pop\n      jump\t// out\n        /* \"#utility.yul\":8369:8579   */\n    tag_35:\n        /* \"#utility.yul\":8456:8460   */\n      0x00\n        /* \"#utility.yul\":8494:8496   */\n      0x20\n        /* \"#utility.yul\":8483:8492   */\n      dup3\n        /* \"#utility.yul\":8479:8497   */\n      add\n        /* \"#utility.yul\":8471:8497   */\n      swap1\n      pop\n        /* \"#utility.yul\":8507:8572   */\n      tag_527\n        /* \"#utility.yul\":8569:8570   */\n      0x00\n        /* \"#utility.yul\":8558:8567   */\n      dup4\n        /* \"#utility.yul\":8554:8571   */\n      add\n        /* \"#utility.yul\":8545:8551   */\n      dup5\n        /* \"#utility.yul\":8507:8572   */\n      tag_359\n      jump\t// in\n    tag_527:\n        /* \"#utility.yul\":8369:8579   */\n      swap3\n      swap2\n      pop\n      pop\n      jump\t// out\n        /* \"#utility.yul\":8585:8699   */\n    tag_360:\n        /* \"#utility.yul\":8652:8658   */\n      0x00\n        /* \"#utility.yul\":8686:8691   */\n      dup2\n        /* \"#utility.yul\":8680:8692   */\n      mload\n        /* \"#utility.yul\":8670:8692   */\n      swap1\n      pop\n        /* \"#utility.yul\":8585:8699   */\n      swap2\n      swap1\n      pop\n      jump\t// out\n        /* \"#utility.yul\":8705:8889   */\n    tag_361:\n        /* \"#utility.yul\":8804:8815   */\n      0x00\n        /* \"#utility.yul\":8838:8844   */\n      dup3\n        /* \"#utility.yul\":8833:8836   */\n      dup3\n        /* \"#utility.yul\":8826:8845   */\n      mstore\n        /* \"#utility.yul\":8878:8882   */\n      0x20\n        /* \"#utility.yul\":8873:8876   */\n      dup3\n        /* \"#utility.yul\":8869:8883   */\n      add\n        /* \"#utility.yul\":8854:8883   */\n      swap1\n      pop\n        /* \"#utility.yul\":8705:8889   */\n      swap3\n      swap2\n      pop\n      pop\n      jump\t// out\n        /* \"#utility.yul\":8895:9027   */\n    tag_362:\n        /* \"#utility.yul\":8962:8966   */\n      0x00\n        /* \"#utility.yul\":8985:8988   */\n      dup2\n        /* \"#utility.yul\":8977:8988   */\n      swap1\n      pop\n        /* \"#utility.yul\":9015:9019   */\n      0x20\n        /* \"#utility.yul\":9010:9013   */\n      dup3\n        /* \"#utility.yul\":9006:9020   */\n      add\n        /* \"#utility.yul\":8998:9020   */\n      swap1\n      pop\n        /* \"#utility.yul\":8895:9027   */\n      swap2\n      swap1\n      pop\n      jump\t// out\n        /* \"#utility.yul\":9033:9141   */\n    tag_363:\n        /* \"#utility.yul\":9110:9134   */\n      tag_532\n        /* \"#utility.yul\":9128:9133   */\n      dup2\n        /* \"#utility.yul\":9110:9134   */\n      tag_336\n      jump\t// in\n    tag_532:\n        /* \"#utility.yul\":9105:9108   */\n      dup3\n        /* \"#utility.yul\":9098:9135   */\n      mstore\n        /* \"#utility.yul\":9033:9141   */\n      pop\n      pop\n      jump\t// out\n        /* \"#utility.yul\":9147:9326   */\n    tag_364:\n        /* \"#utility.yul\":9216:9226   */\n      0x00\n        /* \"#utility.yul\":9237:9283   */\n      tag_534\n        /* \"#utility.yul\":9279:9282   */\n      dup4\n        /* \"#utility.yul\":9271:9277   */\n      dup4\n        /* \"#utility.yul\":9237:9283   */\n      tag_363\n      jump\t// in\n    tag_534:\n        /* \"#utility.yul\":9315:9319   */\n      0x20\n        /* \"#utility.yul\":9310:9313   */\n      dup4\n        /* \"#utility.yul\":9306:9320   */\n      add\n        /* \"#utility.yul\":9292:9320   */\n      swap1\n      pop\n        /* \"#utility.yul\":9147:9326   */\n      swap3\n      swap2\n      pop\n      pop\n      jump\t// out\n        /* \"#utility.yul\":9332:9445   */\n    tag_365:\n        /* \"#utility.yul\":9402:9406   */\n      0x00\n        /* \"#utility.yul\":9434:9438   */\n      0x20\n        /* \"#utility.yul\":9429:9432   */\n      dup3\n        /* \"#utility.yul\":9425:9439   */\n      add\n        /* \"#utility.yul\":9417:9439   */\n      swap1\n      pop\n        /* \"#utility.yul\":9332:9445   */\n      swap2\n      swap1\n      pop\n      jump\t// out\n        /* \"#utility.yul\":9481:10213   */\n    tag_366:\n        /* \"#utility.yul\":9600:9603   */\n      0x00\n        /* \"#utility.yul\":9629:9683   */\n      tag_537\n        /* \"#utility.yul\":9677:9682   */\n      dup3\n        /* \"#utility.yul\":9629:9683   */\n      tag_360\n      jump\t// in\n    tag_537:\n        /* \"#utility.yul\":9699:9785   */\n      tag_538\n        /* \"#utility.yul\":9778:9784   */\n      dup2\n        /* \"#utility.yul\":9773:9776   */\n      dup6\n        /* \"#utility.yul\":9699:9785   */\n      tag_361\n      jump\t// in\n    tag_538:\n        /* \"#utility.yul\":9692:9785   */\n      swap4\n      pop\n        /* \"#utility.yul\":9809:9865   */\n      tag_539\n        /* \"#utility.yul\":9859:9864   */\n      dup4\n        /* \"#utility.yul\":9809:9865   */\n      tag_362\n      jump\t// in\n    tag_539:\n        /* \"#utility.yul\":9888:9895   */\n      dup1\n        /* \"#utility.yul\":9919:9920   */\n      0x00\n        /* \"#utility.yul\":9904:10188   */\n    tag_540:\n        /* \"#utility.yul\":9929:9935   */\n      dup4\n        /* \"#utility.yul\":9926:9927   */\n      dup2\n        /* \"#utility.yul\":9923:9936   */\n      lt\n        /* \"#utility.yul\":9904:10188   */\n      iszero\n      tag_542\n      jumpi\n        /* \"#utility.yul\":10005:10011   */\n      dup2\n        /* \"#utility.yul\":9999:10012   */\n      mload\n        /* \"#utility.yul\":10032:10095   */\n      tag_543\n        /* \"#utility.yul\":10091:10094   */\n      dup9\n        /* \"#utility.yul\":10076:10089   */\n      dup3\n        /* \"#utility.yul\":10032:10095   */\n      tag_364\n      jump\t// in\n    tag_543:\n        /* \"#utility.yul\":10025:10095   */\n      swap8\n      pop\n        /* \"#utility.yul\":10118:10178   */\n      tag_544\n        /* \"#utility.yul\":10171:10177   */\n      dup4\n        /* \"#utility.yul\":10118:10178   */\n      tag_365\n      jump\t// in\n    tag_544:\n        /* \"#utility.yul\":10108:10178   */\n      swap3\n      pop\n        /* \"#utility.yul\":9964:10188   */\n      pop\n        /* \"#utility.yul\":9951:9952   */\n      0x01\n        /* \"#utility.yul\":9948:9949   */\n      dup2\n        /* \"#utility.yul\":9944:9953   */\n      add\n        /* \"#utility.yul\":9939:9953   */\n      swap1\n      pop\n        /* \"#utility.yul\":9904:10188   */\n      jump(tag_540)\n    tag_542:\n        /* \"#utility.yul\":9908:9922   */\n      pop\n        /* \"#utility.yul\":10204:10207   */\n      dup6\n        /* \"#utility.yul\":10197:10207   */\n      swap4\n      pop\n        /* \"#utility.yul\":9605:10213   */\n      pop\n      pop\n      pop\n        /* \"#utility.yul\":9481:10213   */\n      swap3\n      swap2\n      pop\n      pop\n      jump\t// out\n        /* \"#utility.yul\":10219:10592   */\n    tag_39:\n        /* \"#utility.yul\":10362:10366   */\n      0x00\n        /* \"#utility.yul\":10400:10402   */\n      0x20\n        /* \"#utility.yul\":10389:10398   */\n      dup3\n        /* \"#utility.yul\":10385:10403   */\n      add\n        /* \"#utility.yul\":10377:10403   */\n      swap1\n      pop\n        /* \"#utility.yul\":10449:10458   */\n      dup2\n        /* \"#utility.yul\":10443:10447   */\n      dup2\n        /* \"#utility.yul\":10439:10459   */\n      sub\n        /* \"#utility.yul\":10435:10436   */\n      0x00\n        /* \"#utility.yul\":10424:10433   */\n      dup4\n        /* \"#utility.yul\":10420:10437   */\n      add\n        /* \"#utility.yul\":10413:10460   */\n      mstore\n        /* \"#utility.yul\":10477:10585   */\n      tag_546\n        /* \"#utility.yul\":10580:10584   */\n      dup2\n        /* \"#utility.yul\":10571:10577   */\n      dup5\n        /* \"#utility.yul\":10477:10585   */\n      tag_366\n      jump\t// in\n    tag_546:\n        /* \"#utility.yul\":10469:10585   */\n      swap1\n      pop\n        /* \"#utility.yul\":10219:10592   */\n      swap3\n      swap2\n      pop\n      pop\n      jump\t// out\n        /* \"#utility.yul\":10598:10722   */\n    tag_367:\n        /* \"#utility.yul\":10675:10681   */\n      0x00\n        /* \"#utility.yul\":10709:10714   */\n      dup2\n        /* \"#utility.yul\":10703:10715   */\n      mload\n        /* \"#utility.yul\":10693:10715   */\n      swap1\n      pop\n        /* \"#utility.yul\":10598:10722   */\n      swap2\n      swap1\n      pop\n      jump\t// out\n        /* \"#utility.yul\":10728:10922   */\n    tag_368:\n        /* \"#utility.yul\":10837:10848   */\n      0x00\n        /* \"#utility.yul\":10871:10877   */\n      dup3\n        /* \"#utility.yul\":10866:10869   */\n      dup3\n        /* \"#utility.yul\":10859:10878   */\n      mstore\n        /* \"#utility.yul\":10911:10915   */\n      0x20\n        /* \"#utility.yul\":10906:10909   */\n      dup3\n        /* \"#utility.yul\":10902:10916   */\n      add\n        /* \"#utility.yul\":10887:10916   */\n      swap1\n      pop\n        /* \"#utility.yul\":10728:10922   */\n      swap3\n      swap2\n      pop\n      pop\n      jump\t// out\n        /* \"#utility.yul\":10928:11070   */\n    tag_369:\n        /* \"#utility.yul\":11005:11009   */\n      0x00\n        /* \"#utility.yul\":11028:11031   */\n      dup2\n        /* \"#utility.yul\":11020:11031   */\n      swap1\n      pop\n        /* \"#utility.yul\":11058:11062   */\n      0x20\n        /* \"#utility.yul\":11053:11056   */\n      dup3\n        /* \"#utility.yul\":11049:11063   */\n      add\n        /* \"#utility.yul\":11041:11063   */\n      swap1\n      pop\n        /* \"#utility.yul\":10928:11070   */\n      swap2\n      swap1\n      pop\n      jump\t// out\n        /* \"#utility.yul\":11076:11175   */\n    tag_370:\n        /* \"#utility.yul\":11128:11134   */\n      0x00\n        /* \"#utility.yul\":11162:11167   */\n      dup2\n        /* \"#utility.yul\":11156:11168   */\n      mload\n        /* \"#utility.yul\":11146:11168   */\n      swap1\n      pop\n        /* \"#utility.yul\":11076:11175   */\n      swap2\n      swap1\n      pop\n      jump\t// out\n        /* \"#utility.yul\":11181:11340   */\n    tag_371:\n        /* \"#utility.yul\":11255:11266   */\n      0x00\n        /* \"#utility.yul\":11289:11295   */\n      dup3\n        /* \"#utility.yul\":11284:11287   */\n      dup3\n        /* \"#utility.yul\":11277:11296   */\n      mstore\n        /* \"#utility.yul\":11329:11333   */\n      0x20\n        /* \"#utility.yul\":11324:11327   */\n      dup3\n        /* \"#utility.yul\":11320:11334   */\n      add\n        /* \"#utility.yul\":11305:11334   */\n      swap1\n      pop\n        /* \"#utility.yul\":11181:11340   */\n      swap3\n      swap2\n      pop\n      pop\n      jump\t// out\n        /* \"#utility.yul\":11346:11485   */\n    tag_372:\n        /* \"#utility.yul\":11435:11441   */\n      dup3\n        /* \"#utility.yul\":11430:11433   */\n      dup2\n        /* \"#utility.yul\":11425:11428   */\n      dup4\n        /* \"#utility.yul\":11419:11442   */\n      mcopy\n        /* \"#utility.yul\":11476:11477   */\n      0x00\n        /* \"#utility.yul\":11467:11473   */\n      dup4\n        /* \"#utility.yul\":11462:11465   */\n      dup4\n        /* \"#utility.yul\":11458:11474   */\n      add\n        /* \"#utility.yul\":11451:11478   */\n      mstore\n        /* \"#utility.yul\":11346:11485   */\n      pop\n      pop\n      pop\n      jump\t// out\n        /* \"#utility.yul\":11491:11848   */\n    tag_373:\n        /* \"#utility.yul\":11569:11572   */\n      0x00\n        /* \"#utility.yul\":11597:11636   */\n      tag_554\n        /* \"#utility.yul\":11630:11635   */\n      dup3\n        /* \"#utility.yul\":11597:11636   */\n      tag_370\n      jump\t// in\n    tag_554:\n        /* \"#utility.yul\":11652:11713   */\n      tag_555\n        /* \"#utility.yul\":11706:11712   */\n      dup2\n        /* \"#utility.yul\":11701:11704   */\n      dup6\n        /* \"#utility.yul\":11652:11713   */\n      tag_371\n      jump\t// in\n    tag_555:\n        /* \"#utility.yul\":11645:11713   */\n      swap4\n      pop\n        /* \"#utility.yul\":11722:11787   */\n      tag_556\n        /* \"#utility.yul\":11780:11786   */\n      dup2\n        /* \"#utility.yul\":11775:11778   */\n      dup6\n        /* \"#utility.yul\":11768:11772   */\n      0x20\n        /* \"#utility.yul\":11761:11766   */\n      dup7\n        /* \"#utility.yul\":11757:11773   */\n      add\n        /* \"#utility.yul\":11722:11787   */\n      tag_372\n      jump\t// in\n    tag_556:\n        /* \"#utility.yul\":11812:11841   */\n      tag_557\n        /* \"#utility.yul\":11834:11840   */\n      dup2\n        /* \"#utility.yul\":11812:11841   */\n      tag_341\n      jump\t// in\n    tag_557:\n        /* \"#utility.yul\":11807:11810   */\n      dup5\n        /* \"#utility.yul\":11803:11842   */\n      add\n        /* \"#utility.yul\":11796:11842   */\n      swap2\n      pop\n        /* \"#utility.yul\":11573:11848   */\n      pop\n        /* \"#utility.yul\":11491:11848   */\n      swap3\n      swap2\n      pop\n      pop\n      jump\t// out\n        /* \"#utility.yul\":11854:12050   */\n    tag_374:\n        /* \"#utility.yul\":11943:11953   */\n      0x00\n        /* \"#utility.yul\":11978:12044   */\n      tag_559\n        /* \"#utility.yul\":12040:12043   */\n      dup4\n        /* \"#utility.yul\":12032:12038   */\n      dup4\n        /* \"#utility.yul\":11978:12044   */\n      tag_373\n      jump\t// in\n    tag_559:\n        /* \"#utility.yul\":11964:12044   */\n      swap1\n      pop\n        /* \"#utility.yul\":11854:12050   */\n      swap3\n      swap2\n      pop\n      pop\n      jump\t// out\n        /* \"#utility.yul\":12056:12179   */\n    tag_375:\n        /* \"#utility.yul\":12136:12140   */\n      0x00\n        /* \"#utility.yul\":12168:12172   */\n      0x20\n        /* \"#utility.yul\":12163:12166   */\n      dup3\n        /* \"#utility.yul\":12159:12173   */\n      add\n        /* \"#utility.yul\":12151:12173   */\n      swap1\n      pop\n        /* \"#utility.yul\":12056:12179   */\n      swap2\n      swap1\n      pop\n      jump\t// out\n        /* \"#utility.yul\":12213:13204   */\n    tag_376:\n        /* \"#utility.yul\":12352:12355   */\n      0x00\n        /* \"#utility.yul\":12381:12445   */\n      tag_562\n        /* \"#utility.yul\":12439:12444   */\n      dup3\n        /* \"#utility.yul\":12381:12445   */\n      tag_367\n      jump\t// in\n    tag_562:\n        /* \"#utility.yul\":12461:12557   */\n      tag_563\n        /* \"#utility.yul\":12550:12556   */\n      dup2\n        /* \"#utility.yul\":12545:12548   */\n      dup6\n        /* \"#utility.yul\":12461:12557   */\n      tag_368\n      jump\t// in\n    tag_563:\n        /* \"#utility.yul\":12454:12557   */\n      swap4\n      pop\n        /* \"#utility.yul\":12583:12586   */\n      dup4\n        /* \"#utility.yul\":12628:12632   */\n      0x20\n        /* \"#utility.yul\":12620:12626   */\n      dup3\n        /* \"#utility.yul\":12616:12633   */\n      mul\n        /* \"#utility.yul\":12611:12614   */\n      dup6\n        /* \"#utility.yul\":12607:12634   */\n      add\n        /* \"#utility.yul\":12658:12724   */\n      tag_564\n        /* \"#utility.yul\":12718:12723   */\n      dup6\n        /* \"#utility.yul\":12658:12724   */\n      tag_369\n      jump\t// in\n    tag_564:\n        /* \"#utility.yul\":12747:12754   */\n      dup1\n        /* \"#utility.yul\":12778:12779   */\n      0x00\n        /* \"#utility.yul\":12763:13159   */\n    tag_565:\n        /* \"#utility.yul\":12788:12794   */\n      dup6\n        /* \"#utility.yul\":12785:12786   */\n      dup2\n        /* \"#utility.yul\":12782:12795   */\n      lt\n        /* \"#utility.yul\":12763:13159   */\n      iszero\n      tag_567\n      jumpi\n        /* \"#utility.yul\":12859:12868   */\n      dup5\n        /* \"#utility.yul\":12853:12857   */\n      dup5\n        /* \"#utility.yul\":12849:12869   */\n      sub\n        /* \"#utility.yul\":12844:12847   */\n      dup10\n        /* \"#utility.yul\":12837:12870   */\n      mstore\n        /* \"#utility.yul\":12910:12916   */\n      dup2\n        /* \"#utility.yul\":12904:12917   */\n      mload\n        /* \"#utility.yul\":12938:13022   */\n      tag_568\n        /* \"#utility.yul\":13017:13021   */\n      dup6\n        /* \"#utility.yul\":13002:13015   */\n      dup3\n        /* \"#utility.yul\":12938:13022   */\n      tag_374\n      jump\t// in\n    tag_568:\n        /* \"#utility.yul\":12930:13022   */\n      swap5\n      pop\n        /* \"#utility.yul\":13045:13115   */\n      tag_569\n        /* \"#utility.yul\":13108:13114   */\n      dup4\n        /* \"#utility.yul\":13045:13115   */\n      tag_375\n      jump\t// in\n    tag_569:\n        /* \"#utility.yul\":13035:13115   */\n      swap3\n      pop\n        /* \"#utility.yul\":13144:13148   */\n      0x20\n        /* \"#utility.yul\":13139:13142   */\n      dup11\n        /* \"#utility.yul\":13135:13149   */\n      add\n        /* \"#utility.yul\":13128:13149   */\n      swap10\n      pop\n        /* \"#utility.yul\":12823:13159   */\n      pop\n        /* \"#utility.yul\":12810:12811   */\n      0x01\n        /* \"#utility.yul\":12807:12808   */\n      dup2\n        /* \"#utility.yul\":12803:12812   */\n      add\n        /* \"#utility.yul\":12798:12812   */\n      swap1\n      pop\n        /* \"#utility.yul\":12763:13159   */\n      jump(tag_565)\n    tag_567:\n        /* \"#utility.yul\":12767:12781   */\n      pop\n        /* \"#utility.yul\":13175:13179   */\n      dup3\n        /* \"#utility.yul\":13168:13179   */\n      swap8\n      pop\n        /* \"#utility.yul\":13195:13198   */\n      dup8\n        /* \"#utility.yul\":13188:13198   */\n      swap6\n      pop\n        /* \"#utility.yul\":12357:13204   */\n      pop\n      pop\n      pop\n      pop\n      pop\n        /* \"#utility.yul\":12213:13204   */\n      swap3\n      swap2\n      pop\n      pop\n      jump\t// out\n        /* \"#utility.yul\":13210:13623   */\n    tag_44:\n        /* \"#utility.yul\":13373:13377   */\n      0x00\n        /* \"#utility.yul\":13411:13413   */\n      0x20\n        /* \"#utility.yul\":13400:13409   */\n      dup3\n        /* \"#utility.yul\":13396:13414   */\n      add\n        /* \"#utility.yul\":13388:13414   */\n      swap1\n      pop\n        /* \"#utility.yul\":13460:13469   */\n      dup2\n        /* \"#utility.yul\":13454:13458   */\n      dup2\n        /* \"#utility.yul\":13450:13470   */\n      sub\n        /* \"#utility.yul\":13446:13447   */\n      0x00\n        /* \"#utility.yul\":13435:13444   */\n      dup4\n        /* \"#utility.yul\":13431:13448   */\n      add\n        /* \"#utility.yul\":13424:13471   */\n      mstore\n        /* \"#utility.yul\":13488:13616   */\n      tag_571\n        /* \"#utility.yul\":13611:13615   */\n      dup2\n        /* \"#utility.yul\":13602:13608   */\n      dup5\n        /* \"#utility.yul\":13488:13616   */\n      tag_376\n      jump\t// in\n    tag_571:\n        /* \"#utility.yul\":13480:13616   */\n      swap1\n      pop\n        /* \"#utility.yul\":13210:13623   */\n      swap3\n      swap2\n      pop\n      pop\n      jump\t// out\n        /* \"#utility.yul\":13629:14428   */\n    tag_50:\n        /* \"#utility.yul\":13716:13722   */\n      0x00\n        /* \"#utility.yul\":13724:13730   */\n      dup1\n        /* \"#utility.yul\":13732:13738   */\n      0x00\n        /* \"#utility.yul\":13781:13783   */\n      0x60\n        /* \"#utility.yul\":13769:13778   */\n      dup5\n        /* \"#utility.yul\":13760:13767   */\n      dup7\n        /* \"#utility.yul\":13756:13779   */\n      sub\n        /* \"#utility.yul\":13752:13784   */\n      slt\n        /* \"#utility.yul\":13749:13868   */\n      iszero\n      tag_573\n      jumpi\n        /* \"#utility.yul\":13787:13866   */\n      tag_574\n      tag_334\n      jump\t// in\n    tag_574:\n        /* \"#utility.yul\":13749:13868   */\n    tag_573:\n        /* \"#utility.yul\":13907:13908   */\n      0x00\n        /* \"#utility.yul\":13932:13985   */\n      tag_575\n        /* \"#utility.yul\":13977:13984   */\n      dup7\n        /* \"#utility.yul\":13968:13974   */\n      dup3\n        /* \"#utility.yul\":13957:13966   */\n      dup8\n        /* \"#utility.yul\":13953:13975   */\n      add\n        /* \"#utility.yul\":13932:13985   */\n      tag_338\n      jump\t// in\n    tag_575:\n        /* \"#utility.yul\":13922:13985   */\n      swap4\n      pop\n        /* \"#utility.yul\":13878:13995   */\n      pop\n        /* \"#utility.yul\":14034:14036   */\n      0x20\n        /* \"#utility.yul\":14060:14113   */\n      tag_576\n        /* \"#utility.yul\":14105:14112   */\n      dup7\n        /* \"#utility.yul\":14096:14102   */\n      dup3\n        /* \"#utility.yul\":14085:14094   */\n      dup8\n        /* \"#utility.yul\":14081:14103   */\n      add\n        /* \"#utility.yul\":14060:14113   */\n      tag_338\n      jump\t// in\n    tag_576:\n        /* \"#utility.yul\":14050:14113   */\n      swap3\n      pop\n        /* \"#utility.yul\":14005:14123   */\n      pop\n        /* \"#utility.yul\":14190:14192   */\n      0x40\n        /* \"#utility.yul\":14179:14188   */\n      dup5\n        /* \"#utility.yul\":14175:14193   */\n      add\n        /* \"#utility.yul\":14162:14194   */\n      calldataload\n        /* \"#utility.yul\":14221:14239   */\n      0xffffffffffffffff\n        /* \"#utility.yul\":14213:14219   */\n      dup2\n        /* \"#utility.yul\":14210:14240   */\n      gt\n        /* \"#utility.yul\":14207:14324   */\n      iszero\n      tag_577\n      jumpi\n        /* \"#utility.yul\":14243:14322   */\n      tag_578\n      tag_335\n      jump\t// in\n    tag_578:\n        /* \"#utility.yul\":14207:14324   */\n    tag_577:\n        /* \"#utility.yul\":14348:14411   */\n      tag_579\n        /* \"#utility.yul\":14403:14410   */\n      dup7\n        /* \"#utility.yul\":14394:14400   */\n      dup3\n        /* \"#utility.yul\":14383:14392   */\n      dup8\n        /* \"#utility.yul\":14379:14401   */\n      add\n        /* \"#utility.yul\":14348:14411   */\n      tag_347\n      jump\t// in\n    tag_579:\n        /* \"#utility.yul\":14338:14411   */\n      swap2\n      pop\n        /* \"#utility.yul\":14133:14421   */\n      pop\n        /* \"#utility.yul\":13629:14428   */\n      swap3\n      pop\n      swap3\n      pop\n      swap3\n      jump\t// out\n        /* \"#utility.yul\":14434:15108   */\n    tag_56:\n        /* \"#utility.yul\":14675:14679   */\n      0x00\n        /* \"#utility.yul\":14713:14715   */\n      0x40\n        /* \"#utility.yul\":14702:14711   */\n      dup3\n        /* \"#utility.yul\":14698:14716   */\n      add\n        /* \"#utility.yul\":14690:14716   */\n      swap1\n      pop\n        /* \"#utility.yul\":14762:14771   */\n      dup2\n        /* \"#utility.yul\":14756:14760   */\n      dup2\n        /* \"#utility.yul\":14752:14772   */\n      sub\n        /* \"#utility.yul\":14748:14749   */\n      0x00\n        /* \"#utility.yul\":14737:14746   */\n      dup4\n        /* \"#utility.yul\":14733:14750   */\n      add\n        /* \"#utility.yul\":14726:14773   */\n      mstore\n        /* \"#utility.yul\":14790:14918   */\n      tag_581\n        /* \"#utility.yul\":14913:14917   */\n      dup2\n        /* \"#utility.yul\":14904:14910   */\n      dup6\n        /* \"#utility.yul\":14790:14918   */\n      tag_376\n      jump\t// in\n    tag_581:\n        /* \"#utility.yul\":14782:14918   */\n      swap1\n      pop\n        /* \"#utility.yul\":14965:14974   */\n      dup2\n        /* \"#utility.yul\":14959:14963   */\n      dup2\n        /* \"#utility.yul\":14955:14975   */\n      sub\n        /* \"#utility.yul\":14950:14952   */\n      0x20\n        /* \"#utility.yul\":14939:14948   */\n      dup4\n        /* \"#utility.yul\":14935:14953   */\n      add\n        /* \"#utility.yul\":14928:14976   */\n      mstore\n        /* \"#utility.yul\":14993:15101   */\n      tag_582\n        /* \"#utility.yul\":15096:15100   */\n      dup2\n        /* \"#utility.yul\":15087:15093   */\n      dup5\n        /* \"#utility.yul\":14993:15101   */\n      tag_366\n      jump\t// in\n    tag_582:\n        /* \"#utility.yul\":14985:15101   */\n      swap1\n      pop\n        /* \"#utility.yul\":14434:15108   */\n      swap4\n      swap3\n      pop\n      pop\n      pop\n      jump\t// out\n        /* \"#utility.yul\":15114:15232   */\n    tag_377:\n        /* \"#utility.yul\":15201:15225   */\n      tag_584\n        /* \"#utility.yul\":15219:15224   */\n      dup2\n        /* \"#utility.yul\":15201:15225   */\n      tag_336\n      jump\t// in\n    tag_584:\n        /* \"#utility.yul\":15196:15199   */\n      dup3\n        /* \"#utility.yul\":15189:15226   */\n      mstore\n        /* \"#utility.yul\":15114:15232   */\n      pop\n      pop\n      jump\t// out\n        /* \"#utility.yul\":15238:15460   */\n    tag_63:\n        /* \"#utility.yul\":15331:15335   */\n      0x00\n        /* \"#utility.yul\":15369:15371   */\n      0x20\n        /* \"#utility.yul\":15358:15367   */\n      dup3\n        /* \"#utility.yul\":15354:15372   */\n      add\n        /* \"#utility.yul\":15346:15372   */\n      swap1\n      pop\n        /* \"#utility.yul\":15382:15453   */\n      tag_586\n        /* \"#utility.yul\":15450:15451   */\n      0x00\n        /* \"#utility.yul\":15439:15448   */\n      dup4\n        /* \"#utility.yul\":15435:15452   */\n      add\n        /* \"#utility.yul\":15426:15432   */\n      dup5\n        /* \"#utility.yul\":15382:15453   */\n      tag_377\n      jump\t// in\n    tag_586:\n        /* \"#utility.yul\":15238:15460   */\n      swap3\n      swap2\n      pop\n      pop\n      jump\t// out\n        /* \"#utility.yul\":15466:15635   */\n    tag_378:\n        /* \"#utility.yul\":15550:15561   */\n      0x00\n        /* \"#utility.yul\":15584:15590   */\n      dup3\n        /* \"#utility.yul\":15579:15582   */\n      dup3\n        /* \"#utility.yul\":15572:15591   */\n      mstore\n        /* \"#utility.yul\":15624:15628   */\n      0x20\n        /* \"#utility.yul\":15619:15622   */\n      dup3\n        /* \"#utility.yul\":15615:15629   */\n      add\n        /* \"#utility.yul\":15600:15629   */\n      swap1\n      pop\n        /* \"#utility.yul\":15466:15635   */\n      swap3\n      swap2\n      pop\n      pop\n      jump\t// out\n        /* \"#utility.yul\":15641:16018   */\n    tag_379:\n        /* \"#utility.yul\":15729:15732   */\n      0x00\n        /* \"#utility.yul\":15757:15796   */\n      tag_589\n        /* \"#utility.yul\":15790:15795   */\n      dup3\n        /* \"#utility.yul\":15757:15796   */\n      tag_370\n      jump\t// in\n    tag_589:\n        /* \"#utility.yul\":15812:15883   */\n      tag_590\n        /* \"#utility.yul\":15876:15882   */\n      dup2\n        /* \"#utility.yul\":15871:15874   */\n      dup6\n        /* \"#utility.yul\":15812:15883   */\n      tag_378\n      jump\t// in\n    tag_590:\n        /* \"#utility.yul\":15805:15883   */\n      swap4\n      pop\n        /* \"#utility.yul\":15892:15957   */\n      tag_591\n        /* \"#utility.yul\":15950:15956   */\n      dup2\n        /* \"#utility.yul\":15945:15948   */\n      dup6\n        /* \"#utility.yul\":15938:15942   */\n      0x20\n        /* \"#utility.yul\":15931:15936   */\n      dup7\n        /* \"#utility.yul\":15927:15943   */\n      add\n        /* \"#utility.yul\":15892:15957   */\n      tag_372\n      jump\t// in\n    tag_591:\n        /* \"#utility.yul\":15982:16011   */\n      tag_592\n        /* \"#utility.yul\":16004:16010   */\n      dup2\n        /* \"#utility.yul\":15982:16011   */\n      tag_341\n      jump\t// in\n    tag_592:\n        /* \"#utility.yul\":15977:15980   */\n      dup5\n        /* \"#utility.yul\":15973:16012   */\n      add\n        /* \"#utility.yul\":15966:16012   */\n      swap2\n      pop\n        /* \"#utility.yul\":15733:16018   */\n      pop\n        /* \"#utility.yul\":15641:16018   */\n      swap3\n      swap2\n      pop\n      pop\n      jump\t// out\n        /* \"#utility.yul\":16024:16142   */\n    tag_380:\n        /* \"#utility.yul\":16111:16135   */\n      tag_594\n        /* \"#utility.yul\":16129:16134   */\n      dup2\n        /* \"#utility.yul\":16111:16135   */\n      tag_356\n      jump\t// in\n    tag_594:\n        /* \"#utility.yul\":16106:16109   */\n      dup3\n        /* \"#utility.yul\":16099:16136   */\n      mstore\n        /* \"#utility.yul\":16024:16142   */\n      pop\n      pop\n      jump\t// out\n        /* \"#utility.yul\":16148:17292   */\n    tag_68:\n        /* \"#utility.yul\":16487:16491   */\n      0x00\n        /* \"#utility.yul\":16525:16528   */\n      0xe0\n        /* \"#utility.yul\":16514:16523   */\n      dup3\n        /* \"#utility.yul\":16510:16529   */\n      add\n        /* \"#utility.yul\":16502:16529   */\n      swap1\n      pop\n        /* \"#utility.yul\":16575:16584   */\n      dup2\n        /* \"#utility.yul\":16569:16573   */\n      dup2\n        /* \"#utility.yul\":16565:16585   */\n      sub\n        /* \"#utility.yul\":16561:16562   */\n      0x00\n        /* \"#utility.yul\":16550:16559   */\n      dup4\n        /* \"#utility.yul\":16546:16563   */\n      add\n        /* \"#utility.yul\":16539:16586   */\n      mstore\n        /* \"#utility.yul\":16603:16681   */\n      tag_596\n        /* \"#utility.yul\":16676:16680   */\n      dup2\n        /* \"#utility.yul\":16667:16673   */\n      dup11\n        /* \"#utility.yul\":16603:16681   */\n      tag_379\n      jump\t// in\n    tag_596:\n        /* \"#utility.yul\":16595:16681   */\n      swap1\n      pop\n        /* \"#utility.yul\":16728:16737   */\n      dup2\n        /* \"#utility.yul\":16722:16726   */\n      dup2\n        /* \"#utility.yul\":16718:16738   */\n      sub\n        /* \"#utility.yul\":16713:16715   */\n      0x20\n        /* \"#utility.yul\":16702:16711   */\n      dup4\n        /* \"#utility.yul\":16698:16716   */\n      add\n        /* \"#utility.yul\":16691:16739   */\n      mstore\n        /* \"#utility.yul\":16756:16884   */\n      tag_597\n        /* \"#utility.yul\":16879:16883   */\n      dup2\n        /* \"#utility.yul\":16870:16876   */\n      dup10\n        /* \"#utility.yul\":16756:16884   */\n      tag_376\n      jump\t// in\n    tag_597:\n        /* \"#utility.yul\":16748:16884   */\n      swap1\n      pop\n        /* \"#utility.yul\":16894:16960   */\n      tag_598\n        /* \"#utility.yul\":16956:16958   */\n      0x40\n        /* \"#utility.yul\":16945:16954   */\n      dup4\n        /* \"#utility.yul\":16941:16959   */\n      add\n        /* \"#utility.yul\":16932:16938   */\n      dup9\n        /* \"#utility.yul\":16894:16960   */\n      tag_359\n      jump\t// in\n    tag_598:\n        /* \"#utility.yul\":16970:17042   */\n      tag_599\n        /* \"#utility.yul\":17038:17040   */\n      0x60\n        /* \"#utility.yul\":17027:17036   */\n      dup4\n        /* \"#utility.yul\":17023:17041   */\n      add\n        /* \"#utility.yul\":17014:17020   */\n      dup8\n        /* \"#utility.yul\":16970:17042   */\n      tag_380\n      jump\t// in\n    tag_599:\n        /* \"#utility.yul\":17052:17125   */\n      tag_600\n        /* \"#utility.yul\":17120:17123   */\n      0x80\n        /* \"#utility.yul\":17109:17118   */\n      dup4\n        /* \"#utility.yul\":17105:17124   */\n      add\n        /* \"#utility.yul\":17096:17102   */\n      dup7\n        /* \"#utility.yul\":17052:17125   */\n      tag_377\n      jump\t// in\n    tag_600:\n        /* \"#utility.yul\":17135:17202   */\n      tag_601\n        /* \"#utility.yul\":17197:17200   */\n      0xa0\n        /* \"#utility.yul\":17186:17195   */\n      dup4\n        /* \"#utility.yul\":17182:17201   */\n      add\n        /* \"#utility.yul\":17173:17179   */\n      dup6\n        /* \"#utility.yul\":17135:17202   */\n      tag_359\n      jump\t// in\n    tag_601:\n        /* \"#utility.yul\":17212:17285   */\n      tag_602\n        /* \"#utility.yul\":17280:17283   */\n      0xc0\n        /* \"#utility.yul\":17269:17278   */\n      dup4\n        /* \"#utility.yul\":17265:17284   */\n      add\n        /* \"#utility.yul\":17256:17262   */\n      dup5\n        /* \"#utility.yul\":17212:17285   */\n      tag_377\n      jump\t// in\n    tag_602:\n        /* \"#utility.yul\":16148:17292   */\n      swap9\n      swap8\n      pop\n      pop\n      pop\n      pop\n      pop\n      pop\n      pop\n      pop\n      jump\t// out\n        /* \"#utility.yul\":17298:17468   */\n    tag_381:\n        /* \"#utility.yul\":17438:17460   */\n      0x4f6e6c792063726561746f7220616c6c6f776564000000000000000000000000\n        /* \"#utility.yul\":17434:17435   */\n      0x00\n        /* \"#utility.yul\":17426:17432   */\n      dup3\n        /* \"#utility.yul\":17422:17436   */\n      add\n        /* \"#utility.yul\":17415:17461   */\n      mstore\n        /* \"#utility.yul\":17298:17468   */\n      pop\n      jump\t// out\n        /* \"#utility.yul\":17474:17840   */\n    tag_382:\n        /* \"#utility.yul\":17616:17619   */\n      0x00\n        /* \"#utility.yul\":17637:17704   */\n      tag_605\n        /* \"#utility.yul\":17701:17703   */\n      0x14\n        /* \"#utility.yul\":17696:17699   */\n      dup4\n        /* \"#utility.yul\":17637:17704   */\n      tag_378\n      jump\t// in\n    tag_605:\n        /* \"#utility.yul\":17630:17704   */\n      swap2\n      pop\n        /* \"#utility.yul\":17713:17806   */\n      tag_606\n        /* \"#utility.yul\":17802:17805   */\n      dup3\n        /* \"#utility.yul\":17713:17806   */\n      tag_381\n      jump\t// in\n    tag_606:\n        /* \"#utility.yul\":17831:17833   */\n      0x20\n        /* \"#utility.yul\":17826:17829   */\n      dup3\n        /* \"#utility.yul\":17822:17834   */\n      add\n        /* \"#utility.yul\":17815:17834   */\n      swap1\n      pop\n        /* \"#utility.yul\":17474:17840   */\n      swap2\n      swap1\n      pop\n      jump\t// out\n        /* \"#utility.yul\":17846:18265   */\n    tag_75:\n        /* \"#utility.yul\":18012:18016   */\n      0x00\n        /* \"#utility.yul\":18050:18052   */\n      0x20\n        /* \"#utility.yul\":18039:18048   */\n      dup3\n        /* \"#utility.yul\":18035:18053   */\n      add\n        /* \"#utility.yul\":18027:18053   */\n      swap1\n      pop\n        /* \"#utility.yul\":18099:18108   */\n      dup2\n        /* \"#utility.yul\":18093:18097   */\n      dup2\n        /* \"#utility.yul\":18089:18109   */\n      sub\n        /* \"#utility.yul\":18085:18086   */\n      0x00\n        /* \"#utility.yul\":18074:18083   */\n      dup4\n        /* \"#utility.yul\":18070:18087   */\n      add\n        /* \"#utility.yul\":18063:18110   */\n      mstore\n        /* \"#utility.yul\":18127:18258   */\n      tag_608\n        /* \"#utility.yul\":18253:18257   */\n      dup2\n        /* \"#utility.yul\":18127:18258   */\n      tag_382\n      jump\t// in\n    tag_608:\n        /* \"#utility.yul\":18119:18258   */\n      swap1\n      pop\n        /* \"#utility.yul\":17846:18265   */\n      swap2\n      swap1\n      pop\n      jump\t// out\n        /* \"#utility.yul\":18271:18444   */\n    tag_383:\n        /* \"#utility.yul\":18411:18436   */\n      0x456c656374696f6e20646f6573206e6f74206578697374000000000000000000\n        /* \"#utility.yul\":18407:18408   */\n      0x00\n        /* \"#utility.yul\":18399:18405   */\n      dup3\n        /* \"#utility.yul\":18395:18409   */\n      add\n        /* \"#utility.yul\":18388:18437   */\n      mstore\n        /* \"#utility.yul\":18271:18444   */\n      pop\n      jump\t// out\n        /* \"#utility.yul\":18450:18816   */\n    tag_384:\n        /* \"#utility.yul\":18592:18595   */\n      0x00\n        /* \"#utility.yul\":18613:18680   */\n      tag_611\n        /* \"#utility.yul\":18677:18679   */\n      0x17\n        /* \"#utility.yul\":18672:18675   */\n      dup4\n        /* \"#utility.yul\":18613:18680   */\n      tag_378\n      jump\t// in\n    tag_611:\n        /* \"#utility.yul\":18606:18680   */\n      swap2\n      pop\n        /* \"#utility.yul\":18689:18782   */\n      tag_612\n        /* \"#utility.yul\":18778:18781   */\n      dup3\n        /* \"#utility.yul\":18689:18782   */\n      tag_383\n      jump\t// in\n    tag_612:\n        /* \"#utility.yul\":18807:18809   */\n      0x20\n        /* \"#utility.yul\":18802:18805   */\n      dup3\n        /* \"#utility.yul\":18798:18810   */\n      add\n        /* \"#utility.yul\":18791:18810   */\n      swap1\n      pop\n        /* \"#utility.yul\":18450:18816   */\n      swap2\n      swap1\n      pop\n      jump\t// out\n        /* \"#utility.yul\":18822:19241   */\n    tag_80:\n        /* \"#utility.yul\":18988:18992   */\n      0x00\n        /* \"#utility.yul\":19026:19028   */\n      0x20\n        /* \"#utility.yul\":19015:19024   */\n      dup3\n        /* \"#utility.yul\":19011:19029   */\n      add\n        /* \"#utility.yul\":19003:19029   */\n      swap1\n      pop\n        /* \"#utility.yul\":19075:19084   */\n      dup2\n        /* \"#utility.yul\":19069:19073   */\n      dup2\n        /* \"#utility.yul\":19065:19085   */\n      sub\n        /* \"#utility.yul\":19061:19062   */\n      0x00\n        /* \"#utility.yul\":19050:19059   */\n      dup4\n        /* \"#utility.yul\":19046:19063   */\n      add\n        /* \"#utility.yul\":19039:19086   */\n      mstore\n        /* \"#utility.yul\":19103:19234   */\n      tag_614\n        /* \"#utility.yul\":19229:19233   */\n      dup2\n        /* \"#utility.yul\":19103:19234   */\n      tag_384\n      jump\t// in\n    tag_614:\n        /* \"#utility.yul\":19095:19234   */\n      swap1\n      pop\n        /* \"#utility.yul\":18822:19241   */\n      swap2\n      swap1\n      pop\n      jump\t// out\n        /* \"#utility.yul\":19247:19420   */\n    tag_385:\n        /* \"#utility.yul\":19387:19412   */\n      0x456c656374696f6e20616c726561647920636c6f736564000000000000000000\n        /* \"#utility.yul\":19383:19384   */\n      0x00\n        /* \"#utility.yul\":19375:19381   */\n      dup3\n        /* \"#utility.yul\":19371:19385   */\n      add\n        /* \"#utility.yul\":19364:19413   */\n      mstore\n        /* \"#utility.yul\":19247:19420   */\n      pop\n      jump\t// out\n        /* \"#utility.yul\":19426:19792   */\n    tag_386:\n        /* \"#utility.yul\":19568:19571   */\n      0x00\n        /* \"#utility.yul\":19589:19656   */\n      tag_617\n        /* \"#utility.yul\":19653:19655   */\n      0x17\n        /* \"#utility.yul\":19648:19651   */\n      dup4\n        /* \"#utility.yul\":19589:19656   */\n      tag_378\n      jump\t// in\n    tag_617:\n        /* \"#utility.yul\":19582:19656   */\n      swap2\n      pop\n        /* \"#utility.yul\":19665:19758   */\n      tag_618\n        /* \"#utility.yul\":19754:19757   */\n      dup3\n        /* \"#utility.yul\":19665:19758   */\n      tag_385\n      jump\t// in\n    tag_618:\n        /* \"#utility.yul\":19783:19785   */\n      0x20\n        /* \"#utility.yul\":19778:19781   */\n      dup3\n        /* \"#utility.yul\":19774:19786   */\n      add\n        /* \"#utility.yul\":19767:19786   */\n      swap1\n      pop\n        /* \"#utility.yul\":19426:19792   */\n      swap2\n      swap1\n      pop\n      jump\t// out\n        /* \"#utility.yul\":19798:20217   */\n    tag_84:\n        /* \"#utility.yul\":19964:19968   */\n      0x00\n        /* \"#utility.yul\":20002:20004   */\n      0x20\n        /* \"#utility.yul\":19991:20000   */\n      dup3\n        /* \"#utility.yul\":19987:20005   */\n      add\n        /* \"#utility.yul\":19979:20005   */\n      swap1\n      pop\n        /* \"#utility.yul\":20051:20060   */\n      dup2\n        /* \"#utility.yul\":20045:20049   */\n      dup2\n        /* \"#utility.yul\":20041:20061   */\n      sub\n        /* \"#utility.yul\":20037:20038   */\n      0x00\n        /* \"#utility.yul\":20026:20035   */\n      dup4\n        /* \"#utility.yul\":20022:20039   */\n      add\n        /* \"#utility.yul\":20015:20062   */\n      mstore\n        /* \"#utility.yul\":20079:20210   */\n      tag_620\n        /* \"#utility.yul\":20205:20209   */\n      dup2\n        /* \"#utility.yul\":20079:20210   */\n      tag_386\n      jump\t// in\n    tag_620:\n        /* \"#utility.yul\":20071:20210   */\n      swap1\n      pop\n        /* \"#utility.yul\":19798:20217   */\n      swap2\n      swap1\n      pop\n      jump\t// out\n        /* \"#utility.yul\":20223:20391   */\n    tag_387:\n        /* \"#utility.yul\":20363:20383   */\n      0x456c656374696f6e20697320636c6f7365640000000000000000000000000000\n        /* \"#utility.yul\":20359:20360   */\n      0x00\n        /* \"#utility.yul\":20351:20357   */\n      dup3\n        /* \"#utility.yul\":20347:20361   */\n      add\n        /* \"#utility.yul\":20340:20384   */\n      mstore\n        /* \"#utility.yul\":20223:20391   */\n      pop\n      jump\t// out\n        /* \"#utility.yul\":20397:20763   */\n    tag_388:\n        /* \"#utility.yul\":20539:20542   */\n      0x00\n        /* \"#utility.yul\":20560:20627   */\n      tag_623\n        /* \"#utility.yul\":20624:20626   */\n      0x12\n        /* \"#utility.yul\":20619:20622   */\n      dup4\n        /* \"#utility.yul\":20560:20627   */\n      tag_378\n      jump\t// in\n    tag_623:\n        /* \"#utility.yul\":20553:20627   */\n      swap2\n      pop\n        /* \"#utility.yul\":20636:20729   */\n      tag_624\n        /* \"#utility.yul\":20725:20728   */\n      dup3\n        /* \"#utility.yul\":20636:20729   */\n      tag_387\n      jump\t// in\n    tag_624:\n        /* \"#utility.yul\":20754:20756   */\n      0x20\n        /* \"#utility.yul\":20749:20752   */\n      dup3\n        /* \"#utility.yul\":20745:20757   */\n      add\n        /* \"#utility.yul\":20738:20757   */\n      swap1\n      pop\n        /* \"#utility.yul\":20397:20763   */\n      swap2\n      swap1\n      pop\n      jump\t// out\n        /* \"#utility.yul\":20769:21188   */\n    tag_92:\n        /* \"#utility.yul\":20935:20939   */\n      0x00\n        /* \"#utility.yul\":20973:20975   */\n      0x20\n        /* \"#utility.yul\":20962:20971   */\n      dup3\n        /* \"#utility.yul\":20958:20976   */\n      add\n        /* \"#utility.yul\":20950:20976   */\n      swap1\n      pop\n        /* \"#utility.yul\":21022:21031   */\n      dup2\n        /* \"#utility.yul\":21016:21020   */\n      dup2\n        /* \"#utility.yul\":21012:21032   */\n      sub\n        /* \"#utility.yul\":21008:21009   */\n      0x00\n        /* \"#utility.yul\":20997:21006   */\n      dup4\n        /* \"#utility.yul\":20993:21010   */\n      add\n        /* \"#utility.yul\":20986:21033   */\n      mstore\n        /* \"#utility.yul\":21050:21181   */\n      tag_626\n        /* \"#utility.yul\":21176:21180   */\n      dup2\n        /* \"#utility.yul\":21050:21181   */\n      tag_388\n      jump\t// in\n    tag_626:\n        /* \"#utility.yul\":21042:21181   */\n      swap1\n      pop\n        /* \"#utility.yul\":20769:21188   */\n      swap2\n      swap1\n      pop\n      jump\t// out\n        /* \"#utility.yul\":21194:21362   */\n    tag_389:\n        /* \"#utility.yul\":21334:21354   */\n      0x456c656374696f6e2068617320656e6465640000000000000000000000000000\n        /* \"#utility.yul\":21330:21331   */\n      0x00\n        /* \"#utility.yul\":21322:21328   */\n      dup3\n        /* \"#utility.yul\":21318:21332   */\n      add\n        /* \"#utility.yul\":21311:21355   */\n      mstore\n        /* \"#utility.yul\":21194:21362   */\n      pop\n      jump\t// out\n        /* \"#utility.yul\":21368:21734   */\n    tag_390:\n        /* \"#utility.yul\":21510:21513   */\n      0x00\n        /* \"#utility.yul\":21531:21598   */\n      tag_629\n        /* \"#utility.yul\":21595:21597   */\n      0x12\n        /* \"#utility.yul\":21590:21593   */\n      dup4\n        /* \"#utility.yul\":21531:21598   */\n      tag_378\n      jump\t// in\n    tag_629:\n        /* \"#utility.yul\":21524:21598   */\n      swap2\n      pop\n        /* \"#utility.yul\":21607:21700   */\n      tag_630\n        /* \"#utility.yul\":21696:21699   */\n      dup3\n        /* \"#utility.yul\":21607:21700   */\n      tag_389\n      jump\t// in\n    tag_630:\n        /* \"#utility.yul\":21725:21727   */\n      0x20\n        /* \"#utility.yul\":21720:21723   */\n      dup3\n        /* \"#utility.yul\":21716:21728   */\n      add\n        /* \"#utility.yul\":21709:21728   */\n      swap1\n      pop\n        /* \"#utility.yul\":21368:21734   */\n      swap2\n      swap1\n      pop\n      jump\t// out\n        /* \"#utility.yul\":21740:22159   */\n    tag_95:\n        /* \"#utility.yul\":21906:21910   */\n      0x00\n        /* \"#utility.yul\":21944:21946   */\n      0x20\n        /* \"#utility.yul\":21933:21942   */\n      dup3\n        /* \"#utility.yul\":21929:21947   */\n      add\n        /* \"#utility.yul\":21921:21947   */\n      swap1\n      pop\n        /* \"#utility.yul\":21993:22002   */\n      dup2\n        /* \"#utility.yul\":21987:21991   */\n      dup2\n        /* \"#utility.yul\":21983:22003   */\n      sub\n        /* \"#utility.yul\":21979:21980   */\n      0x00\n        /* \"#utility.yul\":21968:21977   */\n      dup4\n        /* \"#utility.yul\":21964:21981   */\n      add\n        /* \"#utility.yul\":21957:22004   */\n      mstore\n        /* \"#utility.yul\":22021:22152   */\n      tag_632\n        /* \"#utility.yul\":22147:22151   */\n      dup2\n        /* \"#utility.yul\":22021:22152   */\n      tag_390\n      jump\t// in\n    tag_632:\n        /* \"#utility.yul\":22013:22152   */\n      swap1\n      pop\n        /* \"#utility.yul\":21740:22159   */\n      swap2\n      swap1\n      pop\n      jump\t// out\n        /* \"#utility.yul\":22165:22328   */\n    tag_391:\n        /* \"#utility.yul\":22305:22320   */\n      0x416c726561647920766f74656400000000000000000000000000000000000000\n        /* \"#utility.yul\":22301:22302   */\n      0x00\n        /* \"#utility.yul\":22293:22299   */\n      dup3\n        /* \"#utility.yul\":22289:22303   */\n      add\n        /* \"#utility.yul\":22282:22321   */\n      mstore\n        /* \"#utility.yul\":22165:22328   */\n      pop\n      jump\t// out\n        /* \"#utility.yul\":22334:22700   */\n    tag_392:\n        /* \"#utility.yul\":22476:22479   */\n      0x00\n        /* \"#utility.yul\":22497:22564   */\n      tag_635\n        /* \"#utility.yul\":22561:22563   */\n      0x0d\n        /* \"#utility.yul\":22556:22559   */\n      dup4\n        /* \"#utility.yul\":22497:22564   */\n      tag_378\n      jump\t// in\n    tag_635:\n        /* \"#utility.yul\":22490:22564   */\n      swap2\n      pop\n        /* \"#utility.yul\":22573:22666   */\n      tag_636\n        /* \"#utility.yul\":22662:22665   */\n      dup3\n        /* \"#utility.yul\":22573:22666   */\n      tag_391\n      jump\t// in\n    tag_636:\n        /* \"#utility.yul\":22691:22693   */\n      0x20\n        /* \"#utility.yul\":22686:22689   */\n      dup3\n        /* \"#utility.yul\":22682:22694   */\n      add\n        /* \"#utility.yul\":22675:22694   */\n      swap1\n      pop\n        /* \"#utility.yul\":22334:22700   */\n      swap2\n      swap1\n      pop\n      jump\t// out\n        /* \"#utility.yul\":22706:23125   */\n    tag_98:\n        /* \"#utility.yul\":22872:22876   */\n      0x00\n        /* \"#utility.yul\":22910:22912   */\n      0x20\n        /* \"#utility.yul\":22899:22908   */\n      dup3\n        /* \"#utility.yul\":22895:22913   */\n      add\n        /* \"#utility.yul\":22887:22913   */\n      swap1\n      pop\n        /* \"#utility.yul\":22959:22968   */\n      dup2\n        /* \"#utility.yul\":22953:22957   */\n      dup2\n        /* \"#utility.yul\":22949:22969   */\n      sub\n        /* \"#utility.yul\":22945:22946   */\n      0x00\n        /* \"#utility.yul\":22934:22943   */\n      dup4\n        /* \"#utility.yul\":22930:22947   */\n      add\n        /* \"#utility.yul\":22923:22970   */\n      mstore\n        /* \"#utility.yul\":22987:23118   */\n      tag_638\n        /* \"#utility.yul\":23113:23117   */\n      dup2\n        /* \"#utility.yul\":22987:23118   */\n      tag_392\n      jump\t// in\n    tag_638:\n        /* \"#utility.yul\":22979:23118   */\n      swap1\n      pop\n        /* \"#utility.yul\":22706:23125   */\n      swap2\n      swap1\n      pop\n      jump\t// out\n        /* \"#utility.yul\":23131:23311   */\n    tag_104:\n        /* \"#utility.yul\":23179:23256   */\n      0x4e487b7100000000000000000000000000000000000000000000000000000000\n        /* \"#utility.yul\":23176:23177   */\n      0x00\n        /* \"#utility.yul\":23169:23257   */\n      mstore\n        /* \"#utility.yul\":23276:23280   */\n      0x32\n        /* \"#utility.yul\":23273:23274   */\n      0x04\n        /* \"#utility.yul\":23266:23281   */\n      mstore\n        /* \"#utility.yul\":23300:23304   */\n      0x24\n        /* \"#utility.yul\":23297:23298   */\n      0x00\n        /* \"#utility.yul\":23290:23305   */\n      revert\n        /* \"#utility.yul\":23317:23497   */\n    tag_393:\n        /* \"#utility.yul\":23365:23442   */\n      0x4e487b7100000000000000000000000000000000000000000000000000000000\n        /* \"#utility.yul\":23362:23363   */\n      0x00\n        /* \"#utility.yul\":23355:23443   */\n      mstore\n        /* \"#utility.yul\":23462:23466   */\n      0x22\n        /* \"#utility.yul\":23459:23460   */\n      0x04\n        /* \"#utility.yul\":23452:23467   */\n      mstore\n        /* \"#utility.yul\":23486:23490   */\n      0x24\n        /* \"#utility.yul\":23483:23484   */\n      0x00\n        /* \"#utility.yul\":23476:23491   */\n      revert\n        /* \"#utility.yul\":23503:23823   */\n    tag_196:\n        /* \"#utility.yul\":23547:23553   */\n      0x00\n        /* \"#utility.yul\":23584:23585   */\n      0x02\n        /* \"#utility.yul\":23578:23582   */\n      dup3\n        /* \"#utility.yul\":23574:23586   */\n      div\n        /* \"#utility.yul\":23564:23586   */\n      swap1\n      pop\n        /* \"#utility.yul\":23631:23632   */\n      0x01\n        /* \"#utility.yul\":23625:23629   */\n      dup3\n        /* \"#utility.yul\":23621:23633   */\n      and\n        /* \"#utility.yul\":23652:23670   */\n      dup1\n        /* \"#utility.yul\":23642:23723   */\n      tag_642\n      jumpi\n        /* \"#utility.yul\":23708:23712   */\n      0x7f\n        /* \"#utility.yul\":23700:23706   */\n      dup3\n        /* \"#utility.yul\":23696:23713   */\n      and\n        /* \"#utility.yul\":23686:23713   */\n      swap2\n      pop\n        /* \"#utility.yul\":23642:23723   */\n    tag_642:\n        /* \"#utility.yul\":23770:23772   */\n      0x20\n        /* \"#utility.yul\":23762:23768   */\n      dup3\n        /* \"#utility.yul\":23759:23773   */\n      lt\n        /* \"#utility.yul\":23739:23757   */\n      dup2\n        /* \"#utility.yul\":23736:23774   */\n      sub\n        /* \"#utility.yul\":23733:23817   */\n      tag_643\n      jumpi\n        /* \"#utility.yul\":23789:23807   */\n      tag_644\n      tag_393\n      jump\t// in\n    tag_644:\n        /* \"#utility.yul\":23733:23817   */\n    tag_643:\n        /* \"#utility.yul\":23554:23823   */\n      pop\n        /* \"#utility.yul\":23503:23823   */\n      swap2\n      swap1\n      pop\n      jump\t// out\n        /* \"#utility.yul\":23829:23976   */\n    tag_394:\n        /* \"#utility.yul\":23930:23941   */\n      0x00\n        /* \"#utility.yul\":23967:23970   */\n      dup2\n        /* \"#utility.yul\":23952:23970   */\n      swap1\n      pop\n        /* \"#utility.yul\":23829:23976   */\n      swap3\n      swap2\n      pop\n      pop\n      jump\t// out\n        /* \"#utility.yul\":23982:24126   */\n    tag_395:\n        /* \"#utility.yul\":24034:24038   */\n      0x00\n        /* \"#utility.yul\":24057:24060   */\n      dup2\n        /* \"#utility.yul\":24049:24060   */\n      swap1\n      pop\n        /* \"#utility.yul\":24080:24083   */\n      dup2\n        /* \"#utility.yul\":24077:24078   */\n      0x00\n        /* \"#utility.yul\":24070:24084   */\n      mstore\n        /* \"#utility.yul\":24114:24118   */\n      0x20\n        /* \"#utility.yul\":24111:24112   */\n      0x00\n        /* \"#utility.yul\":24101:24119   */\n      keccak256\n        /* \"#utility.yul\":24093:24119   */\n      swap1\n      pop\n        /* \"#utility.yul\":23982:24126   */\n      swap2\n      swap1\n      pop\n      jump\t// out\n        /* \"#utility.yul\":24154:25032   */\n    tag_396:\n        /* \"#utility.yul\":24259:24262   */\n      0x00\n        /* \"#utility.yul\":24296:24301   */\n      dup2\n        /* \"#utility.yul\":24290:24302   */\n      sload\n        /* \"#utility.yul\":24325:24361   */\n      tag_648\n        /* \"#utility.yul\":24351:24360   */\n      dup2\n        /* \"#utility.yul\":24325:24361   */\n      tag_196\n      jump\t// in\n    tag_648:\n        /* \"#utility.yul\":24377:24465   */\n      tag_649\n        /* \"#utility.yul\":24458:24464   */\n      dup2\n        /* \"#utility.yul\":24453:24456   */\n      dup7\n        /* \"#utility.yul\":24377:24465   */\n      tag_394\n      jump\t// in\n    tag_649:\n        /* \"#utility.yul\":24370:24465   */\n      swap5\n      pop\n        /* \"#utility.yul\":24496:24497   */\n      0x01\n        /* \"#utility.yul\":24485:24494   */\n      dup3\n        /* \"#utility.yul\":24481:24498   */\n      and\n        /* \"#utility.yul\":24512:24513   */\n      0x00\n        /* \"#utility.yul\":24507:24673   */\n      dup2\n      eq\n      tag_651\n      jumpi\n        /* \"#utility.yul\":24687:24688   */\n      0x01\n        /* \"#utility.yul\":24682:25026   */\n      dup2\n      eq\n      tag_652\n      jumpi\n        /* \"#utility.yul\":24474:25026   */\n      jump(tag_650)\n        /* \"#utility.yul\":24507:24673   */\n    tag_651:\n        /* \"#utility.yul\":24591:24595   */\n      0xff\n        /* \"#utility.yul\":24587:24596   */\n      not\n        /* \"#utility.yul\":24576:24585   */\n      dup4\n        /* \"#utility.yul\":24572:24597   */\n      and\n        /* \"#utility.yul\":24567:24570   */\n      dup7\n        /* \"#utility.yul\":24560:24598   */\n      mstore\n        /* \"#utility.yul\":24653:24659   */\n      dup2\n        /* \"#utility.yul\":24646:24660   */\n      iszero\n        /* \"#utility.yul\":24639:24661   */\n      iszero\n        /* \"#utility.yul\":24631:24637   */\n      dup3\n        /* \"#utility.yul\":24627:24662   */\n      mul\n        /* \"#utility.yul\":24622:24625   */\n      dup7\n        /* \"#utility.yul\":24618:24663   */\n      add\n        /* \"#utility.yul\":24611:24663   */\n      swap4\n      pop\n        /* \"#utility.yul\":24507:24673   */\n      jump(tag_650)\n        /* \"#utility.yul\":24682:25026   */\n    tag_652:\n        /* \"#utility.yul\":24749:24790   */\n      tag_653\n        /* \"#utility.yul\":24784:24789   */\n      dup6\n        /* \"#utility.yul\":24749:24790   */\n      tag_395\n      jump\t// in\n    tag_653:\n        /* \"#utility.yul\":24812:24813   */\n      0x00\n        /* \"#utility.yul\":24826:24980   */\n    tag_654:\n        /* \"#utility.yul\":24840:24846   */\n      dup4\n        /* \"#utility.yul\":24837:24838   */\n      dup2\n        /* \"#utility.yul\":24834:24847   */\n      lt\n        /* \"#utility.yul\":24826:24980   */\n      iszero\n      tag_656\n      jumpi\n        /* \"#utility.yul\":24914:24921   */\n      dup2\n        /* \"#utility.yul\":24908:24922   */\n      sload\n        /* \"#utility.yul\":24904:24905   */\n      dup2\n        /* \"#utility.yul\":24899:24902   */\n      dup10\n        /* \"#utility.yul\":24895:24906   */\n      add\n        /* \"#utility.yul\":24888:24923   */\n      mstore\n        /* \"#utility.yul\":24964:24965   */\n      0x01\n        /* \"#utility.yul\":24955:24962   */\n      dup3\n        /* \"#utility.yul\":24951:24966   */\n      add\n        /* \"#utility.yul\":24940:24966   */\n      swap2\n      pop\n        /* \"#utility.yul\":24862:24866   */\n      0x20\n        /* \"#utility.yul\":24859:24860   */\n      dup2\n        /* \"#utility.yul\":24855:24867   */\n      add\n        /* \"#utility.yul\":24850:24867   */\n      swap1\n      pop\n        /* \"#utility.yul\":24826:24980   */\n      jump(tag_654)\n    tag_656:\n        /* \"#utility.yul\":25009:25015   */\n      dup4\n        /* \"#utility.yul\":25004:25007   */\n      dup9\n        /* \"#utility.yul\":25000:25016   */\n      add\n        /* \"#utility.yul\":24993:25016   */\n      swap6\n      pop\n        /* \"#utility.yul\":24689:25026   */\n      pop\n      pop\n        /* \"#utility.yul\":24474:25026   */\n    tag_650:\n      pop\n        /* \"#utility.yul\":24263:25032   */\n      pop\n      pop\n        /* \"#utility.yul\":24154:25032   */\n      swap3\n      swap2\n      pop\n      pop\n      jump\t// out\n        /* \"#utility.yul\":25038:25311   */\n    tag_107:\n        /* \"#utility.yul\":25169:25172   */\n      0x00\n        /* \"#utility.yul\":25191:25285   */\n      tag_658\n        /* \"#utility.yul\":25281:25284   */\n      dup3\n        /* \"#utility.yul\":25272:25278   */\n      dup5\n        /* \"#utility.yul\":25191:25285   */\n      tag_396\n      jump\t// in\n    tag_658:\n        /* \"#utility.yul\":25184:25285   */\n      swap2\n      pop\n        /* \"#utility.yul\":25302:25305   */\n      dup2\n        /* \"#utility.yul\":25295:25305   */\n      swap1\n      pop\n        /* \"#utility.yul\":25038:25311   */\n      swap3\n      swap2\n      pop\n      pop\n      jump\t// out\n        /* \"#utility.yul\":25317:25481   */\n    tag_397:\n        /* \"#utility.yul\":25457:25473   */\n      0x496e76616c6964206f7074696f6e000000000000000000000000000000000000\n        /* \"#utility.yul\":25453:25454   */\n      0x00\n        /* \"#utility.yul\":25445:25451   */\n      dup3\n        /* \"#utility.yul\":25441:25455   */\n      add\n        /* \"#utility.yul\":25434:25474   */\n      mstore\n        /* \"#utility.yul\":25317:25481   */\n      pop\n      jump\t// out\n        /* \"#utility.yul\":25487:25853   */\n    tag_398:\n        /* \"#utility.yul\":25629:25632   */\n      0x00\n        /* \"#utility.yul\":25650:25717   */\n      tag_661\n        /* \"#utility.yul\":25714:25716   */\n      0x0e\n        /* \"#utility.yul\":25709:25712   */\n      dup4\n        /* \"#utility.yul\":25650:25717   */\n      tag_378\n      jump\t// in\n    tag_661:\n        /* \"#utility.yul\":25643:25717   */\n      swap2\n      pop\n        /* \"#utility.yul\":25726:25819   */\n      tag_662\n        /* \"#utility.yul\":25815:25818   */\n      dup3\n        /* \"#utility.yul\":25726:25819   */\n      tag_397\n      jump\t// in\n    tag_662:\n        /* \"#utility.yul\":25844:25846   */\n      0x20\n        /* \"#utility.yul\":25839:25842   */\n      dup3\n        /* \"#utility.yul\":25835:25847   */\n      add\n        /* \"#utility.yul\":25828:25847   */\n      swap1\n      pop\n        /* \"#utility.yul\":25487:25853   */\n      swap2\n      swap1\n      pop\n      jump\t// out\n        /* \"#utility.yul\":25859:26278   */\n    tag_111:\n        /* \"#utility.yul\":26025:26029   */\n      0x00\n        /* \"#utility.yul\":26063:26065   */\n      0x20\n        /* \"#utility.yul\":26052:26061   */\n      dup3\n        /* \"#utility.yul\":26048:26066   */\n      add\n        /* \"#utility.yul\":26040:26066   */\n      swap1\n      pop\n        /* \"#utility.yul\":26112:26121   */\n      dup2\n        /* \"#utility.yul\":26106:26110   */\n      dup2\n        /* \"#utility.yul\":26102:26122   */\n      sub\n        /* \"#utility.yul\":26098:26099   */\n      0x00\n        /* \"#utility.yul\":26087:26096   */\n      dup4\n        /* \"#utility.yul\":26083:26100   */\n      add\n        /* \"#utility.yul\":26076:26123   */\n      mstore\n        /* \"#utility.yul\":26140:26271   */\n      tag_664\n        /* \"#utility.yul\":26266:26270   */\n      dup2\n        /* \"#utility.yul\":26140:26271   */\n      tag_398\n      jump\t// in\n    tag_664:\n        /* \"#utility.yul\":26132:26271   */\n      swap1\n      pop\n        /* \"#utility.yul\":25859:26278   */\n      swap2\n      swap1\n      pop\n      jump\t// out\n        /* \"#utility.yul\":26284:26432   */\n    tag_399:\n        /* \"#utility.yul\":26386:26397   */\n      0x00\n        /* \"#utility.yul\":26423:26426   */\n      dup2\n        /* \"#utility.yul\":26408:26426   */\n      swap1\n      pop\n        /* \"#utility.yul\":26284:26432   */\n      swap3\n      swap2\n      pop\n      pop\n      jump\t// out\n        /* \"#utility.yul\":26438:26828   */\n    tag_400:\n        /* \"#utility.yul\":26544:26547   */\n      0x00\n        /* \"#utility.yul\":26572:26611   */\n      tag_667\n        /* \"#utility.yul\":26605:26610   */\n      dup3\n        /* \"#utility.yul\":26572:26611   */\n      tag_370\n      jump\t// in\n    tag_667:\n        /* \"#utility.yul\":26627:26716   */\n      tag_668\n        /* \"#utility.yul\":26709:26715   */\n      dup2\n        /* \"#utility.yul\":26704:26707   */\n      dup6\n        /* \"#utility.yul\":26627:26716   */\n      tag_399\n      jump\t// in\n    tag_668:\n        /* \"#utility.yul\":26620:26716   */\n      swap4\n      pop\n        /* \"#utility.yul\":26725:26790   */\n      tag_669\n        /* \"#utility.yul\":26783:26789   */\n      dup2\n        /* \"#utility.yul\":26778:26781   */\n      dup6\n        /* \"#utility.yul\":26771:26775   */\n      0x20\n        /* \"#utility.yul\":26764:26769   */\n      dup7\n        /* \"#utility.yul\":26760:26776   */\n      add\n        /* \"#utility.yul\":26725:26790   */\n      tag_372\n      jump\t// in\n    tag_669:\n        /* \"#utility.yul\":26815:26821   */\n      dup1\n        /* \"#utility.yul\":26810:26813   */\n      dup5\n        /* \"#utility.yul\":26806:26822   */\n      add\n        /* \"#utility.yul\":26799:26822   */\n      swap2\n      pop\n        /* \"#utility.yul\":26548:26828   */\n      pop\n        /* \"#utility.yul\":26438:26828   */\n      swap3\n      swap2\n      pop\n      pop\n      jump\t// out\n        /* \"#utility.yul\":26834:27109   */\n    tag_113:\n        /* \"#utility.yul\":26966:26969   */\n      0x00\n        /* \"#utility.yul\":26988:27083   */\n      tag_671\n        /* \"#utility.yul\":27079:27082   */\n      dup3\n        /* \"#utility.yul\":27070:27076   */\n      dup5\n        /* \"#utility.yul\":26988:27083   */\n      tag_400\n      jump\t// in\n    tag_671:\n        /* \"#utility.yul\":26981:27083   */\n      swap2\n      pop\n        /* \"#utility.yul\":27100:27103   */\n      dup2\n        /* \"#utility.yul\":27093:27103   */\n      swap1\n      pop\n        /* \"#utility.yul\":26834:27109   */\n      swap3\n      swap2\n      pop\n      pop\n      jump\t// out\n        /* \"#utility.yul\":27115:27295   */\n    tag_401:\n        /* \"#utility.yul\":27163:27240   */\n      0x4e487b7100000000000000000000000000000000000000000000000000000000\n        /* \"#utility.yul\":27160:27161   */\n      0x00\n        /* \"#utility.yul\":27153:27241   */\n      mstore\n        /* \"#utility.yul\":27260:27264   */\n      0x11\n        /* \"#utility.yul\":27257:27258   */\n      0x04\n        /* \"#utility.yul\":27250:27265   */\n      mstore\n        /* \"#utility.yul\":27284:27288   */\n      0x24\n        /* \"#utility.yul\":27281:27282   */\n      0x00\n        /* \"#utility.yul\":27274:27289   */\n      revert\n        /* \"#utility.yul\":27301:27534   */\n    tag_115:\n        /* \"#utility.yul\":27340:27343   */\n      0x00\n        /* \"#utility.yul\":27363:27387   */\n      tag_674\n        /* \"#utility.yul\":27381:27386   */\n      dup3\n        /* \"#utility.yul\":27363:27387   */\n      tag_336\n      jump\t// in\n    tag_674:\n        /* \"#utility.yul\":27354:27387   */\n      swap2\n      pop\n        /* \"#utility.yul\":27409:27475   */\n      0xffffffffffffffffffffffffffffffffffffffffffffffffffffffffffffffff\n        /* \"#utility.yul\":27402:27407   */\n      dup3\n        /* \"#utility.yul\":27399:27476   */\n      sub\n        /* \"#utility.yul\":27396:27499   */\n      tag_675\n      jumpi\n        /* \"#utility.yul\":27479:27497   */\n      tag_676\n      tag_401\n      jump\t// in\n    tag_676:\n        /* \"#utility.yul\":27396:27499   */\n    tag_675:\n        /* \"#utility.yul\":27526:27527   */\n      0x01\n        /* \"#utility.yul\":27519:27524   */\n      dup3\n        /* \"#utility.yul\":27515:27528   */\n      add\n        /* \"#utility.yul\":27508:27528   */\n      swap1\n      pop\n        /* \"#utility.yul\":27301:27534   */\n      swap2\n      swap1\n      pop\n      jump\t// out\n        /* \"#utility.yul\":27540:27853   */\n    tag_120:\n        /* \"#utility.yul\":27653:27657   */\n      0x00\n        /* \"#utility.yul\":27691:27693   */\n      0x20\n        /* \"#utility.yul\":27680:27689   */\n      dup3\n        /* \"#utility.yul\":27676:27694   */\n      add\n        /* \"#utility.yul\":27668:27694   */\n      swap1\n      pop\n        /* \"#utility.yul\":27740:27749   */\n      dup2\n        /* \"#utility.yul\":27734:27738   */\n      dup2\n        /* \"#utility.yul\":27730:27750   */\n      sub\n        /* \"#utility.yul\":27726:27727   */\n      0x00\n        /* \"#utility.yul\":27715:27724   */\n      dup4\n        /* \"#utility.yul\":27711:27728   */\n      add\n        /* \"#utility.yul\":27704:27751   */\n      mstore\n        /* \"#utility.yul\":27768:27846   */\n      tag_678\n        /* \"#utility.yul\":27841:27845   */\n      dup2\n        /* \"#utility.yul\":27832:27838   */\n      dup5\n        /* \"#utility.yul\":27768:27846   */\n      tag_379\n      jump\t// in\n    tag_678:\n        /* \"#utility.yul\":27760:27846   */\n      swap1\n      pop\n        /* \"#utility.yul\":27540:27853   */\n      swap3\n      swap2\n      pop\n      pop\n      jump\t// out\n        /* \"#utility.yul\":27859:28036   */\n    tag_402:\n        /* \"#utility.yul\":27999:28028   */\n      0x4174206c656173742032206f7074696f6e732072657175697265640000000000\n        /* \"#utility.yul\":27995:27996   */\n      0x00\n        /* \"#utility.yul\":27987:27993   */\n      dup3\n        /* \"#utility.yul\":27983:27997   */\n      add\n        /* \"#utility.yul\":27976:28029   */\n      mstore\n        /* \"#utility.yul\":27859:28036   */\n      pop\n      jump\t// out\n        /* \"#utility.yul\":28042:28408   */\n    tag_403:\n        /* \"#utility.yul\":28184:28187   */\n      0x00\n        /* \"#utility.yul\":28205:28272   */\n      tag_681\n        /* \"#utility.yul\":28269:28271   */\n      0x1b\n        /* \"#utility.yul\":28264:28267   */\n      dup4\n        /* \"#utility.yul\":28205:28272   */\n      tag_378\n      jump\t// in\n    tag_681:\n        /* \"#utility.yul\":28198:28272   */\n      swap2\n      pop\n        /* \"#utility.yul\":28281:28374   */\n      tag_682\n        /* \"#utility.yul\":28370:28373   */\n      dup3\n        /* \"#utility.yul\":28281:28374   */\n      tag_402\n      jump\t// in\n    tag_682:\n        /* \"#utility.yul\":28399:28401   */\n      0x20\n        /* \"#utility.yul\":28394:28397   */\n      dup3\n        /* \"#utility.yul\":28390:28402   */\n      add\n        /* \"#utility.yul\":28383:28402   */\n      swap1\n      pop\n        /* \"#utility.yul\":28042:28408   */\n      swap2\n      swap1\n      pop\n      jump\t// out\n        /* \"#utility.yul\":28414:28833   */\n    tag_124:\n        /* \"#utility.yul\":28580:28584   */\n      0x00\n        /* \"#utility.yul\":28618:28620   */\n      0x20\n        /* \"#utility.yul\":28607:28616   */\n      dup3\n        /* \"#utility.yul\":28603:28621   */\n      add\n        /* \"#utility.yul\":28595:28621   */\n      swap1\n      pop\n        /* \"#utility.yul\":28667:28676   */\n      dup2\n        /* \"#utility.yul\":28661:28665   */\n      dup2\n        /* \"#utility.yul\":28657:28677   */\n      sub\n        /* \"#utility.yul\":28653:28654   */\n      0x00\n        /* \"#utility.yul\":28642:28651   */\n      dup4\n        /* \"#utility.yul\":28638:28655   */\n      add\n        /* \"#utility.yul\":28631:28678   */\n      mstore\n        /* \"#utility.yul\":28695:28826   */\n      tag_684\n        /* \"#utility.yul\":28821:28825   */\n      dup2\n        /* \"#utility.yul\":28695:28826   */\n      tag_403\n      jump\t// in\n    tag_684:\n        /* \"#utility.yul\":28687:28826   */\n      swap1\n      pop\n        /* \"#utility.yul\":28414:28833   */\n      swap2\n      swap1\n      pop\n      jump\t// out\n        /* \"#utility.yul\":28839:28980   */\n    tag_404:\n        /* \"#utility.yul\":28888:28892   */\n      0x00\n        /* \"#utility.yul\":28911:28914   */\n      dup2\n        /* \"#utility.yul\":28903:28914   */\n      swap1\n      pop\n        /* \"#utility.yul\":28934:28937   */\n      dup2\n        /* \"#utility.yul\":28931:28932   */\n      0x00\n        /* \"#utility.yul\":28924:28938   */\n      mstore\n        /* \"#utility.yul\":28968:28972   */\n      0x20\n        /* \"#utility.yul\":28965:28966   */\n      0x00\n        /* \"#utility.yul\":28955:28973   */\n      keccak256\n        /* \"#utility.yul\":28947:28973   */\n      swap1\n      pop\n        /* \"#utility.yul\":28839:28980   */\n      swap2\n      swap1\n      pop\n      jump\t// out\n        /* \"#utility.yul\":28986:29079   */\n    tag_405:\n        /* \"#utility.yul\":29023:29029   */\n      0x00\n        /* \"#utility.yul\":29070:29072   */\n      0x20\n        /* \"#utility.yul\":29065:29067   */\n      0x1f\n        /* \"#utility.yul\":29058:29063   */\n      dup4\n        /* \"#utility.yul\":29054:29068   */\n      add\n        /* \"#utility.yul\":29050:29073   */\n      div\n        /* \"#utility.yul\":29040:29073   */\n      swap1\n      pop\n        /* \"#utility.yul\":28986:29079   */\n      swap2\n      swap1\n      pop\n      jump\t// out\n        /* \"#utility.yul\":29085:29192   */\n    tag_406:\n        /* \"#utility.yul\":29129:29137   */\n      0x00\n        /* \"#utility.yul\":29179:29184   */\n      dup3\n        /* \"#utility.yul\":29173:29177   */\n      dup3\n        /* \"#utility.yul\":29169:29185   */\n      shl\n        /* \"#utility.yul\":29148:29185   */\n      swap1\n      pop\n        /* \"#utility.yul\":29085:29192   */\n      swap3\n      swap2\n      pop\n      pop\n      jump\t// out\n        /* \"#utility.yul\":29198:29591   */\n    tag_407:\n        /* \"#utility.yul\":29267:29273   */\n      0x00\n        /* \"#utility.yul\":29317:29318   */\n      0x08\n        /* \"#utility.yul\":29305:29315   */\n      dup4\n        /* \"#utility.yul\":29301:29319   */\n      mul\n        /* \"#utility.yul\":29340:29437   */\n      tag_689\n        /* \"#utility.yul\":29370:29436   */\n      0xffffffffffffffffffffffffffffffffffffffffffffffffffffffffffffffff\n        /* \"#utility.yul\":29359:29368   */\n      dup3\n        /* \"#utility.yul\":29340:29437   */\n      tag_406\n      jump\t// in\n    tag_689:\n        /* \"#utility.yul\":29458:29497   */\n      tag_690\n        /* \"#utility.yul\":29488:29496   */\n      dup7\n        /* \"#utility.yul\":29477:29486   */\n      dup4\n        /* \"#utility.yul\":29458:29497   */\n      tag_406\n      jump\t// in\n    tag_690:\n        /* \"#utility.yul\":29446:29497   */\n      swap6\n      pop\n        /* \"#utility.yul\":29530:29534   */\n      dup1\n        /* \"#utility.yul\":29526:29535   */\n      not\n        /* \"#utility.yul\":29519:29524   */\n      dup5\n        /* \"#utility.yul\":29515:29536   */\n      and\n        /* \"#utility.yul\":29506:29536   */\n      swap4\n      pop\n        /* \"#utility.yul\":29579:29583   */\n      dup1\n        /* \"#utility.yul\":29569:29577   */\n      dup7\n        /* \"#utility.yul\":29565:29584   */\n      and\n        /* \"#utility.yul\":29558:29563   */\n      dup5\n        /* \"#utility.yul\":29555:29585   */\n      or\n        /* \"#utility.yul\":29545:29585   */\n      swap3\n      pop\n        /* \"#utility.yul\":29274:29591   */\n      pop\n      pop\n        /* \"#utility.yul\":29198:29591   */\n      swap4\n      swap3\n      pop\n      pop\n      pop\n      jump\t// out\n        /* \"#utility.yul\":29597:29657   */\n    tag_408:\n        /* \"#utility.yul\":29625:29628   */\n      0x00\n        /* \"#utility.yul\":29646:29651   */\n      dup2\n        /* \"#utility.yul\":29639:29651   */\n      swap1\n      pop\n        /* \"#utility.yul\":29597:29657   */\n      swap2\n      swap1\n      pop\n      jump\t// out\n        /* \"#utility.yul\":29663:29805   */\n    tag_409:\n        /* \"#utility.yul\":29713:29722   */\n      0x00\n        /* \"#utility.yul\":29746:29799   */\n      tag_693\n        /* \"#utility.yul\":29764:29798   */\n      tag_694\n        /* \"#utility.yul\":29773:29797   */\n      tag_695\n        /* \"#utility.yul\":29791:29796   */\n      dup5\n        /* \"#utility.yul\":29773:29797   */\n      tag_336\n      jump\t// in\n    tag_695:\n        /* \"#utility.yul\":29764:29798   */\n      tag_408\n      jump\t// in\n    tag_694:\n        /* \"#utility.yul\":29746:29799   */\n      tag_336\n      jump\t// in\n    tag_693:\n        /* \"#utility.yul\":29733:29799   */\n      swap1\n      pop\n        /* \"#utility.yul\":29663:29805   */\n      swap2\n      swap1\n      pop\n      jump\t// out\n        /* \"#utility.yul\":29811:29886   */\n    tag_410:\n        /* \"#utility.yul\":29854:29857   */\n      0x00\n        /* \"#utility.yul\":29875:29880   */\n      dup2\n        /* \"#utility.yul\":29868:29880   */\n      swap1\n      pop\n        /* \"#utility.yul\":29811:29886   */\n      swap2\n      swap1\n      pop\n      jump\t// out\n        /* \"#utility.yul\":29892:30161   */\n    tag_411:\n        /* \"#utility.yul\":30002:30041   */\n      tag_698\n        /* \"#utility.yul\":30033:30040   */\n      dup4\n        /* \"#utility.yul\":30002:30041   */\n      tag_409\n      jump\t// in\n    tag_698:\n        /* \"#utility.yul\":30063:30154   */\n      tag_699\n        /* \"#utility.yul\":30112:30153   */\n      tag_700\n        /* \"#utility.yul\":30136:30152   */\n      dup3\n        /* \"#utility.yul\":30112:30153   */\n      tag_410\n      jump\t// in\n    tag_700:\n        /* \"#utility.yul\":30104:30110   */\n      dup5\n        /* \"#utility.yul\":30097:30101   */\n      dup5\n        /* \"#utility.yul\":30091:30102   */\n      sload\n        /* \"#utility.yul\":30063:30154   */\n      tag_407\n      jump\t// in\n    tag_699:\n        /* \"#utility.yul\":30057:30061   */\n      dup3\n        /* \"#utility.yul\":30050:30155   */\n      sstore\n        /* \"#utility.yul\":29968:30161   */\n      pop\n        /* \"#utility.yul\":29892:30161   */\n      pop\n      pop\n      pop\n      jump\t// out\n        /* \"#utility.yul\":30167:30240   */\n    tag_412:\n        /* \"#utility.yul\":30212:30215   */\n      0x00\n        /* \"#utility.yul\":30167:30240   */\n      swap1\n      jump\t// out\n        /* \"#utility.yul\":30246:30435   */\n    tag_413:\n        /* \"#utility.yul\":30323:30355   */\n      tag_703\n      tag_412\n      jump\t// in\n    tag_703:\n        /* \"#utility.yul\":30364:30429   */\n      tag_704\n        /* \"#utility.yul\":30422:30428   */\n      dup2\n        /* \"#utility.yul\":30414:30420   */\n      dup5\n        /* \"#utility.yul\":30408:30412   */\n      dup5\n        /* \"#utility.yul\":30364:30429   */\n      tag_411\n      jump\t// in\n    tag_704:\n        /* \"#utility.yul\":30299:30435   */\n      pop\n        /* \"#utility.yul\":30246:30435   */\n      pop\n      pop\n      jump\t// out\n        /* \"#utility.yul\":30441:30627   */\n    tag_414:\n        /* \"#utility.yul\":30501:30621   */\n    tag_706:\n        /* \"#utility.yul\":30518:30521   */\n      dup2\n        /* \"#utility.yul\":30511:30516   */\n      dup2\n        /* \"#utility.yul\":30508:30522   */\n      lt\n        /* \"#utility.yul\":30501:30621   */\n      iszero\n      tag_708\n      jumpi\n        /* \"#utility.yul\":30572:30611   */\n      tag_709\n        /* \"#utility.yul\":30609:30610   */\n      0x00\n        /* \"#utility.yul\":30602:30607   */\n      dup3\n        /* \"#utility.yul\":30572:30611   */\n      tag_413\n      jump\t// in\n    tag_709:\n        /* \"#utility.yul\":30545:30546   */\n      0x01\n        /* \"#utility.yul\":30538:30543   */\n      dup2\n        /* \"#utility.yul\":30534:30547   */\n      add\n        /* \"#utility.yul\":30525:30547   */\n      swap1\n      pop\n        /* \"#utility.yul\":30501:30621   */\n      jump(tag_706)\n    tag_708:\n        /* \"#utility.yul\":30441:30627   */\n      pop\n      pop\n      jump\t// out\n        /* \"#utility.yul\":30633:31176   */\n    tag_415:\n        /* \"#utility.yul\":30734:30736   */\n      0x1f\n        /* \"#utility.yul\":30729:30732   */\n      dup3\n        /* \"#utility.yul\":30726:30737   */\n      gt\n        /* \"#utility.yul\":30723:31169   */\n      iszero\n      tag_711\n      jumpi\n        /* \"#utility.yul\":30768:30806   */\n      tag_712\n        /* \"#utility.yul\":30800:30805   */\n      dup2\n        /* \"#utility.yul\":30768:30806   */\n      tag_404\n      jump\t// in\n    tag_712:\n        /* \"#utility.yul\":30852:30881   */\n      tag_713\n        /* \"#utility.yul\":30870:30880   */\n      dup5\n        /* \"#utility.yul\":30852:30881   */\n      tag_405\n      jump\t// in\n    tag_713:\n        /* \"#utility.yul\":30842:30850   */\n      dup2\n        /* \"#utility.yul\":30838:30882   */\n      add\n        /* \"#utility.yul\":31035:31037   */\n      0x20\n        /* \"#utility.yul\":31023:31033   */\n      dup6\n        /* \"#utility.yul\":31020:31038   */\n      lt\n        /* \"#utility.yul\":31017:31066   */\n      iszero\n      tag_714\n      jumpi\n        /* \"#utility.yul\":31056:31064   */\n      dup2\n        /* \"#utility.yul\":31041:31064   */\n      swap1\n      pop\n        /* \"#utility.yul\":31017:31066   */\n    tag_714:\n        /* \"#utility.yul\":31079:31159   */\n      tag_715\n        /* \"#utility.yul\":31135:31157   */\n      tag_716\n        /* \"#utility.yul\":31153:31156   */\n      dup6\n        /* \"#utility.yul\":31135:31157   */\n      tag_405\n      jump\t// in\n    tag_716:\n        /* \"#utility.yul\":31125:31133   */\n      dup4\n        /* \"#utility.yul\":31121:31158   */\n      add\n        /* \"#utility.yul\":31108:31119   */\n      dup3\n        /* \"#utility.yul\":31079:31159   */\n      tag_414\n      jump\t// in\n    tag_715:\n        /* \"#utility.yul\":30738:31169   */\n      pop\n      pop\n        /* \"#utility.yul\":30723:31169   */\n    tag_711:\n        /* \"#utility.yul\":30633:31176   */\n      pop\n      pop\n      pop\n      jump\t// out\n        /* \"#utility.yul\":31182:31299   */\n    tag_416:\n        /* \"#utility.yul\":31236:31244   */\n      0x00\n        /* \"#utility.yul\":31286:31291   */\n      dup3\n        /* \"#utility.yul\":31280:31284   */\n      dup3\n        /* \"#utility.yul\":31276:31292   */\n      shr\n        /* \"#utility.yul\":31255:31292   */\n      swap1\n      pop\n        /* \"#utility.yul\":31182:31299   */\n      swap3\n      swap2\n      pop\n      pop\n      jump\t// out\n        /* \"#utility.yul\":31305:31474   */\n    tag_417:\n        /* \"#utility.yul\":31349:31355   */\n      0x00\n        /* \"#utility.yul\":31382:31433   */\n      tag_719\n        /* \"#utility.yul\":31430:31431   */\n      0x00\n        /* \"#utility.yul\":31426:31432   */\n      not\n        /* \"#utility.yul\":31418:31423   */\n      dup5\n        /* \"#utility.yul\":31415:31416   */\n      0x08\n        /* \"#utility.yul\":31411:31424   */\n      mul\n        /* \"#utility.yul\":31382:31433   */\n      tag_416\n      jump\t// in\n    tag_719:\n        /* \"#utility.yul\":31378:31434   */\n      not\n        /* \"#utility.yul\":31463:31467   */\n      dup1\n        /* \"#utility.yul\":31457:31461   */\n      dup4\n        /* \"#utility.yul\":31453:31468   */\n      and\n        /* \"#utility.yul\":31443:31468   */\n      swap2\n      pop\n        /* \"#utility.yul\":31356:31474   */\n      pop\n        /* \"#utility.yul\":31305:31474   */\n      swap3\n      swap2\n      pop\n      pop\n      jump\t// out\n        /* \"#utility.yul\":31479:31774   */\n    tag_418:\n        /* \"#utility.yul\":31555:31559   */\n      0x00\n        /* \"#utility.yul\":31701:31730   */\n      tag_721\n        /* \"#utility.yul\":31726:31729   */\n      dup4\n        /* \"#utility.yul\":31720:31724   */\n      dup4\n        /* \"#utility.yul\":31701:31730   */\n      tag_417\n      jump\t// in\n    tag_721:\n        /* \"#utility.yul\":31693:31730   */\n      swap2\n      pop\n        /* \"#utility.yul\":31763:31766   */\n      dup3\n        /* \"#utility.yul\":31760:31761   */\n      0x02\n        /* \"#utility.yul\":31756:31767   */\n      mul\n        /* \"#utility.yul\":31750:31754   */\n      dup3\n        /* \"#utility.yul\":31747:31768   */\n      or\n        /* \"#utility.yul\":31739:31768   */\n      swap1\n      pop\n        /* \"#utility.yul\":31479:31774   */\n      swap3\n      swap2\n      pop\n      pop\n      jump\t// out\n        /* \"#utility.yul\":31779:33174   */\n    tag_127:\n        /* \"#utility.yul\":31896:31933   */\n      tag_723\n        /* \"#utility.yul\":31929:31932   */\n      dup3\n        /* \"#utility.yul\":31896:31933   */\n      tag_370\n      jump\t// in\n    tag_723:\n        /* \"#utility.yul\":31998:32016   */\n      0xffffffffffffffff\n        /* \"#utility.yul\":31990:31996   */\n      dup2\n        /* \"#utility.yul\":31987:32017   */\n      gt\n        /* \"#utility.yul\":31984:32040   */\n      iszero\n      tag_724\n      jumpi\n        /* \"#utility.yul\":32020:32038   */\n      tag_725\n      tag_142\n      jump\t// in\n    tag_725:\n        /* \"#utility.yul\":31984:32040   */\n    tag_724:\n        /* \"#utility.yul\":32064:32102   */\n      tag_726\n        /* \"#utility.yul\":32096:32100   */\n      dup3\n        /* \"#utility.yul\":32090:32101   */\n      sload\n        /* \"#utility.yul\":32064:32102   */\n      tag_196\n      jump\t// in\n    tag_726:\n        /* \"#utility.yul\":32149:32216   */\n      tag_727\n        /* \"#utility.yul\":32209:32215   */\n      dup3\n        /* \"#utility.yul\":32201:32207   */\n      dup3\n        /* \"#utility.yul\":32195:32199   */\n      dup6\n        /* \"#utility.yul\":32149:32216   */\n      tag_415\n      jump\t// in\n    tag_727:\n        /* \"#utility.yul\":32243:32244   */\n      0x00\n        /* \"#utility.yul\":32267:32271   */\n      0x20\n        /* \"#utility.yul\":32254:32271   */\n      swap1\n      pop\n        /* \"#utility.yul\":32299:32301   */\n      0x1f\n        /* \"#utility.yul\":32291:32297   */\n      dup4\n        /* \"#utility.yul\":32288:32302   */\n      gt\n        /* \"#utility.yul\":32316:32317   */\n      0x01\n        /* \"#utility.yul\":32311:32929   */\n      dup2\n      eq\n      tag_729\n      jumpi\n        /* \"#utility.yul\":32973:32974   */\n      0x00\n        /* \"#utility.yul\":32990:32996   */\n      dup5\n        /* \"#utility.yul\":32987:33064   */\n      iszero\n      tag_730\n      jumpi\n        /* \"#utility.yul\":33039:33048   */\n      dup3\n        /* \"#utility.yul\":33034:33037   */\n      dup8\n        /* \"#utility.yul\":33030:33049   */\n      add\n        /* \"#utility.yul\":33024:33050   */\n      mload\n        /* \"#utility.yul\":33015:33050   */\n      swap1\n      pop\n        /* \"#utility.yul\":32987:33064   */\n    tag_730:\n        /* \"#utility.yul\":33090:33157   */\n      tag_731\n        /* \"#utility.yul\":33150:33156   */\n      dup6\n        /* \"#utility.yul\":33143:33148   */\n      dup3\n        /* \"#utility.yul\":33090:33157   */\n      tag_418\n      jump\t// in\n    tag_731:\n        /* \"#utility.yul\":33084:33088   */\n      dup7\n        /* \"#utility.yul\":33077:33158   */\n      sstore\n        /* \"#utility.yul\":32946:33168   */\n      pop\n        /* \"#utility.yul\":32281:33168   */\n      jump(tag_728)\n        /* \"#utility.yul\":32311:32929   */\n    tag_729:\n        /* \"#utility.yul\":32363:32367   */\n      0x1f\n        /* \"#utility.yul\":32359:32368   */\n      not\n        /* \"#utility.yul\":32351:32357   */\n      dup5\n        /* \"#utility.yul\":32347:32369   */\n      and\n        /* \"#utility.yul\":32397:32434   */\n      tag_732\n        /* \"#utility.yul\":32429:32433   */\n      dup7\n        /* \"#utility.yul\":32397:32434   */\n      tag_404\n      jump\t// in\n    tag_732:\n        /* \"#utility.yul\":32456:32457   */\n      0x00\n        /* \"#utility.yul\":32470:32678   */\n    tag_733:\n        /* \"#utility.yul\":32484:32491   */\n      dup3\n        /* \"#utility.yul\":32481:32482   */\n      dup2\n        /* \"#utility.yul\":32478:32492   */\n      lt\n        /* \"#utility.yul\":32470:32678   */\n      iszero\n      tag_735\n      jumpi\n        /* \"#utility.yul\":32563:32572   */\n      dup5\n        /* \"#utility.yul\":32558:32561   */\n      dup10\n        /* \"#utility.yul\":32554:32573   */\n      add\n        /* \"#utility.yul\":32548:32574   */\n      mload\n        /* \"#utility.yul\":32540:32546   */\n      dup3\n        /* \"#utility.yul\":32533:32575   */\n      sstore\n        /* \"#utility.yul\":32614:32615   */\n      0x01\n        /* \"#utility.yul\":32606:32612   */\n      dup3\n        /* \"#utility.yul\":32602:32616   */\n      add\n        /* \"#utility.yul\":32592:32616   */\n      swap2\n      pop\n        /* \"#utility.yul\":32661:32663   */\n      0x20\n        /* \"#utility.yul\":32650:32659   */\n      dup6\n        /* \"#utility.yul\":32646:32664   */\n      add\n        /* \"#utility.yul\":32633:32664   */\n      swap5\n      pop\n        /* \"#utility.yul\":32507:32511   */\n      0x20\n        /* \"#utility.yul\":32504:32505   */\n      dup2\n        /* \"#utility.yul\":32500:32512   */\n      add\n        /* \"#utility.yul\":32495:32512   */\n      swap1\n      pop\n        /* \"#utility.yul\":32470:32678   */\n      jump(tag_733)\n    tag_735:\n        /* \"#utility.yul\":32706:32712   */\n      dup7\n        /* \"#utility.yul\":32697:32704   */\n      dup4\n        /* \"#utility.yul\":32694:32713   */\n      lt\n        /* \"#utility.yul\":32691:32870   */\n      iszero\n      tag_736\n      jumpi\n        /* \"#utility.yul\":32764:32773   */\n      dup5\n        /* \"#utility.yul\":32759:32762   */\n      dup10\n        /* \"#utility.yul\":32755:32774   */\n      add\n        /* \"#utility.yul\":32749:32775   */\n      mload\n        /* \"#utility.yul\":32807:32855   */\n      tag_737\n        /* \"#utility.yul\":32849:32853   */\n      0x1f\n        /* \"#utility.yul\":32841:32847   */\n      dup10\n        /* \"#utility.yul\":32837:32854   */\n      and\n        /* \"#utility.yul\":32826:32835   */\n      dup3\n        /* \"#utility.yul\":32807:32855   */\n      tag_417\n      jump\t// in\n    tag_737:\n        /* \"#utility.yul\":32799:32805   */\n      dup4\n        /* \"#utility.yul\":32792:32856   */\n      sstore\n        /* \"#utility.yul\":32714:32870   */\n      pop\n        /* \"#utility.yul\":32691:32870   */\n    tag_736:\n        /* \"#utility.yul\":32916:32917   */\n      0x01\n        /* \"#utility.yul\":32912:32913   */\n      0x02\n        /* \"#utility.yul\":32904:32910   */\n      dup9\n        /* \"#utility.yul\":32900:32914   */\n      mul\n        /* \"#utility.yul\":32896:32918   */\n      add\n        /* \"#utility.yul\":32890:32894   */\n      dup9\n        /* \"#utility.yul\":32883:32919   */\n      sstore\n        /* \"#utility.yul\":32318:32929   */\n      pop\n      pop\n      pop\n        /* \"#utility.yul\":32281:33168   */\n    tag_728:\n      pop\n        /* \"#utility.yul\":31871:33174   */\n      pop\n      pop\n      pop\n        /* \"#utility.yul\":31779:33174   */\n      pop\n      pop\n      jump\t// out\n        /* \"#utility.yul\":33180:33371   */\n    tag_131:\n        /* \"#utility.yul\":33220:33223   */\n      0x00\n        /* \"#utility.yul\":33239:33259   */\n      tag_739\n        /* \"#utility.yul\":33257:33258   */\n      dup3\n        /* \"#utility.yul\":33239:33259   */\n      tag_336\n      jump\t// in\n    tag_739:\n        /* \"#utility.yul\":33234:33259   */\n      swap2\n      pop\n        /* \"#utility.yul\":33273:33293   */\n      tag_740\n        /* \"#utility.yul\":33291:33292   */\n      dup4\n        /* \"#utility.yul\":33273:33293   */\n      tag_336\n      jump\t// in\n    tag_740:\n        /* \"#utility.yul\":33268:33293   */\n      swap3\n      pop\n        /* \"#utility.yul\":33316:33317   */\n      dup3\n        /* \"#utility.yul\":33313:33314   */\n      dup3\n        /* \"#utility.yul\":33309:33318   */\n      add\n        /* \"#utility.yul\":33302:33318   */\n      swap1\n      pop\n        /* \"#utility.yul\":33337:33340   */\n      dup1\n        /* \"#utility.yul\":33334:33335   */\n      dup3\n        /* \"#utility.yul\":33331:33341   */\n      gt\n        /* \"#utility.yul\":33328:33364   */\n      iszero\n      tag_741\n      jumpi\n        /* \"#utility.yul\":33344:33362   */\n      tag_742\n      tag_401\n      jump\t// in\n    tag_742:\n        /* \"#utility.yul\":33328:33364   */\n    tag_741:\n        /* \"#utility.yul\":33180:33371   */\n      swap3\n      swap2\n      pop\n      pop\n      jump\t// out\n        /* \"#utility.yul\":33377:33898   */\n    tag_133:\n        /* \"#utility.yul\":33540:33544   */\n      0x00\n        /* \"#utility.yul\":33578:33580   */\n      0x60\n        /* \"#utility.yul\":33567:33576   */\n      dup3\n        /* \"#utility.yul\":33563:33581   */\n      add\n        /* \"#utility.yul\":33555:33581   */\n      swap1\n      pop\n        /* \"#utility.yul\":33627:33636   */\n      dup2\n        /* \"#utility.yul\":33621:33625   */\n      dup2\n        /* \"#utility.yul\":33617:33637   */\n      sub\n        /* \"#utility.yul\":33613:33614   */\n      0x00\n        /* \"#utility.yul\":33602:33611   */\n      dup4\n        /* \"#utility.yul\":33598:33615   */\n      add\n        /* \"#utility.yul\":33591:33638   */\n      mstore\n        /* \"#utility.yul\":33655:33733   */\n      tag_744\n        /* \"#utility.yul\":33728:33732   */\n      dup2\n        /* \"#utility.yul\":33719:33725   */\n      dup7\n        /* \"#utility.yul\":33655:33733   */\n      tag_379\n      jump\t// in\n    tag_744:\n        /* \"#utility.yul\":33647:33733   */\n      swap1\n      pop\n        /* \"#utility.yul\":33743:33815   */\n      tag_745\n        /* \"#utility.yul\":33811:33813   */\n      0x20\n        /* \"#utility.yul\":33800:33809   */\n      dup4\n        /* \"#utility.yul\":33796:33814   */\n      add\n        /* \"#utility.yul\":33787:33793   */\n      dup6\n        /* \"#utility.yul\":33743:33815   */\n      tag_377\n      jump\t// in\n    tag_745:\n        /* \"#utility.yul\":33825:33891   */\n      tag_746\n        /* \"#utility.yul\":33887:33889   */\n      0x40\n        /* \"#utility.yul\":33876:33885   */\n      dup4\n        /* \"#utility.yul\":33872:33890   */\n      add\n        /* \"#utility.yul\":33863:33869   */\n      dup5\n        /* \"#utility.yul\":33825:33891   */\n      tag_359\n      jump\t// in\n    tag_746:\n        /* \"#utility.yul\":33377:33898   */\n      swap5\n      swap4\n      pop\n      pop\n      pop\n      pop\n      jump\t// out\n        /* \"#utility.yul\":33928:34802   */\n    tag_419:\n        /* \"#utility.yul\":34031:34034   */\n      0x00\n        /* \"#utility.yul\":34068:34073   */\n      dup2\n        /* \"#utility.yul\":34062:34074   */\n      sload\n        /* \"#utility.yul\":34097:34133   */\n      tag_748\n        /* \"#utility.yul\":34123:34132   */\n      dup2\n        /* \"#utility.yul\":34097:34133   */\n      tag_196\n      jump\t// in\n    tag_748:\n        /* \"#utility.yul\":34149:34238   */\n      tag_749\n        /* \"#utility.yul\":34231:34237   */\n      dup2\n        /* \"#utility.yul\":34226:34229   */\n      dup7\n        /* \"#utility.yul\":34149:34238   */\n      tag_399\n      jump\t// in\n    tag_749:\n        /* \"#utility.yul\":34142:34238   */\n      swap5\n      pop\n        /* \"#utility.yul\":34269:34270   */\n      0x01\n        /* \"#utility.yul\":34258:34267   */\n      dup3\n        /* \"#utility.yul\":34254:34271   */\n      and\n        /* \"#utility.yul\":34285:34286   */\n      0x00\n        /* \"#utility.yul\":34280:34446   */\n      dup2\n      eq\n      tag_751\n      jumpi\n        /* \"#utility.yul\":34460:34461   */\n      0x01\n        /* \"#utility.yul\":34455:34796   */\n      dup2\n      eq\n      tag_752\n      jumpi\n        /* \"#utility.yul\":34247:34796   */\n      jump(tag_750)\n        /* \"#utility.yul\":34280:34446   */\n    tag_751:\n        /* \"#utility.yul\":34364:34368   */\n      0xff\n        /* \"#utility.yul\":34360:34369   */\n      not\n        /* \"#utility.yul\":34349:34358   */\n      dup4\n        /* \"#utility.yul\":34345:34370   */\n      and\n        /* \"#utility.yul\":34340:34343   */\n      dup7\n        /* \"#utility.yul\":34333:34371   */\n      mstore\n        /* \"#utility.yul\":34426:34432   */\n      dup2\n        /* \"#utility.yul\":34419:34433   */\n      iszero\n        /* \"#utility.yul\":34412:34434   */\n      iszero\n        /* \"#utility.yul\":34404:34410   */\n      dup3\n        /* \"#utility.yul\":34400:34435   */\n      mul\n        /* \"#utility.yul\":34395:34398   */\n      dup7\n        /* \"#utility.yul\":34391:34436   */\n      add\n        /* \"#utility.yul\":34384:34436   */\n      swap4\n      pop\n        /* \"#utility.yul\":34280:34446   */\n      jump(tag_750)\n        /* \"#utility.yul\":34455:34796   */\n    tag_752:\n        /* \"#utility.yul\":34522:34560   */\n      tag_753\n        /* \"#utility.yul\":34554:34559   */\n      dup6\n        /* \"#utility.yul\":34522:34560   */\n      tag_404\n      jump\t// in\n    tag_753:\n        /* \"#utility.yul\":34582:34583   */\n      0x00\n        /* \"#utility.yul\":34596:34750   */\n    tag_754:\n        /* \"#utility.yul\":34610:34616   */\n      dup4\n        /* \"#utility.yul\":34607:34608   */\n      dup2\n        /* \"#utility.yul\":34604:34617   */\n      lt\n        /* \"#utility.yul\":34596:34750   */\n      iszero\n      tag_756\n      jumpi\n        /* \"#utility.yul\":34684:34691   */\n      dup2\n        /* \"#utility.yul\":34678:34692   */\n      sload\n        /* \"#utility.yul\":34674:34675   */\n      dup2\n        /* \"#utility.yul\":34669:34672   */\n      dup10\n        /* \"#utility.yul\":34665:34676   */\n      add\n        /* \"#utility.yul\":34658:34693   */\n      mstore\n        /* \"#utility.yul\":34734:34735   */\n      0x01\n        /* \"#utility.yul\":34725:34732   */\n      dup3\n        /* \"#utility.yul\":34721:34736   */\n      add\n        /* \"#utility.yul\":34710:34736   */\n      swap2\n      pop\n        /* \"#utility.yul\":34632:34636   */\n      0x20\n        /* \"#utility.yul\":34629:34630   */\n      dup2\n        /* \"#utility.yul\":34625:34637   */\n      add\n        /* \"#utility.yul\":34620:34637   */\n      swap1\n      pop\n        /* \"#utility.yul\":34596:34750   */\n      jump(tag_754)\n    tag_756:\n        /* \"#utility.yul\":34779:34785   */\n      dup4\n        /* \"#utility.yul\":34774:34777   */\n      dup9\n        /* \"#utility.yul\":34770:34786   */\n      add\n        /* \"#utility.yul\":34763:34786   */\n      swap6\n      pop\n        /* \"#utility.yul\":34462:34796   */\n      pop\n      pop\n        /* \"#utility.yul\":34247:34796   */\n    tag_750:\n      pop\n        /* \"#utility.yul\":34035:34802   */\n      pop\n      pop\n        /* \"#utility.yul\":33928:34802   */\n      swap3\n      swap2\n      pop\n      pop\n      jump\t// out\n        /* \"#utility.yul\":34808:35077   */\n    tag_175:\n        /* \"#utility.yul\":34937:34940   */\n      0x00\n        /* \"#utility.yul\":34959:35051   */\n      tag_758\n        /* \"#utility.yul\":35047:35050   */\n      dup3\n        /* \"#utility.yul\":35038:35044   */\n      dup5\n        /* \"#utility.yul\":34959:35051   */\n      tag_419\n      jump\t// in\n    tag_758:\n        /* \"#utility.yul\":34952:35051   */\n      swap2\n      pop\n        /* \"#utility.yul\":35068:35071   */\n      dup2\n        /* \"#utility.yul\":35061:35071   */\n      swap1\n      pop\n        /* \"#utility.yul\":34808:35077   */\n      swap3\n      swap2\n      pop\n      pop\n      jump\t// out\n        /* \"#utility.yul\":35083:35303   */\n    tag_420:\n        /* \"#utility.yul\":35223:35257   */\n      0x456c656374696f6e2068617320766f7465732c2063616e6e6f742064656c6574\n        /* \"#utility.yul\":35219:35220   */\n      0x00\n        /* \"#utility.yul\":35211:35217   */\n      dup3\n        /* \"#utility.yul\":35207:35221   */\n      add\n        /* \"#utility.yul\":35200:35258   */\n      mstore\n        /* \"#utility.yul\":35292:35295   */\n      0x6500000000000000000000000000000000000000000000000000000000000000\n        /* \"#utility.yul\":35287:35289   */\n      0x20\n        /* \"#utility.yul\":35279:35285   */\n      dup3\n        /* \"#utility.yul\":35275:35290   */\n      add\n        /* \"#utility.yul\":35268:35296   */\n      mstore\n        /* \"#utility.yul\":35083:35303   */\n      pop\n      jump\t// out\n        /* \"#utility.yul\":35309:35675   */\n    tag_421:\n        /* \"#utility.yul\":35451:35454   */\n      0x00\n        /* \"#utility.yul\":35472:35539   */\n      tag_761\n        /* \"#utility.yul\":35536:35538   */\n      0x21\n        /* \"#utility.yul\":35531:35534   */\n      dup4\n        /* \"#utility.yul\":35472:35539   */\n      tag_378\n      jump\t// in\n    tag_761:\n        /* \"#utility.yul\":35465:35539   */\n      swap2\n      pop\n        /* \"#utility.yul\":35548:35641   */\n      tag_762\n        /* \"#utility.yul\":35637:35640   */\n      dup3\n        /* \"#utility.yul\":35548:35641   */\n      tag_420\n      jump\t// in\n    tag_762:\n        /* \"#utility.yul\":35666:35668   */\n      0x40\n        /* \"#utility.yul\":35661:35664   */\n      dup3\n        /* \"#utility.yul\":35657:35669   */\n      add\n        /* \"#utility.yul\":35650:35669   */\n      swap1\n      pop\n        /* \"#utility.yul\":35309:35675   */\n      swap2\n      swap1\n      pop\n      jump\t// out\n        /* \"#utility.yul\":35681:36100   */\n    tag_214:\n        /* \"#utility.yul\":35847:35851   */\n      0x00\n        /* \"#utility.yul\":35885:35887   */\n      0x20\n        /* \"#utility.yul\":35874:35883   */\n      dup3\n        /* \"#utility.yul\":35870:35888   */\n      add\n        /* \"#utility.yul\":35862:35888   */\n      swap1\n      pop\n        /* \"#utility.yul\":35934:35943   */\n      dup2\n        /* \"#utility.yul\":35928:35932   */\n      dup2\n        /* \"#utility.yul\":35924:35944   */\n      sub\n        /* \"#utility.yul\":35920:35921   */\n      0x00\n        /* \"#utility.yul\":35909:35918   */\n      dup4\n        /* \"#utility.yul\":35905:35922   */\n      add\n        /* \"#utility.yul\":35898:35945   */\n      mstore\n        /* \"#utility.yul\":35962:36093   */\n      tag_764\n        /* \"#utility.yul\":36088:36092   */\n      dup2\n        /* \"#utility.yul\":35962:36093   */\n      tag_421\n      jump\t// in\n    tag_764:\n        /* \"#utility.yul\":35954:36093   */\n      swap1\n      pop\n        /* \"#utility.yul\":35681:36100   */\n      swap2\n      swap1\n      pop\n      jump\t// out\n        /* \"#utility.yul\":36106:36276   */\n    tag_422:\n        /* \"#utility.yul\":36246:36268   */\n      0x496e76616c6964206f7074696f6e20696e646578000000000000000000000000\n        /* \"#utility.yul\":36242:36243   */\n      0x00\n        /* \"#utility.yul\":36234:36240   */\n      dup3\n        /* \"#utility.yul\":36230:36244   */\n      add\n        /* \"#utility.yul\":36223:36269   */\n      mstore\n        /* \"#utility.yul\":36106:36276   */\n      pop\n      jump\t// out\n        /* \"#utility.yul\":36282:36648   */\n    tag_423:\n        /* \"#utility.yul\":36424:36427   */\n      0x00\n        /* \"#utility.yul\":36445:36512   */\n      tag_767\n        /* \"#utility.yul\":36509:36511   */\n      0x14\n        /* \"#utility.yul\":36504:36507   */\n      dup4\n        /* \"#utility.yul\":36445:36512   */\n      tag_378\n      jump\t// in\n    tag_767:\n        /* \"#utility.yul\":36438:36512   */\n      swap2\n      pop\n        /* \"#utility.yul\":36521:36614   */\n      tag_768\n        /* \"#utility.yul\":36610:36613   */\n      dup3\n        /* \"#utility.yul\":36521:36614   */\n      tag_422\n      jump\t// in\n    tag_768:\n        /* \"#utility.yul\":36639:36641   */\n      0x20\n        /* \"#utility.yul\":36634:36637   */\n      dup3\n        /* \"#utility.yul\":36630:36642   */\n      add\n        /* \"#utility.yul\":36623:36642   */\n      swap1\n      pop\n        /* \"#utility.yul\":36282:36648   */\n      swap2\n      swap1\n      pop\n      jump\t// out\n        /* \"#utility.yul\":36654:37073   */\n    tag_229:\n        /* \"#utility.yul\":36820:36824   */\n      0x00\n        /* \"#utility.yul\":36858:36860   */\n      0x20\n        /* \"#utility.yul\":36847:36856   */\n      dup3\n        /* \"#utility.yul\":36843:36861   */\n      add\n        /* \"#utility.yul\":36835:36861   */\n      swap1\n      pop\n        /* \"#utility.yul\":36907:36916   */\n      dup2\n        /* \"#utility.yul\":36901:36905   */\n      dup2\n        /* \"#utility.yul\":36897:36917   */\n      sub\n        /* \"#utility.yul\":36893:36894   */\n      0x00\n        /* \"#utility.yul\":36882:36891   */\n      dup4\n        /* \"#utility.yul\":36878:36895   */\n      add\n        /* \"#utility.yul\":36871:36918   */\n      mstore\n        /* \"#utility.yul\":36935:37066   */\n      tag_770\n        /* \"#utility.yul\":37061:37065   */\n      dup2\n        /* \"#utility.yul\":36935:37066   */\n      tag_423\n      jump\t// in\n    tag_770:\n        /* \"#utility.yul\":36927:37066   */\n      swap1\n      pop\n        /* \"#utility.yul\":36654:37073   */\n      swap2\n      swap1\n      pop\n      jump\t// out\n        /* \"#utility.yul\":37079:37308   */\n    tag_424:\n        /* \"#utility.yul\":37219:37253   */\n      0x43616e6e6f74206368616e6765206f7074696f6e7320616674657220766f7469\n        /* \"#utility.yul\":37215:37216   */\n      0x00\n        /* \"#utility.yul\":37207:37213   */\n      dup3\n        /* \"#utility.yul\":37203:37217   */\n      add\n        /* \"#utility.yul\":37196:37254   */\n      mstore\n        /* \"#utility.yul\":37288:37300   */\n      0x6e67207374617274656400000000000000000000000000000000000000000000\n        /* \"#utility.yul\":37283:37285   */\n      0x20\n        /* \"#utility.yul\":37275:37281   */\n      dup3\n        /* \"#utility.yul\":37271:37286   */\n      add\n        /* \"#utility.yul\":37264:37301   */\n      mstore\n        /* \"#utility.yul\":37079:37308   */\n      pop\n      jump\t// out\n        /* \"#utility.yul\":37314:37680   */\n    tag_425:\n        /* \"#utility.yul\":37456:37459   */\n      0x00\n        /* \"#utility.yul\":37477:37544   */\n      tag_773\n        /* \"#utility.yul\":37541:37543   */\n      0x2a\n        /* \"#utility.yul\":37536:37539   */\n      dup4\n        /* \"#utility.yul\":37477:37544   */\n      tag_378\n      jump\t// in\n    tag_773:\n        /* \"#utility.yul\":37470:37544   */\n      swap2\n      pop\n        /* \"#utility.yul\":37553:37646   */\n      tag_774\n        /* \"#utility.yul\":37642:37645   */\n      dup3\n        /* \"#utility.yul\":37553:37646   */\n      tag_424\n      jump\t// in\n    tag_774:\n        /* \"#utility.yul\":37671:37673   */\n      0x40\n        /* \"#utility.yul\":37666:37669   */\n      dup3\n        /* \"#utility.yul\":37662:37674   */\n      add\n        /* \"#utility.yul\":37655:37674   */\n      swap1\n      pop\n        /* \"#utility.yul\":37314:37680   */\n      swap2\n      swap1\n      pop\n      jump\t// out\n        /* \"#utility.yul\":37686:38105   */\n    tag_232:\n        /* \"#utility.yul\":37852:37856   */\n      0x00\n        /* \"#utility.yul\":37890:37892   */\n      0x20\n        /* \"#utility.yul\":37879:37888   */\n      dup3\n        /* \"#utility.yul\":37875:37893   */\n      add\n        /* \"#utility.yul\":37867:37893   */\n      swap1\n      pop\n        /* \"#utility.yul\":37939:37948   */\n      dup2\n        /* \"#utility.yul\":37933:37937   */\n      dup2\n        /* \"#utility.yul\":37929:37949   */\n      sub\n        /* \"#utility.yul\":37925:37926   */\n      0x00\n        /* \"#utility.yul\":37914:37923   */\n      dup4\n        /* \"#utility.yul\":37910:37927   */\n      add\n        /* \"#utility.yul\":37903:37950   */\n      mstore\n        /* \"#utility.yul\":37967:38098   */\n      tag_776\n        /* \"#utility.yul\":38093:38097   */\n      dup2\n        /* \"#utility.yul\":37967:38098   */\n      tag_425\n      jump\t// in\n    tag_776:\n        /* \"#utility.yul\":37959:38098   */\n      swap1\n      pop\n        /* \"#utility.yul\":37686:38105   */\n      swap2\n      swap1\n      pop\n      jump\t// out\n        /* \"#utility.yul\":38111:38332   */\n    tag_426:\n        /* \"#utility.yul\":38251:38285   */\n      0x43616e6e6f742072656e616d6520616674657220766f74696e67207374617274\n        /* \"#utility.yul\":38247:38248   */\n      0x00\n        /* \"#utility.yul\":38239:38245   */\n      dup3\n        /* \"#utility.yul\":38235:38249   */\n      add\n        /* \"#utility.yul\":38228:38286   */\n      mstore\n        /* \"#utility.yul\":38320:38324   */\n      0x6564000000000000000000000000000000000000000000000000000000000000\n        /* \"#utility.yul\":38315:38317   */\n      0x20\n        /* \"#utility.yul\":38307:38313   */\n      dup3\n        /* \"#utility.yul\":38303:38318   */\n      add\n        /* \"#utility.yul\":38296:38325   */\n      mstore\n        /* \"#utility.yul\":38111:38332   */\n      pop\n      jump\t// out\n        /* \"#utility.yul\":38338:38704   */\n    tag_427:\n        /* \"#utility.yul\":38480:38483   */\n      0x00\n        /* \"#utility.yul\":38501:38568   */\n      tag_779\n        /* \"#utility.yul\":38565:38567   */\n      0x22\n        /* \"#utility.yul\":38560:38563   */\n      dup4\n        /* \"#utility.yul\":38501:38568   */\n      tag_378\n      jump\t// in\n    tag_779:\n        /* \"#utility.yul\":38494:38568   */\n      swap2\n      pop\n        /* \"#utility.yul\":38577:38670   */\n      tag_780\n        /* \"#utility.yul\":38666:38669   */\n      dup3\n        /* \"#utility.yul\":38577:38670   */\n      tag_426\n      jump\t// in\n    tag_780:\n        /* \"#utility.yul\":38695:38697   */\n      0x40\n        /* \"#utility.yul\":38690:38693   */\n      dup3\n        /* \"#utility.yul\":38686:38698   */\n      add\n        /* \"#utility.yul\":38679:38698   */\n      swap1\n      pop\n        /* \"#utility.yul\":38338:38704   */\n      swap2\n      swap1\n      pop\n      jump\t// out\n        /* \"#utility.yul\":38710:39129   */\n    tag_313:\n        /* \"#utility.yul\":38876:38880   */\n      0x00\n        /* \"#utility.yul\":38914:38916   */\n      0x20\n        /* \"#utility.yul\":38903:38912   */\n      dup3\n        /* \"#utility.yul\":38899:38917   */\n      add\n        /* \"#utility.yul\":38891:38917   */\n      swap1\n      pop\n        /* \"#utility.yul\":38963:38972   */\n      dup2\n        /* \"#utility.yul\":38957:38961   */\n      dup2\n        /* \"#utility.yul\":38953:38973   */\n      sub\n        /* \"#utility.yul\":38949:38950   */\n      0x00\n        /* \"#utility.yul\":38938:38947   */\n      dup4\n        /* \"#utility.yul\":38934:38951   */\n      add\n        /* \"#utility.yul\":38927:38974   */\n      mstore\n        /* \"#utility.yul\":38991:39122   */\n      tag_782\n        /* \"#utility.yul\":39117:39121   */\n      dup2\n        /* \"#utility.yul\":38991:39122   */\n      tag_427\n      jump\t// in\n    tag_782:\n        /* \"#utility.yul\":38983:39122   */\n      swap1\n      pop\n        /* \"#utility.yul\":38710:39129   */\n      swap2\n      swap1\n      pop\n      jump\t// out\n\n    auxdata: 0xa2646970667358221220b6ad79eeda3e904d957bfe5fcba0f658d2e05439c497a347c86bba13e5a9ab0164736f6c634300081a0033\n}\n",
				"bytecode": {
					"linkReferences": {},
					"object": "6080604052348015600e575f80fd5b50612d448061001c5f395ff3fe608060405234801561000f575f80fd5b50600436106100cd575f3560e01c8063740c47d41161008a5780638a3b63b0116100645780638a3b63b01461020c578063997d28301461022a578063ce99b5df14610248578063d02fbae31461027e576100cd565b8063740c47d4146101a35780637b553792146101bf57806381a60c0d146101db576100cd565b806309e33d07146100d157806324108475146100ed57806340f46a4f1461010957806343859632146101255780635c0487c8146101555780636b1426a414610173575b5f80fd5b6100eb60048036038101906100e69190611a4a565b61029a565b005b61010760048036038101906101029190611bb1565b61043e565b005b610123600480360381019061011e9190611d22565b610785565b005b61013f600480360381019061013a9190611e18565b610916565b60405161014c9190611e65565b60405180910390f35b61015d6109cc565b60405161016a9190611f35565b60405180910390f35b61018d60048036038101906101889190611a4a565b610b57565b60405161019a9190612070565b60405180910390f35b6101bd60048036038101906101b89190611a4a565b610dde565b005b6101d960048036038101906101d49190612090565b610fe8565b005b6101f560048036038101906101f09190611a4a565b6111ca565b6040516102039291906120fc565b60405180910390f35b6102146113df565b6040516102219190611f35565b60405180910390f35b61023261156b565b60405161023f9190612140565b60405180910390f35b610262600480360381019061025d9190611a4a565b611571565b60405161027597969594939291906121b0565b60405180910390f35b61029860048036038101906102939190611bb1565b6117a8565b005b805f808281526020019081526020015f2060040160019054906101000a900473ffffffffffffffffffffffffffffffffffffffff1673ffffffffffffffffffffffffffffffffffffffff163373ffffffffffffffffffffffffffffffffffffffff161461033c576040517f08c379a000000000000000000000000000000000000000000000000000000000815260040161033390612275565b60405180910390fd5b815f8111801561034e57506001548111155b61038d576040517f08c379a0000000000000000000000000000000000000000000000000000000008152600401610384906122dd565b60405180910390fd5b5f805f8581526020019081526020015f209050806004015f9054906101000a900460ff166103f0576040517f08c379a00000000000000000000000000000000000000000000000000000000081526004016103e790612345565b60405180910390fd5b5f816004015f6101000a81548160ff021916908315150217905550837f393c4b8e62f1195313cf17dcf00793c668ddfc35881cd8015559c074f6d61e8360405160405180910390a250505050565b815f8111801561045057506001548111155b61048f576040517f08c379a0000000000000000000000000000000000000000000000000000000008152600401610486906122dd565b60405180910390fd5b5f805f8581526020019081526020015f209050806004015f9054906101000a900460ff166104f2576040517f08c379a00000000000000000000000000000000000000000000000000000000081526004016104e9906123ad565b60405180910390fd5b8060050154421115610539576040517f08c379a000000000000000000000000000000000000000000000000000000000815260040161053090612415565b60405180910390fd5b806003015f3373ffffffffffffffffffffffffffffffffffffffff1673ffffffffffffffffffffffffffffffffffffffff1681526020019081526020015f205f9054906101000a900460ff16156105c5576040517f08c379a00000000000000000000000000000000000000000000000000000000081526004016105bc9061247d565b60405180910390fd5b5f805b826001018054905081101561062d5784805190602001208360010182815481106105f5576105f461249b565b5b905f5260205f200160405161060a91906125c1565b604051809103902003610620576001915061062d565b80806001019150506105c8565b508061066e576040517f08c379a000000000000000000000000000000000000000000000000000000000815260040161066590612621565b60405180910390fd5b81600201846040516106809190612679565b90815260200160405180910390205f81548092919061069e906126bc565b91905055506001826003015f3373ffffffffffffffffffffffffffffffffffffffff1673ffffffffffffffffffffffffffffffffffffffff1681526020019081526020015f205f6101000a81548160ff021916908315150217905550816007015f81548092919061070e906126bc565b9190505550816006015f9054906101000a900460ff1661072e5733610730565b5f5b73ffffffffffffffffffffffffffffffffffffffff16857f01674dedffd7377ed829cf5235cf829c93de67870b6eabca5cc4ccc21d9a54e7866040516107769190612703565b60405180910390a35050505050565b60018351116107c9576040517f08c379a00000000000000000000000000000000000000000000000000000000081526004016107c09061276d565b60405180910390fd5b60015f8154809291906107db906126bc565b91905055505f805f60015481526020019081526020015f20905084815f0190816108059190612928565b508381600101908051906020019061081e929190611916565b506001816004015f6101000a81548160ff021916908315150217905550338160040160016101000a81548173ffffffffffffffffffffffffffffffffffffffff021916908373ffffffffffffffffffffffffffffffffffffffff160217905550824261088a91906129f7565b816005018190555081816006015f6101000a81548160ff0219169083151502179055505f81600701819055503373ffffffffffffffffffffffffffffffffffffffff166001547f2d4ac046bbfb351214ee0b758b9d541ffaac0804d4ffb0de6cc1b8cd3d3abac28784600501548660405161090793929190612a2a565b60405180910390a35050505050565b5f825f8111801561092957506001548111155b610968576040517f08c379a000000000000000000000000000000000000000000000000000000000815260040161095f906122dd565b60405180910390fd5b5f808581526020019081526020015f206003015f8473ffffffffffffffffffffffffffffffffffffffff1673ffffffffffffffffffffffffffffffffffffffff1681526020019081526020015f205f9054906101000a900460ff1691505092915050565b60605f60015467ffffffffffffffff8111156109eb576109ea611a8d565b5b604051908082528060200260200182016040528015610a195781602001602082028036833780820191505090505b5090505f80600190505b6001548111610aaf575f808281526020019081526020015f206004015f9054906101000a900460ff161580610a6a57505f808281526020019081526020015f206005015442115b15610a9c5780838380610a7c906126bc565b945081518110610a8f57610a8e61249b565b5b6020026020010181815250505b8080610aa7906126bc565b915050610a23565b505f8167ffffffffffffffff811115610acb57610aca611a8d565b5b604051908082528060200260200182016040528015610af95781602001602082028036833780820191505090505b5090505f5b82811015610b4d57838181518110610b1957610b1861249b565b5b6020026020010151828281518110610b3457610b3361249b565b5b6020026020010181815250508080600101915050610afe565b5080935050505090565b6060815f81118015610b6b57506001548111155b610baa576040517f08c379a0000000000000000000000000000000000000000000000000000000008152600401610ba1906122dd565b60405180910390fd5b5f805f8581526020019081526020015f2090505f805f5b8360010180549050811015610c4a575f84600201856001018381548110610beb57610bea61249b565b5b905f5260205f2001604051610c009190612ae6565b908152602001604051809103902054905083811115610c255780935060019250610c3c565b838103610c3b578280610c37906126bc565b9350505b5b508080600101915050610bc1565b505f8167ffffffffffffffff811115610c6657610c65611a8d565b5b604051908082528060200260200182016040528015610c9957816020015b6060815260200190600190039081610c845790505b5090505f805b8560010180549050811015610dcf578486600201876001018381548110610cc957610cc861249b565b5b905f5260205f2001604051610cde9190612ae6565b90815260200160405180910390205403610dc257856001018181548110610d0857610d0761249b565b5b905f5260205f20018054610d1b906124f5565b80601f0160208091040260200160405190810160405280929190818152602001828054610d47906124f5565b8015610d925780601f10610d6957610100808354040283529160200191610d92565b820191905f5260205f20905b815481529060010190602001808311610d7557829003601f168201915b5050505050838380610da3906126bc565b945081518110610db657610db561249b565b5b60200260200101819052505b8080600101915050610c9f565b50819650505050505050919050565b805f808281526020019081526020015f2060040160019054906101000a900473ffffffffffffffffffffffffffffffffffffffff1673ffffffffffffffffffffffffffffffffffffffff163373ffffffffffffffffffffffffffffffffffffffff1614610e80576040517f08c379a0000000000000000000000000000000000000000000000000000000008152600401610e7790612275565b60405180910390fd5b815f81118015610e9257506001548111155b610ed1576040517f08c379a0000000000000000000000000000000000000000000000000000000008152600401610ec8906122dd565b60405180910390fd5b5f805f8581526020019081526020015f2090505f816007015414610f2a576040517f08c379a0000000000000000000000000000000000000000000000000000000008152600401610f2190612b6c565b60405180910390fd5b5f808581526020019081526020015f205f8082015f610f49919061196d565b600182015f610f5891906119aa565b600482015f6101000a81549060ff02191690556004820160016101000a81549073ffffffffffffffffffffffffffffffffffffffff0219169055600582015f9055600682015f6101000a81549060ff0219169055600782015f90555050837fbb78d5fa658dbdad95908d420646ea8bb64f50a9daa1acaa682effe6703f1ed760405160405180910390a250505050565b825f808281526020019081526020015f2060040160019054906101000a900473ffffffffffffffffffffffffffffffffffffffff1673ffffffffffffffffffffffffffffffffffffffff163373ffffffffffffffffffffffffffffffffffffffff161461108a576040517f08c379a000000000000000000000000000000000000000000000000000000000815260040161108190612275565b60405180910390fd5b835f8111801561109c57506001548111155b6110db576040517f08c379a00000000000000000000000000000000000000000000000000000000081526004016110d2906122dd565b60405180910390fd5b5f808681526020019081526020015f20600101805490508410611133576040517f08c379a000000000000000000000000000000000000000000000000000000000815260040161112a90612bd4565b60405180910390fd5b5f805f8781526020019081526020015f206007015414611188576040517f08c379a000000000000000000000000000000000000000000000000000000000815260040161117f90612c62565b60405180910390fd5b825f808781526020019081526020015f2060010185815481106111ae576111ad61249b565b5b905f5260205f200190816111c29190612928565b505050505050565b606080825f811180156111df57506001548111155b61121e576040517f08c379a0000000000000000000000000000000000000000000000000000000008152600401611215906122dd565b60405180910390fd5b5f805f8681526020019081526020015f2090505f816001018054905067ffffffffffffffff81111561125357611252611a8d565b5b6040519080825280602002602001820160405280156112815781602001602082028036833780820191505090505b5090505f5b82600101805490508110156112ff57826002018360010182815481106112af576112ae61249b565b5b905f5260205f20016040516112c49190612ae6565b9081526020016040518091039020548282815181106112e6576112e561249b565b5b6020026020010181815250508080600101915050611286565b50816001018181805480602002602001604051908101604052809291908181526020015f905b828210156113cd578382905f5260205f20018054611342906124f5565b80601f016020809104026020016040519081016040528092919081815260200182805461136e906124f5565b80156113b95780601f10611390576101008083540402835291602001916113b9565b820191905f5260205f20905b81548152906001019060200180831161139c57829003601f168201915b505050505081526020019060010190611325565b50505050915094509450505050915091565b60605f60015467ffffffffffffffff8111156113fe576113fd611a8d565b5b60405190808252806020026020018201604052801561142c5781602001602082028036833780820191505090505b5090505f80600190505b60015481116114c3575f808281526020019081526020015f206004015f9054906101000a900460ff16801561147e57505f808281526020019081526020015f20600501544211155b156114b05780838380611490906126bc565b9450815181106114a3576114a261249b565b5b6020026020010181815250505b80806114bb906126bc565b915050611436565b505f8167ffffffffffffffff8111156114df576114de611a8d565b5b60405190808252806020026020018201604052801561150d5781602001602082028036833780820191505090505b5090505f5b828110156115615783818151811061152d5761152c61249b565b5b60200260200101518282815181106115485761154761249b565b5b6020026020010181815250508080600101915050611512565b5080935050505090565b60015481565b6060805f805f805f875f8111801561158b57506001548111155b6115ca576040517f08c379a00000000000000000000000000000000000000000000000000000000081526004016115c1906122dd565b60405180910390fd5b5f805f8b81526020019081526020015f209050805f0181600101826004015f9054906101000a900460ff168360040160019054906101000a900473ffffffffffffffffffffffffffffffffffffffff168460050154856006015f9054906101000a900460ff168660070154868054611641906124f5565b80601f016020809104026020016040519081016040528092919081815260200182805461166d906124f5565b80156116b85780601f1061168f576101008083540402835291602001916116b8565b820191905f5260205f20905b81548152906001019060200180831161169b57829003601f168201915b5050505050965085805480602002602001604051908101604052809291908181526020015f905b82821015611787578382905f5260205f200180546116fc906124f5565b80601f0160208091040260200160405190810160405280929190818152602001828054611728906124f5565b80156117735780601f1061174a57610100808354040283529160200191611773565b820191905f5260205f20905b81548152906001019060200180831161175657829003601f168201915b5050505050815260200190600101906116df565b50505050955098509850985098509850985098505050919395979092949650565b815f808281526020019081526020015f2060040160019054906101000a900473ffffffffffffffffffffffffffffffffffffffff1673ffffffffffffffffffffffffffffffffffffffff163373ffffffffffffffffffffffffffffffffffffffff161461184a576040517f08c379a000000000000000000000000000000000000000000000000000000000815260040161184190612275565b60405180910390fd5b825f8111801561185c57506001548111155b61189b576040517f08c379a0000000000000000000000000000000000000000000000000000000008152600401611892906122dd565b60405180910390fd5b5f805f8681526020019081526020015f2060070154146118f0576040517f08c379a00000000000000000000000000000000000000000000000000000000081526004016118e790612cf0565b60405180910390fd5b825f808681526020019081526020015f205f01908161190f9190612928565b5050505050565b828054828255905f5260205f2090810192821561195c579160200282015b8281111561195b57825182908161194b9190612928565b5091602001919060010190611934565b5b50905061196991906119c8565b5090565b508054611979906124f5565b5f825580601f1061198a57506119a7565b601f0160209004905f5260205f20908101906119a691906119eb565b5b50565b5080545f8255905f5260205f20908101906119c591906119c8565b50565b5b808211156119e7575f81816119de919061196d565b506001016119c9565b5090565b5b80821115611a02575f815f9055506001016119ec565b5090565b5f604051905090565b5f80fd5b5f80fd5b5f819050919050565b611a2981611a17565b8114611a33575f80fd5b50565b5f81359050611a4481611a20565b92915050565b5f60208284031215611a5f57611a5e611a0f565b5b5f611a6c84828501611a36565b91505092915050565b5f80fd5b5f80fd5b5f601f19601f8301169050919050565b7f4e487b71000000000000000000000000000000000000000000000000000000005f52604160045260245ffd5b611ac382611a7d565b810181811067ffffffffffffffff82111715611ae257611ae1611a8d565b5b80604052505050565b5f611af4611a06565b9050611b008282611aba565b919050565b5f67ffffffffffffffff821115611b1f57611b1e611a8d565b5b611b2882611a7d565b9050602081019050919050565b828183375f83830152505050565b5f611b55611b5084611b05565b611aeb565b905082815260208101848484011115611b7157611b70611a79565b5b611b7c848285611b35565b509392505050565b5f82601f830112611b9857611b97611a75565b5b8135611ba8848260208601611b43565b91505092915050565b5f8060408385031215611bc757611bc6611a0f565b5b5f611bd485828601611a36565b925050602083013567ffffffffffffffff811115611bf557611bf4611a13565b5b611c0185828601611b84565b9150509250929050565b5f67ffffffffffffffff821115611c2557611c24611a8d565b5b602082029050602081019050919050565b5f80fd5b5f611c4c611c4784611c0b565b611aeb565b90508083825260208201905060208402830185811115611c6f57611c6e611c36565b5b835b81811015611cb657803567ffffffffffffffff811115611c9457611c93611a75565b5b808601611ca18982611b84565b85526020850194505050602081019050611c71565b5050509392505050565b5f82601f830112611cd457611cd3611a75565b5b8135611ce4848260208601611c3a565b91505092915050565b5f8115159050919050565b611d0181611ced565b8114611d0b575f80fd5b50565b5f81359050611d1c81611cf8565b92915050565b5f805f8060808587031215611d3a57611d39611a0f565b5b5f85013567ffffffffffffffff811115611d5757611d56611a13565b5b611d6387828801611b84565b945050602085013567ffffffffffffffff811115611d8457611d83611a13565b5b611d9087828801611cc0565b9350506040611da187828801611a36565b9250506060611db287828801611d0e565b91505092959194509250565b5f73ffffffffffffffffffffffffffffffffffffffff82169050919050565b5f611de782611dbe565b9050919050565b611df781611ddd565b8114611e01575f80fd5b50565b5f81359050611e1281611dee565b92915050565b5f8060408385031215611e2e57611e2d611a0f565b5b5f611e3b85828601611a36565b9250506020611e4c85828601611e04565b9150509250929050565b611e5f81611ced565b82525050565b5f602082019050611e785f830184611e56565b92915050565b5f81519050919050565b5f82825260208201905092915050565b5f819050602082019050919050565b611eb081611a17565b82525050565b5f611ec18383611ea7565b60208301905092915050565b5f602082019050919050565b5f611ee382611e7e565b611eed8185611e88565b9350611ef883611e98565b805f5b83811015611f28578151611f0f8882611eb6565b9750611f1a83611ecd565b925050600181019050611efb565b5085935050505092915050565b5f6020820190508181035f830152611f4d8184611ed9565b905092915050565b5f81519050919050565b5f82825260208201905092915050565b5f819050602082019050919050565b5f81519050919050565b5f82825260208201905092915050565b8281835e5f83830152505050565b5f611fb082611f7e565b611fba8185611f88565b9350611fca818560208601611f98565b611fd381611a7d565b840191505092915050565b5f611fe98383611fa6565b905092915050565b5f602082019050919050565b5f61200782611f55565b6120118185611f5f565b93508360208202850161202385611f6f565b805f5b8581101561205e578484038952815161203f8582611fde565b945061204a83611ff1565b925060208a01995050600181019050612026565b50829750879550505050505092915050565b5f6020820190508181035f8301526120888184611ffd565b905092915050565b5f805f606084860312156120a7576120a6611a0f565b5b5f6120b486828701611a36565b93505060206120c586828701611a36565b925050604084013567ffffffffffffffff8111156120e6576120e5611a13565b5b6120f286828701611b84565b9150509250925092565b5f6040820190508181035f8301526121148185611ffd565b905081810360208301526121288184611ed9565b90509392505050565b61213a81611a17565b82525050565b5f6020820190506121535f830184612131565b92915050565b5f82825260208201905092915050565b5f61217382611f7e565b61217d8185612159565b935061218d818560208601611f98565b61219681611a7d565b840191505092915050565b6121aa81611ddd565b82525050565b5f60e0820190508181035f8301526121c8818a612169565b905081810360208301526121dc8189611ffd565b90506121eb6040830188611e56565b6121f860608301876121a1565b6122056080830186612131565b61221260a0830185611e56565b61221f60c0830184612131565b98975050505050505050565b7f4f6e6c792063726561746f7220616c6c6f7765640000000000000000000000005f82015250565b5f61225f601483612159565b915061226a8261222b565b602082019050919050565b5f6020820190508181035f83015261228c81612253565b9050919050565b7f456c656374696f6e20646f6573206e6f742065786973740000000000000000005f82015250565b5f6122c7601783612159565b91506122d282612293565b602082019050919050565b5f6020820190508181035f8301526122f4816122bb565b9050919050565b7f456c656374696f6e20616c726561647920636c6f7365640000000000000000005f82015250565b5f61232f601783612159565b915061233a826122fb565b602082019050919050565b5f6020820190508181035f83015261235c81612323565b9050919050565b7f456c656374696f6e20697320636c6f73656400000000000000000000000000005f82015250565b5f612397601283612159565b91506123a282612363565b602082019050919050565b5f6020820190508181035f8301526123c48161238b565b9050919050565b7f456c656374696f6e2068617320656e64656400000000000000000000000000005f82015250565b5f6123ff601283612159565b915061240a826123cb565b602082019050919050565b5f6020820190508181035f83015261242c816123f3565b9050919050565b7f416c726561647920766f746564000000000000000000000000000000000000005f82015250565b5f612467600d83612159565b915061247282612433565b602082019050919050565b5f6020820190508181035f8301526124948161245b565b9050919050565b7f4e487b71000000000000000000000000000000000000000000000000000000005f52603260045260245ffd5b7f4e487b71000000000000000000000000000000000000000000000000000000005f52602260045260245ffd5b5f600282049050600182168061250c57607f821691505b60208210810361251f5761251e6124c8565b5b50919050565b5f81905092915050565b5f819050815f5260205f209050919050565b5f815461254d816124f5565b6125578186612525565b9450600182165f81146125715760018114612586576125b8565b60ff19831686528115158202860193506125b8565b61258f8561252f565b5f5b838110156125b057815481890152600182019150602081019050612591565b838801955050505b50505092915050565b5f6125cc8284612541565b915081905092915050565b7f496e76616c6964206f7074696f6e0000000000000000000000000000000000005f82015250565b5f61260b600e83612159565b9150612616826125d7565b602082019050919050565b5f6020820190508181035f830152612638816125ff565b9050919050565b5f81905092915050565b5f61265382611f7e565b61265d818561263f565b935061266d818560208601611f98565b80840191505092915050565b5f6126848284612649565b915081905092915050565b7f4e487b71000000000000000000000000000000000000000000000000000000005f52601160045260245ffd5b5f6126c682611a17565b91507fffffffffffffffffffffffffffffffffffffffffffffffffffffffffffffffff82036126f8576126f761268f565b5b600182019050919050565b5f6020820190508181035f83015261271b8184612169565b905092915050565b7f4174206c656173742032206f7074696f6e7320726571756972656400000000005f82015250565b5f612757601b83612159565b915061276282612723565b602082019050919050565b5f6020820190508181035f8301526127848161274b565b9050919050565b5f819050815f5260205f209050919050565b5f6020601f8301049050919050565b5f82821b905092915050565b5f600883026127e77fffffffffffffffffffffffffffffffffffffffffffffffffffffffffffffffff826127ac565b6127f186836127ac565b95508019841693508086168417925050509392505050565b5f819050919050565b5f61282c61282761282284611a17565b612809565b611a17565b9050919050565b5f819050919050565b61284583612812565b61285961285182612833565b8484546127b8565b825550505050565b5f90565b61286d612861565b61287881848461283c565b505050565b5b8181101561289b576128905f82612865565b60018101905061287e565b5050565b601f8211156128e0576128b18161278b565b6128ba8461279d565b810160208510156128c9578190505b6128dd6128d58561279d565b83018261287d565b50505b505050565b5f82821c905092915050565b5f6129005f19846008026128e5565b1980831691505092915050565b5f61291883836128f1565b9150826002028217905092915050565b61293182611f7e565b67ffffffffffffffff81111561294a57612949611a8d565b5b61295482546124f5565b61295f82828561289f565b5f60209050601f831160018114612990575f841561297e578287015190505b612988858261290d565b8655506129ef565b601f19841661299e8661278b565b5f5b828110156129c5578489015182556001820191506020850194506020810190506129a0565b868310156129e257848901516129de601f8916826128f1565b8355505b6001600288020188555050505b505050505050565b5f612a0182611a17565b9150612a0c83611a17565b9250828201905080821115612a2457612a2361268f565b5b92915050565b5f6060820190508181035f830152612a428186612169565b9050612a516020830185612131565b612a5e6040830184611e56565b949350505050565b5f8154612a72816124f5565b612a7c818661263f565b9450600182165f8114612a965760018114612aab57612add565b60ff1983168652811515820286019350612add565b612ab48561278b565b5f5b83811015612ad557815481890152600182019150602081019050612ab6565b838801955050505b50505092915050565b5f612af18284612a66565b915081905092915050565b7f456c656374696f6e2068617320766f7465732c2063616e6e6f742064656c65745f8201527f6500000000000000000000000000000000000000000000000000000000000000602082015250565b5f612b56602183612159565b9150612b6182612afc565b604082019050919050565b5f6020820190508181035f830152612b8381612b4a565b9050919050565b7f496e76616c6964206f7074696f6e20696e6465780000000000000000000000005f82015250565b5f612bbe601483612159565b9150612bc982612b8a565b602082019050919050565b5f6020820190508181035f830152612beb81612bb2565b9050919050565b7f43616e6e6f74206368616e6765206f7074696f6e7320616674657220766f74695f8201527f6e67207374617274656400000000000000000000000000000000000000000000602082015250565b5f612c4c602a83612159565b9150612c5782612bf2565b604082019050919050565b5f6020820190508181035f830152612c7981612c40565b9050919050565b7f43616e6e6f742072656e616d6520616674657220766f74696e672073746172745f8201527f6564000000000000000000000000000000000000000000000000000000000000602082015250565b5f612cda602283612159565b9150612ce582612c80565b604082019050919050565b5f6020820190508181035f830152612d0781612cce565b905091905056fea2646970667358221220b6ad79eeda3e904d957bfe5fcba0f658d2e05439c497a347c86bba13e5a9ab0164736f6c634300081a0033",
					"opcodes": "PUSH1 0x80 PUSH1 0x40 MSTORE CALLVALUE DUP1 ISZERO PUSH1 0xE JUMPI PUSH0 DUP1 REVERT JUMPDEST POP PUSH2 0x2D44 DUP1 PUSH2 0x1C PUSH0 CODECOPY PUSH0 RETURN INVALID PUSH1 0x80 PUSH1 0x40 MSTORE CALLVALUE DUP1 ISZERO PUSH2 0xF JUMPI PUSH0 DUP1 REVERT JUMPDEST POP PUSH1 0x4 CALLDATASIZE LT PUSH2 0xCD JUMPI PUSH0 CALLDATALOAD PUSH1 0xE0 SHR DUP1 PUSH4 0x740C47D4 GT PUSH2 0x8A JUMPI DUP1 PUSH4 0x8A3B63B0 GT PUSH2 0x64 JUMPI DUP1 PUSH4 0x8A3B63B0 EQ PUSH2 0x20C JUMPI DUP1 PUSH4 0x997D2830 EQ PUSH2 0x22A JUMPI DUP1 PUSH4 0xCE99B5DF EQ PUSH2 0x248 JUMPI DUP1 PUSH4 0xD02FBAE3 EQ PUSH2 0x27E JUMPI PUSH2 0xCD JUMP JUMPDEST DUP1 PUSH4 0x740C47D4 EQ PUSH2 0x1A3 JUMPI DUP1 PUSH4 0x7B553792 EQ PUSH2 0x1BF JUMPI DUP1 PUSH4 0x81A60C0D EQ PUSH2 0x1DB JUMPI PUSH2 0xCD JUMP JUMPDEST DUP1 PUSH4 0x9E33D07 EQ PUSH2 0xD1 JUMPI DUP1 PUSH4 0x24108475 EQ PUSH2 0xED JUMPI DUP1 PUSH4 0x40F46A4F EQ PUSH2 0x109 JUMPI DUP1 PUSH4 0x43859632 EQ PUSH2 0x125 JUMPI DUP1 PUSH4 0x5C0487C8 EQ PUSH2 0x155 JUMPI DUP1 PUSH4 0x6B1426A4 EQ PUSH2 0x173 JUMPI JUMPDEST PUSH0 DUP1 REVERT JUMPDEST PUSH2 0xEB PUSH1 0x4 DUP1 CALLDATASIZE SUB DUP2 ADD SWAP1 PUSH2 0xE6 SWAP2 SWAP1 PUSH2 0x1A4A JUMP JUMPDEST PUSH2 0x29A JUMP JUMPDEST STOP JUMPDEST PUSH2 0x107 PUSH1 0x4 DUP1 CALLDATASIZE SUB DUP2 ADD SWAP1 PUSH2 0x102 SWAP2 SWAP1 PUSH2 0x1BB1 JUMP JUMPDEST PUSH2 0x43E JUMP JUMPDEST STOP JUMPDEST PUSH2 0x123 PUSH1 0x4 DUP1 CALLDATASIZE SUB DUP2 ADD SWAP1 PUSH2 0x11E SWAP2 SWAP1 PUSH2 0x1D22 JUMP JUMPDEST PUSH2 0x785 JUMP JUMPDEST STOP JUMPDEST PUSH2 0x13F PUSH1 0x4 DUP1 CALLDATASIZE SUB DUP2 ADD SWAP1 PUSH2 0x13A SWAP2 SWAP1 PUSH2 0x1E18 JUMP JUMPDEST PUSH2 0x916 JUMP JUMPDEST PUSH1 0x40 MLOAD PUSH2 0x14C SWAP2 SWAP1 PUSH2 0x1E65 JUMP JUMPDEST PUSH1 0x40 MLOAD DUP1 SWAP2 SUB SWAP1 RETURN JUMPDEST PUSH2 0x15D PUSH2 0x9CC JUMP JUMPDEST PUSH1 0x40 MLOAD PUSH2 0x16A SWAP2 SWAP1 PUSH2 0x1F35 JUMP JUMPDEST PUSH1 0x40 MLOAD DUP1 SWAP2 SUB SWAP1 RETURN JUMPDEST PUSH2 0x18D PUSH1 0x4 DUP1 CALLDATASIZE SUB DUP2 ADD SWAP1 PUSH2 0x188 SWAP2 SWAP1 PUSH2 0x1A4A JUMP JUMPDEST PUSH2 0xB57 JUMP JUMPDEST PUSH1 0x40 MLOAD PUSH2 0x19A SWAP2 SWAP1 PUSH2 0x2070 JUMP JUMPDEST PUSH1 0x40 MLOAD DUP1 SWAP2 SUB SWAP1 RETURN JUMPDEST PUSH2 0x1BD PUSH1 0x4 DUP1 CALLDATASIZE SUB DUP2 ADD SWAP1 PUSH2 0x1B8 SWAP2 SWAP1 PUSH2 0x1A4A JUMP JUMPDEST PUSH2 0xDDE JUMP JUMPDEST STOP JUMPDEST PUSH2 0x1D9 PUSH1 0x4 DUP1 CALLDATASIZE SUB DUP2 ADD SWAP1 PUSH2 0x1D4 SWAP2 SWAP1 PUSH2 0x2090 JUMP JUMPDEST PUSH2 0xFE8 JUMP JUMPDEST STOP JUMPDEST PUSH2 0x1F5 PUSH1 0x4 DUP1 CALLDATASIZE SUB DUP2 ADD SWAP1 PUSH2 0x1F0 SWAP2 SWAP1 PUSH2 0x1A4A JUMP JUMPDEST PUSH2 0x11CA JUMP JUMPDEST PUSH1 0x40 MLOAD PUSH2 0x203 SWAP3 SWAP2 SWAP1 PUSH2 0x20FC JUMP JUMPDEST PUSH1 0x40 MLOAD DUP1 SWAP2 SUB SWAP1 RETURN JUMPDEST PUSH2 0x214 PUSH2 0x13DF JUMP JUMPDEST PUSH1 0x40 MLOAD PUSH2 0x221 SWAP2 SWAP1 PUSH2 0x1F35 JUMP JUMPDEST PUSH1 0x40 MLOAD DUP1 SWAP2 SUB SWAP1 RETURN JUMPDEST PUSH2 0x232 PUSH2 0x156B JUMP JUMPDEST PUSH1 0x40 MLOAD PUSH2 0x23F SWAP2 SWAP1 PUSH2 0x2140 JUMP JUMPDEST PUSH1 0x40 MLOAD DUP1 SWAP2 SUB SWAP1 RETURN JUMPDEST PUSH2 0x262 PUSH1 0x4 DUP1 CALLDATASIZE SUB DUP2 ADD SWAP1 PUSH2 0x25D SWAP2 SWAP1 PUSH2 0x1A4A JUMP JUMPDEST PUSH2 0x1571 JUMP JUMPDEST PUSH1 0x40 MLOAD PUSH2 0x275 SWAP8 SWAP7 SWAP6 SWAP5 SWAP4 SWAP3 SWAP2 SWAP1 PUSH2 0x21B0 JUMP JUMPDEST PUSH1 0x40 MLOAD DUP1 SWAP2 SUB SWAP1 RETURN JUMPDEST PUSH2 0x298 PUSH1 0x4 DUP1 CALLDATASIZE SUB DUP2 ADD SWAP1 PUSH2 0x293 SWAP2 SWAP1 PUSH2 0x1BB1 JUMP JUMPDEST PUSH2 0x17A8 JUMP JUMPDEST STOP JUMPDEST DUP1 PUSH0 DUP1 DUP3 DUP2 MSTORE PUSH1 0x20 ADD SWAP1 DUP2 MSTORE PUSH1 0x20 ADD PUSH0 KECCAK256 PUSH1 0x4 ADD PUSH1 0x1 SWAP1 SLOAD SWAP1 PUSH2 0x100 EXP SWAP1 DIV PUSH20 0xFFFFFFFFFFFFFFFFFFFFFFFFFFFFFFFFFFFFFFFF AND PUSH20 0xFFFFFFFFFFFFFFFFFFFFFFFFFFFFFFFFFFFFFFFF AND CALLER PUSH20 0xFFFFFFFFFFFFFFFFFFFFFFFFFFFFFFFFFFFFFFFF AND EQ PUSH2 0x33C JUMPI PUSH1 0x40 MLOAD PUSH32 0x8C379A000000000000000000000000000000000000000000000000000000000 DUP2 MSTORE PUSH1 0x4 ADD PUSH2 0x333 SWAP1 PUSH2 0x2275 JUMP JUMPDEST PUSH1 0x40 MLOAD DUP1 SWAP2 SUB SWAP1 REVERT JUMPDEST DUP2 PUSH0 DUP2 GT DUP1 ISZERO PUSH2 0x34E JUMPI POP PUSH1 0x1 SLOAD DUP2 GT ISZERO JUMPDEST PUSH2 0x38D JUMPI PUSH1 0x40 MLOAD PUSH32 0x8C379A000000000000000000000000000000000000000000000000000000000 DUP2 MSTORE PUSH1 0x4 ADD PUSH2 0x384 SWAP1 PUSH2 0x22DD JUMP JUMPDEST PUSH1 0x40 MLOAD DUP1 SWAP2 SUB SWAP1 REVERT JUMPDEST PUSH0 DUP1 PUSH0 DUP6 DUP2 MSTORE PUSH1 0x20 ADD SWAP1 DUP2 MSTORE PUSH1 0x20 ADD PUSH0 KECCAK256 SWAP1 POP DUP1 PUSH1 0x4 ADD PUSH0 SWAP1 SLOAD SWAP1 PUSH2 0x100 EXP SWAP1 DIV PUSH1 0xFF AND PUSH2 0x3F0 JUMPI PUSH1 0x40 MLOAD PUSH32 0x8C379A000000000000000000000000000000000000000000000000000000000 DUP2 MSTORE PUSH1 0x4 ADD PUSH2 0x3E7 SWAP1 PUSH2 0x2345 JUMP JUMPDEST PUSH1 0x40 MLOAD DUP1 SWAP2 SUB SWAP1 REVERT JUMPDEST PUSH0 DUP2 PUSH1 0x4 ADD PUSH0 PUSH2 0x100 EXP DUP2 SLOAD DUP2 PUSH1 0xFF MUL NOT AND SWAP1 DUP4 ISZERO ISZERO MUL OR SWAP1 SSTORE POP DUP4 PUSH32 0x393C4B8E62F1195313CF17DCF00793C668DDFC35881CD8015559C074F6D61E83 PUSH1 0x40 MLOAD PUSH1 0x40 MLOAD DUP1 SWAP2 SUB SWAP1 LOG2 POP POP POP POP JUMP JUMPDEST DUP2 PUSH0 DUP2 GT DUP1 ISZERO PUSH2 0x450 JUMPI POP PUSH1 0x1 SLOAD DUP2 GT ISZERO JUMPDEST PUSH2 0x48F JUMPI PUSH1 0x40 MLOAD PUSH32 0x8C379A000000000000000000000000000000000000000000000000000000000 DUP2 MSTORE PUSH1 0x4 ADD PUSH2 0x486 SWAP1 PUSH2 0x22DD JUMP JUMPDEST PUSH1 0x40 MLOAD DUP1 SWAP2 SUB SWAP1 REVERT JUMPDEST PUSH0 DUP1 PUSH0 DUP6 DUP2 MSTORE PUSH1 0x20 ADD SWAP1 DUP2 MSTORE PUSH1 0x20 ADD PUSH0 KECCAK256 SWAP1 POP DUP1 PUSH1 0x4 ADD PUSH0 SWAP1 SLOAD SWAP1 PUSH2 0x100 EXP SWAP1 DIV PUSH1 0xFF AND PUSH2 0x4F2 JUMPI PUSH1 0x40 MLOAD PUSH32 0x8C379A000000000000000000000000000000000000000000000000000000000 DUP2 MSTORE PUSH1 0x4 ADD PUSH2 0x4E9 SWAP1 PUSH2 0x23AD JUMP JUMPDEST PUSH1 0x40 MLOAD DUP1 SWAP2 SUB SWAP1 REVERT JUMPDEST DUP1 PUSH1 0x5 ADD SLOAD TIMESTAMP GT ISZERO PUSH2 0x539 JUMPI PUSH1 0x40 MLOAD PUSH32 0x8C379A000000000000000000000000000000000000000000000000000000000 DUP2 MSTORE PUSH1 0x4 ADD PUSH2 0x530 SWAP1 PUSH2 0x2415 JUMP JUMPDEST PUSH1 0x40 MLOAD DUP1 SWAP2 SUB SWAP1 REVERT JUMPDEST DUP1 PUSH1 0x3 ADD PUSH0 CALLER PUSH20 0xFFFFFFFFFFFFFFFFFFFFFFFFFFFFFFFFFFFFFFFF AND PUSH20 0xFFFFFFFFFFFFFFFFFFFFFFFFFFFFFFFFFFFFFFFF AND DUP2 MSTORE PUSH1 0x20 ADD SWAP1 DUP2 MSTORE PUSH1 0x20 ADD PUSH0 KECCAK256 PUSH0 SWAP1 SLOAD SWAP1 PUSH2 0x100 EXP SWAP1 DIV PUSH1 0xFF AND ISZERO PUSH2 0x5C5 JUMPI PUSH1 0x40 MLOAD PUSH32 0x8C379A000000000000000000000000000000000000000000000000000000000 DUP2 MSTORE PUSH1 0x4 ADD PUSH2 0x5BC SWAP1 PUSH2 0x247D JUMP JUMPDEST PUSH1 0x40 MLOAD DUP1 SWAP2 SUB SWAP1 REVERT JUMPDEST PUSH0 DUP1 JUMPDEST DUP3 PUSH1 0x1 ADD DUP1 SLOAD SWAP1 POP DUP2 LT ISZERO PUSH2 0x62D JUMPI DUP5 DUP1 MLOAD SWAP1 PUSH1 0x20 ADD KECCAK256 DUP4 PUSH1 0x1 ADD DUP3 DUP2 SLOAD DUP2 LT PUSH2 0x5F5 JUMPI PUSH2 0x5F4 PUSH2 0x249B JUMP JUMPDEST JUMPDEST SWAP1 PUSH0 MSTORE PUSH1 0x20 PUSH0 KECCAK256 ADD PUSH1 0x40 MLOAD PUSH2 0x60A SWAP2 SWAP1 PUSH2 0x25C1 JUMP JUMPDEST PUSH1 0x40 MLOAD DUP1 SWAP2 SUB SWAP1 KECCAK256 SUB PUSH2 0x620 JUMPI PUSH1 0x1 SWAP2 POP PUSH2 0x62D JUMP JUMPDEST DUP1 DUP1 PUSH1 0x1 ADD SWAP2 POP POP PUSH2 0x5C8 JUMP JUMPDEST POP DUP1 PUSH2 0x66E JUMPI PUSH1 0x40 MLOAD PUSH32 0x8C379A000000000000000000000000000000000000000000000000000000000 DUP2 MSTORE PUSH1 0x4 ADD PUSH2 0x665 SWAP1 PUSH2 0x2621 JUMP JUMPDEST PUSH1 0x40 MLOAD DUP1 SWAP2 SUB SWAP1 REVERT JUMPDEST DUP2 PUSH1 0x2 ADD DUP5 PUSH1 0x40 MLOAD PUSH2 0x680 SWAP2 SWAP1 PUSH2 0x2679 JUMP JUMPDEST SWAP1 DUP2 MSTORE PUSH1 0x20 ADD PUSH1 0x40 MLOAD DUP1 SWAP2 SUB SWAP1 KECCAK256 PUSH0 DUP2 SLOAD DUP1 SWAP3 SWAP2 SWAP1 PUSH2 0x69E SWAP1 PUSH2 0x26BC JUMP JUMPDEST SWAP2 SWAP1 POP SSTORE POP PUSH1 0x1 DUP3 PUSH1 0x3 ADD PUSH0 CALLER PUSH20 0xFFFFFFFFFFFFFFFFFFFFFFFFFFFFFFFFFFFFFFFF AND PUSH20 0xFFFFFFFFFFFFFFFFFFFFFFFFFFFFFFFFFFFFFFFF AND DUP2 MSTORE PUSH1 0x20 ADD SWAP1 DUP2 MSTORE PUSH1 0x20 ADD PUSH0 KECCAK256 PUSH0 PUSH2 0x100 EXP DUP2 SLOAD DUP2 PUSH1 0xFF MUL NOT AND SWAP1 DUP4 ISZERO ISZERO MUL OR SWAP1 SSTORE POP DUP2 PUSH1 0x7 ADD PUSH0 DUP2 SLOAD DUP1 SWAP3 SWAP2 SWAP1 PUSH2 0x70E SWAP1 PUSH2 0x26BC JUMP JUMPDEST SWAP2 SWAP1 POP SSTORE POP DUP2 PUSH1 0x6 ADD PUSH0 SWAP1 SLOAD SWAP1 PUSH2 0x100 EXP SWAP1 DIV PUSH1 0xFF AND PUSH2 0x72E JUMPI CALLER PUSH2 0x730 JUMP JUMPDEST PUSH0 JUMPDEST PUSH20 0xFFFFFFFFFFFFFFFFFFFFFFFFFFFFFFFFFFFFFFFF AND DUP6 PUSH32 0x1674DEDFFD7377ED829CF5235CF829C93DE67870B6EABCA5CC4CCC21D9A54E7 DUP7 PUSH1 0x40 MLOAD PUSH2 0x776 SWAP2 SWAP1 PUSH2 0x2703 JUMP JUMPDEST PUSH1 0x40 MLOAD DUP1 SWAP2 SUB SWAP1 LOG3 POP POP POP POP POP JUMP JUMPDEST PUSH1 0x1 DUP4 MLOAD GT PUSH2 0x7C9 JUMPI PUSH1 0x40 MLOAD PUSH32 0x8C379A000000000000000000000000000000000000000000000000000000000 DUP2 MSTORE PUSH1 0x4 ADD PUSH2 0x7C0 SWAP1 PUSH2 0x276D JUMP JUMPDEST PUSH1 0x40 MLOAD DUP1 SWAP2 SUB SWAP1 REVERT JUMPDEST PUSH1 0x1 PUSH0 DUP2 SLOAD DUP1 SWAP3 SWAP2 SWAP1 PUSH2 0x7DB SWAP1 PUSH2 0x26BC JUMP JUMPDEST SWAP2 SWAP1 POP SSTORE POP PUSH0 DUP1 PUSH0 PUSH1 0x1 SLOAD DUP2 MSTORE PUSH1 0x20 ADD SWAP1 DUP2 MSTORE PUSH1 0x20 ADD PUSH0 KECCAK256 SWAP1 POP DUP5 DUP2 PUSH0 ADD SWAP1 DUP2 PUSH2 0x805 SWAP2 SWAP1 PUSH2 0x2928 JUMP JUMPDEST POP DUP4 DUP2 PUSH1 0x1 ADD SWAP1 DUP1 MLOAD SWAP1 PUSH1 0x20 ADD SWAP1 PUSH2 0x81E SWAP3 SWAP2 SWAP1 PUSH2 0x1916 JUMP JUMPDEST POP PUSH1 0x1 DUP2 PUSH1 0x4 ADD PUSH0 PUSH2 0x100 EXP DUP2 SLOAD DUP2 PUSH1 0xFF MUL NOT AND SWAP1 DUP4 ISZERO ISZERO MUL OR SWAP1 SSTORE POP CALLER DUP2 PUSH1 0x4 ADD PUSH1 0x1 PUSH2 0x100 EXP DUP2 SLOAD DUP2 PUSH20 0xFFFFFFFFFFFFFFFFFFFFFFFFFFFFFFFFFFFFFFFF MUL NOT AND SWAP1 DUP4 PUSH20 0xFFFFFFFFFFFFFFFFFFFFFFFFFFFFFFFFFFFFFFFF AND MUL OR SWAP1 SSTORE POP DUP3 TIMESTAMP PUSH2 0x88A SWAP2 SWAP1 PUSH2 0x29F7 JUMP JUMPDEST DUP2 PUSH1 0x5 ADD DUP2 SWAP1 SSTORE POP DUP2 DUP2 PUSH1 0x6 ADD PUSH0 PUSH2 0x100 EXP DUP2 SLOAD DUP2 PUSH1 0xFF MUL NOT AND SWAP1 DUP4 ISZERO ISZERO MUL OR SWAP1 SSTORE POP PUSH0 DUP2 PUSH1 0x7 ADD DUP2 SWAP1 SSTORE POP CALLER PUSH20 0xFFFFFFFFFFFFFFFFFFFFFFFFFFFFFFFFFFFFFFFF AND PUSH1 0x1 SLOAD PUSH32 0x2D4AC046BBFB351214EE0B758B9D541FFAAC0804D4FFB0DE6CC1B8CD3D3ABAC2 DUP8 DUP5 PUSH1 0x5 ADD SLOAD DUP7 PUSH1 0x40 MLOAD PUSH2 0x907 SWAP4 SWAP3 SWAP2 SWAP1 PUSH2 0x2A2A JUMP JUMPDEST PUSH1 0x40 MLOAD DUP1 SWAP2 SUB SWAP1 LOG3 POP POP POP POP POP JUMP JUMPDEST PUSH0 DUP3 PUSH0 DUP2 GT DUP1 ISZERO PUSH2 0x929 JUMPI POP PUSH1 0x1 SLOAD DUP2 GT ISZERO JUMPDEST PUSH2 0x968 JUMPI PUSH1 0x40 MLOAD PUSH32 0x8C379A000000000000000000000000000000000000000000000000000000000 DUP2 MSTORE PUSH1 0x4 ADD PUSH2 0x95F SWAP1 PUSH2 0x22DD JUMP JUMPDEST PUSH1 0x40 MLOAD DUP1 SWAP2 SUB SWAP1 REVERT JUMPDEST PUSH0 DUP1 DUP6 DUP2 MSTORE PUSH1 0x20 ADD SWAP1 DUP2 MSTORE PUSH1 0x20 ADD PUSH0 KECCAK256 PUSH1 0x3 ADD PUSH0 DUP5 PUSH20 0xFFFFFFFFFFFFFFFFFFFFFFFFFFFFFFFFFFFFFFFF AND PUSH20 0xFFFFFFFFFFFFFFFFFFFFFFFFFFFFFFFFFFFFFFFF AND DUP2 MSTORE PUSH1 0x20 ADD SWAP1 DUP2 MSTORE PUSH1 0x20 ADD PUSH0 KECCAK256 PUSH0 SWAP1 SLOAD SWAP1 PUSH2 0x100 EXP SWAP1 DIV PUSH1 0xFF AND SWAP2 POP POP SWAP3 SWAP2 POP POP JUMP JUMPDEST PUSH1 0x60 PUSH0 PUSH1 0x1 SLOAD PUSH8 0xFFFFFFFFFFFFFFFF DUP2 GT ISZERO PUSH2 0x9EB JUMPI PUSH2 0x9EA PUSH2 0x1A8D JUMP JUMPDEST JUMPDEST PUSH1 0x40 MLOAD SWAP1 DUP1 DUP3 MSTORE DUP1 PUSH1 0x20 MUL PUSH1 0x20 ADD DUP3 ADD PUSH1 0x40 MSTORE DUP1 ISZERO PUSH2 0xA19 JUMPI DUP2 PUSH1 0x20 ADD PUSH1 0x20 DUP3 MUL DUP1 CALLDATASIZE DUP4 CALLDATACOPY DUP1 DUP3 ADD SWAP2 POP POP SWAP1 POP JUMPDEST POP SWAP1 POP PUSH0 DUP1 PUSH1 0x1 SWAP1 POP JUMPDEST PUSH1 0x1 SLOAD DUP2 GT PUSH2 0xAAF JUMPI PUSH0 DUP1 DUP3 DUP2 MSTORE PUSH1 0x20 ADD SWAP1 DUP2 MSTORE PUSH1 0x20 ADD PUSH0 KECCAK256 PUSH1 0x4 ADD PUSH0 SWAP1 SLOAD SWAP1 PUSH2 0x100 EXP SWAP1 DIV PUSH1 0xFF AND ISZERO DUP1 PUSH2 0xA6A JUMPI POP PUSH0 DUP1 DUP3 DUP2 MSTORE PUSH1 0x20 ADD SWAP1 DUP2 MSTORE PUSH1 0x20 ADD PUSH0 KECCAK256 PUSH1 0x5 ADD SLOAD TIMESTAMP GT JUMPDEST ISZERO PUSH2 0xA9C JUMPI DUP1 DUP4 DUP4 DUP1 PUSH2 0xA7C SWAP1 PUSH2 0x26BC JUMP JUMPDEST SWAP5 POP DUP2 MLOAD DUP2 LT PUSH2 0xA8F JUMPI PUSH2 0xA8E PUSH2 0x249B JUMP JUMPDEST JUMPDEST PUSH1 0x20 MUL PUSH1 0x20 ADD ADD DUP2 DUP2 MSTORE POP POP JUMPDEST DUP1 DUP1 PUSH2 0xAA7 SWAP1 PUSH2 0x26BC JUMP JUMPDEST SWAP2 POP POP PUSH2 0xA23 JUMP JUMPDEST POP PUSH0 DUP2 PUSH8 0xFFFFFFFFFFFFFFFF DUP2 GT ISZERO PUSH2 0xACB JUMPI PUSH2 0xACA PUSH2 0x1A8D JUMP JUMPDEST JUMPDEST PUSH1 0x40 MLOAD SWAP1 DUP1 DUP3 MSTORE DUP1 PUSH1 0x20 MUL PUSH1 0x20 ADD DUP3 ADD PUSH1 0x40 MSTORE DUP1 ISZERO PUSH2 0xAF9 JUMPI DUP2 PUSH1 0x20 ADD PUSH1 0x20 DUP3 MUL DUP1 CALLDATASIZE DUP4 CALLDATACOPY DUP1 DUP3 ADD SWAP2 POP POP SWAP1 POP JUMPDEST POP SWAP1 POP PUSH0 JUMPDEST DUP3 DUP2 LT ISZERO PUSH2 0xB4D JUMPI DUP4 DUP2 DUP2 MLOAD DUP2 LT PUSH2 0xB19 JUMPI PUSH2 0xB18 PUSH2 0x249B JUMP JUMPDEST JUMPDEST PUSH1 0x20 MUL PUSH1 0x20 ADD ADD MLOAD DUP3 DUP3 DUP2 MLOAD DUP2 LT PUSH2 0xB34 JUMPI PUSH2 0xB33 PUSH2 0x249B JUMP JUMPDEST JUMPDEST PUSH1 0x20 MUL PUSH1 0x20 ADD ADD DUP2 DUP2 MSTORE POP POP DUP1 DUP1 PUSH1 0x1 ADD SWAP2 POP POP PUSH2 0xAFE JUMP JUMPDEST POP DUP1 SWAP4 POP POP POP POP SWAP1 JUMP JUMPDEST PUSH1 0x60 DUP2 PUSH0 DUP2 GT DUP1 ISZERO PUSH2 0xB6B JUMPI POP PUSH1 0x1 SLOAD DUP2 GT ISZERO JUMPDEST PUSH2 0xBAA JUMPI PUSH1 0x40 MLOAD PUSH32 0x8C379A000000000000000000000000000000000000000000000000000000000 DUP2 MSTORE PUSH1 0x4 ADD PUSH2 0xBA1 SWAP1 PUSH2 0x22DD JUMP JUMPDEST PUSH1 0x40 MLOAD DUP1 SWAP2 SUB SWAP1 REVERT JUMPDEST PUSH0 DUP1 PUSH0 DUP6 DUP2 MSTORE PUSH1 0x20 ADD SWAP1 DUP2 MSTORE PUSH1 0x20 ADD PUSH0 KECCAK256 SWAP1 POP PUSH0 DUP1 PUSH0 JUMPDEST DUP4 PUSH1 0x1 ADD DUP1 SLOAD SWAP1 POP DUP2 LT ISZERO PUSH2 0xC4A JUMPI PUSH0 DUP5 PUSH1 0x2 ADD DUP6 PUSH1 0x1 ADD DUP4 DUP2 SLOAD DUP2 LT PUSH2 0xBEB JUMPI PUSH2 0xBEA PUSH2 0x249B JUMP JUMPDEST JUMPDEST SWAP1 PUSH0 MSTORE PUSH1 0x20 PUSH0 KECCAK256 ADD PUSH1 0x40 MLOAD PUSH2 0xC00 SWAP2 SWAP1 PUSH2 0x2AE6 JUMP JUMPDEST SWAP1 DUP2 MSTORE PUSH1 0x20 ADD PUSH1 0x40 MLOAD DUP1 SWAP2 SUB SWAP1 KECCAK256 SLOAD SWAP1 POP DUP4 DUP2 GT ISZERO PUSH2 0xC25 JUMPI DUP1 SWAP4 POP PUSH1 0x1 SWAP3 POP PUSH2 0xC3C JUMP JUMPDEST DUP4 DUP2 SUB PUSH2 0xC3B JUMPI DUP3 DUP1 PUSH2 0xC37 SWAP1 PUSH2 0x26BC JUMP JUMPDEST SWAP4 POP POP JUMPDEST JUMPDEST POP DUP1 DUP1 PUSH1 0x1 ADD SWAP2 POP POP PUSH2 0xBC1 JUMP JUMPDEST POP PUSH0 DUP2 PUSH8 0xFFFFFFFFFFFFFFFF DUP2 GT ISZERO PUSH2 0xC66 JUMPI PUSH2 0xC65 PUSH2 0x1A8D JUMP JUMPDEST JUMPDEST PUSH1 0x40 MLOAD SWAP1 DUP1 DUP3 MSTORE DUP1 PUSH1 0x20 MUL PUSH1 0x20 ADD DUP3 ADD PUSH1 0x40 MSTORE DUP1 ISZERO PUSH2 0xC99 JUMPI DUP2 PUSH1 0x20 ADD JUMPDEST PUSH1 0x60 DUP2 MSTORE PUSH1 0x20 ADD SWAP1 PUSH1 0x1 SWAP1 SUB SWAP1 DUP2 PUSH2 0xC84 JUMPI SWAP1 POP JUMPDEST POP SWAP1 POP PUSH0 DUP1 JUMPDEST DUP6 PUSH1 0x1 ADD DUP1 SLOAD SWAP1 POP DUP2 LT ISZERO PUSH2 0xDCF JUMPI DUP5 DUP7 PUSH1 0x2 ADD DUP8 PUSH1 0x1 ADD DUP4 DUP2 SLOAD DUP2 LT PUSH2 0xCC9 JUMPI PUSH2 0xCC8 PUSH2 0x249B JUMP JUMPDEST JUMPDEST SWAP1 PUSH0 MSTORE PUSH1 0x20 PUSH0 KECCAK256 ADD PUSH1 0x40 MLOAD PUSH2 0xCDE SWAP2 SWAP1 PUSH2 0x2AE6 JUMP JUMPDEST SWAP1 DUP2 MSTORE PUSH1 0x20 ADD PUSH1 0x40 MLOAD DUP1 SWAP2 SUB SWAP1 KECCAK256 SLOAD SUB PUSH2 0xDC2 JUMPI DUP6 PUSH1 0x1 ADD DUP2 DUP2 SLOAD DUP2 LT PUSH2 0xD08 JUMPI PUSH2 0xD07 PUSH2 0x249B JUMP JUMPDEST JUMPDEST SWAP1 PUSH0 MSTORE PUSH1 0x20 PUSH0 KECCAK256 ADD DUP1 SLOAD PUSH2 0xD1B SWAP1 PUSH2 0x24F5 JUMP JUMPDEST DUP1 PUSH1 0x1F ADD PUSH1 0x20 DUP1 SWAP2 DIV MUL PUSH1 0x20 ADD PUSH1 0x40 MLOAD SWAP1 DUP2 ADD PUSH1 0x40 MSTORE DUP1 SWAP3 SWAP2 SWAP1 DUP2 DUP2 MSTORE PUSH1 0x20 ADD DUP3 DUP1 SLOAD PUSH2 0xD47 SWAP1 PUSH2 0x24F5 JUMP JUMPDEST DUP1 ISZERO PUSH2 0xD92 JUMPI DUP1 PUSH1 0x1F LT PUSH2 0xD69 JUMPI PUSH2 0x100 DUP1 DUP4 SLOAD DIV MUL DUP4 MSTORE SWAP2 PUSH1 0x20 ADD SWAP2 PUSH2 0xD92 JUMP JUMPDEST DUP3 ADD SWAP2 SWAP1 PUSH0 MSTORE PUSH1 0x20 PUSH0 KECCAK256 SWAP1 JUMPDEST DUP2 SLOAD DUP2 MSTORE SWAP1 PUSH1 0x1 ADD SWAP1 PUSH1 0x20 ADD DUP1 DUP4 GT PUSH2 0xD75 JUMPI DUP3 SWAP1 SUB PUSH1 0x1F AND DUP3 ADD SWAP2 JUMPDEST POP POP POP POP POP DUP4 DUP4 DUP1 PUSH2 0xDA3 SWAP1 PUSH2 0x26BC JUMP JUMPDEST SWAP5 POP DUP2 MLOAD DUP2 LT PUSH2 0xDB6 JUMPI PUSH2 0xDB5 PUSH2 0x249B JUMP JUMPDEST JUMPDEST PUSH1 0x20 MUL PUSH1 0x20 ADD ADD DUP2 SWAP1 MSTORE POP JUMPDEST DUP1 DUP1 PUSH1 0x1 ADD SWAP2 POP POP PUSH2 0xC9F JUMP JUMPDEST POP DUP2 SWAP7 POP POP POP POP POP POP POP SWAP2 SWAP1 POP JUMP JUMPDEST DUP1 PUSH0 DUP1 DUP3 DUP2 MSTORE PUSH1 0x20 ADD SWAP1 DUP2 MSTORE PUSH1 0x20 ADD PUSH0 KECCAK256 PUSH1 0x4 ADD PUSH1 0x1 SWAP1 SLOAD SWAP1 PUSH2 0x100 EXP SWAP1 DIV PUSH20 0xFFFFFFFFFFFFFFFFFFFFFFFFFFFFFFFFFFFFFFFF AND PUSH20 0xFFFFFFFFFFFFFFFFFFFFFFFFFFFFFFFFFFFFFFFF AND CALLER PUSH20 0xFFFFFFFFFFFFFFFFFFFFFFFFFFFFFFFFFFFFFFFF AND EQ PUSH2 0xE80 JUMPI PUSH1 0x40 MLOAD PUSH32 0x8C379A000000000000000000000000000000000000000000000000000000000 DUP2 MSTORE PUSH1 0x4 ADD PUSH2 0xE77 SWAP1 PUSH2 0x2275 JUMP JUMPDEST PUSH1 0x40 MLOAD DUP1 SWAP2 SUB SWAP1 REVERT JUMPDEST DUP2 PUSH0 DUP2 GT DUP1 ISZERO PUSH2 0xE92 JUMPI POP PUSH1 0x1 SLOAD DUP2 GT ISZERO JUMPDEST PUSH2 0xED1 JUMPI PUSH1 0x40 MLOAD PUSH32 0x8C379A000000000000000000000000000000000000000000000000000000000 DUP2 MSTORE PUSH1 0x4 ADD PUSH2 0xEC8 SWAP1 PUSH2 0x22DD JUMP JUMPDEST PUSH1 0x40 MLOAD DUP1 SWAP2 SUB SWAP1 REVERT JUMPDEST PUSH0 DUP1 PUSH0 DUP6 DUP2 MSTORE PUSH1 0x20 ADD SWAP1 DUP2 MSTORE PUSH1 0x20 ADD PUSH0 KECCAK256 SWAP1 POP PUSH0 DUP2 PUSH1 0x7 ADD SLOAD EQ PUSH2 0xF2A JUMPI PUSH1 0x40 MLOAD PUSH32 0x8C379A000000000000000000000000000000000000000000000000000000000 DUP2 MSTORE PUSH1 0x4 ADD PUSH2 0xF21 SWAP1 PUSH2 0x2B6C JUMP JUMPDEST PUSH1 0x40 MLOAD DUP1 SWAP2 SUB SWAP1 REVERT JUMPDEST PUSH0 DUP1 DUP6 DUP2 MSTORE PUSH1 0x20 ADD SWAP1 DUP2 MSTORE PUSH1 0x20 ADD PUSH0 KECCAK256 PUSH0 DUP1 DUP3 ADD PUSH0 PUSH2 0xF49 SWAP2 SWAP1 PUSH2 0x196D JUMP JUMPDEST PUSH1 0x1 DUP3 ADD PUSH0 PUSH2 0xF58 SWAP2 SWAP1 PUSH2 0x19AA JUMP JUMPDEST PUSH1 0x4 DUP3 ADD PUSH0 PUSH2 0x100 EXP DUP2 SLOAD SWAP1 PUSH1 0xFF MUL NOT AND SWAP1 SSTORE PUSH1 0x4 DUP3 ADD PUSH1 0x1 PUSH2 0x100 EXP DUP2 SLOAD SWAP1 PUSH20 0xFFFFFFFFFFFFFFFFFFFFFFFFFFFFFFFFFFFFFFFF MUL NOT AND SWAP1 SSTORE PUSH1 0x5 DUP3 ADD PUSH0 SWAP1 SSTORE PUSH1 0x6 DUP3 ADD PUSH0 PUSH2 0x100 EXP DUP2 SLOAD SWAP1 PUSH1 0xFF MUL NOT AND SWAP1 SSTORE PUSH1 0x7 DUP3 ADD PUSH0 SWAP1 SSTORE POP POP DUP4 PUSH32 0xBB78D5FA658DBDAD95908D420646EA8BB64F50A9DAA1ACAA682EFFE6703F1ED7 PUSH1 0x40 MLOAD PUSH1 0x40 MLOAD DUP1 SWAP2 SUB SWAP1 LOG2 POP POP POP POP JUMP JUMPDEST DUP3 PUSH0 DUP1 DUP3 DUP2 MSTORE PUSH1 0x20 ADD SWAP1 DUP2 MSTORE PUSH1 0x20 ADD PUSH0 KECCAK256 PUSH1 0x4 ADD PUSH1 0x1 SWAP1 SLOAD SWAP1 PUSH2 0x100 EXP SWAP1 DIV PUSH20 0xFFFFFFFFFFFFFFFFFFFFFFFFFFFFFFFFFFFFFFFF AND PUSH20 0xFFFFFFFFFFFFFFFFFFFFFFFFFFFFFFFFFFFFFFFF AND CALLER PUSH20 0xFFFFFFFFFFFFFFFFFFFFFFFFFFFFFFFFFFFFFFFF AND EQ PUSH2 0x108A JUMPI PUSH1 0x40 MLOAD PUSH32 0x8C379A000000000000000000000000000000000000000000000000000000000 DUP2 MSTORE PUSH1 0x4 ADD PUSH2 0x1081 SWAP1 PUSH2 0x2275 JUMP JUMPDEST PUSH1 0x40 MLOAD DUP1 SWAP2 SUB SWAP1 REVERT JUMPDEST DUP4 PUSH0 DUP2 GT DUP1 ISZERO PUSH2 0x109C JUMPI POP PUSH1 0x1 SLOAD DUP2 GT ISZERO JUMPDEST PUSH2 0x10DB JUMPI PUSH1 0x40 MLOAD PUSH32 0x8C379A000000000000000000000000000000000000000000000000000000000 DUP2 MSTORE PUSH1 0x4 ADD PUSH2 0x10D2 SWAP1 PUSH2 0x22DD JUMP JUMPDEST PUSH1 0x40 MLOAD DUP1 SWAP2 SUB SWAP1 REVERT JUMPDEST PUSH0 DUP1 DUP7 DUP2 MSTORE PUSH1 0x20 ADD SWAP1 DUP2 MSTORE PUSH1 0x20 ADD PUSH0 KECCAK256 PUSH1 0x1 ADD DUP1 SLOAD SWAP1 POP DUP5 LT PUSH2 0x1133 JUMPI PUSH1 0x40 MLOAD PUSH32 0x8C379A000000000000000000000000000000000000000000000000000000000 DUP2 MSTORE PUSH1 0x4 ADD PUSH2 0x112A SWAP1 PUSH2 0x2BD4 JUMP JUMPDEST PUSH1 0x40 MLOAD DUP1 SWAP2 SUB SWAP1 REVERT JUMPDEST PUSH0 DUP1 PUSH0 DUP8 DUP2 MSTORE PUSH1 0x20 ADD SWAP1 DUP2 MSTORE PUSH1 0x20 ADD PUSH0 KECCAK256 PUSH1 0x7 ADD SLOAD EQ PUSH2 0x1188 JUMPI PUSH1 0x40 MLOAD PUSH32 0x8C379A000000000000000000000000000000000000000000000000000000000 DUP2 MSTORE PUSH1 0x4 ADD PUSH2 0x117F SWAP1 PUSH2 0x2C62 JUMP JUMPDEST PUSH1 0x40 MLOAD DUP1 SWAP2 SUB SWAP1 REVERT JUMPDEST DUP3 PUSH0 DUP1 DUP8 DUP2 MSTORE PUSH1 0x20 ADD SWAP1 DUP2 MSTORE PUSH1 0x20 ADD PUSH0 KECCAK256 PUSH1 0x1 ADD DUP6 DUP2 SLOAD DUP2 LT PUSH2 0x11AE JUMPI PUSH2 0x11AD PUSH2 0x249B JUMP JUMPDEST JUMPDEST SWAP1 PUSH0 MSTORE PUSH1 0x20 PUSH0 KECCAK256 ADD SWAP1 DUP2 PUSH2 0x11C2 SWAP2 SWAP1 PUSH2 0x2928 JUMP JUMPDEST POP POP POP POP POP POP JUMP JUMPDEST PUSH1 0x60 DUP1 DUP3 PUSH0 DUP2 GT DUP1 ISZERO PUSH2 0x11DF JUMPI POP PUSH1 0x1 SLOAD DUP2 GT ISZERO JUMPDEST PUSH2 0x121E JUMPI PUSH1 0x40 MLOAD PUSH32 0x8C379A000000000000000000000000000000000000000000000000000000000 DUP2 MSTORE PUSH1 0x4 ADD PUSH2 0x1215 SWAP1 PUSH2 0x22DD JUMP JUMPDEST PUSH1 0x40 MLOAD DUP1 SWAP2 SUB SWAP1 REVERT JUMPDEST PUSH0 DUP1 PUSH0 DUP7 DUP2 MSTORE PUSH1 0x20 ADD SWAP1 DUP2 MSTORE PUSH1 0x20 ADD PUSH0 KECCAK256 SWAP1 POP PUSH0 DUP2 PUSH1 0x1 ADD DUP1 SLOAD SWAP1 POP PUSH8 0xFFFFFFFFFFFFFFFF DUP2 GT ISZERO PUSH2 0x1253 JUMPI PUSH2 0x1252 PUSH2 0x1A8D JUMP JUMPDEST JUMPDEST PUSH1 0x40 MLOAD SWAP1 DUP1 DUP3 MSTORE DUP1 PUSH1 0x20 MUL PUSH1 0x20 ADD DUP3 ADD PUSH1 0x40 MSTORE DUP1 ISZERO PUSH2 0x1281 JUMPI DUP2 PUSH1 0x20 ADD PUSH1 0x20 DUP3 MUL DUP1 CALLDATASIZE DUP4 CALLDATACOPY DUP1 DUP3 ADD SWAP2 POP POP SWAP1 POP JUMPDEST POP SWAP1 POP PUSH0 JUMPDEST DUP3 PUSH1 0x1 ADD DUP1 SLOAD SWAP1 POP DUP2 LT ISZERO PUSH2 0x12FF JUMPI DUP3 PUSH1 0x2 ADD DUP4 PUSH1 0x1 ADD DUP3 DUP2 SLOAD DUP2 LT PUSH2 0x12AF JUMPI PUSH2 0x12AE PUSH2 0x249B JUMP JUMPDEST JUMPDEST SWAP1 PUSH0 MSTORE PUSH1 0x20 PUSH0 KECCAK256 ADD PUSH1 0x40 MLOAD PUSH2 0x12C4 SWAP2 SWAP1 PUSH2 0x2AE6 JUMP JUMPDEST SWAP1 DUP2 MSTORE PUSH1 0x20 ADD PUSH1 0x40 MLOAD DUP1 SWAP2 SUB SWAP1 KECCAK256 SLOAD DUP3 DUP3 DUP2 MLOAD DUP2 LT PUSH2 0x12E6 JUMPI PUSH2 0x12E5 PUSH2 0x249B JUMP JUMPDEST JUMPDEST PUSH1 0x20 MUL PUSH1 0x20 ADD ADD DUP2 DUP2 MSTORE POP POP DUP1 DUP1 PUSH1 0x1 ADD SWAP2 POP POP PUSH2 0x1286 JUMP JUMPDEST POP DUP2 PUSH1 0x1 ADD DUP2 DUP2 DUP1 SLOAD DUP1 PUSH1 0x20 MUL PUSH1 0x20 ADD PUSH1 0x40 MLOAD SWAP1 DUP2 ADD PUSH1 0x40 MSTORE DUP1 SWAP3 SWAP2 SWAP1 DUP2 DUP2 MSTORE PUSH1 0x20 ADD PUSH0 SWAP1 JUMPDEST DUP3 DUP3 LT ISZERO PUSH2 0x13CD JUMPI DUP4 DUP3 SWAP1 PUSH0 MSTORE PUSH1 0x20 PUSH0 KECCAK256 ADD DUP1 SLOAD PUSH2 0x1342 SWAP1 PUSH2 0x24F5 JUMP JUMPDEST DUP1 PUSH1 0x1F ADD PUSH1 0x20 DUP1 SWAP2 DIV MUL PUSH1 0x20 ADD PUSH1 0x40 MLOAD SWAP1 DUP2 ADD PUSH1 0x40 MSTORE DUP1 SWAP3 SWAP2 SWAP1 DUP2 DUP2 MSTORE PUSH1 0x20 ADD DUP3 DUP1 SLOAD PUSH2 0x136E SWAP1 PUSH2 0x24F5 JUMP JUMPDEST DUP1 ISZERO PUSH2 0x13B9 JUMPI DUP1 PUSH1 0x1F LT PUSH2 0x1390 JUMPI PUSH2 0x100 DUP1 DUP4 SLOAD DIV MUL DUP4 MSTORE SWAP2 PUSH1 0x20 ADD SWAP2 PUSH2 0x13B9 JUMP JUMPDEST DUP3 ADD SWAP2 SWAP1 PUSH0 MSTORE PUSH1 0x20 PUSH0 KECCAK256 SWAP1 JUMPDEST DUP2 SLOAD DUP2 MSTORE SWAP1 PUSH1 0x1 ADD SWAP1 PUSH1 0x20 ADD DUP1 DUP4 GT PUSH2 0x139C JUMPI DUP3 SWAP1 SUB PUSH1 0x1F AND DUP3 ADD SWAP2 JUMPDEST POP POP POP POP POP DUP2 MSTORE PUSH1 0x20 ADD SWAP1 PUSH1 0x1 ADD SWAP1 PUSH2 0x1325 JUMP JUMPDEST POP POP POP POP SWAP2 POP SWAP5 POP SWAP5 POP POP POP POP SWAP2 POP SWAP2 JUMP JUMPDEST PUSH1 0x60 PUSH0 PUSH1 0x1 SLOAD PUSH8 0xFFFFFFFFFFFFFFFF DUP2 GT ISZERO PUSH2 0x13FE JUMPI PUSH2 0x13FD PUSH2 0x1A8D JUMP JUMPDEST JUMPDEST PUSH1 0x40 MLOAD SWAP1 DUP1 DUP3 MSTORE DUP1 PUSH1 0x20 MUL PUSH1 0x20 ADD DUP3 ADD PUSH1 0x40 MSTORE DUP1 ISZERO PUSH2 0x142C JUMPI DUP2 PUSH1 0x20 ADD PUSH1 0x20 DUP3 MUL DUP1 CALLDATASIZE DUP4 CALLDATACOPY DUP1 DUP3 ADD SWAP2 POP POP SWAP1 POP JUMPDEST POP SWAP1 POP PUSH0 DUP1 PUSH1 0x1 SWAP1 POP JUMPDEST PUSH1 0x1 SLOAD DUP2 GT PUSH2 0x14C3 JUMPI PUSH0 DUP1 DUP3 DUP2 MSTORE PUSH1 0x20 ADD SWAP1 DUP2 MSTORE PUSH1 0x20 ADD PUSH0 KECCAK256 PUSH1 0x4 ADD PUSH0 SWAP1 SLOAD SWAP1 PUSH2 0x100 EXP SWAP1 DIV PUSH1 0xFF AND DUP1 ISZERO PUSH2 0x147E JUMPI POP PUSH0 DUP1 DUP3 DUP2 MSTORE PUSH1 0x20 ADD SWAP1 DUP2 MSTORE PUSH1 0x20 ADD PUSH0 KECCAK256 PUSH1 0x5 ADD SLOAD TIMESTAMP GT ISZERO JUMPDEST ISZERO PUSH2 0x14B0 JUMPI DUP1 DUP4 DUP4 DUP1 PUSH2 0x1490 SWAP1 PUSH2 0x26BC JUMP JUMPDEST SWAP5 POP DUP2 MLOAD DUP2 LT PUSH2 0x14A3 JUMPI PUSH2 0x14A2 PUSH2 0x249B JUMP JUMPDEST JUMPDEST PUSH1 0x20 MUL PUSH1 0x20 ADD ADD DUP2 DUP2 MSTORE POP POP JUMPDEST DUP1 DUP1 PUSH2 0x14BB SWAP1 PUSH2 0x26BC JUMP JUMPDEST SWAP2 POP POP PUSH2 0x1436 JUMP JUMPDEST POP PUSH0 DUP2 PUSH8 0xFFFFFFFFFFFFFFFF DUP2 GT ISZERO PUSH2 0x14DF JUMPI PUSH2 0x14DE PUSH2 0x1A8D JUMP JUMPDEST JUMPDEST PUSH1 0x40 MLOAD SWAP1 DUP1 DUP3 MSTORE DUP1 PUSH1 0x20 MUL PUSH1 0x20 ADD DUP3 ADD PUSH1 0x40 MSTORE DUP1 ISZERO PUSH2 0x150D JUMPI DUP2 PUSH1 0x20 ADD PUSH1 0x20 DUP3 MUL DUP1 CALLDATASIZE DUP4 CALLDATACOPY DUP1 DUP3 ADD SWAP2 POP POP SWAP1 POP JUMPDEST POP SWAP1 POP PUSH0 JUMPDEST DUP3 DUP2 LT ISZERO PUSH2 0x1561 JUMPI DUP4 DUP2 DUP2 MLOAD DUP2 LT PUSH2 0x152D JUMPI PUSH2 0x152C PUSH2 0x249B JUMP JUMPDEST JUMPDEST PUSH1 0x20 MUL PUSH1 0x20 ADD ADD MLOAD DUP3 DUP3 DUP2 MLOAD DUP2 LT PUSH2 0x1548 JUMPI PUSH2 0x1547 PUSH2 0x249B JUMP JUMPDEST JUMPDEST PUSH1 0x20 MUL PUSH1 0x20 ADD ADD DUP2 DUP2 MSTORE POP POP DUP1 DUP1 PUSH1 0x1 ADD SWAP2 POP POP PUSH2 0x1512 JUMP JUMPDEST POP DUP1 SWAP4 POP POP POP POP SWAP1 JUMP JUMPDEST PUSH1 0x1 SLOAD DUP2 JUMP JUMPDEST PUSH1 0x60 DUP1 PUSH0 DUP1 PUSH0 DUP1 PUSH0 DUP8 PUSH0 DUP2 GT DUP1 ISZERO PUSH2 0x158B JUMPI POP PUSH1 0x1 SLOAD DUP2 GT ISZERO JUMPDEST PUSH2 0x15CA JUMPI PUSH1 0x40 MLOAD PUSH32 0x8C379A000000000000000000000000000000000000000000000000000000000 DUP2 MSTORE PUSH1 0x4 ADD PUSH2 0x15C1 SWAP1 PUSH2 0x22DD JUMP JUMPDEST PUSH1 0x40 MLOAD DUP1 SWAP2 SUB SWAP1 REVERT JUMPDEST PUSH0 DUP1 PUSH0 DUP12 DUP2 MSTORE PUSH1 0x20 ADD SWAP1 DUP2 MSTORE PUSH1 0x20 ADD PUSH0 KECCAK256 SWAP1 POP DUP1 PUSH0 ADD DUP2 PUSH1 0x1 ADD DUP3 PUSH1 0x4 ADD PUSH0 SWAP1 SLOAD SWAP1 PUSH2 0x100 EXP SWAP1 DIV PUSH1 0xFF AND DUP4 PUSH1 0x4 ADD PUSH1 0x1 SWAP1 SLOAD SWAP1 PUSH2 0x100 EXP SWAP1 DIV PUSH20 0xFFFFFFFFFFFFFFFFFFFFFFFFFFFFFFFFFFFFFFFF AND DUP5 PUSH1 0x5 ADD SLOAD DUP6 PUSH1 0x6 ADD PUSH0 SWAP1 SLOAD SWAP1 PUSH2 0x100 EXP SWAP1 DIV PUSH1 0xFF AND DUP7 PUSH1 0x7 ADD SLOAD DUP7 DUP1 SLOAD PUSH2 0x1641 SWAP1 PUSH2 0x24F5 JUMP JUMPDEST DUP1 PUSH1 0x1F ADD PUSH1 0x20 DUP1 SWAP2 DIV MUL PUSH1 0x20 ADD PUSH1 0x40 MLOAD SWAP1 DUP2 ADD PUSH1 0x40 MSTORE DUP1 SWAP3 SWAP2 SWAP1 DUP2 DUP2 MSTORE PUSH1 0x20 ADD DUP3 DUP1 SLOAD PUSH2 0x166D SWAP1 PUSH2 0x24F5 JUMP JUMPDEST DUP1 ISZERO PUSH2 0x16B8 JUMPI DUP1 PUSH1 0x1F LT PUSH2 0x168F JUMPI PUSH2 0x100 DUP1 DUP4 SLOAD DIV MUL DUP4 MSTORE SWAP2 PUSH1 0x20 ADD SWAP2 PUSH2 0x16B8 JUMP JUMPDEST DUP3 ADD SWAP2 SWAP1 PUSH0 MSTORE PUSH1 0x20 PUSH0 KECCAK256 SWAP1 JUMPDEST DUP2 SLOAD DUP2 MSTORE SWAP1 PUSH1 0x1 ADD SWAP1 PUSH1 0x20 ADD DUP1 DUP4 GT PUSH2 0x169B JUMPI DUP3 SWAP1 SUB PUSH1 0x1F AND DUP3 ADD SWAP2 JUMPDEST POP POP POP POP POP SWAP7 POP DUP6 DUP1 SLOAD DUP1 PUSH1 0x20 MUL PUSH1 0x20 ADD PUSH1 0x40 MLOAD SWAP1 DUP2 ADD PUSH1 0x40 MSTORE DUP1 SWAP3 SWAP2 SWAP1 DUP2 DUP2 MSTORE PUSH1 0x20 ADD PUSH0 SWAP1 JUMPDEST DUP3 DUP3 LT ISZERO PUSH2 0x1787 JUMPI DUP4 DUP3 SWAP1 PUSH0 MSTORE PUSH1 0x20 PUSH0 KECCAK256 ADD DUP1 SLOAD PUSH2 0x16FC SWAP1 PUSH2 0x24F5 JUMP JUMPDEST DUP1 PUSH1 0x1F ADD PUSH1 0x20 DUP1 SWAP2 DIV MUL PUSH1 0x20 ADD PUSH1 0x40 MLOAD SWAP1 DUP2 ADD PUSH1 0x40 MSTORE DUP1 SWAP3 SWAP2 SWAP1 DUP2 DUP2 MSTORE PUSH1 0x20 ADD DUP3 DUP1 SLOAD PUSH2 0x1728 SWAP1 PUSH2 0x24F5 JUMP JUMPDEST DUP1 ISZERO PUSH2 0x1773 JUMPI DUP1 PUSH1 0x1F LT PUSH2 0x174A JUMPI PUSH2 0x100 DUP1 DUP4 SLOAD DIV MUL DUP4 MSTORE SWAP2 PUSH1 0x20 ADD SWAP2 PUSH2 0x1773 JUMP JUMPDEST DUP3 ADD SWAP2 SWAP1 PUSH0 MSTORE PUSH1 0x20 PUSH0 KECCAK256 SWAP1 JUMPDEST DUP2 SLOAD DUP2 MSTORE SWAP1 PUSH1 0x1 ADD SWAP1 PUSH1 0x20 ADD DUP1 DUP4 GT PUSH2 0x1756 JUMPI DUP3 SWAP1 SUB PUSH1 0x1F AND DUP3 ADD SWAP2 JUMPDEST POP POP POP POP POP DUP2 MSTORE PUSH1 0x20 ADD SWAP1 PUSH1 0x1 ADD SWAP1 PUSH2 0x16DF JUMP JUMPDEST POP POP POP POP SWAP6 POP SWAP9 POP SWAP9 POP SWAP9 POP SWAP9 POP SWAP9 POP SWAP9 POP SWAP9 POP POP POP SWAP2 SWAP4 SWAP6 SWAP8 SWAP1 SWAP3 SWAP5 SWAP7 POP JUMP JUMPDEST DUP2 PUSH0 DUP1 DUP3 DUP2 MSTORE PUSH1 0x20 ADD SWAP1 DUP2 MSTORE PUSH1 0x20 ADD PUSH0 KECCAK256 PUSH1 0x4 ADD PUSH1 0x1 SWAP1 SLOAD SWAP1 PUSH2 0x100 EXP SWAP1 DIV PUSH20 0xFFFFFFFFFFFFFFFFFFFFFFFFFFFFFFFFFFFFFFFF AND PUSH20 0xFFFFFFFFFFFFFFFFFFFFFFFFFFFFFFFFFFFFFFFF AND CALLER PUSH20 0xFFFFFFFFFFFFFFFFFFFFFFFFFFFFFFFFFFFFFFFF AND EQ PUSH2 0x184A JUMPI PUSH1 0x40 MLOAD PUSH32 0x8C379A000000000000000000000000000000000000000000000000000000000 DUP2 MSTORE PUSH1 0x4 ADD PUSH2 0x1841 SWAP1 PUSH2 0x2275 JUMP JUMPDEST PUSH1 0x40 MLOAD DUP1 SWAP2 SUB SWAP1 REVERT JUMPDEST DUP3 PUSH0 DUP2 GT DUP1 ISZERO PUSH2 0x185C JUMPI POP PUSH1 0x1 SLOAD DUP2 GT ISZERO JUMPDEST PUSH2 0x189B JUMPI PUSH1 0x40 MLOAD PUSH32 0x8C379A000000000000000000000000000000000000000000000000000000000 DUP2 MSTORE PUSH1 0x4 ADD PUSH2 0x1892 SWAP1 PUSH2 0x22DD JUMP JUMPDEST PUSH1 0x40 MLOAD DUP1 SWAP2 SUB SWAP1 REVERT JUMPDEST PUSH0 DUP1 PUSH0 DUP7 DUP2 MSTORE PUSH1 0x20 ADD SWAP1 DUP2 MSTORE PUSH1 0x20 ADD PUSH0 KECCAK256 PUSH1 0x7 ADD SLOAD EQ PUSH2 0x18F0 JUMPI PUSH1 0x40 MLOAD PUSH32 0x8C379A000000000000000000000000000000000000000000000000000000000 DUP2 MSTORE PUSH1 0x4 ADD PUSH2 0x18E7 SWAP1 PUSH2 0x2CF0 JUMP JUMPDEST PUSH1 0x40 MLOAD DUP1 SWAP2 SUB SWAP1 REVERT JUMPDEST DUP3 PUSH0 DUP1 DUP7 DUP2 MSTORE PUSH1 0x20 ADD SWAP1 DUP2 MSTORE PUSH1 0x20 ADD PUSH0 KECCAK256 PUSH0 ADD SWAP1 DUP2 PUSH2 0x190F SWAP2 SWAP1 PUSH2 0x2928 JUMP JUMPDEST POP POP POP POP POP JUMP JUMPDEST DUP3 DUP1 SLOAD DUP3 DUP3 SSTORE SWAP1 PUSH0 MSTORE PUSH1 0x20 PUSH0 KECCAK256 SWAP1 DUP2 ADD SWAP3 DUP3 ISZERO PUSH2 0x195C JUMPI SWAP2 PUSH1 0x20 MUL DUP3 ADD JUMPDEST DUP3 DUP2 GT ISZERO PUSH2 0x195B JUMPI DUP3 MLOAD DUP3 SWAP1 DUP2 PUSH2 0x194B SWAP2 SWAP1 PUSH2 0x2928 JUMP JUMPDEST POP SWAP2 PUSH1 0x20 ADD SWAP2 SWAP1 PUSH1 0x1 ADD SWAP1 PUSH2 0x1934 JUMP JUMPDEST JUMPDEST POP SWAP1 POP PUSH2 0x1969 SWAP2 SWAP1 PUSH2 0x19C8 JUMP JUMPDEST POP SWAP1 JUMP JUMPDEST POP DUP1 SLOAD PUSH2 0x1979 SWAP1 PUSH2 0x24F5 JUMP JUMPDEST PUSH0 DUP3 SSTORE DUP1 PUSH1 0x1F LT PUSH2 0x198A JUMPI POP PUSH2 0x19A7 JUMP JUMPDEST PUSH1 0x1F ADD PUSH1 0x20 SWAP1 DIV SWAP1 PUSH0 MSTORE PUSH1 0x20 PUSH0 KECCAK256 SWAP1 DUP2 ADD SWAP1 PUSH2 0x19A6 SWAP2 SWAP1 PUSH2 0x19EB JUMP JUMPDEST JUMPDEST POP JUMP JUMPDEST POP DUP1 SLOAD PUSH0 DUP3 SSTORE SWAP1 PUSH0 MSTORE PUSH1 0x20 PUSH0 KECCAK256 SWAP1 DUP2 ADD SWAP1 PUSH2 0x19C5 SWAP2 SWAP1 PUSH2 0x19C8 JUMP JUMPDEST POP JUMP JUMPDEST JUMPDEST DUP1 DUP3 GT ISZERO PUSH2 0x19E7 JUMPI PUSH0 DUP2 DUP2 PUSH2 0x19DE SWAP2 SWAP1 PUSH2 0x196D JUMP JUMPDEST POP PUSH1 0x1 ADD PUSH2 0x19C9 JUMP JUMPDEST POP SWAP1 JUMP JUMPDEST JUMPDEST DUP1 DUP3 GT ISZERO PUSH2 0x1A02 JUMPI PUSH0 DUP2 PUSH0 SWAP1 SSTORE POP PUSH1 0x1 ADD PUSH2 0x19EC JUMP JUMPDEST POP SWAP1 JUMP JUMPDEST PUSH0 PUSH1 0x40 MLOAD SWAP1 POP SWAP1 JUMP JUMPDEST PUSH0 DUP1 REVERT JUMPDEST PUSH0 DUP1 REVERT JUMPDEST PUSH0 DUP2 SWAP1 POP SWAP2 SWAP1 POP JUMP JUMPDEST PUSH2 0x1A29 DUP2 PUSH2 0x1A17 JUMP JUMPDEST DUP2 EQ PUSH2 0x1A33 JUMPI PUSH0 DUP1 REVERT JUMPDEST POP JUMP JUMPDEST PUSH0 DUP2 CALLDATALOAD SWAP1 POP PUSH2 0x1A44 DUP2 PUSH2 0x1A20 JUMP JUMPDEST SWAP3 SWAP2 POP POP JUMP JUMPDEST PUSH0 PUSH1 0x20 DUP3 DUP5 SUB SLT ISZERO PUSH2 0x1A5F JUMPI PUSH2 0x1A5E PUSH2 0x1A0F JUMP JUMPDEST JUMPDEST PUSH0 PUSH2 0x1A6C DUP5 DUP3 DUP6 ADD PUSH2 0x1A36 JUMP JUMPDEST SWAP2 POP POP SWAP3 SWAP2 POP POP JUMP JUMPDEST PUSH0 DUP1 REVERT JUMPDEST PUSH0 DUP1 REVERT JUMPDEST PUSH0 PUSH1 0x1F NOT PUSH1 0x1F DUP4 ADD AND SWAP1 POP SWAP2 SWAP1 POP JUMP JUMPDEST PUSH32 0x4E487B7100000000000000000000000000000000000000000000000000000000 PUSH0 MSTORE PUSH1 0x41 PUSH1 0x4 MSTORE PUSH1 0x24 PUSH0 REVERT JUMPDEST PUSH2 0x1AC3 DUP3 PUSH2 0x1A7D JUMP JUMPDEST DUP2 ADD DUP2 DUP2 LT PUSH8 0xFFFFFFFFFFFFFFFF DUP3 GT OR ISZERO PUSH2 0x1AE2 JUMPI PUSH2 0x1AE1 PUSH2 0x1A8D JUMP JUMPDEST JUMPDEST DUP1 PUSH1 0x40 MSTORE POP POP POP JUMP JUMPDEST PUSH0 PUSH2 0x1AF4 PUSH2 0x1A06 JUMP JUMPDEST SWAP1 POP PUSH2 0x1B00 DUP3 DUP3 PUSH2 0x1ABA JUMP JUMPDEST SWAP2 SWAP1 POP JUMP JUMPDEST PUSH0 PUSH8 0xFFFFFFFFFFFFFFFF DUP3 GT ISZERO PUSH2 0x1B1F JUMPI PUSH2 0x1B1E PUSH2 0x1A8D JUMP JUMPDEST JUMPDEST PUSH2 0x1B28 DUP3 PUSH2 0x1A7D JUMP JUMPDEST SWAP1 POP PUSH1 0x20 DUP2 ADD SWAP1 POP SWAP2 SWAP1 POP JUMP JUMPDEST DUP3 DUP2 DUP4 CALLDATACOPY PUSH0 DUP4 DUP4 ADD MSTORE POP POP POP JUMP JUMPDEST PUSH0 PUSH2 0x1B55 PUSH2 0x1B50 DUP5 PUSH2 0x1B05 JUMP JUMPDEST PUSH2 0x1AEB JUMP JUMPDEST SWAP1 POP DUP3 DUP2 MSTORE PUSH1 0x20 DUP2 ADD DUP5 DUP5 DUP5 ADD GT ISZERO PUSH2 0x1B71 JUMPI PUSH2 0x1B70 PUSH2 0x1A79 JUMP JUMPDEST JUMPDEST PUSH2 0x1B7C DUP5 DUP3 DUP6 PUSH2 0x1B35 JUMP JUMPDEST POP SWAP4 SWAP3 POP POP POP JUMP JUMPDEST PUSH0 DUP3 PUSH1 0x1F DUP4 ADD SLT PUSH2 0x1B98 JUMPI PUSH2 0x1B97 PUSH2 0x1A75 JUMP JUMPDEST JUMPDEST DUP2 CALLDATALOAD PUSH2 0x1BA8 DUP5 DUP3 PUSH1 0x20 DUP7 ADD PUSH2 0x1B43 JUMP JUMPDEST SWAP2 POP POP SWAP3 SWAP2 POP POP JUMP JUMPDEST PUSH0 DUP1 PUSH1 0x40 DUP4 DUP6 SUB SLT ISZERO PUSH2 0x1BC7 JUMPI PUSH2 0x1BC6 PUSH2 0x1A0F JUMP JUMPDEST JUMPDEST PUSH0 PUSH2 0x1BD4 DUP6 DUP3 DUP7 ADD PUSH2 0x1A36 JUMP JUMPDEST SWAP3 POP POP PUSH1 0x20 DUP4 ADD CALLDATALOAD PUSH8 0xFFFFFFFFFFFFFFFF DUP2 GT ISZERO PUSH2 0x1BF5 JUMPI PUSH2 0x1BF4 PUSH2 0x1A13 JUMP JUMPDEST JUMPDEST PUSH2 0x1C01 DUP6 DUP3 DUP7 ADD PUSH2 0x1B84 JUMP JUMPDEST SWAP2 POP POP SWAP3 POP SWAP3 SWAP1 POP JUMP JUMPDEST PUSH0 PUSH8 0xFFFFFFFFFFFFFFFF DUP3 GT ISZERO PUSH2 0x1C25 JUMPI PUSH2 0x1C24 PUSH2 0x1A8D JUMP JUMPDEST JUMPDEST PUSH1 0x20 DUP3 MUL SWAP1 POP PUSH1 0x20 DUP2 ADD SWAP1 POP SWAP2 SWAP1 POP JUMP JUMPDEST PUSH0 DUP1 REVERT JUMPDEST PUSH0 PUSH2 0x1C4C PUSH2 0x1C47 DUP5 PUSH2 0x1C0B JUMP JUMPDEST PUSH2 0x1AEB JUMP JUMPDEST SWAP1 POP DUP1 DUP4 DUP3 MSTORE PUSH1 0x20 DUP3 ADD SWAP1 POP PUSH1 0x20 DUP5 MUL DUP4 ADD DUP6 DUP2 GT ISZERO PUSH2 0x1C6F JUMPI PUSH2 0x1C6E PUSH2 0x1C36 JUMP JUMPDEST JUMPDEST DUP4 JUMPDEST DUP2 DUP2 LT ISZERO PUSH2 0x1CB6 JUMPI DUP1 CALLDATALOAD PUSH8 0xFFFFFFFFFFFFFFFF DUP2 GT ISZERO PUSH2 0x1C94 JUMPI PUSH2 0x1C93 PUSH2 0x1A75 JUMP JUMPDEST JUMPDEST DUP1 DUP7 ADD PUSH2 0x1CA1 DUP10 DUP3 PUSH2 0x1B84 JUMP JUMPDEST DUP6 MSTORE PUSH1 0x20 DUP6 ADD SWAP5 POP POP POP PUSH1 0x20 DUP2 ADD SWAP1 POP PUSH2 0x1C71 JUMP JUMPDEST POP POP POP SWAP4 SWAP3 POP POP POP JUMP JUMPDEST PUSH0 DUP3 PUSH1 0x1F DUP4 ADD SLT PUSH2 0x1CD4 JUMPI PUSH2 0x1CD3 PUSH2 0x1A75 JUMP JUMPDEST JUMPDEST DUP2 CALLDATALOAD PUSH2 0x1CE4 DUP5 DUP3 PUSH1 0x20 DUP7 ADD PUSH2 0x1C3A JUMP JUMPDEST SWAP2 POP POP SWAP3 SWAP2 POP POP JUMP JUMPDEST PUSH0 DUP2 ISZERO ISZERO SWAP1 POP SWAP2 SWAP1 POP JUMP JUMPDEST PUSH2 0x1D01 DUP2 PUSH2 0x1CED JUMP JUMPDEST DUP2 EQ PUSH2 0x1D0B JUMPI PUSH0 DUP1 REVERT JUMPDEST POP JUMP JUMPDEST PUSH0 DUP2 CALLDATALOAD SWAP1 POP PUSH2 0x1D1C DUP2 PUSH2 0x1CF8 JUMP JUMPDEST SWAP3 SWAP2 POP POP JUMP JUMPDEST PUSH0 DUP1 PUSH0 DUP1 PUSH1 0x80 DUP6 DUP8 SUB SLT ISZERO PUSH2 0x1D3A JUMPI PUSH2 0x1D39 PUSH2 0x1A0F JUMP JUMPDEST JUMPDEST PUSH0 DUP6 ADD CALLDATALOAD PUSH8 0xFFFFFFFFFFFFFFFF DUP2 GT ISZERO PUSH2 0x1D57 JUMPI PUSH2 0x1D56 PUSH2 0x1A13 JUMP JUMPDEST JUMPDEST PUSH2 0x1D63 DUP8 DUP3 DUP9 ADD PUSH2 0x1B84 JUMP JUMPDEST SWAP5 POP POP PUSH1 0x20 DUP6 ADD CALLDATALOAD PUSH8 0xFFFFFFFFFFFFFFFF DUP2 GT ISZERO PUSH2 0x1D84 JUMPI PUSH2 0x1D83 PUSH2 0x1A13 JUMP JUMPDEST JUMPDEST PUSH2 0x1D90 DUP8 DUP3 DUP9 ADD PUSH2 0x1CC0 JUMP JUMPDEST SWAP4 POP POP PUSH1 0x40 PUSH2 0x1DA1 DUP8 DUP3 DUP9 ADD PUSH2 0x1A36 JUMP JUMPDEST SWAP3 POP POP PUSH1 0x60 PUSH2 0x1DB2 DUP8 DUP3 DUP9 ADD PUSH2 0x1D0E JUMP JUMPDEST SWAP2 POP POP SWAP3 SWAP6 SWAP2 SWAP5 POP SWAP3 POP JUMP JUMPDEST PUSH0 PUSH20 0xFFFFFFFFFFFFFFFFFFFFFFFFFFFFFFFFFFFFFFFF DUP3 AND SWAP1 POP SWAP2 SWAP1 POP JUMP JUMPDEST PUSH0 PUSH2 0x1DE7 DUP3 PUSH2 0x1DBE JUMP JUMPDEST SWAP1 POP SWAP2 SWAP1 POP JUMP JUMPDEST PUSH2 0x1DF7 DUP2 PUSH2 0x1DDD JUMP JUMPDEST DUP2 EQ PUSH2 0x1E01 JUMPI PUSH0 DUP1 REVERT JUMPDEST POP JUMP JUMPDEST PUSH0 DUP2 CALLDATALOAD SWAP1 POP PUSH2 0x1E12 DUP2 PUSH2 0x1DEE JUMP JUMPDEST SWAP3 SWAP2 POP POP JUMP JUMPDEST PUSH0 DUP1 PUSH1 0x40 DUP4 DUP6 SUB SLT ISZERO PUSH2 0x1E2E JUMPI PUSH2 0x1E2D PUSH2 0x1A0F JUMP JUMPDEST JUMPDEST PUSH0 PUSH2 0x1E3B DUP6 DUP3 DUP7 ADD PUSH2 0x1A36 JUMP JUMPDEST SWAP3 POP POP PUSH1 0x20 PUSH2 0x1E4C DUP6 DUP3 DUP7 ADD PUSH2 0x1E04 JUMP JUMPDEST SWAP2 POP POP SWAP3 POP SWAP3 SWAP1 POP JUMP JUMPDEST PUSH2 0x1E5F DUP2 PUSH2 0x1CED JUMP JUMPDEST DUP3 MSTORE POP POP JUMP JUMPDEST PUSH0 PUSH1 0x20 DUP3 ADD SWAP1 POP PUSH2 0x1E78 PUSH0 DUP4 ADD DUP5 PUSH2 0x1E56 JUMP JUMPDEST SWAP3 SWAP2 POP POP JUMP JUMPDEST PUSH0 DUP2 MLOAD SWAP1 POP SWAP2 SWAP1 POP JUMP JUMPDEST PUSH0 DUP3 DUP3 MSTORE PUSH1 0x20 DUP3 ADD SWAP1 POP SWAP3 SWAP2 POP POP JUMP JUMPDEST PUSH0 DUP2 SWAP1 POP PUSH1 0x20 DUP3 ADD SWAP1 POP SWAP2 SWAP1 POP JUMP JUMPDEST PUSH2 0x1EB0 DUP2 PUSH2 0x1A17 JUMP JUMPDEST DUP3 MSTORE POP POP JUMP JUMPDEST PUSH0 PUSH2 0x1EC1 DUP4 DUP4 PUSH2 0x1EA7 JUMP JUMPDEST PUSH1 0x20 DUP4 ADD SWAP1 POP SWAP3 SWAP2 POP POP JUMP JUMPDEST PUSH0 PUSH1 0x20 DUP3 ADD SWAP1 POP SWAP2 SWAP1 POP JUMP JUMPDEST PUSH0 PUSH2 0x1EE3 DUP3 PUSH2 0x1E7E JUMP JUMPDEST PUSH2 0x1EED DUP2 DUP6 PUSH2 0x1E88 JUMP JUMPDEST SWAP4 POP PUSH2 0x1EF8 DUP4 PUSH2 0x1E98 JUMP JUMPDEST DUP1 PUSH0 JUMPDEST DUP4 DUP2 LT ISZERO PUSH2 0x1F28 JUMPI DUP2 MLOAD PUSH2 0x1F0F DUP9 DUP3 PUSH2 0x1EB6 JUMP JUMPDEST SWAP8 POP PUSH2 0x1F1A DUP4 PUSH2 0x1ECD JUMP JUMPDEST SWAP3 POP POP PUSH1 0x1 DUP2 ADD SWAP1 POP PUSH2 0x1EFB JUMP JUMPDEST POP DUP6 SWAP4 POP POP POP POP SWAP3 SWAP2 POP POP JUMP JUMPDEST PUSH0 PUSH1 0x20 DUP3 ADD SWAP1 POP DUP2 DUP2 SUB PUSH0 DUP4 ADD MSTORE PUSH2 0x1F4D DUP2 DUP5 PUSH2 0x1ED9 JUMP JUMPDEST SWAP1 POP SWAP3 SWAP2 POP POP JUMP JUMPDEST PUSH0 DUP2 MLOAD SWAP1 POP SWAP2 SWAP1 POP JUMP JUMPDEST PUSH0 DUP3 DUP3 MSTORE PUSH1 0x20 DUP3 ADD SWAP1 POP SWAP3 SWAP2 POP POP JUMP JUMPDEST PUSH0 DUP2 SWAP1 POP PUSH1 0x20 DUP3 ADD SWAP1 POP SWAP2 SWAP1 POP JUMP JUMPDEST PUSH0 DUP2 MLOAD SWAP1 POP SWAP2 SWAP1 POP JUMP JUMPDEST PUSH0 DUP3 DUP3 MSTORE PUSH1 0x20 DUP3 ADD SWAP1 POP SWAP3 SWAP2 POP POP JUMP JUMPDEST DUP3 DUP2 DUP4 MCOPY PUSH0 DUP4 DUP4 ADD MSTORE POP POP POP JUMP JUMPDEST PUSH0 PUSH2 0x1FB0 DUP3 PUSH2 0x1F7E JUMP JUMPDEST PUSH2 0x1FBA DUP2 DUP6 PUSH2 0x1F88 JUMP JUMPDEST SWAP4 POP PUSH2 0x1FCA DUP2 DUP6 PUSH1 0x20 DUP7 ADD PUSH2 0x1F98 JUMP JUMPDEST PUSH2 0x1FD3 DUP2 PUSH2 0x1A7D JUMP JUMPDEST DUP5 ADD SWAP2 POP POP SWAP3 SWAP2 POP POP JUMP JUMPDEST PUSH0 PUSH2 0x1FE9 DUP4 DUP4 PUSH2 0x1FA6 JUMP JUMPDEST SWAP1 POP SWAP3 SWAP2 POP POP JUMP JUMPDEST PUSH0 PUSH1 0x20 DUP3 ADD SWAP1 POP SWAP2 SWAP1 POP JUMP JUMPDEST PUSH0 PUSH2 0x2007 DUP3 PUSH2 0x1F55 JUMP JUMPDEST PUSH2 0x2011 DUP2 DUP6 PUSH2 0x1F5F JUMP JUMPDEST SWAP4 POP DUP4 PUSH1 0x20 DUP3 MUL DUP6 ADD PUSH2 0x2023 DUP6 PUSH2 0x1F6F JUMP JUMPDEST DUP1 PUSH0 JUMPDEST DUP6 DUP2 LT ISZERO PUSH2 0x205E JUMPI DUP5 DUP5 SUB DUP10 MSTORE DUP2 MLOAD PUSH2 0x203F DUP6 DUP3 PUSH2 0x1FDE JUMP JUMPDEST SWAP5 POP PUSH2 0x204A DUP4 PUSH2 0x1FF1 JUMP JUMPDEST SWAP3 POP PUSH1 0x20 DUP11 ADD SWAP10 POP POP PUSH1 0x1 DUP2 ADD SWAP1 POP PUSH2 0x2026 JUMP JUMPDEST POP DUP3 SWAP8 POP DUP8 SWAP6 POP POP POP POP POP POP SWAP3 SWAP2 POP POP JUMP JUMPDEST PUSH0 PUSH1 0x20 DUP3 ADD SWAP1 POP DUP2 DUP2 SUB PUSH0 DUP4 ADD MSTORE PUSH2 0x2088 DUP2 DUP5 PUSH2 0x1FFD JUMP JUMPDEST SWAP1 POP SWAP3 SWAP2 POP POP JUMP JUMPDEST PUSH0 DUP1 PUSH0 PUSH1 0x60 DUP5 DUP7 SUB SLT ISZERO PUSH2 0x20A7 JUMPI PUSH2 0x20A6 PUSH2 0x1A0F JUMP JUMPDEST JUMPDEST PUSH0 PUSH2 0x20B4 DUP7 DUP3 DUP8 ADD PUSH2 0x1A36 JUMP JUMPDEST SWAP4 POP POP PUSH1 0x20 PUSH2 0x20C5 DUP7 DUP3 DUP8 ADD PUSH2 0x1A36 JUMP JUMPDEST SWAP3 POP POP PUSH1 0x40 DUP5 ADD CALLDATALOAD PUSH8 0xFFFFFFFFFFFFFFFF DUP2 GT ISZERO PUSH2 0x20E6 JUMPI PUSH2 0x20E5 PUSH2 0x1A13 JUMP JUMPDEST JUMPDEST PUSH2 0x20F2 DUP7 DUP3 DUP8 ADD PUSH2 0x1B84 JUMP JUMPDEST SWAP2 POP POP SWAP3 POP SWAP3 POP SWAP3 JUMP JUMPDEST PUSH0 PUSH1 0x40 DUP3 ADD SWAP1 POP DUP2 DUP2 SUB PUSH0 DUP4 ADD MSTORE PUSH2 0x2114 DUP2 DUP6 PUSH2 0x1FFD JUMP JUMPDEST SWAP1 POP DUP2 DUP2 SUB PUSH1 0x20 DUP4 ADD MSTORE PUSH2 0x2128 DUP2 DUP5 PUSH2 0x1ED9 JUMP JUMPDEST SWAP1 POP SWAP4 SWAP3 POP POP POP JUMP JUMPDEST PUSH2 0x213A DUP2 PUSH2 0x1A17 JUMP JUMPDEST DUP3 MSTORE POP POP JUMP JUMPDEST PUSH0 PUSH1 0x20 DUP3 ADD SWAP1 POP PUSH2 0x2153 PUSH0 DUP4 ADD DUP5 PUSH2 0x2131 JUMP JUMPDEST SWAP3 SWAP2 POP POP JUMP JUMPDEST PUSH0 DUP3 DUP3 MSTORE PUSH1 0x20 DUP3 ADD SWAP1 POP SWAP3 SWAP2 POP POP JUMP JUMPDEST PUSH0 PUSH2 0x2173 DUP3 PUSH2 0x1F7E JUMP JUMPDEST PUSH2 0x217D DUP2 DUP6 PUSH2 0x2159 JUMP JUMPDEST SWAP4 POP PUSH2 0x218D DUP2 DUP6 PUSH1 0x20 DUP7 ADD PUSH2 0x1F98 JUMP JUMPDEST PUSH2 0x2196 DUP2 PUSH2 0x1A7D JUMP JUMPDEST DUP5 ADD SWAP2 POP POP SWAP3 SWAP2 POP POP JUMP JUMPDEST PUSH2 0x21AA DUP2 PUSH2 0x1DDD JUMP JUMPDEST DUP3 MSTORE POP POP JUMP JUMPDEST PUSH0 PUSH1 0xE0 DUP3 ADD SWAP1 POP DUP2 DUP2 SUB PUSH0 DUP4 ADD MSTORE PUSH2 0x21C8 DUP2 DUP11 PUSH2 0x2169 JUMP JUMPDEST SWAP1 POP DUP2 DUP2 SUB PUSH1 0x20 DUP4 ADD MSTORE PUSH2 0x21DC DUP2 DUP10 PUSH2 0x1FFD JUMP JUMPDEST SWAP1 POP PUSH2 0x21EB PUSH1 0x40 DUP4 ADD DUP9 PUSH2 0x1E56 JUMP JUMPDEST PUSH2 0x21F8 PUSH1 0x60 DUP4 ADD DUP8 PUSH2 0x21A1 JUMP JUMPDEST PUSH2 0x2205 PUSH1 0x80 DUP4 ADD DUP7 PUSH2 0x2131 JUMP JUMPDEST PUSH2 0x2212 PUSH1 0xA0 DUP4 ADD DUP6 PUSH2 0x1E56 JUMP JUMPDEST PUSH2 0x221F PUSH1 0xC0 DUP4 ADD DUP5 PUSH2 0x2131 JUMP JUMPDEST SWAP9 SWAP8 POP POP POP POP POP POP POP POP JUMP JUMPDEST PUSH32 0x4F6E6C792063726561746F7220616C6C6F776564000000000000000000000000 PUSH0 DUP3 ADD MSTORE POP JUMP JUMPDEST PUSH0 PUSH2 0x225F PUSH1 0x14 DUP4 PUSH2 0x2159 JUMP JUMPDEST SWAP2 POP PUSH2 0x226A DUP3 PUSH2 0x222B JUMP JUMPDEST PUSH1 0x20 DUP3 ADD SWAP1 POP SWAP2 SWAP1 POP JUMP JUMPDEST PUSH0 PUSH1 0x20 DUP3 ADD SWAP1 POP DUP2 DUP2 SUB PUSH0 DUP4 ADD MSTORE PUSH2 0x228C DUP2 PUSH2 0x2253 JUMP JUMPDEST SWAP1 POP SWAP2 SWAP1 POP JUMP JUMPDEST PUSH32 0x456C656374696F6E20646F6573206E6F74206578697374000000000000000000 PUSH0 DUP3 ADD MSTORE POP JUMP JUMPDEST PUSH0 PUSH2 0x22C7 PUSH1 0x17 DUP4 PUSH2 0x2159 JUMP JUMPDEST SWAP2 POP PUSH2 0x22D2 DUP3 PUSH2 0x2293 JUMP JUMPDEST PUSH1 0x20 DUP3 ADD SWAP1 POP SWAP2 SWAP1 POP JUMP JUMPDEST PUSH0 PUSH1 0x20 DUP3 ADD SWAP1 POP DUP2 DUP2 SUB PUSH0 DUP4 ADD MSTORE PUSH2 0x22F4 DUP2 PUSH2 0x22BB JUMP JUMPDEST SWAP1 POP SWAP2 SWAP1 POP JUMP JUMPDEST PUSH32 0x456C656374696F6E20616C726561647920636C6F736564000000000000000000 PUSH0 DUP3 ADD MSTORE POP JUMP JUMPDEST PUSH0 PUSH2 0x232F PUSH1 0x17 DUP4 PUSH2 0x2159 JUMP JUMPDEST SWAP2 POP PUSH2 0x233A DUP3 PUSH2 0x22FB JUMP JUMPDEST PUSH1 0x20 DUP3 ADD SWAP1 POP SWAP2 SWAP1 POP JUMP JUMPDEST PUSH0 PUSH1 0x20 DUP3 ADD SWAP1 POP DUP2 DUP2 SUB PUSH0 DUP4 ADD MSTORE PUSH2 0x235C DUP2 PUSH2 0x2323 JUMP JUMPDEST SWAP1 POP SWAP2 SWAP1 POP JUMP JUMPDEST PUSH32 0x456C656374696F6E20697320636C6F7365640000000000000000000000000000 PUSH0 DUP3 ADD MSTORE POP JUMP JUMPDEST PUSH0 PUSH2 0x2397 PUSH1 0x12 DUP4 PUSH2 0x2159 JUMP JUMPDEST SWAP2 POP PUSH2 0x23A2 DUP3 PUSH2 0x2363 JUMP JUMPDEST PUSH1 0x20 DUP3 ADD SWAP1 POP SWAP2 SWAP1 POP JUMP JUMPDEST PUSH0 PUSH1 0x20 DUP3 ADD SWAP1 POP DUP2 DUP2 SUB PUSH0 DUP4 ADD MSTORE PUSH2 0x23C4 DUP2 PUSH2 0x238B JUMP JUMPDEST SWAP1 POP SWAP2 SWAP1 POP JUMP JUMPDEST PUSH32 0x456C656374696F6E2068617320656E6465640000000000000000000000000000 PUSH0 DUP3 ADD MSTORE POP JUMP JUMPDEST PUSH0 PUSH2 0x23FF PUSH1 0x12 DUP4 PUSH2 0x2159 JUMP JUMPDEST SWAP2 POP PUSH2 0x240A DUP3 PUSH2 0x23CB JUMP JUMPDEST PUSH1 0x20 DUP3 ADD SWAP1 POP SWAP2 SWAP1 POP JUMP JUMPDEST PUSH0 PUSH1 0x20 DUP3 ADD SWAP1 POP DUP2 DUP2 SUB PUSH0 DUP4 ADD MSTORE PUSH2 0x242C DUP2 PUSH2 0x23F3 JUMP JUMPDEST SWAP1 POP SWAP2 SWAP1 POP JUMP JUMPDEST PUSH32 0x416C726561647920766F74656400000000000000000000000000000000000000 PUSH0 DUP3 ADD MSTORE POP JUMP JUMPDEST PUSH0 PUSH2 0x2467 PUSH1 0xD DUP4 PUSH2 0x2159 JUMP JUMPDEST SWAP2 POP PUSH2 0x2472 DUP3 PUSH2 0x2433 JUMP JUMPDEST PUSH1 0x20 DUP3 ADD SWAP1 POP SWAP2 SWAP1 POP JUMP JUMPDEST PUSH0 PUSH1 0x20 DUP3 ADD SWAP1 POP DUP2 DUP2 SUB PUSH0 DUP4 ADD MSTORE PUSH2 0x2494 DUP2 PUSH2 0x245B JUMP JUMPDEST SWAP1 POP SWAP2 SWAP1 POP JUMP JUMPDEST PUSH32 0x4E487B7100000000000000000000000000000000000000000000000000000000 PUSH0 MSTORE PUSH1 0x32 PUSH1 0x4 MSTORE PUSH1 0x24 PUSH0 REVERT JUMPDEST PUSH32 0x4E487B7100000000000000000000000000000000000000000000000000000000 PUSH0 MSTORE PUSH1 0x22 PUSH1 0x4 MSTORE PUSH1 0x24 PUSH0 REVERT JUMPDEST PUSH0 PUSH1 0x2 DUP3 DIV SWAP1 POP PUSH1 0x1 DUP3 AND DUP1 PUSH2 0x250C JUMPI PUSH1 0x7F DUP3 AND SWAP2 POP JUMPDEST PUSH1 0x20 DUP3 LT DUP2 SUB PUSH2 0x251F JUMPI PUSH2 0x251E PUSH2 0x24C8 JUMP JUMPDEST JUMPDEST POP SWAP2 SWAP1 POP JUMP JUMPDEST PUSH0 DUP2 SWAP1 POP SWAP3 SWAP2 POP POP JUMP JUMPDEST PUSH0 DUP2 SWAP1 POP DUP2 PUSH0 MSTORE PUSH1 0x20 PUSH0 KECCAK256 SWAP1 POP SWAP2 SWAP1 POP JUMP JUMPDEST PUSH0 DUP2 SLOAD PUSH2 0x254D DUP2 PUSH2 0x24F5 JUMP JUMPDEST PUSH2 0x2557 DUP2 DUP7 PUSH2 0x2525 JUMP JUMPDEST SWAP5 POP PUSH1 0x1 DUP3 AND PUSH0 DUP2 EQ PUSH2 0x2571 JUMPI PUSH1 0x1 DUP2 EQ PUSH2 0x2586 JUMPI PUSH2 0x25B8 JUMP JUMPDEST PUSH1 0xFF NOT DUP4 AND DUP7 MSTORE DUP2 ISZERO ISZERO DUP3 MUL DUP7 ADD SWAP4 POP PUSH2 0x25B8 JUMP JUMPDEST PUSH2 0x258F DUP6 PUSH2 0x252F JUMP JUMPDEST PUSH0 JUMPDEST DUP4 DUP2 LT ISZERO PUSH2 0x25B0 JUMPI DUP2 SLOAD DUP2 DUP10 ADD MSTORE PUSH1 0x1 DUP3 ADD SWAP2 POP PUSH1 0x20 DUP2 ADD SWAP1 POP PUSH2 0x2591 JUMP JUMPDEST DUP4 DUP9 ADD SWAP6 POP POP POP JUMPDEST POP POP POP SWAP3 SWAP2 POP POP JUMP JUMPDEST PUSH0 PUSH2 0x25CC DUP3 DUP5 PUSH2 0x2541 JUMP JUMPDEST SWAP2 POP DUP2 SWAP1 POP SWAP3 SWAP2 POP POP JUMP JUMPDEST PUSH32 0x496E76616C6964206F7074696F6E000000000000000000000000000000000000 PUSH0 DUP3 ADD MSTORE POP JUMP JUMPDEST PUSH0 PUSH2 0x260B PUSH1 0xE DUP4 PUSH2 0x2159 JUMP JUMPDEST SWAP2 POP PUSH2 0x2616 DUP3 PUSH2 0x25D7 JUMP JUMPDEST PUSH1 0x20 DUP3 ADD SWAP1 POP SWAP2 SWAP1 POP JUMP JUMPDEST PUSH0 PUSH1 0x20 DUP3 ADD SWAP1 POP DUP2 DUP2 SUB PUSH0 DUP4 ADD MSTORE PUSH2 0x2638 DUP2 PUSH2 0x25FF JUMP JUMPDEST SWAP1 POP SWAP2 SWAP1 POP JUMP JUMPDEST PUSH0 DUP2 SWAP1 POP SWAP3 SWAP2 POP POP JUMP JUMPDEST PUSH0 PUSH2 0x2653 DUP3 PUSH2 0x1F7E JUMP JUMPDEST PUSH2 0x265D DUP2 DUP6 PUSH2 0x263F JUMP JUMPDEST SWAP4 POP PUSH2 0x266D DUP2 DUP6 PUSH1 0x20 DUP7 ADD PUSH2 0x1F98 JUMP JUMPDEST DUP1 DUP5 ADD SWAP2 POP POP SWAP3 SWAP2 POP POP JUMP JUMPDEST PUSH0 PUSH2 0x2684 DUP3 DUP5 PUSH2 0x2649 JUMP JUMPDEST SWAP2 POP DUP2 SWAP1 POP SWAP3 SWAP2 POP POP JUMP JUMPDEST PUSH32 0x4E487B7100000000000000000000000000000000000000000000000000000000 PUSH0 MSTORE PUSH1 0x11 PUSH1 0x4 MSTORE PUSH1 0x24 PUSH0 REVERT JUMPDEST PUSH0 PUSH2 0x26C6 DUP3 PUSH2 0x1A17 JUMP JUMPDEST SWAP2 POP PUSH32 0xFFFFFFFFFFFFFFFFFFFFFFFFFFFFFFFFFFFFFFFFFFFFFFFFFFFFFFFFFFFFFFFF DUP3 SUB PUSH2 0x26F8 JUMPI PUSH2 0x26F7 PUSH2 0x268F JUMP JUMPDEST JUMPDEST PUSH1 0x1 DUP3 ADD SWAP1 POP SWAP2 SWAP1 POP JUMP JUMPDEST PUSH0 PUSH1 0x20 DUP3 ADD SWAP1 POP DUP2 DUP2 SUB PUSH0 DUP4 ADD MSTORE PUSH2 0x271B DUP2 DUP5 PUSH2 0x2169 JUMP JUMPDEST SWAP1 POP SWAP3 SWAP2 POP POP JUMP JUMPDEST PUSH32 0x4174206C656173742032206F7074696F6E732072657175697265640000000000 PUSH0 DUP3 ADD MSTORE POP JUMP JUMPDEST PUSH0 PUSH2 0x2757 PUSH1 0x1B DUP4 PUSH2 0x2159 JUMP JUMPDEST SWAP2 POP PUSH2 0x2762 DUP3 PUSH2 0x2723 JUMP JUMPDEST PUSH1 0x20 DUP3 ADD SWAP1 POP SWAP2 SWAP1 POP JUMP JUMPDEST PUSH0 PUSH1 0x20 DUP3 ADD SWAP1 POP DUP2 DUP2 SUB PUSH0 DUP4 ADD MSTORE PUSH2 0x2784 DUP2 PUSH2 0x274B JUMP JUMPDEST SWAP1 POP SWAP2 SWAP1 POP JUMP JUMPDEST PUSH0 DUP2 SWAP1 POP DUP2 PUSH0 MSTORE PUSH1 0x20 PUSH0 KECCAK256 SWAP1 POP SWAP2 SWAP1 POP JUMP JUMPDEST PUSH0 PUSH1 0x20 PUSH1 0x1F DUP4 ADD DIV SWAP1 POP SWAP2 SWAP1 POP JUMP JUMPDEST PUSH0 DUP3 DUP3 SHL SWAP1 POP SWAP3 SWAP2 POP POP JUMP JUMPDEST PUSH0 PUSH1 0x8 DUP4 MUL PUSH2 0x27E7 PUSH32 0xFFFFFFFFFFFFFFFFFFFFFFFFFFFFFFFFFFFFFFFFFFFFFFFFFFFFFFFFFFFFFFFF DUP3 PUSH2 0x27AC JUMP JUMPDEST PUSH2 0x27F1 DUP7 DUP4 PUSH2 0x27AC JUMP JUMPDEST SWAP6 POP DUP1 NOT DUP5 AND SWAP4 POP DUP1 DUP7 AND DUP5 OR SWAP3 POP POP POP SWAP4 SWAP3 POP POP POP JUMP JUMPDEST PUSH0 DUP2 SWAP1 POP SWAP2 SWAP1 POP JUMP JUMPDEST PUSH0 PUSH2 0x282C PUSH2 0x2827 PUSH2 0x2822 DUP5 PUSH2 0x1A17 JUMP JUMPDEST PUSH2 0x2809 JUMP JUMPDEST PUSH2 0x1A17 JUMP JUMPDEST SWAP1 POP SWAP2 SWAP1 POP JUMP JUMPDEST PUSH0 DUP2 SWAP1 POP SWAP2 SWAP1 POP JUMP JUMPDEST PUSH2 0x2845 DUP4 PUSH2 0x2812 JUMP JUMPDEST PUSH2 0x2859 PUSH2 0x2851 DUP3 PUSH2 0x2833 JUMP JUMPDEST DUP5 DUP5 SLOAD PUSH2 0x27B8 JUMP JUMPDEST DUP3 SSTORE POP POP POP POP JUMP JUMPDEST PUSH0 SWAP1 JUMP JUMPDEST PUSH2 0x286D PUSH2 0x2861 JUMP JUMPDEST PUSH2 0x2878 DUP2 DUP5 DUP5 PUSH2 0x283C JUMP JUMPDEST POP POP POP JUMP JUMPDEST JUMPDEST DUP2 DUP2 LT ISZERO PUSH2 0x289B JUMPI PUSH2 0x2890 PUSH0 DUP3 PUSH2 0x2865 JUMP JUMPDEST PUSH1 0x1 DUP2 ADD SWAP1 POP PUSH2 0x287E JUMP JUMPDEST POP POP JUMP JUMPDEST PUSH1 0x1F DUP3 GT ISZERO PUSH2 0x28E0 JUMPI PUSH2 0x28B1 DUP2 PUSH2 0x278B JUMP JUMPDEST PUSH2 0x28BA DUP5 PUSH2 0x279D JUMP JUMPDEST DUP2 ADD PUSH1 0x20 DUP6 LT ISZERO PUSH2 0x28C9 JUMPI DUP2 SWAP1 POP JUMPDEST PUSH2 0x28DD PUSH2 0x28D5 DUP6 PUSH2 0x279D JUMP JUMPDEST DUP4 ADD DUP3 PUSH2 0x287D JUMP JUMPDEST POP POP JUMPDEST POP POP POP JUMP JUMPDEST PUSH0 DUP3 DUP3 SHR SWAP1 POP SWAP3 SWAP2 POP POP JUMP JUMPDEST PUSH0 PUSH2 0x2900 PUSH0 NOT DUP5 PUSH1 0x8 MUL PUSH2 0x28E5 JUMP JUMPDEST NOT DUP1 DUP4 AND SWAP2 POP POP SWAP3 SWAP2 POP POP JUMP JUMPDEST PUSH0 PUSH2 0x2918 DUP4 DUP4 PUSH2 0x28F1 JUMP JUMPDEST SWAP2 POP DUP3 PUSH1 0x2 MUL DUP3 OR SWAP1 POP SWAP3 SWAP2 POP POP JUMP JUMPDEST PUSH2 0x2931 DUP3 PUSH2 0x1F7E JUMP JUMPDEST PUSH8 0xFFFFFFFFFFFFFFFF DUP2 GT ISZERO PUSH2 0x294A JUMPI PUSH2 0x2949 PUSH2 0x1A8D JUMP JUMPDEST JUMPDEST PUSH2 0x2954 DUP3 SLOAD PUSH2 0x24F5 JUMP JUMPDEST PUSH2 0x295F DUP3 DUP3 DUP6 PUSH2 0x289F JUMP JUMPDEST PUSH0 PUSH1 0x20 SWAP1 POP PUSH1 0x1F DUP4 GT PUSH1 0x1 DUP2 EQ PUSH2 0x2990 JUMPI PUSH0 DUP5 ISZERO PUSH2 0x297E JUMPI DUP3 DUP8 ADD MLOAD SWAP1 POP JUMPDEST PUSH2 0x2988 DUP6 DUP3 PUSH2 0x290D JUMP JUMPDEST DUP7 SSTORE POP PUSH2 0x29EF JUMP JUMPDEST PUSH1 0x1F NOT DUP5 AND PUSH2 0x299E DUP7 PUSH2 0x278B JUMP JUMPDEST PUSH0 JUMPDEST DUP3 DUP2 LT ISZERO PUSH2 0x29C5 JUMPI DUP5 DUP10 ADD MLOAD DUP3 SSTORE PUSH1 0x1 DUP3 ADD SWAP2 POP PUSH1 0x20 DUP6 ADD SWAP5 POP PUSH1 0x20 DUP2 ADD SWAP1 POP PUSH2 0x29A0 JUMP JUMPDEST DUP7 DUP4 LT ISZERO PUSH2 0x29E2 JUMPI DUP5 DUP10 ADD MLOAD PUSH2 0x29DE PUSH1 0x1F DUP10 AND DUP3 PUSH2 0x28F1 JUMP JUMPDEST DUP4 SSTORE POP JUMPDEST PUSH1 0x1 PUSH1 0x2 DUP9 MUL ADD DUP9 SSTORE POP POP POP JUMPDEST POP POP POP POP POP POP JUMP JUMPDEST PUSH0 PUSH2 0x2A01 DUP3 PUSH2 0x1A17 JUMP JUMPDEST SWAP2 POP PUSH2 0x2A0C DUP4 PUSH2 0x1A17 JUMP JUMPDEST SWAP3 POP DUP3 DUP3 ADD SWAP1 POP DUP1 DUP3 GT ISZERO PUSH2 0x2A24 JUMPI PUSH2 0x2A23 PUSH2 0x268F JUMP JUMPDEST JUMPDEST SWAP3 SWAP2 POP POP JUMP JUMPDEST PUSH0 PUSH1 0x60 DUP3 ADD SWAP1 POP DUP2 DUP2 SUB PUSH0 DUP4 ADD MSTORE PUSH2 0x2A42 DUP2 DUP7 PUSH2 0x2169 JUMP JUMPDEST SWAP1 POP PUSH2 0x2A51 PUSH1 0x20 DUP4 ADD DUP6 PUSH2 0x2131 JUMP JUMPDEST PUSH2 0x2A5E PUSH1 0x40 DUP4 ADD DUP5 PUSH2 0x1E56 JUMP JUMPDEST SWAP5 SWAP4 POP POP POP POP JUMP JUMPDEST PUSH0 DUP2 SLOAD PUSH2 0x2A72 DUP2 PUSH2 0x24F5 JUMP JUMPDEST PUSH2 0x2A7C DUP2 DUP7 PUSH2 0x263F JUMP JUMPDEST SWAP5 POP PUSH1 0x1 DUP3 AND PUSH0 DUP2 EQ PUSH2 0x2A96 JUMPI PUSH1 0x1 DUP2 EQ PUSH2 0x2AAB JUMPI PUSH2 0x2ADD JUMP JUMPDEST PUSH1 0xFF NOT DUP4 AND DUP7 MSTORE DUP2 ISZERO ISZERO DUP3 MUL DUP7 ADD SWAP4 POP PUSH2 0x2ADD JUMP JUMPDEST PUSH2 0x2AB4 DUP6 PUSH2 0x278B JUMP JUMPDEST PUSH0 JUMPDEST DUP4 DUP2 LT ISZERO PUSH2 0x2AD5 JUMPI DUP2 SLOAD DUP2 DUP10 ADD MSTORE PUSH1 0x1 DUP3 ADD SWAP2 POP PUSH1 0x20 DUP2 ADD SWAP1 POP PUSH2 0x2AB6 JUMP JUMPDEST DUP4 DUP9 ADD SWAP6 POP POP POP JUMPDEST POP POP POP SWAP3 SWAP2 POP POP JUMP JUMPDEST PUSH0 PUSH2 0x2AF1 DUP3 DUP5 PUSH2 0x2A66 JUMP JUMPDEST SWAP2 POP DUP2 SWAP1 POP SWAP3 SWAP2 POP POP JUMP JUMPDEST PUSH32 0x456C656374696F6E2068617320766F7465732C2063616E6E6F742064656C6574 PUSH0 DUP3 ADD MSTORE PUSH32 0x6500000000000000000000000000000000000000000000000000000000000000 PUSH1 0x20 DUP3 ADD MSTORE POP JUMP JUMPDEST PUSH0 PUSH2 0x2B56 PUSH1 0x21 DUP4 PUSH2 0x2159 JUMP JUMPDEST SWAP2 POP PUSH2 0x2B61 DUP3 PUSH2 0x2AFC JUMP JUMPDEST PUSH1 0x40 DUP3 ADD SWAP1 POP SWAP2 SWAP1 POP JUMP JUMPDEST PUSH0 PUSH1 0x20 DUP3 ADD SWAP1 POP DUP2 DUP2 SUB PUSH0 DUP4 ADD MSTORE PUSH2 0x2B83 DUP2 PUSH2 0x2B4A JUMP JUMPDEST SWAP1 POP SWAP2 SWAP1 POP JUMP JUMPDEST PUSH32 0x496E76616C6964206F7074696F6E20696E646578000000000000000000000000 PUSH0 DUP3 ADD MSTORE POP JUMP JUMPDEST PUSH0 PUSH2 0x2BBE PUSH1 0x14 DUP4 PUSH2 0x2159 JUMP JUMPDEST SWAP2 POP PUSH2 0x2BC9 DUP3 PUSH2 0x2B8A JUMP JUMPDEST PUSH1 0x20 DUP3 ADD SWAP1 POP SWAP2 SWAP1 POP JUMP JUMPDEST PUSH0 PUSH1 0x20 DUP3 ADD SWAP1 POP DUP2 DUP2 SUB PUSH0 DUP4 ADD MSTORE PUSH2 0x2BEB DUP2 PUSH2 0x2BB2 JUMP JUMPDEST SWAP1 POP SWAP2 SWAP1 POP JUMP JUMPDEST PUSH32 0x43616E6E6F74206368616E6765206F7074696F6E7320616674657220766F7469 PUSH0 DUP3 ADD MSTORE PUSH32 0x6E67207374617274656400000000000000000000000000000000000000000000 PUSH1 0x20 DUP3 ADD MSTORE POP JUMP JUMPDEST PUSH0 PUSH2 0x2C4C PUSH1 0x2A DUP4 PUSH2 0x2159 JUMP JUMPDEST SWAP2 POP PUSH2 0x2C57 DUP3 PUSH2 0x2BF2 JUMP JUMPDEST PUSH1 0x40 DUP3 ADD SWAP1 POP SWAP2 SWAP1 POP JUMP JUMPDEST PUSH0 PUSH1 0x20 DUP3 ADD SWAP1 POP DUP2 DUP2 SUB PUSH0 DUP4 ADD MSTORE PUSH2 0x2C79 DUP2 PUSH2 0x2C40 JUMP JUMPDEST SWAP1 POP SWAP2 SWAP1 POP JUMP JUMPDEST PUSH32 0x43616E6E6F742072656E616D6520616674657220766F74696E67207374617274 PUSH0 DUP3 ADD MSTORE PUSH32 0x6564000000000000000000000000000000000000000000000000000000000000 PUSH1 0x20 DUP3 ADD MSTORE POP JUMP JUMPDEST PUSH0 PUSH2 0x2CDA PUSH1 0x22 DUP4 PUSH2 0x2159 JUMP JUMPDEST SWAP2 POP PUSH2 0x2CE5 DUP3 PUSH2 0x2C80 JUMP JUMPDEST PUSH1 0x40 DUP3 ADD SWAP1 POP SWAP2 SWAP1 POP JUMP JUMPDEST PUSH0 PUSH1 0x20 DUP3 ADD SWAP1 POP DUP2 DUP2 SUB PUSH0 DUP4 ADD MSTORE PUSH2 0x2D07 DUP2 PUSH2 0x2CCE JUMP JUMPDEST SWAP1 POP SWAP2 SWAP1 POP JUMP INVALID LOG2 PUSH5 0x6970667358 0x22 SLT KECCAK256 0xB6 0xAD PUSH26 0xEEDA3E904D957BFE5FCBA0F658D2E05439C497A347C86BBA13E5 0xA9 0xAB ADD PUSH5 0x736F6C6343 STOP ADDMOD BYTE STOP CALLER "
				},
				"gasEstimates": {
					"creation": {
						"codeDepositCost": "2317600",
						"executionCost": "2484",
						"totalCost": "2320084"
					},
					"external": {
						"changeElectionName(uint256,string)": "infinite",
						"changeOptionName(uint256,uint256,string)": "infinite",
						"closeElection(uint256)": "32542",
						"createElection(string,string[],uint256,bool)": "infinite",
						"deleteElection(uint256)": "infinite",
						"electionCount()": "2469",
						"getActiveElections()": "infinite",
						"getElectionInfo(uint256)": "infinite",
						"getInactiveElections()": "infinite",
						"getResults(uint256)": "infinite",
						"getWinners(uint256)": "infinite",
						"hasVoted(uint256,address)": "5351",
						"vote(uint256,string)": "infinite"
					}
				},
				"methodIdentifiers": {
					"changeElectionName(uint256,string)": "d02fbae3",
					"changeOptionName(uint256,uint256,string)": "7b553792",
					"closeElection(uint256)": "09e33d07",
					"createElection(string,string[],uint256,bool)": "40f46a4f",
					"deleteElection(uint256)": "740c47d4",
					"electionCount()": "997d2830",
					"getActiveElections()": "8a3b63b0",
					"getElectionInfo(uint256)": "ce99b5df",
					"getInactiveElections()": "5c0487c8",
					"getResults(uint256)": "81a60c0d",
					"getWinners(uint256)": "6b1426a4",
					"hasVoted(uint256,address)": "43859632",
					"vote(uint256,string)": "24108475"
				}
			},
			"storageLayout": {
				"storage": [
					{
						"astId": 30,
						"contract": "contracts/voting.sol:Voting",
						"label": "elections",
						"offset": 0,
						"slot": "0",
						"type": "t_mapping(t_uint256,t_struct(Election)25_storage)"
					},
					{
						"astId": 32,
						"contract": "contracts/voting.sol:Voting",
						"label": "electionCount",
						"offset": 0,
						"slot": "1",
						"type": "t_uint256"
					}
				],
				"types": {
					"t_address": {
						"encoding": "inplace",
						"label": "address",
						"numberOfBytes": "20"
					},
					"t_array(t_string_storage)dyn_storage": {
						"base": "t_string_storage",
						"encoding": "dynamic_array",
						"label": "string[]",
						"numberOfBytes": "32"
					},
					"t_bool": {
						"encoding": "inplace",
						"label": "bool",
						"numberOfBytes": "1"
					},
					"t_mapping(t_address,t_bool)": {
						"encoding": "mapping",
						"key": "t_address",
						"label": "mapping(address => bool)",
						"numberOfBytes": "32",
						"value": "t_bool"
					},
					"t_mapping(t_string_memory_ptr,t_uint256)": {
						"encoding": "mapping",
						"key": "t_string_memory_ptr",
						"label": "mapping(string => uint256)",
						"numberOfBytes": "32",
						"value": "t_uint256"
					},
					"t_mapping(t_uint256,t_struct(Election)25_storage)": {
						"encoding": "mapping",
						"key": "t_uint256",
						"label": "mapping(uint256 => struct Voting.Election)",
						"numberOfBytes": "32",
						"value": "t_struct(Election)25_storage"
					},
					"t_string_memory_ptr": {
						"encoding": "bytes",
						"label": "string",
						"numberOfBytes": "32"
					},
					"t_string_storage": {
						"encoding": "bytes",
						"label": "string",
						"numberOfBytes": "32"
					},
					"t_struct(Election)25_storage": {
						"encoding": "inplace",
						"label": "struct Voting.Election",
						"members": [
							{
								"astId": 3,
								"contract": "contracts/voting.sol:Voting",
								"label": "name",
								"offset": 0,
								"slot": "0",
								"type": "t_string_storage"
							},
							{
								"astId": 6,
								"contract": "contracts/voting.sol:Voting",
								"label": "options",
								"offset": 0,
								"slot": "1",
								"type": "t_array(t_string_storage)dyn_storage"
							},
							{
								"astId": 10,
								"contract": "contracts/voting.sol:Voting",
								"label": "votes",
								"offset": 0,
								"slot": "2",
								"type": "t_mapping(t_string_memory_ptr,t_uint256)"
							},
							{
								"astId": 14,
								"contract": "contracts/voting.sol:Voting",
								"label": "hasVoted",
								"offset": 0,
								"slot": "3",
								"type": "t_mapping(t_address,t_bool)"
							},
							{
								"astId": 16,
								"contract": "contracts/voting.sol:Voting",
								"label": "active",
								"offset": 0,
								"slot": "4",
								"type": "t_bool"
							},
							{
								"astId": 18,
								"contract": "contracts/voting.sol:Voting",
								"label": "creator",
								"offset": 1,
								"slot": "4",
								"type": "t_address"
							},
							{
								"astId": 20,
								"contract": "contracts/voting.sol:Voting",
								"label": "endTime",
								"offset": 0,
								"slot": "5",
								"type": "t_uint256"
							},
							{
								"astId": 22,
								"contract": "contracts/voting.sol:Voting",
								"label": "isAnonymous",
								"offset": 0,
								"slot": "6",
								"type": "t_bool"
							},
							{
								"astId": 24,
								"contract": "contracts/voting.sol:Voting",
								"label": "totalVotes",
								"offset": 0,
								"slot": "7",
								"type": "t_uint256"
							}
						],
						"numberOfBytes": "256"
					},
					"t_uint256": {
						"encoding": "inplace",
						"label": "uint256",
						"numberOfBytes": "32"
					}
				}
			},
			"userdoc": {
				"kind": "user",
				"methods": {},
				"version": 1
			}
		}
	}
}